:020000040002F8
:1060000090750020DD630200E5630200E763020093
:10601000E9630200EB630200ED6302000000000090
:10602000000000000000000000000000EF6302001C
:10603000F163020000000000F3630200F563020058
:10604000A9670200F7630200516B0200F7630200C8
:10605000F7630200F76302008D650200F763020038
:10606000F7630200F7630200F7630200F7630200C0
:10607000F7630200F7630200F7630200F7630200B0
:10608000F7630200FD670200F7630200F763020096
:10609000F7630200F7630200A1680200F7630200E1
:1060A000F7630200F7630200F7630200F763020080
:1060B000F7630200F7630200000000000000000028
:1060C000F7630200F7630200F7630200F763020060
:1060D000F7630200F7630200F763020000000000AC
:1060E00000000000000000000000000000000000B0
:1060F00000000000000000000000000000000000A0
:10610000000000000000000000000000000000008F
:10611000000000000000000000000000000000007F
:10612000000000000000000000000000000000006F
:10613000000000000000000000000000000000005F
:10614000000000000000000000000000000000004F
:10615000000000000000000000000000000000003F
:10616000000000000000000000000000000000002F
:10617000000000000000000000000000000000001F
:10618000000000000000000000000000000000000F
:1061900000000000000000000000000000000000FF
:1061A00000000000000000000000000000000000EF
:1061B00000000000000000000000000000000000DF
:1061C00000000000000000000000000000000000CF
:1061D00000000000000000000000000000000000BF
:1061E00000000000000000000000000000000000AF
:1061F000000000000000000000000000000000009F
:10620000DFF80CD000F084F90048004765A90200CF
:106210009075002000B583B002900091019244F285
:10622000010071466A4600F0E5FE03B000BD0000C3
:1062300030B450E8012F93B2C48923448489A34227
:1062400028BF1B1B0489A34202BFBFF32F8F00206E
:1062500007E0C3EA020340E80134002CE9D14FF023
:1062600001000A6030BC704750E8012FC2EA0242C8
:1062700040E801210029F7D1704730B450E8022FDF
:106280001FFAA2F3C488A34202BFBFF32F8F0020DE
:106290000DE0C48923448489A34228BF1B1BC2EAA2
:1062A000034340E80234002CE8D14FF001000A60BB
:1062B00030BC704750E8022FC2EA224240E8022177
:1062C0000029F7D17047034653E8022FD988B2EB73
:1062D000324F4FF0000017BF92B241EA014142EA4B
:1062E000014104E05A68B2EB324F08BF012043E895
:1062F0000212002AE8D1704730B4044654E8000F77
:106300000D4644E80053002BF8D1156030BC7047AF
:1063100030B4044654E8000F40EA010544E8005355
:10632000002BF7D1156030BC704730B4044654E8F8
:10633000000F00EA010544E80053002BF7D1156077
:1063400030BC704730B4044654E8000F80EA0105C1
:1063500044E80053002BF7D1156030BC704730B4CF
:10636000044654E8000F00EB010544E80053002BFD
:10637000F7D1156030BC704730B4044654E8000FC4
:10638000A0EB010544E80053002BF7D1156030BCA9
:10639000704770B404464FF0000054E8006F0D6879
:1063A000AE4207BF44E80023012044E800630E60CA
:1063B000002B1CBF0020F0E770BC704730B40446CF
:1063C00054E8000F88422CBF451A054644E80053A4
:1063D000002BF5D1156030BC70470000064880479F
:1063E00006480047FEE7FEE7FEE7FEE7FEE7FEE7BA
:1063F000FEE7FEE7FEE7FEE7B96802000162020081
:106400002DE9F05F0546002092469B4688460646E9
:10641000814640241BE0284641464746224600F07C
:1064200067F853465A46C01A914110D31146184690
:10643000224600F016F82D1A67EB01084F46224657
:106440000120002100F00DF817EB00094E41201E3D
:10645000A4F10104DFDC484631462A464346BDE844
:10646000F09F202A04DB203A00FA02F10020704756
:106470009140C2F1200320FA03F319439040704782
:1064800000487047B4F9020040EA01039B0703D0BB
:1064900009E008C9121F08C0042AFAD203E011F863
:1064A000013B00F8013B521EF9D27047D2B201E025
:1064B00000F8012B491EFBD270470022F6E710B509
:1064C00013460A4604461946FFF7F0FF204610BD62
:1064D000421C10F8011B0029FBD1801A70470346AB
:1064E00011F8012B00F8012B002AF9D1184670474A
:1064F000202A04DB203A21FA02F00021704721FA19
:1065000002F3D040C2F1200291400843194670477F
:10651000064C074D06E0E06840F0010394E80700F0
:1065200098471034AC42F6D3FFF76EFE3C020300EE
:106530005C02030070B58C1810F8015B15F00703BE
:1065400001D110F8013B2A1106D110F8012B03E00C
:1065500010F8016B01F8016B5B1EF9D12B0705D414
:106560000023521E0DD401F8013BFAE710F8013B5D
:10657000CB1A921C03E013F8015B01F8015B521E79
:10658000F9D5A142D8D3002070BD00002DE9F04F0D
:1065900089B00027002008904FF4807007900126F2
:1065A000002412E0079805F079F940B100BF7B485C
:1065B0000068304018B1079805F062F9374376005B
:1065C0000798001D80B20790641C082CEAD34FF492
:1065D000BE7005F063F950B14FF4BE7005F050F98C
:1065E00047F0004708AA0121002005F02FF9F8B272
:1065F00000B3012600241BE006EA0700B0B100BF8B
:10660000674850F82400C0F30420804600BF644867
:1066100050F82400C0F301408146204602F07CFE81
:10662000054615B149464046A84700BF7600641CA0
:10663000082CE1D307F0004000287DD00020069010
:106640000590002505E04FF0FF3004A941F8250032
:106650006D1C002DF7D000BF0020069000245FE0E5
:106660005048005D0390039820F0C0094D48005742
:10667000401C002853D004A9484604F019FC002807
:106680004DD003984FEA901A484602F08DFE80469E
:1066900002F042FE0290029810B9BAF1030F3DD108
:1066A000BAF1030F03D105A9484604F00CFC00BF62
:1066B00000BF4FF0A041084600F5E06151F82910F5
:1066C000C1F3014800BF08A9484604F0F1FB834626
:1066D000BBF1000F02D0B8F1020F05D0BBF1000FE3
:1066E0001BD1B8F1030F18D1BAF1030F0FD1B8F1D4
:1066F000020F01D1032000E00220019048460199D9
:1067000005F04BF80698401CC0B2069000BF0298F6
:1067100018B151464846029A904700BF00BF641C1A
:10672000042C9DD3069888B34FF0010803AA0121D9
:10673000002005F08BF800E02DE000250BE003A819
:1067400050F8250008A951F82510884202D04FF0D2
:10675000000802E06D1C002DF1D000BFB8F1000F61
:1067600002D00020069010E000250CE003A850F8AD
:10677000250008A941F8250005A850F8250004A91E
:1067800041F825006D1C002DF0D000BF06980028B0
:106790007FF462AF00BF09B0BDE8F08F0463004032
:1067A00010650040B84B002010B54FF4807004F025
:1067B000AAFC80B14FF4807004F0AEFC012004F01C
:1067C000B5FC0D48407930B901200B4948710846A5
:1067D0000168002088474FF4827004F094FC50B1A7
:1067E0004FF4827004F098FC022004F09FFC0248F1
:1067F00001680120884710BDE041002010B5034A20
:106800001068034A1168884710BD00004C42002000
:106810004842002010B500F0A3F910BD2DE9F04763
:10682000074688461646C24607EB47011B4800EB61
:10683000C109D9F8140020B1012811D0022826D1AD
:106840001EE0484600F0C4F90546B54201D20024D6
:1068500005E0344632465146484600F000FA18E05A
:10686000484600F0B5F90546B54201D2284600E099
:106870003046044622465146484600F0F0F908E00A
:1068800032465146484600F0B1F9044601E0002482
:1068900000BF00BF2046BDE8F0870000DC520020AA
:1068A00010B505F07BFF10BD014802490860704734
:1068B0000090D003CC42002010B503F07BFA28B141
:1068C00092480088C0F304209149086003F0CEFA92
:1068D00010B190489049486703F008FB30B18B48ED
:1068E000E0380068C0F342308C49086003F02CFBAC
:1068F00028B18B48006820F080708949086003F057
:1069000043FB48B10020874908604FF08041C1F83F
:1069100010018249091F086003F064FB18B10320CD
:106920007E496431086003F07DFB68B105207E4933
:10693000086001207C497831086000207A490831DC
:1069400008603F20091F086003F08CFB002855D029
:106950006E48E0300068754908606C48E4300068B3
:10696000091D08606948E8300068091D086067482B
:10697000EC300068091D08606448F0300068091DAB
:1069800008606248F4300068091D08605F48F8300C
:1069900000686649203108605C48FC300068091DC9
:1069A000086063480068091D08606148001D0068B0
:1069B000091D08605E4808300068091D08605C48D1
:1069C0000C300068091D08605948103000685749AC
:1069D00040310860564814300068091D086054486A
:1069E00018300068091D086051481C300068091DF6
:1069F00008604F4820300068091D086003F0ACF9BA
:106A000030B14248CC38006800F04F004949086076
:106A100003F0FEF940B14848006800F0010018B1E9
:106A20006FF001004449086003F040FA28B1434880
:106A3000006840F480604149086039487438006853
:106A400040F4700036497439086000BF00BF00BFD1
:106A5000BFF34F8F00BF00BF00BF00BF00BF00BF2C
:106A6000BFF36F8F00BF00BF00BF3548006800F064
:106A7000004028B93248001D006800F00040E8B32B
:106A800001203049086000BF2F4800680028FBD073
:106A900015202B49086000BF2B4800680028FBD058
:106AA00015212748001D016000BF27480068002805
:106AB000FBD000202349086000BF2348006800285D
:106AC000FBD000BF00BF00BF00BF00BFBFF34F8FB0
:106AD00000BF00BF00BF1248F038006800F4E0605B
:106AE0001A490843001D0E49F039086000BF00BF75
:106AF00000BFBFF34F8F00BF00BF00E003E000BF47
:106B000000BF00BFFDE7FFF7CFFE10BD240300105C
:106B1000403501400DF0ADBA00C007403C050040D3
:106B2000FCED00E00C0100401056004020C5004084
:106B300024040010E40E0040000400403C17004014
:106B40000012001004E5014000E401400000FA05D5
:106B500010B502490868804710BD0000E8410020D8
:106B600010B5124C02202061606111A0A061134990
:106B7000E1614FF4007121620021A1626162E16272
:106B80000BA0A0640E49E164102121650021A165DC
:106B90006165E1650BA1E01DFFF7A1FC0AA120469C
:106BA000FFF79DFC2020A07110BD0000C452002002
:106BB0005465726D696E616C000000003C530020EA
:106BC0003C5500205254540053454747455200005D
:106BD00010B501460A69CB689A4204D88C68641ED5
:106BE000E41AA01801E0D41A601E10BD2DE9F04788
:106BF0000446894617464FF0000AE56800BFD4F8FE
:106C00001080A84503D9A8EB0500461E04E0A5EBBB
:106C10000800401CA1680E1AA068401BB04201D9B0
:106C2000304601E0A068401B0646BE4201D2304615
:106C300000E0384606466168481932464946FFF783
:106C400023FCB244B144BF1B3544A068A84200D124
:106C50000025E560002FD2D15046BDE8F0872DE930
:106C6000F047044689461546E668A068871BAF4290
:106C700008D9616888192A464946FFF705FC70194A
:106C8000E06010E0B8466168881942464946FFF75F
:106C9000FBFBA5EB070809EB070142466068FFF71D
:106CA000F3FBC4F80C80BDE8F0870000014A0249FC
:106CB00000F036B803A302006042002002E008C8DA
:106CC000121F08C1002AFAD170477047002001E066
:106CD00001C1121F002AFBD1704700000146202984
:106CE00008DA012088400A4A104008B101207047A4
:106CF0000020FCE7402909DAA1F12000012202FA74
:106D000000F008B10120F2E70020F0E70120EEE7F3
:106D1000FC06FFBD00BFEFF31081084672B6704756
:106D20002DE9F04116460F460446002503E039469A
:106D3000B047641C6D1C20780028F8D12846BDE8B7
:106D4000F0810246002104E0505C08B10120704748
:106D5000491C0629F8D30020F9E770B504460D4612
:106D600004F22740FFF7EDFF0646012D06D0022D65
:106D70000DD0032D11D0042D19D113E0A07928B125
:106D800094F8240010B90EB1012070BD00BFE07965
:106D900010B10EB10220F8E700BF207A08B103203D
:106DA000F3E700BF607A08B10420EEE700BF0020DF
:106DB000EBE70146481C052290FBF2F302FB1300AF
:106DC000C0B27047014691F82420012A01D1EE207B
:106DD00000E01F20704710B501220221002001F0C1
:106DE00047FF044600BF1CB1072C01D0204610BD50
:106DF00000BF07220221012001F03AFF044600BF34
:106E00001CB1072C01D02046F1E700BF0A22002167
:106E1000084601F02DFF044600BF1CB1072C01D02D
:106E20002046E4E700BF0020E1E710B504462C212E
:106E30002046FFF742FB012020714020206144F2F0
:106E40005060606110BD000030B5ABB0AC21684649
:106E5000FFF733FB02208DF8000000208DF80200C0
:106E600006208DF803000121ADF84C101149149152
:106E700001218DF87C104021229144F25061239130
:106E80000D48299069460D4800F088FD044600BF72
:106E900025463DB100BF0AA240F2DB212846FFF79C
:106EA000B9F900BF00BF0121044800F074FD2BB008
:106EB00030BD0000A441002061D40200F042002057
:106EC0002E2E5C2E2E5C2E2E5C6D61696E2E630064
:106ED00070B50321084800F031FE044600BF254686
:106EE0003DB100BF05A240F21A312846FFF792F9E2
:106EF00000BF00BF70BD0000F04200202E2E5C2EAF
:106F00002E5C2E2E5C6D61696E2E630010B50446FA
:106F1000022001F047FD10BD10B5002407E007492D
:106F2000096811F83400012105F0F0FD641C0448E3
:106F300000788442F3D3002010BD0000F04100200F
:106F4000F44100202DE9F84306460D4617460A2F66
:106F500002D20720BDE8F88305F008FF38B905F034
:106F6000AFFE044600BF204600B1F3E700BF18485B
:106F7000066018480570184807601848002101602D
:106F800041608160C160164A1160516015E006EBF6
:106F9000C50814480068009098F802008DF80100B8
:106FA00098F80000104A694605F006FE044600BF46
:106FB000204600B1CEE700BF00BF281EA5F10101A9
:106FC000CDB2E4D1094A0021094800F075F9C1E7C2
:106FD000F0410020F4410020F8410020384C00200E
:106FE0000042002094F60200B5A402004999020074
:106FF00090F602002DE9FE4307460E46144672B68F
:1070000000BF04F0BBFF00BF00BF04F043FD002839
:10701000FBD100BF00BF012F0CD06FF4805038446B
:1070200098B1B0F5405F2CD06FF44051084400286F
:1070300047D115E03149324A891AC908012242EA8A
:10704000014030A104F0B2FE47E02C492C4A891AD5
:10705000C908012242EA014032A104F0A7FE3CE047
:1070600025462B882549DFF898C0A1EB0C01C908FB
:107070004FF0010C4CEA014033A16A6804F0ACFE09
:107080002BE02546A86805F085FC8046D5E9001070
:107090008DE8430019491A4BC91AC908012343EA6C
:1070A000014043462FA1AA6804F0A6FE1349144AE2
:1070B000891AC908012242EA014034A104F076FE8F
:1070C0000BE00E490E4A891AC908012242EA014022
:1070D000324633A104F074FE00BF00BF00BF364843
:1070E000006800F0010000B100BE00BF224631463A
:1070F000384600F063F8BDE8FE830000CC020300D0
:107100006C020300534F46544445564943453A20C8
:10711000415353455254494F4E204641494C4544F2
:1071200000000000534F46544445564943453A2019
:10713000494E56414C4944204D454D4F52592041EE
:107140004343455353000000415353455254494F64
:107150004E204641494C45442061742025733A2510
:10716000750000004552524F52202575205B257353
:107170005D2061742025733A25750D0A5043206106
:10718000743A20307825303878000000456E64204D
:107190006F66206572726F72207265706F72740014
:1071A000554E4B4E4F574E204641554C542061741E
:1071B0002030782530385800F0ED00E018B5012374
:1071C00000939DF800301E4B186059609A606FF470
:1071D0008043034463B1012B19D1194BDA60DB689A
:1071E0001B88174CA3612346DB685B68E3610EE0F4
:1071F000134B1A611B699B68114C636123461B6921
:107200001B68A36123461B695B68E36100BF00BF85
:107210000B4B1B680A4B5B68094B9B68084BDB6890
:10722000074B1B69064B5B69054B9B69044BDB698C
:1072300072B600BF9DF80030002BFBD162B618BDBE
:10724000484C002070B504460D46204602F0E4FF8D
:1072500028B12946204602F0D3FF002070BD05204A
:10726000FCE7034609B90E20704712B1501E1040CA
:1072700008B10920F8E71960501E98800020986036
:10728000D86000BFF0E770B504460D46204602F016
:10729000C3FFA188884205D82946204602F0CFFFC7
:1072A000002070BD0420FCE710B5024802F0EAFBA4
:1072B00010BD00000842002010B503460C460AB974
:1072C000072010BD19684A61012C01D1012000E09E
:1072D000002008610020F4E738B5134800680090EA
:1072E0000823582211491248006803F0ABFC0446F9
:1072F0000CB1204638BD0F4A69460F4802F0C8FB62
:1073000004460CB12046F5E701210B4802F05EFC73
:1073100001230A4A1946084802F086FB0120084961
:1073200008702046E6E70000A8F60200684C00203E
:1073300098F60200D5DE020008420020FFFF7F0021
:10734000144200202DE9F04106460D46174634460A
:10735000207F10B10020BDE8F081A76103F08CF818
:10736000401941F10001C4E90201206900B1256121
:107370002146002007F01EFCEDE770B504462546C7
:10738000002028772946012007F014FC70BD00007A
:107390002DE9F04104461048077821460F48FFF7D1
:1073A00051FF8046A7B100200B49087001220C490B
:1073B0000C4804F011F8054600BF2E4636B100BF58
:1073C00009A2D6213046FEF725FF00BF00BF00BF4F
:1073D0004046BDE8F081000046420020D04C00202D
:1073E000454200202C4200202E2E5C2E2E5C2E2E9C
:1073F0005C2E2E5C2E2E5C2E2E5C636F6D706F6E7D
:10740000656E74735C6C69627261726965735C75D8
:107410006172745C6170705F756172745F666966D9
:107420006F2E63002DE9F04188B004460E461746E2
:1074300098462B4807601EB9072008B0BDE8F081C8
:10744000B08882B227483168FFF70BFF054600BFBE
:10745000284600B1F1E700BFB08982B22248B16886
:10746000FFF7FFFE054600BF284600B1E5E700BF75
:1074700020221E496846FFF707F860690690207CC5
:1074800008B1012000E000208DF814008DF81C8068
:10749000607C08B10E2000E000208DF81500E06847
:1074A0000290A06803902068019060680090104AE4
:1074B0006946104803F04AFF054600BF284600B160
:1074C000BBE700BF00200C4908702068401C28B1B1
:1074D00001220A49074803F07FFFAEE70020ACE72E
:1074E00040420020D04C0020E04C0020ACF60200CE
:1074F00005EE02002C4200204642002045420020BA
:107500002DE9F041054629461448FFF7BCFE064622
:1075100006BB134C002720781249085C20B1201DBF
:1075200005F030FF074608E020780E49085C20B9D6
:1075300004F10C0005F0CEFD074600BF57B90A491B
:107540000648FFF77FFE28B901220749044803F0E7
:1075500065FF06463046BDE8F0810000E04C0020A3
:107560002C420020DC4100204442002010B504469B
:10757000204606F0F7FD10BD70B5044625460E48BE
:107580008068B0B1ADB9FFF7C5FB06460A48006890
:107590000A490860084840684FF0E021C1F804013A
:1075A0000020054988601EB900BF62B600BF00BF59
:1075B00000BF00BF70BD0000F04C002000E100E003
:1075C000F8B505460C4617462088001DB84201D97B
:1075D0000C20F8BD684679DF064600BF304600B192
:1075E000F7E700BF0320218868542088401C2080D2
:1075F0001920218868542088401C20802088411947
:10760000BDF8000007F028FE2188084420800020F3
:10761000DFE770B505460C462068401C28B120689D
:1076200004F0E0F8206804F0A0F86068401C18B18D
:107630000021606804F07FF82868A169C0F824156B
:1076400000BF617D227D286841EA0203C0F86C35E5
:1076500000BFD4E90012286805F0D5F9207D012883
:1076600014D1A068401C18B10021A06804F063F890
:10767000E068401C28B1E06804F0B4F8E06804F069
:1076800074F8D4E90221286805F0A6F970BD70B538
:1076900005460C462068401C28B1206804F0ADF86F
:1076A000206804F06EF86068401C18B10021606822
:1076B00004F04EF82868A169C0F8241500BF617D68
:1076C000227D286841EA0203C0F86C3500BFD4E986
:1076D0000012286805F0CFF9207D012814D1A06898
:1076E000401C18B10021A06804F032F8E068401C8A
:1076F00028B1E06804F081F8E06804F042F8D4E9C9
:107700000221286805F098F970BD0000002114E0FE
:107710000C48D0F81024012308E000BFD06800799D
:10772000884201D1002303E0D0680268002AF4D126
:1077300000BF0BB108467047491C0A29E8DB4FF02F
:10774000FF30F8E7A04E00202DE9F04104460F4637
:10775000154615B90E20BDE8F0810020286000BF55
:107760000CB90E20F7E700BF00BF206808B90E2053
:10777000F1E700BF00BFE088C11700EB91718910ED
:10778000A0EB810109B10720E5E700BF384600F012
:10779000DDFAC6B2142E01D10520DCE72079B04213
:1077A00001DC0420D7E7E188206806FB010028609F
:1077B0000020D0E72DE9FC41054688461646002406
:1077C00037880020308095F82D0058B13A46314670
:1077D000404600F0DFFA044600BF204608B1BDE88D
:1077E000FC8100BFA87850B13A4631464046FFF7C9
:1077F000E7FE044600BF204600B1F0E700BFE8788E
:1078000060B1E97848B23B463246414602F02FFD6E
:10781000044600BF204600B1E1E700BF686868B1D8
:10782000696891F900003B463246414607F059FA33
:10783000044600BF204600B1D1E700BF28890028D8
:107840000EDD43460622022105F10800CDE900675E
:1078500007F0D2FD044600BF204600B1BFE700BFDD
:10786000288A00280EDD43460722032105F1100077
:10787000CDE9006707F0C0FD044600BF204600B117
:10788000ADE700BF288B00280EDD434615221421EA
:1078900005F11800CDE9006707F0AEFD044600BF12
:1078A000204600B19BE700BF286A58B13B463246EC
:1078B0004146286A01F000FF044600BF204600B19F
:1078C0008DE700BF686A58B13B4632464146686A58
:1078D00003F098F8044600BF204600B17FE700BFE0
:1078E00095F82C0000280BDD3B46324641462846E1
:1078F00006F038FD044600BF204600B16FE700BF28
:10790000287858B13B4632464146284603F036F9BE
:10791000044600BF204600B161E700BF20465EE795
:10792000F8B504460E461546002000902B466A46E0
:107930003146204600F008F807460FB90020F8BD90
:10794000BDF800002044FAE7F0B504460D4604B146
:107950000AB90020F0BD002103E0605C401C08442F
:1079600081B21088884203DC481C205C984201D018
:10797000A942F2DBA94201DB0020EBE7881C86B2BA
:10798000605C401E87B2F019A84201DD0020E1E7EB
:1079900016803846DEE780F83010704770B5044630
:1079A0000D4605B10CB90E2070BD05F1780001F04F
:1079B00024FE08B90720F7E70020A0702C2205F16B
:1079C0007801201DFEF760FD002084F83000D5F816
:1079D000A4006063D5F8A800A0634FF6FF70A4F878
:1079E000240404F58260C4F82004002140F22C40F5
:1079F000C4F82614A4F82A140155207810B9FF20E1
:107A000084F8540004F15500C4F810042046FFF730
:107A1000D9F940F21441085304F2144204F155011B
:107A20002846FFF7C7FE064600BF304600B1BBE759
:107A300000BF04F231204FF4836108512046FFF764
:107A4000C1F9A4F81C044FF48360015904F21C42EC
:107A500005F13C00FFF7AEFE064600BF304600B120
:107A6000A2E700BF012151200155208B81B248209F
:107A70000153012084F83C0000212164502001556D
:107A80006169616404F13C02002104F1540072DF79
:107A9000064600BF304600B186E700BF01202070D7
:107AA000304681E770B504460D462C222946201D3C
:107AB000FEF7EAFC70BD70B504460D462E462088E0
:107AC000102804D0112807D026280FD109E021461C
:107AD000304605F0B3FD0AE02146304605F0C0FE11
:107AE00005E02146304606F012F800E000BF00BF76
:107AF00070BD70B5044694F8540074DF012084F81A
:107B00002E04002084F83004002150200155062165
:107B1000204602F0C7FB054600BF284600B170BDF5
:107B200000BFA178204600F009F8054625B1A06BFA
:107B300010B12846A16B88470020F0E770B50446D5
:107B40000E46207808B9082070BDA670002140F2CA
:107B50002C40C4F82614A4F82A140155A07910B1B9
:107B6000A078012809D0E07910B1A078012804D0CC
:107B7000E07970B1A07802280BD1606B30B10120A0
:107B800084F82D040820616B884702E0002084F807
:107B90002D0431462046FFF7E0F8A070606BA0B1DD
:107BA000A078032802D0A07804280ED1607960B1B3
:107BB00094F82E0448B9002084F83004012084F899
:107BC0002F040720616B884702E0002084F82F040F
:107BD000182104F13C00FEF770FC012084F83C0001
:107BE00004F12C0006F03AF820B194F82C10512042
:107BF000015502E001215120015594F8240060B1A3
:107C000004F1280006F02AF820B194F82810522038
:107C1000015502E00121522001550021502001555B
:107C2000A078052824D2DFE800F01F030A1118000D
:107C300004F13C01204606F05BFC054619E004F126
:107C40003C01204606F03CFC054612E004F13C01F4
:107C5000204606F05FFC05460BE004F13C0120469F
:107C600006F086FC054604E0002084F8310000E0C0
:107C700000BF00BFA07898B104F13C0204F15400A9
:107C8000D4F8201472DF05460DB128465CE794F85D
:107C9000301094F8540073DF05460DB1284653E7C1
:107CA000606B18B194F83100616B884700204BE796
:107CB0002DE9F041044600BF14B90E20BDE8F08163
:107CC00000BF1C2221461C48FEF7DEFB1B481A4958
:107CD0000860206860B120687ADF05460DB128464B
:107CE000ECE7164821680A6802604968416005E0CF
:107CF00012487BDF05460DB12846DFE7002617E076
:107D000006EB86000E4901EB800700BF4FF6FF70BF
:107D1000388000BF0B4800EB461078600A4A00210B
:107D2000381DFFF7C9FA05460DB10320C6E7761CDA
:107D3000002EE5D00020C1E7BC4A0020CC41002045
:107D4000A84A0020884A00201DF3020010B504460E
:107D5000204600F011F808B1204610BD1420FCE7C1
:107D600070B504460D46034988682A46214602F04C
:107D7000AFFA70BDD84A002010B50446142C01DBC0
:107D8000002010BD2146024802F0B7FFF9E70000CD
:107D9000DC4A00202DE9FC4105460C4617462088A8
:107DA0000930B84202D90C20BDE8FC8168466DDF7D
:107DB000064600BF304600B1F6E700BF0820218824
:107DC00068542088401C20801B202188685420880B
:107DD000401C208020882844DDF801100160BDF897
:107DE000051081802088801D20809DF800004008BB
:107DF00018B900202188685402E0012021886854C5
:107E00002088401C20800020CEE7000070B503F0E1
:107E100097F9044600BF204600B170BD00BF00BF07
:107E2000084D28464FF0030C00DF00BF044600BF9A
:107E3000204600B1F1E700BF03F0FCF904462046FC
:107E4000EBE7000068550020014600BF09B90E208D
:107E5000704700BF014801600020F9E7C8420020D8
:107E600010B54FF0FF3100203DDF044600BF204633
:107E700000B110BD00BFB12100203CDF044600BFAF
:107E8000204600B1F5E700BF04484169012088475A
:107E9000022004F0EFF90020EBE700004C55002031
:107EA00010B505480068416900208847FFF7D8FFF2
:107EB0000446204610BD0000C842002010B588B01E
:107EC000044620216846FEF7F8FA0320ADF80000CA
:107ED00020788DF802009DF80D0020F02000203061
:107EE0008DF80D009DF80D0020F0080008308DF889
:107EF0000D0001208DF810008DF80C001720ADF852
:107F0000040001208DF813008DF812008DF8110087
:107F10006088A21D694601F04DFA08B010BD00004E
:107F200030B585B00546244B0FCB8DE80F0000BF60
:107F300015B90E2005B030BD00BF4FF6FF701F49C8
:107F4000888028684861002008760846406908B99A
:107F50001B4848611948FFF777FF044600BF2046D9
:107F600000B1E7E700BF00BF01208DF812004FF617
:107F70005960ADF8100000BF104A921C04A90120FE
:107F8000A8DF044600BF204600B1D3E700BF0B497D
:107F9000684662DF044600BF204600B1CAE700BF62
:107FA0000648FFF78BFF044600BF204600B1C1E73B
:107FB00000BF0020BEE7000020F902004C55002061
:107FC0000F9D020070B504460D4600BF04B970BD98
:107FD00000BF2088102806D0112808D051280AD0C8
:107FE000532810D10BE0204605F022FB0CE0204680
:107FF00005F028FC08E0204605F032FD04E02046AC
:1080000005F0E8FC00E000BF00BF00BFDFE70000B4
:1080100070B504460426207B012802D0022822D114
:1080200009E001F075FE05460DB9012602E0112DAB
:1080300000D1062619E0607B142801DC607B08B9BA
:1080400005260FE0627B04F10E011248FEF71CFAD0
:10805000607B1049091F8861084606F0B7FA05469B
:1080600005B9012601E0022600BF00BF012E0FD096
:10807000207B314600F058F8054625B106480068D7
:108080004169032088470448006841690220884705
:1080900070BD000078550020C842002070B505462C
:1080A0000E4600BF1E48006820B11D48406808B158
:1080B000012000E0002000B970BD00BF184800F1A9
:1080C0000801426828469047044600BF082C24D087
:1080D0007CB900201349096848760121022000F08C
:1080E00023F80446CCB10F48006841690320884753
:1080F00013E000200B49096848760621022000F0B1
:1081000013F8044624B107480068416903208847F2
:108110000448006841690220884700BFCCE700009E
:1081200068550020C8420020F0B587B004460D46CF
:1081300003270020019002900390049003200690F2
:1081400020208DF814008DF815408DF816500E483B
:10815000C088ADF8040002208DF806000020ADF8BC
:10816000080006A8039005A804900749888801A97B
:10817000AEDF064626B9BDF81800032800D00C264D
:10818000304607B0F0BD00004C55002030B58BB034
:10819000044634B1012C29D0022C32D0032C49D111
:1081A0003AE02B492B4A891AC908032242EA0140C6
:1081B00029A103F0FBFD6846FEF737FE01208DF88C
:1081C000000069463048FFF76DFC00212F48FFF79B
:1081D000C7FD05461E491F4A891AC908032242EAFB
:1081E00001402A462AA103F0EBFD2EE01849194A66
:1081F000891AC908032242EA01402BA103F0D6FDE7
:1082000023E01349134A891AC908012242EA0140AE
:108210002EA103F0CBFD18E00D490E4A891AC908BA
:10822000012242EA014038A103F0C0FD00BF002056
:1082300000BF0AE00649074A891AC908012242EA32
:1082400001403DA103F0B2FD00BF00BF0BB030BD47
:10825000CC0203006C020300446576696365206903
:108260007320707265706172696E6720746F20652B
:108270006E74657220626F6F746C6F6164657220DA
:108280006D6F64652E000000F0420020A999020085
:10829000446973636F6E6E65637465642025642042
:1082A0006C696E6B732E0000446576696365207798
:1082B000696C6C20656E74657220626F6F746C6F90
:1082C00061646572206D6F64652E00005265717582
:1082D00065737420746F20656E74657220626F6FB1
:1082E000746C6F61646572206D6F6465206661698E
:1082F0006C6564206173796E6368726F6E656F750B
:10830000736C792E000000005265717565737420DE
:10831000746F2073656E64206120726573706F6E78
:10832000736520746F20636C69656E742066616983
:108330006C65642E00000000556E6B6E6F776E20CA
:108340006576656E742066726F6D20626C655F6421
:1083500066755F627574746F6E6C6573732E000062
:10836000F8B505460F46288821284DD006DC102890
:108370000BD0112839D013287DD158E03B287BD071
:10838000522868D05628F7D18DE05149514A891AB0
:10839000C908032242EA01404FA103F007FD07206C
:1083A00000F094FC044600BF26463EB100BF4DA23B
:1083B00040F2D5113046FDF72DFF00BF00BFA88861
:1083C0004C490880084601884B4802F035FE0446B7
:1083D00000BF26463EB100BF42A24FF4EC713046CA
:1083E000FDF718FF00BF00BF6FE03949394A891A0D
:1083F000C908032242EA014040A103F0D7FC4FF62E
:10840000FF703C49088060E000200090A888694621
:108410008FDF044600BF26463EB100BF31A24FF4B5
:10842000F5713046FDF7F6FE00BF00BF4DE00023BA
:108430001A4685212F4800887FDF044600BF264664
:108440003EB100BF27A24FF4F8713046FDF7E2FEBF
:1084500000BF00BF39E000231A46194625480088AE
:10846000B1DF044600BF264656B100BF1DA24FF43F
:10847000FB71304601E027E004E0FDF7CBFE00BFD2
:1084800000BF22E0A888132176DF044600BF2646FD
:108490003EB100BF13A240F2FD113046FDF7BAFE17
:1084A00000BF00BF11E0A888132176DF044600BF9B
:1084B00026463EB100BF0BA24FF401713046FDF7D6
:1084C000A9FE00BF00BF00E000BF00BFF8BD000074
:1084D000CC0203006C020300436F6E6E656374652B
:1084E000640000002E2E5C2E2E5C2E2E5C6D6169C9
:1084F0006E2E6300A0410020E442002044697363B3
:108500006F6E6E65637465640000000070B50546AB
:108510000E462888102802D011282CD115E01748C3
:10852000006860B901F072F9044600BF34B1144824
:10853000006818B1204612490968884700BF0F48F3
:108540000068401C0D49086016E00C480068401E99
:108550000A4908600846006860B9FEF73CFC04461A
:1085600000BF34B10648006818B1204604490968C4
:10857000884700BF00E000BF00BF70BDC8410020B9
:10858000C441002070B504460D462088102806D04E
:10859000112808D012280ED0502810D107E020460C
:1085A00004F0D4FF0CE0204605F032F908E0204644
:1085B00005F0DEFA04E0204604F0B0FF00E000BF62
:1085C00000BF70BD2DE9F04104460F46A688208803
:1085D000102806D0112819D019283FD01A284AD1BE
:1085E00018E005F049FC304605F022FC30B900BF28
:1085F00022A2F0210420FDF70DFE06E0E07B012819
:1086000003D031462C4802F087FB34E0304605F0B9
:1086100057FC30E0207A0509042D01DB012000E041
:1086200000200246314624480C3001F011FE032D93
:1086300001DB012000E00020024631461E480830E0
:1086400001F006FE022D01DB012000E000200246C1
:1086500031461948001D01F0FBFD0CE0207A48B9B5
:10866000607AC0F3C0052A46314613480C3001F049
:10867000EFFD00BF00BF00BFBDE8F0812E2E5C2ED5
:108680002E5C2E2E5C2E2E5C2E2E5C2E2E5C636FAE
:108690006D706F6E656E74735C626C655C636F6D3C
:1086A0006D6F6E5C626C655F636F6E6E5F7374613D
:1086B00074652E6300000000E44A00202DE9F041BB
:1086C00086B00446884617461D4600BF1CB90E20DA
:1086D00006B0BDE8F08100BF01AA29466069FFF736
:1086E00033F8064600BF304600B1F1E700BF4FF651
:1086F000FF70854201D0019808B90520E8E701988C
:10870000007808B90820E3E73888F42801DD07205D
:10871000DEE700200290039004900590A088ADF859
:108720000800CDF81480049701208DF80A0002A9F2
:108730002846AEDFCCE7000070B58EB004460E468A
:108740003E4B0FCB09AD0FC500BF14B90E200EB0C4
:1087500070BD00BF00BF0EB90E20F8E700BF306843
:10876000A061214609A862DF054600BF284600B186
:10877000EDE700BF20788DF836000120ADF8340019
:10878000A21C0DA9A8DF054600BF284600B1DEE700
:1087900000BF202101A8FDF790FE0220ADF80400E3
:1087A00020788DF80600F420ADF808000120ADF81F
:1087B0000A008DF810009DF8110020F00800083024
:1087C0008DF811009DF8110020F00400001D8DF8B7
:1087D000110001208DF815008DF81600608804F155
:1087E0000C0201A900F0E6FD05460DB12846AEE7F2
:1087F000202101A8FDF761FE0320ADF804002078D8
:108800008DF80600F420ADF808000120ADF80A004C
:108810008DF810009DF8110020F0100010308DF838
:10882000110001208DF815008DF816008DF8170045
:108830006088221D01A900F0BDFD88E7E0F5020077
:1088400070B504460D4605B104B970BD2E462088AA
:10885000102804D0502807D057280FD109E021460E
:10886000304604F0ABFE0AE02146304605F0ACF994
:1088700005E02146304605F0C3F800E000BF00BF28
:1088800000BFE2E770B50446204606F0DFFC05466F
:10889000C5F3400070BD70B50446204606F0D6FC16
:1088A000054605F0010070BD38B503F035FF0446FC
:1088B00000BF25463DB100BF15A240F21721284652
:1088C000FDF7A8FC00BF00BF002000906946012012
:1088D00003F04EFD044600BF25463DB100BF0CA28B
:1088E00040F21D212846FDF795FC00BF00BF6846F9
:1088F00003F00EFE044600BF25463DB100BF04A2B2
:1089000040F221212846FDF785FC00BF00BF38BD9D
:108910002E2E5C2E2E5C2E2E5C6D61696E2E6300F9
:1089200001460148405C704798F5020010B50146C9
:10893000094B585C00BF4FF0A044234600BFD3F85A
:108940001045C44004F001040CB1012000E00020F7
:10895000024682F0010010BD98F502007CB50024AB
:108960000DE00848055D03260020009033460246CE
:1089700001460190284602F08EFE00BF641C042CC4
:10898000EFD37CBD98F5020010B5044604F0010059
:1089900008B100F04BF804F0020008B1FFF7DEFF69
:1089A00010BD000010B502460949885C00BF4FF0B9
:1089B000A0442146D1F80435012484409C43C1F8E9
:1089C0000845012484401C40C1F80C4500BF10BD7F
:1089D00094F5020010B504460249085D012102F039
:1089E00017FF10BD94F5020010B504460249085D5A
:1089F000002102F00DFF10BD94F5020010B50146F4
:108A0000094B585C00BF4FF0A044234600BFD3F889
:108A10000445C44004F001040CB1012000E0002032
:108A2000024682F0010010BD94F502007CB50024DE
:108A30000CE00948055D0020009003460122114624
:108A40000190284602F027FE00BF641C042CF0D3DE
:108A500000F004F87CBD000094F5020010B500247D
:108A600003E02046FFF7B6FF641C042CF9D310BDC9
:108A700010B5002403E02046FFF7B6FF641C042C69
:108A8000F9D310BD02464FF0FF30002106E0054B40
:108A90005B5C934201D1084602E0491C0429F6D3ED
:108AA00000BF704798F5020070B505460C460026D9
:108AB0000648056014B1204605F00AFF0448006826
:108AC00010B9FEF788F90646304670BDC441002053
:108AD000C841002010B5002000F022FB044600BF72
:108AE0001CB1062C01D0204610BD00BF012000F0B3
:108AF00017FB044600BF1CB1062C01D02046F3E74B
:108B000000BF0020F0E700002DE9F04106460F46C7
:108B10004FF0000800243046FFF7B4FF0446042C51
:108B20003ED20FB3012F02D0022F38D130E004EB38
:108B30004400214911F8008004EB440008444078C7
:108B400050B11E4A4FF480411D480068FEF7FAFB01
:108B500005460DB91948067004EB4400164908444F
:108B60008078184908551AE015480068FEF705FC9A
:108B70001448005D04EB44010F4A1144897888428F
:108B800005D104EB44001146084490F8028006E049
:108B900004EB44000849084490F8018000BF00BF7E
:108BA000B8F1000F06D00848006818B140460649E1
:108BB00009688847BDE8F081584A0020BC41002080
:108BC000A4F50200BD410020B841002010B50446C4
:108BD000042C03D22046FFF7A9FE10BD0020FCE7BD
:108BE00070B50546042D06D0072D18D00A2D2FD1BB
:108BF00005F0E2FD2DE013211748008876DF0446DA
:108C0000082C0BD000BF26463EB100BF13A24FF484
:108C100015713046FDF7FEFA00BF00BF19E00E489F
:108C200000884FF6FF71884211D11048FEF761FFAE
:108C30000446082C0BD000BF26463EB100BF07A259
:108C400040F25E213046FDF7E5FA00BF00BF00E0CC
:108C500000BF00BF70BD0000A04100202E2E5C2E82
:108C60002E5C2E2E5C6D61696E2E6300F04200203A
:108C700030B503460020042B23D2012A07D1012955
:108C800003D103F10E04E4B200E00024224679B1DE
:108C9000012902D0022911D104E003EB43040A4D5B
:108CA0002A550DE003EB4304074D2C44627007E0A6
:108CB00003EB4304044D2C44A27001E0072000BFE5
:108CC00000E0072030BD0000584A002070B504467F
:108CD00000250548007800F0010018B1204600F09A
:108CE0005BF80546284670BDB04100202DE9F041F3
:108CF00005460F4600241F4805601F48076005F021
:108D0000020000B3002606E0012211463046FFF7BC
:108D1000AFFF0446761C042E01D2002CF4D034B9E7
:108D200040F2333204211548FEF70CF9044614B919
:108D3000FEF7F2F804462CB9114A00211148FEF75B
:108D4000BBFA044600BF05F0010080B10120FFF727
:108D50001BFE2CB90C4A00210C48FEF7ADFA044664
:108D60002CB90B4A01210B48FEF7A6FA044620460F
:108D7000BDE8F081B0410020B8410020A8F5020014
:108D800079920200A4F5020015A802009CF50200E9
:108D90000D6F0200A0F502002DE9F0470446002601
:108DA0000025DA48007820B10020D849087001F089
:108DB0001DFD182C7ED2DFE804F00C16174A7EB297
:108DC000F6F4F3F2F1F0EFEEEDECEBEAE9E8E7E6CA
:108DD000E5E401F00BFDCE480068FEF7CEFA06464A
:108DE000CC4804708DE100BF0020FFF707FE58B1AA
:108DF0000020FFF7EFFD022C02D14FF4E16001E00B
:108E00004FF47A60054609E00020FFF7EDFD022CE3
:108E100001D1C82001E04FF4C8700546BD48047078
:108E20004FF40040A5FB00104FF47A73CF1840F1C7
:108E300000015A0000233846FDF7E2FA814600227D
:108E40004946B3480068FEF77DFA064659E100201E
:108E5000FFF7D4FD58B10020FFF7BCFD032C02D171
:108E60004FF4487001E04FF47A60054609E00020B5
:108E7000FFF7BAFD032C01D1C82001E04FF4C87000
:108E80000546A44804704FF40040A5FB00104FF4C1
:108E90007A728F1840F10001520000233846FDF726
:108EA000AFFA81460022494699480068FEF74AFA1F
:108EB000064626E124E10020FFF7A0FD58B100207E
:108EC000FFF788FD042C02D14FF47A6001E04FF4E3
:108ED0007A6005460AE00020FFF786FD042C02D1E7
:108EE0004FF4C87001E04FF4C8700546894804701B
:108EF0004FF40040A5FB00104FF47A73CF1840F1F7
:108F000000015A0000233846FDF77AFA8146002214
:108F100049467F480068FEF715FA0646F1E0002052
:108F2000FFF76CFD50B10020FFF754FD052C01D177
:108F3000C82001E04FF47A60054609E00020FFF701
:108F400053FD052C01D1C82001E04FF4C87005463F
:108F5000704804704FF40040A5FB00204FF47A7372
:108F6000D71840F100015A0000233846FDF748FAAF
:108F700081460022494666480068FEF7E3F9064646
:108F8000BFE0B8E0B6E0AAE0A1E098E092E05FE0E0
:108F90005DE05BE059E057E051E042E033E024E07F
:108FA00015E00EE0FFE70020FFF7FCFC59480470D5
:108FB000002240F2666156480068FEF7C3F9064693
:108FC0009FE00020FFF710FD5248047099E0012057
:108FD0004E490870FFF7E6FC002240F266614C48FB
:108FE0000068FEF7AFF906468BE00120474908709C
:108FF000FFF7D8FC00224FF4005145480068FEF707
:10900000A1F906467DE0012040490870FFF7CAFC3F
:10901000002240F266613E480068FEF793F906467A
:109020006FE0012039490870FFF7BCFC00224FF4C3
:10903000005137480068FEF785F9064661E0FFF702
:1090400017FD344804705CE000BF00BF00BF00BFE4
:1090500031480068FEF791F90646C4F1110515B3D1
:109060000EBB012D18D9A8B2C82148434FF40041C6
:1090700080FB01104FF47A728F1840F1000152000A
:1090800000233846FDF7BCF98146002249462248B4
:109090000068FEF757F906460220FFF7A5FC0120FD
:1090A0001E49087005E00220FFF794FC00201B49D0
:1090B000087026E001F09AFB1648047021E001F0E8
:1090C00095FB0020FFF790FC1248047019E001F0B6
:1090D0008DFB0120FFF788FC0E48047011E001F0C1
:1090E00085FB0020FFF780FC0120FFF77DFC09488D
:1090F000047006E000BFFFF7BBFC0648047000E008
:1091000000BF00BF3046BDE8F0870000AD41002041
:109110009CF50200AC410020A0F50200B441002003
:1091200010B504460121204606F0F8F910BD0000F4
:109130002DE9FC4704460D461646A71C4FF00108D2
:109140000020019001A8FEF711FA3048006828605D
:109150002E4800682D494968411A2C488068401CF7
:10916000A0EB010915E00121294801F0F2FD01F011
:1091700095FB82465146264801F0EBFD23480068E6
:1091800022494968411A21488068401CA0EB010926
:1091900000BF4F45E7D8B8F1000F30D00021009153
:1091A00076B1009921F00301491C0091009921F04A
:1091B0000401091D0091009964F3891100910DE0EB
:1091C000009921F00301891C0091009921F004010C
:1091D000091D0091009964F39F5100910B490968A2
:1091E0000A4A92681140094A0C3202EB8100009948
:1091F00001600649096839440C3A116000BF9DF8C6
:109200000400FEF7B9F94046BDE8FC87A04E0020F7
:10921000BC52002070B504460D46A168481CA060F1
:1092200020684554D4E90110884202D3204602F058
:109230002CF970BD0448406803490968884201D18F
:10924000012070470020FCE7A04E002002460021CC
:1092500008E0074B1B6803EBC1000378934200D181
:109260007047491C034800788142F2DB0020F7E791
:10927000F0410020F441002010B50446207802217E
:10928000FFF742FC10BD0000F8B505461549032064
:10929000FFF72CFD044600BF26463EB100BF12A2D8
:1092A00040F2EA213046FCF7B5FF00BF00BF694637
:1092B0000020FFF7F9FB044600BF26463EB100BF81
:1092C00009A240F2ED213046FCF7A4FF00BF00BF29
:1092D0009DF80000022801D1012000E00020287044
:1092E000F8BD0000E18B02002E2E5C2E2E5C2E2E8F
:1092F0005C6D61696E2E63004FF0FF31054A42F8E4
:109300002010082804DBFF23A0F108015032535439
:1093100070470000684B00200146024850F82100C9
:1093200070470000684B00202DE9F04F03460C46C3
:109330004FF0FF390AB1002000E0082084460AB14E
:10934000082000E00C208046614624E0154850F8D3
:109350002100401CF0B91D460846274616464FFA24
:1093600080FBDFF840A00AF1300A0AF805B0DFF808
:1093700034A04AF820704EB94FFA85FBA0F1080AD4
:10938000DFF820E00EF1500E0EF80AB000BF4FFAE1
:1093900081F902E0491C4145D8D300BF4846BDE8E9
:1093A000F08F0000684B002001460148405670478E
:1093B000984B002070B590B006460C461546A07834
:1093C00018B901208DF80E0002E0A0788DF80E008B
:1093D0002088ADF80C0000200290607C02A905F006
:1093E00025F9A07C0DF1090105F020F9E07B08B119
:1093F000012000E000209DF80A1060F3C3018DF801
:109400000A10207C08B1012000E000209DF80A101D
:1094100060F304118DF80A10207B08B1012000E0F0
:1094200000209DF80A1060F300018DF80A10207DDD
:1094300008B1022000E001209DF80A1060F342010B
:109440008DF80A101C2109A8FDF737F8607BC0F3DE
:10945000001018B9607BC0F34010F8B100200090F4
:10946000E07C0DF1010105F0E1F800BF9DF800007E
:1094700020F00F00401C8DF800009DF8000020F047
:10948000F00010308DF8000000BF9DF8020020F0C1
:109490000600801C8DF80200CDF838D0607B8DF876
:1094A0002400A07B8DF82500142104A8FDF705F801
:1094B00003A8049002A80590A088ADF81C00A0683D
:1094C00020B1E088ADF81800A0680890A0690028D5
:1094D00049D000200190A0690088ADF82C00A06957
:1094E0004088ADF82E00A06940680A9001A80D9050
:1094F000A169087B01A905F099F8A169487B0DF1E4
:10950000050105F093F8A069807A08B1012000E018
:1095100000209DF8061060F3C3018DF80610A069C5
:10952000C07A08B1012000E000209DF8061060F329
:1095300004118DF80610A069007A08B1012000E03E
:1095400000209DF8061060F300018DF80610A06958
:10955000807B08B1022000E001209DF8061060F336
:1095600042018DF80610E06908B1E0690C902B46C5
:1095700004AA09A93046AADF10B070BD70B505462F
:109580000DB9094C01E0084C083409E0204601F00F
:1095900027F9064606B904E028467168884700BFE7
:1095A000F4E700BF70BD00005C4B002010B504461E
:1095B0002CB90120064948700020FFF7DFFF012C7D
:1095C00004D1012002498870FFF7D8FF10BD0000C8
:1095D000544B00202DE9F047024613468C46D3E950
:1095E0000245DCE90267B6EB040877EB050002D31D
:1095F0000120BDE8F0870020FBE7014688780128BC
:1096000005D191F82000012801D100207047886A17
:10961000042802D0486A042801D10020F6E701207E
:10962000F4E733B58BB00546002000900C9878B174
:1096300000240BE021460CA801F05FFB28B1009A42
:10964000501C009001A820F81240641C142CF1D387
:109650002C2269462846FCF717FF0DB030BD0146A5
:109660000888062808DB0888B0F5486F06DD0888FA
:109670004FF6FF72904201D00720704748880628B5
:1096800008DB4888B0F5486F06DD48884FF6FF7262
:10969000904201D00720F0E708884FF6FF72904211
:1096A00008D04888904205D008884A88904201DD59
:1096B0000720E2E70020E0E72DE9F04107460D46EC
:1096C000144698462088801D404502D90C20BDE8EC
:1096D000F0813846FFF7C3FF064600BF304600B1B1
:1096E000F5E700BF0520218868542088401C2080B1
:1096F0001220218868542088401C2080228851191B
:10970000388805F0A9FD2188084420802288511955
:10971000788805F0A1FD2188084420800020D6E744
:1097200010B5044600BF04A24FF4C0712046FCF7F8
:1097300071FD00BF10BD00002E2E5C2E2E5C2E2E63
:109740005C6D61696E2E630030B587B01C21684680
:10975000FCF7B3FE002000904FF4A03001904FF4CE
:10976000F020029003208DF80C000020ADF80E00D0
:109770008DF810000A4805900A4806906846FEF7E2
:1097800097FA044600BF25463DB100BF06A240F24D
:1097900097112846FCF73EFD00BF00BF07B030BD63
:1097A000DDD40200219702002E2E5C2E2E5C2E2E80
:1097B0005C6D61696E2E6300F8B505460C46607AF3
:1097C00088B9207A10B91048476801E00E488768C8
:1097D0002A4639466068FDF7B5FD064616B13046A3
:1097E00004F060FD0EE0002020720748406948B197
:1097F00001208DF80000ADF8025003484169684629
:10980000884700BFF8BD0000BC4A002010B5012207
:1098100000210846FFF72CFA044600BF1CB1072CB4
:1098200001D0204610BD00BF072202210120FFF712
:109830001FFA044600BF1CB1072C01D02046F1E7F7
:1098400000BF042202210020FFF712FA044600BFE5
:109850001CB1072C01D02046E4E700BF0020E1E75F
:109860002DE9FF4105460C46002002900390ADF81B
:109870000840ADF80A40009001906A4602A92846C7
:1098800090DF0646002E32D0304603F083F80746BC
:1098900019491A4A891AC908012242EA01403B467D
:1098A0002A46174902F098FABDF8000010B9BDF831
:1098B000020068B1BDF80230BDF800200E490F4F1C
:1098C000C91BC908012747EA01400EA102F084FA2A
:1098D000BDF8040058B1BDF804200749074BC91A68
:1098E000C908012343EA0140164902F069FA3046EB
:1098F00004B0BDE8F08100006C0203006C020300BC
:10990000FCF90200546865207265717565737465B1
:10991000642054582F5258207061636B6574206C1A
:10992000656E67746820697320746F6F206C6F6E4A
:10993000672062792025752F2575206F6374657403
:10994000732E000048FA02002DE9F0418046002401
:1099500014E01248006800EBC405287803F0A6F96B
:1099600007466878012800D100E00020784080F0A8
:1099700001062878314600F0BDFB641C08480078D9
:109980008442E6DB0748D0E90010002359405840E4
:10999000014301D005F02EF9BDE8F081F04100202F
:1099A000F44100200042002070B504460E46132109
:1099B000204676DF05465DB10649074A891AC9087F
:1099C000022242EA01402B462246044902F004FAF0
:1099D00070BD0000CC0203006C020300B8F9020065
:1099E00010B50021034801F0D5F9044684F31000B6
:1099F00010BD0000BC52002070B505460C464FF467
:109A0000803000FA04F1284600F05AFB70BD70B5B2
:109A100005460C464FF4A07000EB840086B2314638
:109A2000284600F0DFFB70BD2DE9F04704460D46E7
:109A300016461F464FF4803000FA05F84FF4A07028
:109A400000EB85001FFA80F926F07F46414620682A
:109A500002F078FC4146206802F06EFC494620681E
:109A600002F063FC32462946206802F055FC41466C
:109A7000206802F064FC1FB14146206802F065FCDA
:109A8000BDE8F08710B50446206802F04AFC10BD1E
:109A90002DE9F04704460D46174660792F4941F8F5
:109AA000207060792E4901EBC000007968B108266A
:109AB0002C492D4A891AC908022242EA01402BA1E9
:109AC00002F074F93046BDE8F08729882068C0F8B4
:109AD000081500BF94F90420AB78104619460028F9
:109AE0000CDA4FEA417C4FEA1C69DFF8A4C000F0B1
:109AF0000F08A8F104080CF8089007E04FEA417C31
:109B00004FEA1C68DFF88CC00CF8008000BF00BF73
:109B100094F9040000BF00F01F02012191404209A6
:109B2000920002F1E022C2F8001100BF00BF012044
:109B300061790B4A02EBC10108716079114641F865
:109B4000304000260749084A891AC908032242EA18
:109B5000014011A102F02AF93046B4E74842002042
:109B60004C420020B40203006C0203005254432014
:109B7000696E7374616E636520616C72656164798E
:109B800020696E697469616C697A65642E000000F1
:109B900018ED00E000E400E05254433A20696E6999
:109BA0007469616C697A65642E00000010B5014625
:109BB00091F9040000F01F0301229A40024B44096E
:109BC00043F8242000BF10BD00E200E070B5054658
:109BD0000C4622460221284600F07EFA70BD10B5E0
:109BE00004464FF48271204600F0FCFA10BD10B517
:109BF00004460021206802F0ABFB10BD10B50446FE
:109C00000421206802F0A4FB10BD2DE9F84F0446A2
:109C10000D46164699464FF4803000FA05FB4FF486
:109C2000A07000EB850080B2009026F07F46594678
:109C3000204600F045FA206802F073FB07462068D2
:109C400000F5A86151F825108A463A462946206851
:109C500002F062FB2068009902F067FB394650462B
:109C600004F022FF012806D1102002F037FF2068FF
:109C7000009902F05AFB206802F053FB0746394670
:109C8000304604F011FF80465946206802F057FB29
:109C9000B8F1010F0FD1721C2946206802F03CFB7D
:109CA000102002F01BFF206802F03BFBB84227D0D7
:109CB0000D20BDE8F88F32462946206802F02CFBC3
:109CC000206802F02EFB0746701E394604F0ECFEB9
:109CD00080466FF07F40A0EB0900404501D20D2087
:109CE000E7E7B8F1000F0BD1721C2946206802F09B
:109CF00013FB206802F015FBB84201D00D20D8E715
:109D000001225946204600F0E7F90020D1E77047CC
:109D100010B510480068407E60B106210120FEF7B2
:109D200003FA044624B10B480068416903208847C0
:109D3000002010BD01200749096808760121084666
:109D4000FEF7F2F904461CB10020024909680876C2
:109D50002046EEE7C842002014480068401C38B98D
:109D600013480178124808300078C0F3031205E068
:109D70000E4801684FF08050D0F83421062912D1E6
:109D8000032A06D0042A06D0052A06D0062A08D1BE
:109D900005E0012070470120FCE70120FAE70120DF
:109DA000F8E70120F6E70020F4E70000300100109A
:109DB000E00F00F014480068401C38B913480178DF
:109DC000124808300078C0F3031205E00E4801681D
:109DD0004FF08050D0F83421062912D1032A06D042
:109DE000042A06D0052A06D0062A08D105E001205B
:109DF00070470120FCE70120FAE70120F8E7012085
:109E0000F6E70020F4E7000030010010E00F00F05A
:109E100014480068401C38B91348017812480830CB
:109E20000078C0F3031205E00E4801684FF080503F
:109E3000D0F83421062912D1032A06D0042A06D0EC
:109E4000052A06D0062A08D105E001207047012026
:109E5000FCE70120FAE70120F8E70120F6E70020FF
:109E6000F4E7000030010010E00F00F00E48027827
:109E70000D4808300078C0F30311062A12D10329D7
:109E800006D0042906D0052906D0062908D105E008
:109E9000012070470020FCE70020FAE70020F8E7E7
:109EA0000020F6E70020F4E7E00F00F00E4802681B
:109EB0004FF08050D0F83411062A12D1032906D071
:109EC000042906D0052906D0062908D105E000207E
:109ED00070470020FCE70020FAE70120F8E70120A6
:109EE000F6E70020F4E70000300100101448006895
:109EF000401C38B913480178124808300078C0F384
:109F0000031205E00E4801684FF08050D0F834216C
:109F1000062912D1032A06D0042A06D0052A06D023
:109F2000062A08D105E0012070470120FCE7012046
:109F3000FAE70120F8E70120F6E70020F4E7000047
:109F400030010010E00F00F00E4802780D48083094
:109F50000078C0F30311062A12D1032906D0042980
:109F600006D0052906D0062908D105E00120704752
:109F70000020FCE70020FAE70020F8E70020F6E7E1
:109F80000020F4E7E00F00F014480068401C38B9E6
:109F900013480178124808300078C0F3031205E036
:109FA0000E4801684FF08050D0F83421062912D1B4
:109FB000032A06D0042A06D0052A06D0062A08D18C
:109FC00005E0012070470120FCE70120FAE70120AD
:109FD000F8E70120F6E70020F4E700003001001068
:109FE000E00F00F00E4802780D4808300078C0F30A
:109FF0000311062A12D1032906D0042906D0052907
:10A0000006D0062908D105E0012070470020FCE7B2
:10A010000020FAE70020F8E70020F6E70020F4E748
:10A02000E00F00F00E4802780D4808300078C0F3C9
:10A030000311062A12D1032906D0042906D00529C6
:10A0400006D0062908D105E0012070470020FCE772
:10A050000020FAE70020F8E70020F6E70020F4E708
:10A06000E00F00F014480068401C38B9134801782C
:10A07000124808300078C0F3031205E00E4801686A
:10A080004FF08050D0F83421062912D1032A06D08F
:10A09000042A06D0052A06D0062A08D105E00020A9
:10A0A00070470020FCE70120FAE70120F8E70120D3
:10A0B000F6E70020F4E7000030010010E00F00F0A8
:10A0C00070B504460D462946206802F035F9294648
:10A0D000206802F037F970BD70B504460E4615468B
:10A0E0003146206802F02BF91DB13146206802F09C
:10A0F0002CF970BDF8B505460C46284604F0FCFB6B
:10A1000005286AD2DFE800F003212A393F00DCB1DC
:10A110000121284604F000FC002000906846FDF76D
:10A1200025FA2A460126002730463946FCF799F9D8
:10A130002B4AD2E9003218431143294A03C29DF841
:10A140000000FDF719FA00BF47E00CB1022000E063
:10A1500000200146284604F0DFFB3EE044B1032125
:10A16000284604F0D9FB0121284605F036F903E022
:10A170000121284604F0D0FB2FE01CB90421284619
:10A1800004F0CAFB29E024B10321284604F0C4FBF3
:10A1900022E00021284604F0BFFB0021284605F0FC
:10A1A0001CF9002000906846FDF7E0F92A460126D8
:10A1B000002730463946FCF754F90A46C143D043DC
:10A1C000074B0CCB11401840054AC2E900109DF81E
:10A1D0000000FDF7D1F900BF00BF00BFF8BD0000CF
:10A1E0000042002070B505460C462868015929B187
:10A1F0002146286802F099F8012070BD0020FCE794
:10A2000070B504460D462A460021204600F00EF89F
:10A21000A068401CA06070BD01468A68C868801AAA
:10A22000704701468A68C868801A704710B583680D
:10A230000B44848823400468E35C137010BDC2683B
:10A2400083881A4003689954C268521CC2607047E0
:10A2500070B505460E46144624B13146284600F036
:10A260005BFD03E03146284600F038FD70BD30B597
:10A2700004461088C01C984201D90C2030BD022031
:10A28000158848551088401C1080012015884855B5
:10A290001088401C108015884C551088401C108078
:10A2A0000020EBE770B504460D4640F21442115B06
:10A2B0000122D4F81004FDF733FB064606B13570D1
:10A2C00004F13C0204F5826104F1540072DF70BDB8
:10A2D000F7B50D4617460DB90020FEBD00260098C3
:10A2E00068B1002409E02146684600F006FD18B177
:10A2F000A0B23946A847761C641C142CF3D3304610
:10A30000EBE770B504460D46E0B2FDF7F9F82046DC
:10A3100070BD00003EB500BF9DF8000020F00F00AA
:10A32000401C00909DF8000020F0F00010300090DC
:10A3300000BF0B2216A168467CDF044600BF2546FD
:10A3400035B100BF15A2A7212846FBF763FF00BF68
:10A3500000BF0020019002901020ADF804003C20C6
:10A36000ADF806000020ADF808004FF4C870ADF855
:10A370000A0001A87ADF044600BF254635B100BFB8
:10A3800006A2B1212846FBF745FF00BF00BF3EBD36
:10A390004E6F726469635F55415254002E2E5C2EDD
:10A3A0002E5C2E2E5C6D61696E2E630070B50546C5
:10A3B0000C4660880D490988884215D1208840F6EE
:10A3C0007721884210D1A088C01E09490880094918
:10A3D000094A891AC908032242EA014004490B8844
:10A3E0000A8806A101F0F8FC70BD0000A041002021
:10A3F000A2410020CC0203006C020300446174619E
:10A40000206C656E2069732073657420746F203032
:10A41000782558282564290070B51149114800F0A5
:10A420006CFD044600BF25463DB100BF0EA24FF4AF
:10A430000F712846FBF7EEFE00BF00BFF721094869
:10A4400000F04CFD044600BF25463DB100BF06A20A
:10A4500040F23F212846FBF7DDFE00BF00BF70BD84
:10A46000ADA30200D04200202E2E5C2E2E5C2E2E9C
:10A470005C6D61696E2E630070B50B48FFF702FBDF
:10A480000A4B0CCB841843F10005094903C9201A73
:10A4900075EB010004D24FF08073E41845F100051C
:10A4A0002046294670BD00000842002018420020C6
:10A4B000204200202DE9F04104468846E0B2FEF734
:10A4C000C5FE0546287802F0F1FB074668780128AA
:10A4D00000D100E00020784080F001064EB106482F
:10A4E000D0E90010002359405840014301D104F045
:10A4F00081FBBDE8F08100000042002010B501F0B2
:10A50000C9FA08B901F082FE10BD00000246002120
:10A510000CE001EB8100074B33F82000904204D19E
:10A5200001EB810003EB80007047491C0029F0D04B
:10A530000020F9E7A84A00202DE9FC5F83460E467B
:10A5400091461F46DDE90C45002E01DA704200E01D
:10A55000304682464FF0010803E09AFBF9FA08F111
:10A560000108CA45F9DA474500D9B84634B1002E8A
:10A5700003DB05F00400042800D1641E05F002008E
:10A5800000B167B105F0010048B944B104E0641EB0
:10A5900020215846FEF73EFE0CB1A045F7D3002E11
:10A5A00005DA76422D215846FEF734FE07E005F025
:10A5B0000400042803D12B215846FEF72BFE05F09A
:10A5C000020002280DD105F0010050B94FB944B185
:10A5D00004E0641E30215846FEF71CFE0CB1A04575
:10A5E000F7D33B464A4631465846CDE9004504F08C
:10A5F00039FEBDE8FC9F00002DE9F04104460E46FF
:10A600004FF48E71206802F0E0F94FF4A2712068D7
:10A6100002F0DBF91749206802F0E6F9206802F041
:10A620006DFA0546374628463946002809DA4A07B2
:10A630004FEA126C104A00F00F031B1F02F803C010
:10A6400003E04A07130E0D4A135400BF00BF2068F1
:10A6500002F054FA0546284600F01F0201219140FD
:10A660004209920002F1E022C2F8001100BF00BFCF
:10A67000BDE8F0818000020018ED00E000E400E099
:10A680002DE9F04104460E464FF48871206802F02F
:10A69000CCF94FF49071206802F0C7F94FF4927131
:10A6A000206802F0C2F94FF4A271206802F0BDF9EF
:10A6B0004FF4AC71206802F0B8F91849206802F034
:10A6C000C4F9206802F01EFA054637462846394686
:10A6D000002809DA4A074FEA126C114A00F00F030A
:10A6E0001B1F02F803C003E04A07130E0D4A135460
:10A6F00000BF00BF206802F005FA0546284600F0BA
:10A700001F02012191404209920002F1E022C2F8A9
:10A71000001100BF00BFBDE8F0810000100342003F
:10A7200018ED00E000E400E030B5024600201378A8
:10A73000C3F38003D3B1137803F00303012B02D0DA
:10A74000022B10D107E01388C3F383139B1C0C6802
:10A7500023440B6008E00B680225146805EB945451
:10A7600023440B6000E000BF00BF012030BD2DE995
:10A77000F0410446A08800EB020CB4F80480904538
:10A7800001DD104600E0A088A8EB0005E088C618AF
:10A79000B4F80680984501DD184600E0E088A8EB93
:10A7A00000074888B4F80080404504DB4888B4F8C6
:10A7B0000280404502DD0020BDE8F0818888A84283
:10A7C00002D38888604501D90020F5E7C888B842DF
:10A7D00002D3C888B04201D90020EDE70120EBE7A1
:10A7E0000146086808B102680A60704710B5084859
:10A7F000007850B1002405E0022C02D02046FEF77C
:10A80000E9F8641C042CF7D301E0FEF727F910BD2A
:10A81000B441002010B504460448007800F001005F
:10A8200018B103480078FEF7B7FA10BDB041002018
:10A83000AC41002010B502F041F9002001498870B8
:10A8400010BD0000544B0020F721018017214180EA
:10A85000002101714171FB2181711B21C171704780
:10A8600070B54FF48041002001F040FB044600BF6A
:10A8700025463DB100BF05A24FF43E712846FBF7C7
:10A88000C9FC00BF00BF01F0F1F870BD2E2E5C2E98
:10A890002E5C2E2E5C6D61696E2E63002DE9FF41EA
:10A8A00000272E4800F04EFA2C48001F00F04AFA0C
:10A8B0002B48406803902A48856803982840284917
:10A8C0000C3101EB800800BF03A94046FFF72CFFC5
:10A8D00030B10398284022490C3101EB800800E098
:10A8E00000E0F1E700BF00240AE00398411C284083
:10A8F00003911B490C3151F820004DF82400641CD1
:10A90000022CF2D3009800F0030001280DD0022899
:10A9100014D1BDF806700421009801EB9050401E40
:10A92000039901EB9000039009E0BDF806700098D0
:10A93000C0F3831003990844039000E000BF00BFF8
:10A940000648001F00F0F7F9064616B104490398BF
:10A950004860384604B0BDE8F0810000B8520020DD
:10A96000A04E002008B504F0DBFAFFF779FF04F0F1
:10A9700051F96846FEF788FC03F0DAF9FDF794FF19
:10A98000FFF7C8FCFFF748FD03F038FDFCF75CFA61
:10A99000FEF7DAFE09A0FCF789F90D490D4A891A7C
:10A9A000C908032242EA01400BA101F0FFF9FCF7BC
:10A9B0008FFA00BFFFF7A2FDFCE700000D0A55412A
:10A9C000525420737461727465642E0D0A00000085
:10A9D000CC0203006C0203004465627567206C6F53
:10A9E0006767696E6720666F722055415254206F09
:10A9F0007665722052545420737461727465642EAB
:10AA0000000000002DE9F04105460E461446984628
:10AA1000A888871C2088801C3844404502D90C2017
:10AA2000BDE8F081FE2F01D90C20F9E7781C2188C0
:10AA300070542088401C2080FF202188705420887A
:10AA4000401C208022889119288804F005FC218868
:10AA500008442080A88800280DDDA86808B90720D0
:10AA6000DEE7AA8823889819A968FBF70DFD2088DE
:10AA7000A988084420800020D2E72DE9FF4F87B045
:10AA8000044691461E46A2462546BAF806009AF8A4
:10AA900005104843001F0690BAF806B0301DB0FB01
:10AAA000FBF00590301DB0FBFBF10BFB1100049097
:10AAB000D9F8000081190698814202D90698801BB6
:10AAC00001E0D9F800000746C9F8007003E02D68DE
:10AAD0000598401E059005980028F8D10390049829
:10AAE000ABEB0008B84501D9384600E04046804647
:10AAF00023E00399089808440290281D049908440B
:10AB00000190149828B14246DDE90110FBF7BCFC26
:10AB100004E04246DDE90101FBF7B6FC00200490A9
:10AB20002D68A7EB0807039840440390BB4501D963
:10AB3000384600E05846804600BF002FD9D10BB000
:10AB4000BDE8F08F70B503460C469CB101F0FAF9F0
:10AB5000054600220AE0084800EB820108881E68CA
:10AB6000B04202D11A60002070BD521CAA42F2D33A
:10AB70000520F9E70020F7E7000000002DE9F84F75
:10AB800005460F46144698462878012804D168786F
:10AB900010B90720BDE8F88F2088801C404508D8F0
:10ABA0002878012807D12088801C6978084440450E
:10ABB00001D90C20EEE72088A8EB0000801E86B2A9
:10ABC00000962188891CC81969467DDF814600BF2F
:10ABD000484600B1DEE700BF2878022804D0687834
:10ABE000BDF80010884206DBBDF80000B04202DC70
:10ABF0004FF0090A0BE04FF0080A2878012805D128
:10AC00006878B04202DC6878009000E00096BDF8F9
:10AC10000000FE2801D90C20BCE7BDF80000401C54
:10AC2000218878542088401C2080208807F800A0C4
:10AC30002088401C20802088BDF800100844208017
:10AC40000020A7E710B5044609B90E2010BD92FBFD
:10AC5000F3F003FB102008B10920F7E72160002082
:10AC60006060A060A281E38100BFEFE770B5044699
:10AC70000D4629462046FBF7DBFA18B12A882168E1
:10AC8000881870BD0020FCE770B505460C4620888A
:10AC90006188884204D12846FBF70CFB012070BD77
:10ACA0000020FCE770B504460D4629462046FBF718
:10ACB000E4FA18B16A882168881870BD0020FCE7A2
:10ACC00070B505460C4620886188884204D1284624
:10ACD000FBF7CAFA012070BD0020FCE770B50546FD
:10ACE0000C4604F01F0301229A40D143620905EB90
:10ACF000820000F039F8064670BD10B502464809DA
:10AD000052F8200001F01F040123A340184008B1AD
:10AD1000012010BD0020FCE770B505460C4604F08C
:10AD20001F03012202FA03F1620905EB820000F021
:10AD30003CF8064670BD10B504460021204600F0E0
:10AD40001EF810BD10B504460121204600F02DF874
:10AD500010BDF8B504460D466A4629462046FBF765
:10AD6000FEFA06460098F8BDF8B504460D466A4658
:10AD700029462046FBF7D9FA06460098F8BDF8B5F3
:10AD800004460D466A4629462046FBF7CEFA06469B
:10AD90003046F8BDF8B504460D466A4629462046B9
:10ADA000FBF7AAFA06463046F8BDF8B504460D464C
:10ADB0006A4629462046FBF7ABFA06460098F8BDDE
:10ADC000F8B504460D466A4629462046FBF7D4FAF4
:10ADD00006460098F8BDF8B504460026002000900D
:10ADE0006846FCF7C3FB206800686168884215D993
:10ADF00020680068401E226810600178204600F03C
:10AE000033F80646207A21680978401AC5B22068CE
:10AE10000079A84201DA2068057100BF9DF80000A2
:10AE2000FCF7AAFB3046F8BD0246D068081A138A20
:10AE3000B0FBF3F0C0B27047F8B504460D462E469D
:10AE4000002000906846FCF791FB31462046FFF752
:10AE5000EBFF21680A68511C2368196010709DF887
:10AE60000000FCF789FBF8BD0246138AD06801FB9D
:10AE70000300704710B5014600BF09B90E2010BD90
:10AE800000BF087A0B79C01AC2B2D1E9003018604D
:10AE900005E008680368581C0C6820601A70101ED2
:10AEA000A2F10103DAB2F4D10B68187100BFE6E732
:10AEB00030B502460B46D40802F00702012090404C
:10AEC0001D5D284030BD30B50B46C20800F00700BC
:10AED0009C5C012585402C439C5430BD024600BF3C
:10AEE0000AB90E20704700BF172901DBF72901DDE1
:10AEF0000720F7E711800020F4E770B504460E46FE
:10AF000000BF0CB90E2070BD00BF2661F720208065
:10AF10006080FB202071002505E0A11D01EBC5002C
:10AF2000FFF792FC6D1C002DF7D00020EBE700002E
:10AF30002DE9F047064688464546B488012C01DBDA
:10AF4000BDE8F0873088242820D006DC102809D0FE
:10AF500011280CD0232823D11DE03A280CD05528E5
:10AF60001ED10EE03146284602F070FB19E0314652
:10AF7000284602F08EFC14E03146284602F0F8FC28
:10AF80000FE03146284602F08FFC0AE031462846A1
:10AF900002F0FCFB05E03146284602F021FC00E00F
:10AFA00000BF00BFA81D00EBC400007918B3A81DA6
:10AFB00030F834102046A5DF074657B90021A81DF8
:10AFC00000EBC40001710121A81D00EBC400417118
:10AFD00010E0112F0ED0384601F0DCFC8146074905
:10AFE000074A891AC908012242EA01404A4605A1D6
:10AFF00000F0E6FE00BF00BFA2E700006C02030005
:10B000006C02030073645F626C655F6761747463F4
:10B010005F65786368616E67655F6D74755F7265A3
:10B02000717565737428292072657475726E656414
:10B030002025732E00000000024600BF0AB90E2032
:10B04000704700BF00BF1078DE2801D00820F7E766
:10B0500000BF51800020F3E7024600BF0AB90E206E
:10B06000704700BF00BF09B90E20F9E700BF107894
:10B07000DE2801D10820F3E708685060DE20107058
:10B080004FF6FF7050800020EAE770B504460E4688
:10B0900000BF06B970BD00BF00BF04B9FAE700BF2A
:10B0A000354600BF2878DE2800D0F3E700BFA0882F
:10B0B0006988884202D1284604F079F9208801285D
:10B0C00006D0022809D0112811D0512817D109E043
:10B0D000211D284602F03CFD12E0211D284602F009
:10B0E00036FD0DE0211D284602F0DCFC08E0A088BA
:10B0F0006988884202D14FF6FF70688000E000BF87
:10B1000000BF00BFC6E701464FF08040405808B17D
:10B11000012070470020FCE708B500224FF0804175
:10B120000A500958009100BF08BD0000014908609D
:10B130007047000008030040012291070A50704741
:10B1400070B540F6F8700068401C18B94FF0102038
:10B15000406902E040F6F87000680546681C002867
:10B160001CD01449144A891AC908032242EA014032
:10B170002A4612A100F024FE284613DF04465CB1E3
:10B180000C490D4A891AC908012242EA014016A158
:10B1900000F00CFE204670BD0020FCE70549064A81
:10B1A000891AC908012242EA01401CA100F0FEFDF3
:10B1B0000420F0E7CC0203006C02030053657474B2
:10B1C000696E6720766563746F72207461626C6566
:10B1D00020746F20626F6F746C6F616465723A20C7
:10B1E00030782530387800004661696C65642072DB
:10B1F000756E6E696E672073645F736F66746465E5
:10B20000766963655F766563746F725F7461626CA3
:10B21000655F626173655F73657400004E6F2062E5
:10B220006F6F746C6F616465722077617320666FF5
:10B23000756E640010B50E490E4A891AC9080322BA
:10B2400042EA01400C4A0DA100F0BAFD0A4813DFA2
:10B2500004465CB10649074A891AC908012242EA34
:10B26000014011A100F0A2FD204610BD0020FCE726
:10B27000CC0203006C02030000600200536574748A
:10B28000696E6720766563746F72207461626C65A5
:10B2900020746F206D61696E206170703A20307883
:10B2A00025303878000000004661696C65642072C2
:10B2B000756E6E696E672073645F736F6674646524
:10B2C000766963655F766563746F725F7461626CE3
:10B2D000655F626173655F736574000010B500247B
:10B2E0000C48007808B1852411E0002009498860E5
:10B2F00048600861C860084801F0CEFB044601F0D0
:10B3000065FA08B901F0BEFB012002490870204629
:10B3100010BD0000544B0020AD95020008B5002080
:10B3200000906846FCF722F90748C068401E0649AD
:10B33000C8600846C06808B9FFF77CFA9DF80000AD
:10B34000FCF71AF908BD0000544B00202DE9F0412C
:10B3500088B004460F46154626781A4840F826500D
:10B360001949386941F82600787F18498855202204
:10B3700039466846FBF788F804964FF000082078B5
:10B380001249085C50B10DB1114800E0002002469E
:10B390006946201D01F0BAFE80460EE020780B4978
:10B3A000085C50B90DB10B4800E000200246694628
:10B3B00004F10C0001F072FD8046404608B0BDE883
:10B3C000F0810000D4410020D8410020DC41002061
:10B3D000E1F00200E9EE02002DE9F04104460D46DD
:10B3E0001646002720780C49085C30B132462946C1
:10B3F000201D01F0CBFE07460AE020780649085CD4
:10B4000030B93246294604F10C0001F08BFD0746A5
:10B410003846BDE8F0810000DC4100202DE9F04114
:10B4200004460D461646002720780C49085C30B1CA
:10B4300032462946201D01F045FF07460AE02078E4
:10B440000649085C30B93246294604F10C0001F087
:10B45000FBFD07463846BDE8F0810000DC410020D6
:10B460000FB438B50446059810B938BC5DF814FB24
:10B470000020009006A800906A462046059900F03A
:10B4800012F80020009000BFEFE770B50446A068F6
:10B4900000B970BDD4E90403A26821689847002070
:10B4A000A06000BFF5E72DE9FC5F82460D4614461B
:10B4B0000DB9BDE8FC9F00BF2E786D1C06B9E1E018
:10B4C000252E70D100274FF0010900BF2E782B2EBA
:10B4D0000CD02D2E02D0302E0CD103E047F0010706
:10B4E0006D1C0AE047F002076D1C06E047F00407F8
:10B4F0006D1C02E04FF0000900BF00BFB9F1000F62
:10B50000E4D14FF0000800BF2A2E06D12168081DA3
:10B510002060086880446D1C0DE02E78302E01DB21
:10B52000392E00DD07E06D1CA6F1300008EB880124
:10B5300000EB4108E8E700BF4FF0000B2E782E2EFD
:10B5400010D16D1C00BF2E78302E01DB392E00DDAE
:10B5500007E06D1CA6F130000BEB8B0100EB410BFB
:10B56000F1E700BF2E7800BF6C2E01D0682E02D10B
:10B570006D1C2E7800E000E0F6E700BF692E21D0B8
:10B5800008DC252E6DD0582E39D0632E0CD0642EB9
:10B590006CD116E0702E4CD0732E3ED0752E1FD07D
:10B5A000782E63D12AE065E02168081D2060D1F87B
:10B5B000009009F0FF00019050460199FDF72AFE26
:10B5C00055E000BF2168081D2060D1F800905B465F
:10B5D0000A2249465046CDE90087FEF7ADFF46E016
:10B5E0002168081D2060D1F800905B460A22494678
:10B5F0005046CDE9008703F035FE38E000BF2168F2
:10B60000081D2060D1F800905B4610224946504644
:10B61000CDE9008703F026FE29E02168081D20609F
:10B62000086801903B4642465046019903F002FAF1
:10B630001DE02168081D2060D1F80090302150469F
:10B64000FDF7E8FD78215046FDF7E4FD00200821D4
:10B650000B461022CDE900104946504603F002FE89
:10B6600005E025215046FDF7D5FD00E000BF00BFF5
:10B670006D1C03E031465046FDF7CCFD28780028CC
:10B680007FF41AAF00BF9AF80C0010B15046FFF7D4
:10B69000FCFE00BF0DE7F0B5DDE9054500BF4FF04A
:10B6A000A0473E4641EA420747EA830747EA0427A4
:10B6B00047EA054C06F5E06747F820C0F0BDF0B555
:10B6C000DDE9054500BF4FF0A0473E4641EA42078D
:10B6D00047EA830747EA042747EA054C06F5E0678F
:10B6E00047F820C0F0BDF0B5DDE9054500BF4FF0DB
:10B6F000A0473E4641EA420747EA830747EA042754
:10B7000047EA054C06F5E06747F820C0F0BDF0B504
:10B71000DDE9054500BF4FF0A0473E4641EA42073C
:10B7200047EA830747EA042747EA054C06F5E0673E
:10B7300047F820C0F0BD7CB505460C4600200090BF
:10B7400023460246014601902846FFF7CCFF7CBD08
:10B750007CB505460C460020009023460246014673
:10B7600001902846FFF7D3FF7CBD1CB5044600209E
:10B77000009003460122114601902046FFF7B3FFD7
:10B780001CBD1CB504460020009003460122114652
:10B7900001902046FFF7BBFF1CBD10B50A4600BF55
:10B7A0004FF0A043194601F5E06353F8203023F42D
:10B7B000403401F5E06343F8204053F8203043EA79
:10B7C000024401F5E06343F8204010BD014600BF8C
:10B7D0004FF0A040024600BFD2F81005C84000F06C
:10B7E0000100704700BF4FF0A0410A46012303FA51
:10B7F00000F1C2F8081500BF704700BF4FF0A0412C
:10B800000A46012303FA00F1C2F8081500BF704789
:10B8100010B561B900BF00BF4FF0A042134601242C
:10B8200004FA00F2C3F80C2500BF00BF0CE000BF13
:10B8300000BF4FF0A0421346012404FA00F2C3F8FF
:10B84000082500BF00BF00BF10BD000038B50B4683
:10B85000074C24680094014606E05DF82140D4F8C6
:10B8600010551560121D491CC4188C42F5D838BDFE
:10B87000F0F50200014601480844704700600040AE
:10B8800038B504462046FFF7F5FF00210160204649
:10B89000FFF7F0FF0068009000BF38BD10B5044608
:10B8A0002046FFF7E7FF0068012800D110BD002007
:10B8B000FCE7000001490860704700000463004095
:10B8C00070B504460E46FBF721FF0546681C08B913
:10B8D000284670BDE8B2E168087100BF0C48D0F896
:10B8E000100430B90A48C0F810440020E16808602C
:10B8F0000BE00748D0F81004C0680068E1680860F1
:10B900000348D0F81004C06804602846E1E700004E
:10B91000A04E0020704710B5FAF77CFF10BD7047AD
:10B9200038B504460D4604484023044A2946009091
:10B93000204600F005F838BDE1E20200084D002085
:10B940002DE9F04F93B082460E4617469846DDF833
:10B950007090304600F0EFFB18210DA8FAF7ADFD0E
:10B960000D97CDF83880CDF8489000252B46082259
:10B9700007A9304600F0FCFB082509980A90BDF89D
:10B980002000ADF82C00BDF82200ADF82E000020FC
:10B990008DF83100079800F0030001281BD10798AB
:10B9A0004FEA902B0798C0F3C2008DF8300007983B
:10B9B000C0F38314A2002B4601A9304600F0D8FB47
:10B9C00005EB84050DA80AAB224601A90090584654
:10B9D00000F0F0FA27E0079800F00300022822D1D7
:10B9E00007984FEA905B0798C0F3C2008DF83000CB
:10B9F00000BFBBF1080F01D2584600E00820044602
:10BA00002B46224605A9304600F0B2FB2544ABEB9D
:10BA1000040B0DAB0AAA214605A800F009FABBF1F8
:10BA2000000FE6D100BF304600F093FB13B0BDE835
:10BA3000F08F000010B502460B4C04EBC203012945
:10BA400006D0022906D0032906D0042908D105E032
:10BA5000022007E0042005E0187903E0587901E0AE
:10BA6000002000BF00BF10BD6C02030010B54FF0F6
:10BA7000FF34FFF750FF04210548FFF721FF04467C
:10BA800000BF01200249C968487100BF10BD000015
:10BA90005C0203002DE9F04F8BB0FDF7CBFB18B132
:10BAA00000200BB0BDE8F08F0020B749C1F81804A2
:10BAB00000BF00BF00BFBFF34F8F00BF00BF00BF7C
:10BAC000084640680A90084684680A9820400C316D
:10BAD00001EB800A002500260020069000BF0AA97D
