:020000040002F8
:1060000000730020C1630200C9630200CB63020079
:10601000CD630200CF630200D163020000000000E4
:10602000000000000000000000000000D363020038
:10603000D563020000000000D7630200D9630200AC
:10604000A1670200DB630200D16D0200D969020082
:10605000ED690200DB630200596502000D68020071
:10606000DB630200396D0200516D0200DB63020048
:10607000DB630200DB630200DB630200DB63020020
:10608000DB630200F5670200DB630200DB630200F2
:10609000DB630200DB630200256A0200DB630200AF
:1060A000DB630200DB630200DB630200DB630200F0
:1060B000DB630200DB630200000000000000000060
:1060C000DB630200DB630200DB630200016A0200A3
:1060D000DB630200DB630200DB6302000000000000
:1060E00000000000000000000000000000000000B0
:1060F00000000000000000000000000000000000A0
:10610000000000000000000000000000000000008F
:10611000000000000000000000000000000000007F
:10612000000000000000000000000000000000006F
:10613000000000000000000000000000000000005F
:10614000000000000000000000000000000000004F
:10615000000000000000000000000000000000003F
:10616000000000000000000000000000000000002F
:10617000000000000000000000000000000000001F
:10618000000000000000000000000000000000000F
:1061900000000000000000000000000000000000FF
:1061A00000000000000000000000000000000000EF
:1061B00000000000000000000000000000000000DF
:1061C00000000000000000000000000000000000CF
:1061D00000000000000000000000000000000000BF
:1061E00000000000000000000000000000000000AF
:1061F000000000000000000000000000000000009F
:10620000DFF80CD000F06AF900480047DDAF02006B
:106210000073002030B450E8012F93B2C4892344A6
:106220008489A34228BF1B1B0489A34202BFBFF37A
:106230002F8F002007E0C3EA020340E80134002C5E
:10624000E9D14FF001000A6030BC704750E8012FDF
:10625000C2EA024240E801210029F7D1704730B478
:1062600050E8022F1FFAA2F3C488A34202BFBFF373
:106270002F8F00200DE0C48923448489A34228BFC6
:106280001B1BC2EA034340E80234002CE8D14FF064
:1062900001000A6030BC704750E8022FC2EA224277
:1062A00040E802210029F7D17047034653E8022F46
:1062B000D988B2EB324F4FF0000017BF92B241EADB
:1062C000014142EA014104E05A68B2EB324F08BF93
:1062D000012043E80212002AE8D1704730B4044696
:1062E00054E8000F0D4644E80053002BF8D1156028
:1062F00030BC704730B4044654E8000F40EA010552
:1063000044E80053002BF7D1156030BC704730B41F
:10631000044654E8000F00EA010544E80053002B4E
:10632000F7D1156030BC704730B4044654E8000F14
:1063300080EA010544E80053002BF7D1156030BC1A
:10634000704730B4044654E8000F00EB010544E800
:106350000053002BF7D1156030BC704730B40446B1
:1063600054E8000FA0EB010544E80053002BF7D1DF
:10637000156030BC704770B404464FF0000054E81C
:10638000006F0D68AE4207BF44E80023012044E8D7
:1063900000630E60002B1CBF0020F0E770BC70474C
:1063A00030B4044654E8000F88422CBF451A054615
:1063B00044E80053002BF5D1156030BC7047000055
:1063C0000648804706480047FEE7FEE7FEE7FEE78F
:1063D000FEE7FEE7FEE7FEE7FEE7FEE7A16A020052
:1063E000016202002DE9F05F0546002092469B46BF
:1063F00088460646814640241BE0284641464746DB
:10640000224600F05AF853465A46C01A914110D31A
:1064100011461846224600F016F82D1A67EB0108BF
:106420004F4622460120002100F00DF817EB00092D
:106430004E41201EA4F10104DFDC484631462A46C5
:106440004346BDE8F09F202A04DB203A00FA02F11F
:10645000002070479140C2F1200320FA03F3194352
:106460009040704740EA01039B0703D009E008C948
:10647000121F08C0042AFAD203E011F8013B00F809
:10648000013B521EF9D27047D2B201E000F8012B55
:10649000491EFBD270470022F6E710B513460A46A4
:1064A00004461946FFF7F0FF204610BD421C10F8C5
:1064B000011B0029FBD1801A7047202A04DB203AF7
:1064C00021FA02F00021704721FA02F3D040C2F114
:1064D000200291400843194670470000064C074DC2
:1064E00006E0E06840F0010394E8070098471034A4
:1064F000AC42F6D3FFF788FE581903007819030061
:1065000070B58C1810F8015B15F0070301D110F875
:10651000013B2A1106D110F8012B03E010F8016BA2
:1065200001F8016B5B1EF9D12B0705D40023521E25
:106530000DD401F8013BFAE710F8013BCB1A921C8D
:1065400003E013F8015B01F8015B521EF9D5A1428B
:10655000D8D3002070BD00002DE9F04F89B000278E
:10656000002008904FF4807007900126002412E06C
:10657000079805F0C9FB40B100BF7B480068304078
:1065800018B1079805F0B2FB374376000798001D55
:1065900080B20790641C082CEAD34FF4BE7005F05B
:1065A000B3FB50B14FF4BE7005F0A0FB47F00047BD
:1065B00008AA0121002005F07FFBF8B200B30126F4
:1065C00000241BE006EA0700B0B100BF674850F89E
:1065D0002400C0F30420804600BF644850F8240023
:1065E000C0F301408146204602F066FD054615B124
:1065F00049464046A84700BF7600641C082CE1D3FA
:1066000007F0004000287DD000200690059000256E
:1066100005E04FF0FF3004A941F825006D1C002D66
:10662000F7D000BF0020069000245FE05048005DD6
:106630000390039820F0C0094D480057401C0028E3
:1066400053D004A9484604F064FE00284DD00398B6
:106650004FEA901A484602F037FD804602F02CFDC2
:106660000290029810B9BAF1030F3DD1BAF1030FAD
:1066700003D105A9484604F057FE00BF00BF4FF004
:10668000A041084600F5E06151F82910C1F3014826
:1066900000BF08A9484604F03CFE8346BBF1000F4A
:1066A00002D0B8F1020F05D0BBF1000F1BD1B8F139
:1066B000030F18D1BAF1030F0FD1B8F1020F01D1B6
:1066C000032000E0022001904846019905F07CFA81
:1066D0000698401CC0B2069000BF029818B15146FF
:1066E0004846029A904700BF00BF641C042C9DD30B
:1066F000069888B34FF0010803AA0121002005F095
:10670000DBFA00E02DE000250BE003A850F825009F
:1067100008A951F82510884202D04FF0000802E085
:106720006D1C002DF1D000BFB8F1000F02D0002089
:10673000069010E000250CE003A850F8250008A9F9
:1067400041F8250005A850F8250004A941F82500C6
:106750006D1C002DF0D000BF069800287FF462AFBA
:1067600000BF09B0BDE8F08F046300401065004031
:10677000504F002010B50446122000BF4FF0A04338
:106780001946D1F80425012383409343C1F8083505
:10679000012383401340C1F80C3500BF10BD000039
:1067A00010B54FF4807004F0B1FE80B14FF48070EA
:1067B00004F0B5FE012004F0BBFE0D48407930B96D
:1067C00001200B49487108460168002088474FF4B2
:1067D000827004F09BFE50B14FF4827004F09FFE73
:1067E000022004F0A5FE024801680120884710BD80
:1067F000C442002010B5034A1068034A1168884754
:1068000010BD00002C43002028430020FEB54FF4AB
:10681000827005F051FB002837D04FF4827005F0EC
:1068200055FB6C4890F82E0018B16A4890F82F007C
:1068300058B300208DF80000664840680190654814
:106840000189ADF80810C06818B9002061490874C2
:1068500012E06048008B5F4948830846C068486082
:106860000846008B08810020C860084690F82E007A
:1068700010B9002005F042FB564801686846884779
:106880000020544981F82F0000BF524890F82E0094
:10689000002852D04FF4807005F00EFB00284CD039
:1068A0004FF4807005F012FB4A48408B494991F83B
:1068B0002D10884216DD4748408B464991F82D102F
:1068C000401A444948830A4612890B465B8BD21A08
:1068D0000B465B6803EB42000A4692F82D1005F068
:1068E000D7FA23E03B48408B3A4991F82D10884273
:1068F0000FD13848C06860B10120364981F82F00B7
:10690000002048830A4692F82D10D06805F0C0FA9E
:106910000CE03048408B2F4991F82D10884205D16A
:1069200001202C4981F82F00002048834FF4827009
:1069300005F0CCFA042005F0E1FA4FF4887005F078
:10694000BBFA70B14FF4887005F0C0FA00202149FD
:10695000087402208DF800000846016868468847E0
:1069600000BF4FF48A7005F0A7FA38B14FF48A706F
:1069700005F0ACFA0020174908742AE0154845696B
:1069800024E0B5FA85F64FF00040F0408543B000B2
:1069900000F58C74204605F08FFAB8B1204605F05A
:1069A00095FA01208DF80000A4F58C70C0F3C700A3
:1069B0008DF80400A4F58C70012121EA90018DF876
:1069C0000510044801686846884700BF002DD8D1EB
:1069D00000BFFEBDC44F002010B50249024809F0B7
:1069E0006DFB10BD305000200030004010B5034951
:1069F0004FF0402006F010FC10BD00006C5000204D
:106A000010B50249024804F04FFA10BD0C500020A6
:106A10000030024010B509F015F809F07BF809F0D4
:106A200093F810BD10B505F09BFB10BDFEB5134AE1
:106A300007CA8DE8070000252E4605B9104D3146DE
:106A4000284605F0B9FE044600BF00BF254625B123
:106A500000BF284600F0F8FB00BF00BF69460020D9
:106A600005F03EFE044600BF254625B100BF28467E
:106A700000F0EAFB00BF00BFFEBD000010130300E2
:106A80000C13030010B5044600F09EFB10BD00007F
:106A900001480249086070470090D00380430020FD
:106AA00010B503F055F928B192480088C0F30420CE
:106AB0009149086003F0A8F910B1904890494867DF
:106AC00003F0E2F930B18B48E0380068C0F342309F
:106AD0008C49086003F006FA28B18B48006820F062
:106AE00080708949086003F01DFA48B10020874989
:106AF00008604FF08041C1F810018249091F086009
:106B000003F03EFA18B103207E496431086003F0B7
:106B100057FA68B105207E49086001207C49783128
:106B2000086000207A49083108603F20091F08608A
:106B300003F066FA002855D06E48E03000687549C9
:106B400008606C48E4300068091D08606948E83056
:106B50000068091D08606748EC300068091D08607E
:106B60006448F0300068091D08606248F43000682D
:106B7000091D08605F48F8300068664920310860E8
:106B80005C48FC300068091D086063480068091D06
:106B900008606148001D0068091D08605E480830F3
:106BA0000068091D08605C480C300068091D086019
:106BB0005948103000685749403108605648143031
:106BC0000068091D0860544818300068091D0860F5
:106BD00051481C300068091D08604F48203000688B
:106BE000091D086003F086F830B14248CC380068CF
:106BF00000F04F004949086003F0D8F840B1484818
:106C0000006800F0010018B16FF00100444908600D
:106C100003F01AF928B14348006840F48060414904
:106C2000086039487438006840F470003649743997
:106C3000086000BF00BF00BFBFF34F8F00BF00BFA1
:106C400000BF00BF00BF00BFBFF36F8F00BF00BF1A
:106C500000BF3548006800F0004028B93248001DE8
:106C6000006800F00040E8B301203049086000BF30
:106C70002F4800680028FBD015202B49086000BF72
:106C80002B4800680028FBD015212748001D016013
:106C900000BF274800680028FBD000202349086077
:106CA00000BF234800680028FBD000BF00BF00BF22
:106CB00000BF00BFBFF34F8F00BF00BF00BF12482F
:106CC000F038006800F4E0601A490843001D0E49DE
:106CD000F039086000BF00BF00BFBFF34F8F00BF97
:106CE00000BF00E003E000BF00BF00BFFDE7FFF70B
:106CF000CFFE10BD24030010403501400DF0ADBAA9
:106D000000C007403C050040FCED00E00C010040E5
:106D10001056004020C5004024040010E40E00403E
:106D2000000400403C1700400012001004E5014040
:106D300000E401400000FA0510B5042202490348AE
:106D400004F084F810BD0000AC4F0020009000401B
:106D500010B504220249034804F078F810BD000081
:106D6000B84F002000A0004010B50248006800F0B5
:106D700014FB10BD3413030010B50848006800F080
:106D80000CFB074A0121054800F0A6FA00224FF447
:106D900080410248006800F0E5FA10BD341303009A
:106DA0007567020010B50848006800F0F6FA074A57
:106DB0000121054800F090FA00224FF400510248EA
:106DC000006800F0CFFA10BD3413030075670200AD
:106DD00010B502490868804710BD0000CC42002071
:106DE00070B506465A480078E8B100205849087046
:106DF00000BF58480388584A5849594801F026FDB1
:106E00000446082C0CD0132C0AD0052C08D000BF47
:106E1000254625B100BF284600F016FA00BF00BF86
:106E2000132CE6D000BF4F480078022800DA70BD6E
:106E30004D480078092800DDF9E74B4840781028D4
:106E400000DDF4E748480078022808D14648407839
:106E5000042804D145490868804704466EE042484A
:106E60000078012815D140484078042811D13E4AC5
:106E7000927812063C4BDB7802EB03423A4B1B79CB
:106E800002EB0322384B5B79D018384A51688847A7
:106E900054E035480078032806D13348407818B9C3
:106EA00032498868804749E02F480078052808D192
:106EB0002D484078042804D12C49C86880470446EE
:106EC0003CE029480078042809D127484078042864
:106ED00005D1264801692448801C88472EE02248B5
:106EE0000078062806D12048407818B91F4948691B
:106EF000804723E01C480078082807D11A484078CA
:106F0000042803D119498869804717E0164800789A
:106F1000072809D114484078042805D11348C169CD
:106F20001148801C884709E00F480078092805D1DE
:106F30000D48407810B90D49086A8047002009497A
:106F40000870F4210848FFF7A6FA00BF6FE70000B9
:106F5000AC410020A2410020AA410020AD41002008
:106F600084410020A0410020004800205849002012
:106F700002E008C8121F08C1002AFAD17047704702
:106F8000002001E001C1121F002AFBD17047000060
:106F90000146202908DA012088400A4A104008B139
:106FA000012070470020FCE7402909DAA1F1200008
:106FB000012202FA00F008B10120F2E70020F0E718
:106FC0000120EEE7FC06FFBD00BFEFF3108108468D
:106FD00072B67047014601F0030008B901207047FE
:106FE0000020FCE7024650680068401E084008B9CF
:106FF000012070470020FCE70246002104E0505CBD
:1070000008B101207047491C0629F8D30020F9E790
:1070100010B50346D868884206D88818401E1C69F7
:10702000A04201D8012010BD0020FCE710B50446A5
:107030006CB10848C068A04209D806480069A0425F
:1070400005D3204603F085FF08B1012010BD0020C4
:10705000FCE700008443002070B504460D4604F2AE
:107060002740FFF7C9FF0646012D06D0022D0DD09F
:10707000032D11D0042D19D113E0A07928B194F873
:10708000240010B90EB1012070BD00BFE07910B12D
:107090000EB10220F8E700BF207A08B10320F3E721
:1070A00000BF607A08B10420EEE700BF0020EBE7E4
:1070B0000146481C052290FBF2F302FB1300C0B20C
:1070C0007047014691F82420012A01D1EE2000E00A
:1070D0001F20704710B501220221002001F0E2FDBF
:1070E000044600BF1CB1072C01D0204610BD00BFD4
:1070F00007220221012001F0D5FD044600BF1CB18A
:10710000072C01D02046F1E700BF0A2200210846E3
:1071100001F0C8FD044600BF1CB1072C01D0204679
:10712000E4E700BF0020E1E710B504462C2120462B
:10713000FFF7B1F901202071402020614FF4FA706F
:10714000606110BD30B5ABB0AC216846FFF7A3F964
:1071500002208DF8000000208DF8020006208DF836
:1071600003000121ADF84C101449149101218DF850
:107170007C10402122914FF4FA71239101218DF866
:107180007D104FF4487124914FF47A7125910C4889
:10719000299069460B4800F08AFC044600BF25464A
:1071A00025B100BF284600F04FF800BF00BF012105
:1071B000044800F079FC2BB030BD0000A64100204F
:1071C0009DDB0200CC43002070B50321064800F08F
:1071D00019FD044600BF254625B100BF284600F032
:1071E00033F800BF00BF70BDCC43002072B600BFB3
:1071F0001348006800F0010000B100BE00BF00BFEE
:1072000000BF00BF00BF00BFBFF34F8F00BF00BF74
:1072100000BF0B48E438006800F4E0600949084307
:10722000001D0749E439086000BF00BF00BFBFF37D
:107230004F8F00BF00BF00BF00BF00BFFDE70000D1
:10724000F0ED00E00000FA053EB504460020009095
:107250000190029002946A46002144F20100FFF777
:10726000C5FF3EBD70B504460D46204603F048F903
:1072700028B12946204603F037F9002070BD0520CB
:10728000FCE7034609B90E20704712B1501E1040AA
:1072900008B10920F8E71960501E98800020986016
:1072A000D86000BFF0E770B504460D46204603F0F5
:1072B00027F9A188884205D82946204603F033F9EA
:1072C000002070BD0420FCE710B5024802F09AFAD5
:1072D00010BD0000E842002010B503460C460AB974
:1072E000072010BD19684A61012C01D1012000E07E
:1072F000002008610020F4E738B5134800680090CA
:107300000823582211491248006803F035FF04464B
:107310000CB1204638BD0F4A69460F4802F078FA92
:1073200004460CB12046F5E701210B4802F0DAFAD9
:1073300001230A4A1946084802F036FA0120084992
:1073400008702046E6E70000381603007850002059
:10735000281603004BF00200E8420020FFFF7F00E8
:10736000F44200202DE9F04106460D46174634460A
:10737000207F10B10020BDE8F081A76103F0A0FBE1
:10738000401941F10001C4E90201206900B1256101
:107390002146002008F0BCFDEDE770B50446254607
:1073A000002028772946012008F0B2FD70BD0000BA
:1073B0002DE9F04104460F48077821460E48FFF7B3
:1073C00051FF804697B100200A49087001220B49FD
:1073D0000B4804F0F7F9054600BF2E4626B100BF62
:1073E0003046FFF731FF00BF00BF00BF4046BDE899
:1073F000F081000026430020E050002025430020BB
:107400000C4300202DE9F04188B004460E46174693
:1074100098462B4807601EB9072008B0BDE8F081E8
:10742000B08882B227483168FFF72BFF054600BFBE
:10743000284600B1F1E700BFB08982B22248B168A6
:10744000FFF71FFF054600BF284600B1E5E700BF74
:1074500020221E496846FFF705F860690690207CE7
:1074600008B1012000E000208DF814008DF81C8088
:10747000607C08B10E2000E000208DF81500E06867
:107480000290A06803902068019060680090104A04
:107490006946104804F050F9054600BF284600B17F
:1074A000BBE700BF00200C4908702068401C28B1D1
:1074B00001220A49074804F085F9AEE70020ACE74D
:1074C00020430020E0500020F05000203C16030034
:1074D000310903000C4300202643002025430020EF
:1074E0002DE9F041054629461448FFF7DCFE064623
:1074F00006BB134C002720781249085C20B1201DE0
:1075000006F00EFB074608E020780E49085C20B91B
:1075100004F10C0006F0ACF9074600BF57B90A4960
:107520000648FFF79FFE28B901220749044804F0E6
:107530006BF906463046BDE8F0810000F0500020AF
:107540000C430020C04200202443002010B5044614
:10755000204607F0C1FE10BD70B5044625460E4812
:107560008068B0B1ADB9FFF72FFD06460A48006844
:107570000A490860084840684FF0E021C1F804015A
:107580000020054988601EB900BF62B600BF00BF79
:1075900000BF00BF70BD00000051002000E100E00E
:1075A000F8B505460C4617462088001DB84201D99B
:1075B0000C20F8BD684679DF064600BF304600B1B2
:1075C000F7E700BF0320218868542088401C2080F2
:1075D0001920218868542088401C20802088411967
:1075E000BDF8000009F0EAFB218808442080002053
:1075F000DFE770B505460C462068401C28B12068BE
:1076000004F011FB206804F0BBFA6068401C18B15C
:107610000021606804F09AFA2868A169C0F824156E
:1076200000BF617D227D286841EA0203C0F86C3505
:1076300000BFD4E90012286804F003FF207D012870
:1076400014D1A068401C18B10021A06804F07EFA93
:10765000E068401C28B1E06804F0E5FAE06804F056
:107660008FFAD4E90221286804F0D4FE70BD70B509
:1076700005460C462068401C28B1206804F0DEFA5C
:10768000206804F089FA6068401C18B10021606825
:1076900004F069FA2868A169C0F8241500BF617D6B
:1076A000227D286841EA0203C0F86C3500BFD4E9A6
:1076B0000012286804F0FDFE207D012814D1A06886
:1076C000401C18B10021A06804F04DFAE068401C8D
:1076D00028B1E06804F0B2FAE06804F05DFAD4E999
:1076E0000221286804F0C6FE70BDF0B58FB00446D4
:1076F0000D46287B0190202107A8FEF7CCFE42F61C
:107700001920ADF81C000120ADF82000ADF82200D2
:1077100001A80990617C9DF8290061F304108DF89F
:1077200029009DF8290020F00200801C8DF8290016
:10773000A87B8DF82F00687B8DF82D00A088A21DF6
:1077400007A901F00FFD064616B130460FB0F0BD97
:10775000A86800B36846A96801F077F907461421C4
:1077600002A8FEF798FE42F60810ADF80800E87B84
:107770008DF80E00ADF81270BDF81200ADF81600CD
:10778000CDF818D0E08804F10E0202A901F069FFDB
:1077900006463046DAE70020E08100BFD6E710B5A4
:1077A000044600F001F810BD10B52DED028B82B03B
:1077B0000020019001A905F073F89FED1F0AB0EEBB
:1077C000408ABDF9040000EE100AB8EEC00ADFEDF1
:1077D0001B0A20EE200A9FED1A1AC0EE010AB3EE32
:1077E000020A30EEC00AB3EE021AC0EE010A9FEDA3
:1077F000120A20EE800AB0EE408ABCEEC80A10EEF3
:10780000100AC1B24FF6FE720E4800F0B5FA0446F7
:1078100074B1082C0CD0132C0AD0112C08D043F2D0
:107820000140844204D000BF2046FFF70DFD00BF99
:1078300002B0BDEC028B10BD0000C8420000104237
:10784000000080449843002070B504460D46214650
:107850002846AEDF0646304670BD2DE9F0410446AD
:107860000F46154615B90E20BDE8F08100202860AE
:1078700000BF0CB90E20F7E700BF00BF206808B9B1
:107880000E20F1E700BF00BFE088C11700EB917147
:107890008910A0EB810109B10720E5E700BF384658
:1078A00000F060FBC6B2142E01D10520DCE7207980
:1078B000B04201DC0420D7E7E188206806FB010024
:1078C00028600020D0E72DE9FC4105468846164691
:1078D000002437880020308095F82D0058B13A46B2
:1078E0003146404600F078FB044600BF204608B110
:1078F000BDE8FC8100BFA87850B13A463146404609
:10790000FFF74EFE044600BF204600B1F0E700BF7F
:10791000E87860B1E97848B23B463246414602F029
:107920004BFE044600BF204600B1E1E700BF686897
:1079300068B1696891F900003B463246414608F05B
:107940009FFF044600BF204600B1D1E700BF288951
:1079500000280EDD43460622022105F10800CDE98C
:10796000006709F0A8FA044600BF204600B1BFE74F
:1079700000BF288A00280EDD43460722032105F1B7
:107980001000CDE9006709F096FA044600BF2046D2
:1079900000B1ADE700BF288B00280EDD434615225D
:1079A000142105F11800CDE9006709F084FA0446B6
:1079B00000BF204600B19BE700BF286A58B13B4694
:1079C00032464146286A01F04FFD044600BF20467A
:1079D00000B18DE700BF686A58B13B463246414668
:1079E000686A03F01FFB044600BF204600B17FE732
:1079F00000BF95F82C0000280BDD3B46324641467F
:107A0000284607F027FD044600BF204600B16FE777
:107A100000BF287858B13B4632464146284603F01D
:107A20003CFB044600BF204600B161E700BF204692
:107A30005EE7F8B504460E461546002000902B463A
:107A40006A463146204600F008F807460FB9002084
:107A5000F8BDBDF800002044FAE7F0B504460D4635
:107A600004B10AB90020F0BD002103E0605C401CB5
:107A7000084481B21088884203DC481C205C98428C
:107A800001D0A942F2DBA94201DB0020EBE7881C10
:107A900086B2605C401E87B2F019A84201DD00206A
:107AA000E1E716803846DEE780F83010704770B5A1
:107AB00004460D4605B10CB90E2070BD05F17800E5
:107AC00001F073FC08B90720F7E70020A0702C2212
:107AD00005F17801201DFEF7C5FC002084F8300078
:107AE000D5F8A4006063D5F8A800A0634FF6FF7036
:107AF000A4F8240404F58260C4F82004002140F2B4
:107B00002C40C4F82614A4F82A140155207810B982
:107B1000FF2084F8540004F15500C4F810042046F6
:107B2000FFF7CFFA40F21441085304F2144204F173
:107B300055012846FFF7C7FE064600BF304600B194
:107B4000BBE700BF04F231204FF4836108512046A7
:107B5000FFF7B7FAA4F81C044FF48360015904F24C
:107B60001C4205F13C00FFF7AEFE064600BF304662
:107B700000B1A2E700BF012151200155208B81B245
:107B800048200153012084F83C000021216450204A
:107B900001556169616404F13C02002104F1540063
:107BA00072DF064600BF304600B186E700BF012005
:107BB0002070304681E770B504460D462C222946D8
:107BC000201DFEF74FFC70BD70B504460D462E46D5
:107BD0002088102804D0112807D026280FD109E0CA
:107BE0002146304606F0D2F80AE02146304606F03B
:107BF000AFF905E02146304606F015FB00E000BF76
:107C000000BF70BD70B504460E46207808B9082044
:107C100070BDA670002140F22C40C4F82614A4F8D0
:107C20002A140155A07910B1A078012809D0E07973
:107C300010B1A078012804D0E07970B1A0780228B2
:107C40000BD1606B30B1012084F82D040820616BEA
:107C5000884702E0002084F82D0431462046FFF7D3
:107C6000FBF9A070606BA0B1A078032802D0A078C7
:107C700004280ED1607960B194F82E0448B9002030
:107C800084F83004012084F82F040720616B8847B2
:107C900002E0002084F82F04182104F13C00FEF7D4
:107CA000FAFB012084F83C0004F12C0006F01EFDD4
:107CB00020B194F82C105120015502E001215120EF
:107CC000015594F8240060B104F1280006F00EFD7F
:107CD00020B194F828105220015502E001215220D1
:107CE0000155002150200155A078052824D2DFE855
:107CF00000F01F030A11180004F13C01204607F0B0
:107D00008DFC054619E004F13C01204607F06EFCAD
:107D1000054612E004F13C01204607F091FC0546BF
:107D20000BE004F13C01204607F0B8FC054604E0F6
:107D3000002084F8310000E000BF00BFA07898B1B7
:107D400004F13C0204F15400D4F8201472DF05461B
:107D50000DB128465CE794F8301094F8540073DFB6
:107D600005460DB1284653E7606B18B194F8310011
:107D7000616B884700204BE7F7B592B00446164682
:107D800014B90E2015B0F0BD0027002010901190FE
:107D90000120ADF840000020ADF8420013A811907A
:107DA000E18810AA4FF6FF70ACDF07461FB99DF8B7
:107DB0004C00207401E03846E4E7607C00283CD0A9
:107DC00000200C900D900E900F90E088ADF83000E0
:107DD00001208DF83200BDF84200ADF8340010A843
:107DE0000E9011980F904FF6FE7086421FD101A899
:107DF00000F0AEF8002516E002A931F8150000F0F9
:107E0000C7F802280ED13FB902A830F815100CA807
:107E1000FFF71AFD074605E002A830F815100CA878
:107E2000FFF712FD6D1C0198A842E5D804E0314629
:107E30000CA8FFF709FD074600E008273846A1E730
:107E4000F8B504460D4604B10DB90E20F8BD2868FA
:107E5000206028796074FF20207400BF01208DF815
:107E6000020041F60F00ADF8000000BF221D694678
:107E70000120A8DF064600BF304600B1E6E700BF9C
:107E800029462046FFF731FC06463046DEE770B54E
:107E900004460D4605B104B970BD2E462088502811
:107EA00004D12146304606F065FA00E000BF00BF6D
:107EB00000BFF1E72DE9F041044600BF14B90E20E0
:107EC000BDE8F08100BF1C2221461C48FEF7CAFA1B
:107ED0001B481A490860206860B120687ADF0546AF
:107EE0000DB12846ECE7164821680A680260496827
:107EF000416005E012487BDF05460DB12846DFE70B
:107F0000002617E006EB86000E4901EB800700BF54
:107F10004FF6FF70388000BF0B4800EB46107860CA
:107F20000A4A0021381DFFF7D7F905460DB1032095
:107F3000C6E7761C002EE5D00020C1E7544E002095
:107F400064420020404E0020204E0020F90D030026
:107F500010B5044602484168204601F03AFA10BDC7
:107F6000704E002010B50446204600F027F808B1F6
:107F7000204610BD1420FCE770B504460D460349A9
:107F800088682A46214602F081FB70BD704E0020B1
:107F900070B504460025204600F010F850B1214687
:107FA000054803F044F906460EB1022000E0012026
:107FB000054600BF284670BD784E002010B5044627
:107FC000142C01DB002010BD2146024803F02FF9DC
:107FD000F9E70000744E00202DE9FC4105460C46EF
:107FE000174620880930B84202D90C20BDE8FC8130
:107FF00068466DDF064600BF304600B1F6E700BFB9
:108000000820218868542088401C20801B2021885B
:1080100068542088401C208020882844DDF8011006
:108020000160BDF8051081802088801D20809DF8AA
:108030000000400818B900202188685402E001209F
:10804000218868542088401C20800020CEE7000052
:1080500070B503F077FA044600BF204600B170BD4A
:1080600000BF00BF084D28464FF0030C00DF00BFE3
:10807000044600BF204600B1F1E700BF03F07CFAE0
:1080800004462046EBE70000D4520020014600BF22
:1080900009B90E20704700BF014801600020F9E7D0
:1080A0007C43002010B54FF0FF3100203DDF044637
:1080B00000BF204600B110BD00BFB12100203CDF51
:1080C000044600BF204600B1F5E700BF04484169FF
:1080D00001208847022003F081FE0020EBE700002A
:1080E000B852002010B50548006841690020884753
:1080F000FFF7D8FF0446204610BD00007C43002057
:1081000010B588B0044620216846FEF7C4F9032064
:10811000ADF8000020788DF802009DF80D0020F0E9
:10812000200020308DF80D009DF80D0020F0080093
:1081300008308DF80D0001208DF810008DF80C002E
:108140001720ADF8040001208DF813008DF81200FF
:108150008DF811006088A21D694601F003F808B08F
:1081600010BD000030B585B00546244B0FCB8DE81F
:108170000F0000BF15B90E2005B030BD00BF4FF68F
:10818000FF701F49888028684861002008760846EB
:10819000406908B91B4848611948FFF777FF044652
:1081A00000BF204600B1E7E700BF00BF01208DF807
:1081B00012004FF65960ADF8100000BF104A921C33
:1081C00004A90120A8DF044600BF204600B1D3E780
:1081D00000BF0B49684662DF044600BF204600B17D
:1081E000CAE700BF0648FFF78BFF044600BF2046E2
:1081F00000B1C1E700BF0020BEE700008017030008
:10820000B8520020279A020070B504460D4600BF00
:1082100004B970BD00BF2088102806D0112808D0EE
:1082200051280AD0532810D10BE0204605F0A8FDB4
:108230000CE0204605F07EFE08E0204605F09CFF9D
:1082400004E0204605F010FF00E000BF00BF00BFC3
:10825000DFE7000070B504460426207B012802D029
:10826000022822D109E001F0EDFC05460DB90126F6
:1082700002E0112D00D1062619E0607B142801DCF4
:10828000607B08B905260FE0627B04F10E011248FD
:10829000FEF7E8F8607B1049091F8861084607F07F
:1082A0002BFA054605B9012601E0022600BF00BFF2
:1082B000012E0FD0207B314600F058F8054625B13D
:1082C00006480068416903208847044800684169FE
:1082D0000220884770BD0000E45200207C4300204B
:1082E00070B505460E4600BF1E48006820B11D4807
:1082F000406808B1012000E0002000B970BD00BF57
:10830000184800F10801426828469047044600BF1B
:10831000082C24D07CB90020134909684876012133
:10832000022000F023F80446CCB10F4800684169F0
:108330000320884713E000200B490968487606218E
:10834000022000F013F8044624B107480068416990
:10835000032088470448006841690220884700BF1D
:10836000CCE70000D45200207C430020F0B587B059
:1083700004460D46032700200190029003900490CC
:108380000320069020208DF814008DF815408DF8FC
:1083900016500E48C088ADF8040002208DF8060083
:1083A0000020ADF8080006A8039005A8049007492E
:1083B000888801A9AEDF064626B9BDF81800032853
:1083C00000D00C26304607B0F0BD0000B8520020A7
:1083D00030B58BB0044634B1012C14D0022C13D02C
:1083E000032C16D111E06846FEF79EFE01208DF8A1
:1083F000000069460948FFF7DEFB00210848FFF747
:10840000BBFD054606E005E004E000BF002000BF1C
:1084100000E000BF00BF0BB030BD0000CC43002027
:10842000699702007FB5044600BF01208DF80E0059
:1084300041F60A00ADF80C0000BF564A03A901201E
:10844000A8DF054615B1284604B070BD2088002875
:108450000DDD5148009094F83C30228842F62920E6
:10846000616800F037FE05460DB12846ECE720892B
:1084700000280DDD4948009094F83C30228942F6EE
:108480002420E16800F026FE05460DB12846DBE712
:10849000208A00280DDD4248009094F83C30228A62
:1084A00042F62520616900F015FE05460DB128460B
:1084B000CAE7208B00280DDD3A48009094F83C3044
:1084C000228B42F62720E16900F004FE05460DB13B
:1084D0002846B9E7208C00280DDD3348009094F839
:1084E0003C30228C42F62620616A00F0F3FD0546FE
:1084F0000DB12846A8E7208D00280DDD2B480090FF
:1085000094F83C30228D42F62820E16A00F0E2FD2A
:1085100005460DB1284697E7206B90B101A8216B65
:1085200007F02BFC2248009094F83C30082201A967
:1085300042F6232000F0CEFD05460DB1284683E724
:1085400000BF606B70B11B48009094F83C30606BCA
:108550000279016842F62A2000F0BCFD05460DB103
:10856000284671E7A06B90B101A8A16B06F0C9F88D
:108570001148009094F83C30072201A942F650209F
:1085800000F0A8FD05460DB128465DE700BF0020BC
:108590005AE700006C4200206E4200207642002024
:1085A0007E420020864200208E420020964200201B
:1085B0009E420020A6420020AE420020F8B50546AB
:1085C0000F462888212833D006DC10280BD011282C
:1085D00029D013287BD13BE03B285BD0522848D0E0
:1085E000562874D164E0072000F08AFB044600BFDF
:1085F000264626B100BF3046FEF726FE00BF00BF6C
:10860000A8883449088008460188334802F017FFDB
:10861000044600BF264626B100BF3046FEF714FED2
:1086200000BF00BF54E04FF6FF702A4908804FE0BA
:1086300000200090A88869468FDF044600BF2646C8
:1086400026B100BF3046FEF7FFFD00BF00BF3FE090
:1086500000231A4685211F4800887FDF044600BF9B
:10866000264626B100BF3046FEF7EEFD00BF00BF34
:108670002EE000231A46194616480088B1DF04464A
:1086800000BF264626B100BF3046FEF7DDFD00BF25
:1086900000BF1DE0A888132176DF044600BF2646F0
:1086A00026B100BF3046FEF7CFFD00BF00BF0FE090
:1086B000A888132176DF044600BF264626B100BFF6
:1086C0003046FEF7C1FD00BF00BF01E0FFE700BF7D
:1086D00000BFF8BDA2410020C043002070B5054690
:1086E0000E462888102802D011282CD115E01748F2
:1086F000006860B900F04CFF044600BF34B1144874
:10870000006818B1204612490968884700BF0F4821
:108710000068401C0D49086016E00C480068401EC7
:108720000A4908600846006860B9FEF7D3FC0446B1
:1087300000BF34B10648006818B1204604490968F2
:10874000884700BF00E000BF00BF70BD604200204E
:108750005C42002070B504460D462088102806D0E3
:10876000112808D012280ED0502810D107E020463A
:1087700005F094FA0CE0204605F0C2FB08E0204624
:1087800005F082FD04E0204605F070FA00E000BF2D
:1087900000BF70BD2DE9F04104460F46A688208831
:1087A000102806D0112817D019283DD01A2848D1F2
:1087B00016E006F00BFB304606F08CF920B900BF3E
:1087C0000420FEF741FD06E0E07B012803D031469E
:1087D0001D4802F03BFD34E0304606F073FB30E00C
:1087E000207A0509042D01DB012000E0002002466B
:1087F000314615480C3001F0D0FE032D01DB01207D
:1088000000E00020024631460F48083001F0C5FE66
:10881000022D01DB012000E00020024631460A481B
:10882000001D01F0BAFE0CE0207A48B9607AC0F36E
:10883000C0052A46314604480C3001F0AEFE00BFA8
:1088400000BF00BFBDE8F0817C4E00202DE9F04163
:1088500086B00446884617461D4600BF1CB90E2048
:1088600006B0BDE8F08100BF01AA29466069FEF7A5
:10887000F4FF064600BF304600B1F1E700BF4FF6F7
:10888000FF70854201D0019808B90520E8E70198FA
:10889000007808B90820E3E73888F42801DD0720CC
:1088A000DEE700200290039004900590A088ADF8C8
:1088B0000800CDF81480049701208DF80A0002A961
:1088C0002846AEDFCCE7000070B58EB004460E46F9
:1088D0003E4B0FCB09AD0FC500BF14B90E200EB033
:1088E00070BD00BF00BF0EB90E20F8E700BF3068B2
:1088F000A061214609A862DF054600BF284600B1F5
:10890000EDE700BF20788DF836000120ADF8340087
:10891000A21C0DA9A8DF054600BF284600B1DEE76E
:1089200000BF202101A8FDF7B6FD0220ADF804002C
:1089300020788DF80600F420ADF808000120ADF88D
:108940000A008DF810009DF8110020F00800083092
:108950008DF811009DF8110020F00400001D8DF825
:10896000110001208DF815008DF81600608804F1C3
:108970000C0201A900F0F6FB05460DB12846AEE752
:10898000202101A8FDF787FD0320ADF80400207821
:108990008DF80600F420ADF808000120ADF80A00BB
:1089A0008DF810009DF8110020F0100010308DF8A7
:1089B000110001208DF815008DF816008DF81700B4
:1089C0006088221D01A900F0CDFB88E7FC1303009D
:1089D00070B504460D4605B104B970BD2E46208819
:1089E000102804D0502807D057280FD109E021467D
:1089F000304605F08BF90AE02146304605F070FC60
:108A000005E02146304605F045FB00E000BF00BF11
:108A100000BFE2E770B504460D462846FDF746FD67
:108A20002080656070BD70B50446204608F0C0F92E
:108A30000546C5F3400070BD70B50446204608F0F9
:108A4000B7F9054605F0010070BD2DE9F041054676
:108A50000E46002432782146641C6A5472782146FE
:108A6000641C6A5400BF022C01D1012000E00020E8
:108A7000074627B900BF0020FEF7E6FB00BF00BF96
:108A80002046BDE8F08138B503F028FB044600BF5E
:108A9000254625B100BF2846FEF7D6FB00BF00BF24
:108AA000002000906946012003F03AFA044600BF16
:108AB000254625B100BF2846FEF7C6FB00BF00BF14
:108AC000684603F08DFA044600BF254625B100BF75
:108AD0002846FEF7B9FB00BF00BF012032DF044685
:108AE00000BF254625B100BF2846FEF7ADFB00BFFD
:108AF00000BF01203FDF044600BF254625B100BF6F
:108B00002846FEF7A1FB00BF00BF38BD10B50246E6
:108B10000949885C00BF4FF0A0442146D1F80435D4
:108B2000012484409C43C1F80845012484401C4032
:108B3000C1F80C4500BF10BDB013030010B50446CA
:108B40000249085D012103F09AF810BDB01303003B
:108B500010B504460249085D002103F090F810BDED
:108B6000B013030010B50146094B585C00BF4FF02D
:108B7000A044234600BFD3F80445C44004F00104D8
:108B80000CB1012000E00020024682F0010010BD7F
:108B9000B013030010B5002403E02046FFF7CEFF1A
:108BA000641C042CF9D310BD10B5002403E020464A
:108BB000FFF7CEFF641C042CF9D310BD02464FF022
:108BC000FF30002106E0054B5B5C934201D1084673
:108BD00002E0491C0429F6D300BF7047B413030018
:108BE0002DE9F04106460F464FF0000800243046BC
:108BF000FFF7E4FF0446042C3ED20FB3012F02D04E
:108C0000022F38D130E004EB4400214911F80080F4
:108C100004EB44000844407850B11E4A4FF48041B0
:108C20001D480068FEF79EFB05460DB91948067001
:108C300004EB4400164908448078184908551AE0A6
:108C400015480068FEF7A9FB1448005D04EB4401D9
:108C50000F4A11448978884205D104EB440011463B
:108C6000084490F8028006E004EB440008490844F8
:108C700090F8018000BF00BFB8F1000F06D008488F
:108C8000006818B14046064909688847BDE8F08188
:108C9000F04D002054420020C01303005542002034
:108CA0005042002030B503460020042B23D2012A75
:108CB00007D1012903D103F10E04E4B200E000243E
:108CC000224679B1012902D0022911D104E003EB37
:108CD00043040A4D2A550DE003EB4304074D2C4491
:108CE000627007E003EB4304044D2C44A27001E0E2
:108CF000072000BF00E0072030BD0000F04D00203D
:108D000070B5044600250548007800F0010018B150
:108D1000204600F005F80546284670BD4842002070
:108D20002DE9F047044600260025DA48007820B1F6
:108D30000020D849087002F01BF9182C7ED2DFE819
:108D400004F00C16174A7EB2F6F4F3F2F1F0EFEEEF
:108D5000EDECEBEAE9E8E7E6E5E402F009F9CE48F4
:108D60000068FEF71AFB0646CC4804708DE100BF90
:108D70000020FFF7F7FE58B10020FFF7DFFE022CBE
:108D800002D14FF4E16001E04FF47A60054609E05A
:108D90000020FFF7DDFE022C01D1C82001E04FF4D6
:108DA000C8700546BD4804704FF40040A5FB001094
:108DB0004FF47A73CF1840F100015A00002338466F
:108DC000FDF710FB814600224946B3480068FEF7D4
:108DD000C9FA064659E10020FFF7C4FE58B1002049
:108DE000FFF7ACFE032C02D14FF4487001E04FF4C2
:108DF0007A60054609E00020FFF7AAFE032C01D1A6
:108E0000C82001E04FF4C8700546A44804704FF430
:108E10000040A5FB00104FF47A728F1840F100015A
:108E2000520000233846FDF7DDFA8146002249460C
:108E300099480068FEF796FA064626E124E10020EC
:108E4000FFF790FE58B10020FFF778FE042C02D106
:108E50004FF47A6001E04FF47A6005460AE00020A2
:108E6000FFF776FE042C02D14FF4C87001E04FF4F6
:108E7000C8700546894804704FF40040A5FB0010F7
:108E80004FF47A73CF1840F100015A00002338469E
:108E9000FDF7A8FA8146002249467F480068FEF7A0
:108EA00061FA0646F1E00020FFF75CFE50B10020B9
:108EB000FFF744FE052C01D1C82001E04FF47A6091
:108EC000054609E00020FFF743FE052C01D1C8202C
:108ED00001E04FF4C8700546704804704FF400403C
:108EE000A5FB00204FF47A73D71840F100015A0017
:108EF00000233846FDF776FA814600224946664847
:108F00000068FEF72FFA0646BFE0B8E0B6E0AAE038
:108F1000A1E098E092E05FE05DE05BE059E057E0BF
:108F200051E042E033E024E015E00EE0FFE70020EE
:108F3000FFF7ECFD59480470002240F26661564884
:108F40000068FEF70FFA06469FE00020FFF700FEDC
:108F50005248047099E001204E490870FFF7D6FD91
:108F6000002240F266614C480068FEF7FBF90646B5
:108F70008BE0012047490870FFF7C8FD00224FF43D
:108F8000005145480068FEF7EDF906467DE00120F6
:108F900040490870FFF7BAFD002240F266613E4882
:108FA0000068FEF7DFF906466FE0012039490870D6
:108FB000FFF7ACFD00224FF4005137480068FEF780
:108FC000D1F9064661E0FFF7EFFD344804705CE03C
:108FD00000BF00BF00BF00BF31480068FEF7DDF9E9
:108FE0000646C4F1110515B30EBB012D18D9A8B260
:108FF000C82148434FF4004180FB01104FF47A72BE
:109000008F1840F10001520000233846FDF7EAF9BD
:1090100081460022494622480068FEF7A3F9064629
:109020000220FFF795FD01201E49087005E002208F
:10903000FFF784FD00201B49087026E001F098FF2F
:109040001648047021E001F093FF0020FFF780FD37
:109050001248047019E001F08BFF0120FFF778FD42
:109060000E48047011E001F083FF0020FFF770FD4F
:109070000120FFF76DFD0948047006E000BFFFF70F
:1090800093FD0648047000E000BF00BF3046BDE815
:10909000F087000045420020B8130300444200203E
:1090A000BC1303004C42002070B504460D462668F0
:1090B0000EB12846B04770BD0146024850F8210065
:1090C00070470000004F002001460148405670479D
:1090D000304F00202DE9F04389B006460D46144676
:1090E0001F46DDF8408000BF0DB1012000E00020E8
:1090F0008146B9F1000F04D100BF0020FEF7A4F8AB
:1091000000BF00BF00BF002C01DD012000E00020F7
:109110008146B9F1000F04D100BF0020FEF794F89A
:1091200000BF00BF202101A8FDF7B5F9ADF804602C
:10913000ADF80840ADF80A4003959DF8110020F005
:109140000200801C8DF811008DF81570424601A9AF
:109150000348008800F006F809B0BDE8F08300007D
:109160006C42002070B590B006460C461546A078BB
:1091700018B901208DF80E0002E0A0788DF80E00DD
:109180002088ADF80C0000200290607C02A906F057
:10919000D1FAA07C0DF1090106F0CCFAE07B08B110
:1091A000012000E000209DF80A1060F3C3018DF853
:1091B0000A10207C08B1012000E000209DF80A1070
:1091C00060F304118DF80A10207B08B1012000E043
:1091D00000209DF80A1060F300018DF80A10207D30
:1091E00008B1022000E001209DF80A1060F342015E
:1091F0008DF80A101C2109A8FDF74DF9607BC0F31A
:10920000001018B9607BC0F34010F8B10020009046
:10921000E07C0DF1010106F08DFA00BF9DF8000021
:1092200020F00F00401C8DF800009DF8000020F099
:10923000F00010308DF8000000BF9DF8020020F013
:109240000600801C8DF80200CDF838D0607B8DF8C8
:109250002400A07B8DF82500142104A8FDF71BF93C
:1092600003A8049002A80590A088ADF81C00A0688F
:1092700020B1E088ADF81800A0680890A069002827
:1092800049D000200190A0690088ADF82C00A069A9
:109290004088ADF82E00A06940680A9001A80D90A2
:1092A000A169087B01A906F045FAA169487B0DF187
:1092B000050106F03FFAA069807A08B1012000E0BC
:1092C00000209DF8061060F3C3018DF80610A06918
:1092D000C07A08B1012000E000209DF8061060F37C
:1092E00004118DF80610A069007A08B1012000E091
:1092F00000209DF8061060F300018DF80610A069AB
:10930000807B08B1022000E001209DF8061060F388
:1093100042018DF80610E06908B1E0690C902B4617
:1093200004AA09A93046AADF10B070BD70B5054681
:109330000DB9094C01E0084C083409E0204601F061
:1093400010FE064606B904E028467168884700BF4B
:10935000F4E700BF70BD0000F44E002010B50446D5
:109360002CB90120064948700020FFF7DFFF012CCF
:1093700004D1012002498870FFF7D8FF10BD00001A
:10938000EC4E00202DE9F047024613468C46D3E907
:109390000245DCE90267B6EB040877EB050002D36F
:1093A0000120BDE8F0870020FBE70146887801280E
:1093B00005D191F82000012801D100207047886A6A
:1093C000042802D0486A042801D10020F6E70120D1
:1093D000F4E733B58BB00546002000900C9878B1C7
:1093E00000240BE021460CA801F021FF28B1009ACF
:1093F000501C009001A820F81240641C142CF1D3DA
:109400002C2269462846FDF72DF80DB030BD0146E7
:109410000888062808DB0888B0F5486F06DD08884C
:109420004FF6FF72904201D0072070474888062807
:1094300008DB4888B0F5486F06DD48884FF6FF72B4
:10944000904201D00720F0E708884FF6FF72904263
:1094500008D04888904205D008884A88904201DDAB
:109460000720E2E70020E0E72DE9F04107460D463E
:10947000144698462088801D404502D90C20BDE83E
:10948000F0813846FFF7C3FF064600BF304600B103
:10949000F5E700BF0520218868542088401C208003
:1094A0001220218868542088401C2080228851196D
:1094B000388807F083FC21880844208022885119CD
:1094C000788807F07BFC2188084420800020D6E7BC
:1094D00010B5044600BF2046FDF7B6FE00BF10BD24
:1094E00030B587B01C216846FCF7D5FF00200090FE
:1094F0004FF4A03001904FF4F020029003208DF83B
:109500000C000020ADF80E008DF810000948059001
:10951000094806906846FEF7CDFC044600BF254684
:1095200025B100BF2846FDF78FFE00BF00BF07B082
:1095300030BD000041DC0200D1940200F8B50546C0
:109540000C46607A88B9207A10B91048476801E063
:109550000E4887682A4639466068FDF703FF0646CD
:1095600016B1304605F058FF0EE000202072074883
:10957000406948B101208DF80000ADF80250034861
:1095800041696846884700BFF8BD0000544E00207E
:1095900010B5012200210846FFF784FB044600BFF6
:1095A0001CB1072C01D0204610BD00BF07220221AC
:1095B0000120FFF777FB044600BF1CB1072C01D048
:1095C0002046F1E700BF042202210020FFF76AFBDA
:1095D000044600BF1CB1072C01D02046E4E700BFC1
:1095E0000020E1E77FB506460C460020029003907C
:1095F000ADF80840ADF80A40009001906A4602A913
:10960000304690DF054605B100BF284604B070BD66
:1096100070B506460D4616B14FF4064070BD287968
:1096200020B1012809D0022815D111E002202871AB
:10963000284605F0ADFA044610E0284600F07CFF0D
:10964000044648F20960844201D141F61D5405E008
:1096500041F61D5402E048F20E6400BF00BF2046F0
:10966000DCE770B588B005460C461646142103A801
:10967000FCF711FFA07818B901208DF80A0002E06C
:10968000A0788DF80A002088ADF8080002A80390A1
:10969000A07901A906F04EF8E0790DF1050106F078
:1096A00049F8E07808B1012000E000209DF806109C
:1096B00060F3C3018DF80610207908B1012000E0A5
:1096C00000209DF8061060F304118DF806106079F3
:1096D00008B1012000E000209DF8061060F30001B1
:1096E0008DF80610207A08B1022000E001209DF8D4
:1096F000061060F342018DF8061001A804906089FD
:10970000ADF81400A089ADF81600E089ADF8180096
:1097100020690790324603A92846ABDF08B070BD28
:1097200000B591B0402101A8FCF7B5FE07A101A842
:10973000FFF770F90AA10BA8FFF76CF901208DF86B
:10974000400001A8FEF76EFE11B000BD4E6F7264BE
:10975000696353656D69636F6E647563746F7200DE
:1097600053573A302E31000070B504460E4613218F
:10977000204676DF054670BD70B505460C464FF4B1
:10978000803000FA04F1284600F0F0FC70BD70B59E
:1097900005460C464FF4A07000EB840086B23146BB
:1097A000284600F0FDFC70BD2DE9F04704460D464B
:1097B00016461F464FF4803000FA05F84FF4A070AB
:1097C00000EB85001FFA80F926F07F4641462068AD
:1097D00002F054FB4146206802F04AFB49462068EB
:1097E00002F03FFB32462946206802F031FB414639
:1097F000206802F040FB1FB14146206802F041FBA7
:10980000BDE8F08710B50446206802F026FB10BDC5
:109810002DE9F04303460C4616465879254941F890
:1098200020605879244901EBC000007918B1082262
:109830001046BDE8F08321881868C0F8081500BFFD
:1098400093F90450A7782846394600280CDA4FEAE5
:10985000417C4FEA1C69DFF864C000F00F08A8F1F2
:1098600004080CF8089007E04FEA417C4FEA1C68B6
:10987000DFF84CC00CF8008000BF00BF93F9040073
:1098800000BF00F01F050121A9404509AD0005F109
:10989000E025C5F8001100BF00BF01205979064D31
:1098A00005EBC10108715879294641F83030002292
:1098B0001046BEE7284300202C43002018ED00E0AE
:1098C00000E400E010B5014691F9040000F01F0328
:1098D00001229A40024B440943F8242000BF10BDE6
:1098E00000E200E070B505460C46224602212846FB
:1098F00000F048FC70BD10B504464FF4827120465C
:1099000000F04EFC10BD10B504460021206802F0A6
:10991000BBFA10BD10B504460421206802F0B4FA69
:1099200010BD2DE9F84F04460D46164699464FF4F2
:10993000803000FA05FB4FF4A07000EB850080B288
:10994000009026F07F465946204600F00FFC206824
:1099500002F083FA0746206800F5A86151F8251047
:109960008A463A462946206802F072FA2068009931
:1099700002F077FA3946504606F045FA012806D13A
:10998000102002F0E1FD2068009902F06AFA2068D8
:1099900002F063FA07463946304606F034FA80464C
:1099A0005946206802F067FAB8F1010F0FD1721C16
:1099B0002946206802F04CFA102002F0C5FD20680C
:1099C00002F04BFAB84227D00D20BDE8F88F32469E
:1099D0002946206802F03CFA206802F03EFA074669
:1099E000701E394606F00FFA80466FF07F40A0EBFC
:1099F0000900404501D20D20E7E7B8F1000F0BD177
:109A0000721C2946206802F023FA206802F025FA29
:109A1000B84201D00D20D8E701225946204600F077
:109A2000B1FB0020D1E770472DE9FC5F07460C46EB
:109A30001546B5F5A07F02D90920BDE8FC9F00BFFF
:109A400001970120022301AA502100900D4801F046
:109A50005DFE064606B112E0DFF828804FF050099F
:109A600005F0FF0A4FF0000B53462246494608F125
:109A7000040003F0C9F9834600BF5E4600BF00BF83
:109A80003046DAE79013030010B586B05020144931
:109A900008700B2048700C2088704FF4004048601C
:109AA0001422104901A8FCF7DDFC0D480078019054
:109AB0000B48407803900A488078049000BF0A4A17
:109AC00001A90A4803F0D4FA044604B103E00748A8
:109AD00003F088FA00BF00BF204606B010BD0000AA
:109AE000384200207C130300950703007413030021
:109AF00010B5034803F05CFA014803F069FD10BD9E
:109B00007413030077B5B5B00E461446C82C02D9BD
:109B1000092038B070BDBDF8D400C82190FBF1F128
:109B20002044401EC822B0FBF2F0814201D0102038
:109B3000EFE700BFBDF8D400ADF80800224631467B
:109B40000DF10A00FCF78EFC00200090A01CC3B2AF
:109B500002AA5021034801F0D9FD054600BF28465E
:109B6000D7E700009013030038B5C8240D480088DB
:109B700000900C480088C830B0F5A07F05D909488E
:109B80000088C0F5A074002000900748054A12889C
:109B900081182246054803F0E7FCBDF800000149A2
:109BA000088038BD34420020A04B0020741303000D
:109BB000024909880144014A11807047344200205B
:109BC0000149088070470000344200200849098894
:109BD000B1F5A07F02D30021054A118004490A880B
:109BE0000988491C024B19800249885470470000BB
:109BF00034420020A04B002010B5CA22024903487D
:109C000003F0D6FA10BD0000E04C002074130300EE
:109C100070B50446012C12D90948007808494978E2
:109C200040EA01263046FFF7CBFF022504E0044955
:109C3000485DFFF7CBFF6D1CA542F8D300BF70BD98
:109C4000E04C002010B510480068407E60B106214D
:109C50000120FEF78BFB044624B10B4800684169E4
:109C600003208847002010BD0120074909680876B5
:109C700001210846FEF77AFB04461CB10020024988
:109C8000096808762046EEE77C4300202DE9F8437A
:109C900005460E461746984669461048006801F08A
:109CA0007FFA044614B90420BDE8F8831C2120463D
:109CB000FCF7F1FB012020712560C4F808800848FA
:109CC0000068B6FBF0F0E060676169460348006831
:109CD00001F090FA04F0D6FE0020E5E798160300A4
:109CE0008C16030010B50446D4E90321501828DF70
:109CF00010BD000014480068401C38B913480178B2
:109D0000124808300078C0F3031205E00E480168DD
:109D10004FF08050D0F83421062912D1032A06D002
:109D2000042A06D0052A06D0062A08D105E001201B
:109D300070470120FCE70120FAE70120F8E7012045
:109D4000F6E70020F4E7000030010010E00F00F01B
:109D500014480068401C38B913480178124808308C
:109D60000078C0F3031205E00E4801684FF0805000
:109D7000D0F83421062912D1032A06D0042A06D0AD
:109D8000052A06D0062A08D105E0012070470120E7
:109D9000FCE70120FAE70120F8E70120F6E70020C0
:109DA000F4E7000030010010E00F00F014480068F4
:109DB000401C38B913480178124808300078C0F3C5
:109DC000031205E00E4801684FF08050D0F83421AE
:109DD000062912D1032A06D0042A06D0052A06D065
:109DE000062A08D105E0012070470120FCE7012088
:109DF000FAE70120F8E70120F6E70020F4E7000089
:109E000030010010E00F00F00E4802780D480830D5
:109E10000078C0F30311062A12D1032906D00429C1
:109E200006D0052906D0062908D105E00120704793
:109E30000020FCE70020FAE70020F8E70020F6E722
:109E40000020F4E7E00F00F00E4802684FF0805069
:109E5000D0F83411062A12D1032906D0042906D0DD
:109E6000052906D0062908D105E00020704700200A
:109E7000FCE70020FAE70120F8E70120F6E70020E0
:109E8000F4E700003001001014480068401C38B9A5
:109E900013480178124808300078C0F3031205E037
:109EA0000E4801684FF08050D0F83421062912D1B5
:109EB000032A06D0042A06D0052A06D0062A08D18D
:109EC00005E0012070470120FCE70120FAE70120AE
:109ED000F8E70120F6E70020F4E700003001001069
:109EE000E00F00F00E4802780D4808300078C0F30B
:109EF0000311062A12D1032906D0042906D0052908
:109F000006D0062908D105E0012070470020FCE7B3
:109F10000020FAE70020F8E70020F6E70020F4E749
:109F2000E00F00F014480068401C38B9134801786D
:109F3000124808300078C0F3031205E00E480168AB
:109F40004FF08050D0F83421062912D1032A06D0D0
:109F5000042A06D0052A06D0062A08D105E00120E9
:109F600070470120FCE70120FAE70120F8E7012013
:109F7000F6E70020F4E7000030010010E00F00F0E9
:109F80000E4802780D4808300078C0F30311062A05
:109F900012D1032906D0042906D0052906D00629A6
:109FA00008D105E0012070470020FCE70020FAE717
:109FB0000020F8E70020F6E70020F4E7E00F00F0CB
:109FC0000E4802780D4808300078C0F30311062AC5
:109FD00012D1032906D0042906D0052906D0062966
:109FE00008D105E0012070470020FCE70020FAE7D7
:109FF0000020F8E70020F6E70020F4E7E00F00F08B
:10A0000014480068401C38B91348017812480830D9
:10A010000078C0F3031205E00E4801684FF080504D
:10A02000D0F83421062912D1032A06D0042A06D0FA
:10A03000052A06D0062A08D105E000207047002036
:10A04000FCE70120FAE70120F8E70120F6E700200D
:10A05000F4E7000030010010E00F00F00278072A5A
:10A0600038D2DFE802F037040712222B3400002236
:10A070000A7030E001220A7003898B818388CB81CA
:10A08000C2688A6000230B7425E002220A700389EB
:10A090008B818388CB81C2688A60827D062A01D148
:10A0A000012300E000230B7415E003220A70C3882B
:10A0B0008B810389CB81C2688A600CE004220A701C
:10A0C000C3888B810023CB8100228A6003E00522B4
:10A0D0000A7000E000BF00BF7047000030B587B0D5
:10A0E00004460D462068806808B907B030BD1821C5
:10A0F00001A8FCF7D0F90295A0680690207910B16C
:10A10000012815D109E001208DF804002069039091
:10A11000E0680490606905900BE002208DF804006F
:10A120000749E0680968484303906069059000E0CA
:10A1300000BF00BF2068816801A8884700BFD4E73E
:10A140008C16030070B50546002409E0064850F857
:10A15000240020B1044850F8241028468847641C85
:10A16000042CF3D370BD0000C851002070B5044624
:10A170000D462946206801F07BFE2946206801F043
:10A180007DFE70BD70B504460E461546314620680A
:10A1900001F071FE1DB13146206801F072FE70BD04
:10A1A00070B505460C462868015929B12146286832
:10A1B00001F057FE012070BD0020FCE7017821B1BD
:10A1C000012908D003290BD106E0416811B901210A
:10A1D000054A117005E004E00021044A517000E0D6
:10A1E00000BF00BF70470000DA410020D8410020C6
:10A1F00070B586B0142101A8FCF74DF92E480078FF
:10A2000028B101A8FFF79EFF002006B070BD2A48C4
:10A21000001D01F02AF808B10020F6E700F028FA46
:10A2200006460EB13046F0E704F054FB04F0A6F900
:10A23000054625B1022D03D0062D0ED103E000BF47
:10A2400048F20A60E1E701201B49087000204860DD
:10A2500001A8FFF777FF0020D7E700BF00BF6846DF
:10A2600004F0FCFA044614B948F20760CDE7012077
:10A2700020700C2D16D2DFE805F015061507151114
:10A280001512150A0E0B00BF002020710BE000BF55
:10A290000320207107E00220207104E000BF0120AC
:10A2A000207100E000BF00BF684604F0E7FA04F048
:10A2B000F7FB0020A9E700004843002038B504461A
:10A2C00014B948F2046038BD6946204604F07EFCAB
:10A2D00008B3BDF8000000EB8000114901EB8000DD
:10A2E000C068A8B1A07A98B1BDF8000000EB80006A
:10A2F00001EB8000C068401EBDF8001001EB810139
:10A30000074A02EB8101C8600020A072002504E02A
:10A3100048F2056501E048F209652846D3E70000E8
:10A320007452002070B504460D462B46224600218B
:10A33000084604F0E3FB70BDF8B504460D4604B1D1
:10A3400015B948F20460F8BD6946204604F03EFCA9
:10A35000A0B16668BDF8001001EB8101094A02EB6B
:10A36000810101F10C00012100F086FF2E60606880
:10A370000C3068600120A0720020E4E748F2096018
:10A38000E1E700007452002070B504460D46022338
:10A3900000222946204606F05FFE70BD70B50546D6
:10A3A00009480068042802D148F20B6409E0074814
:10A3B0000549096840F821500121034800F05CFF7D
:10A3C0000024204670BD000054430020C8510020E6
:10A3D0002DE9F84304464FF4806800262B480078A6
:10A3E00018B948F20160BDE8F88314B948F2046076
:10A3F000F9E712212046FCF74EF8032020800025C3
:10A400003FE005EB8500224901EB8000008905EB68
:10A4100085011F4A02EB81014989084487B205EB97
:10A42000850102EB8101486804F024F8032802D179
:10A430002088401E2080608805EB8501144A02EBCD
:10A440008101C96808446080208905EB850102EB21
:10A450008101498908442081608938446081C7F5B9
:10A46000806086B2A089B04200DAA68104F11000B3
:10A47000831EA21D211D0090284604F091FD681C3A
:10A4800085B2022DBDDB0020ADE70000484300206F
:10A490007452002030B585B01248FFF77FFFFFF7F8
:10A4A000A7FE044600BF254625B100BF2846FCF79D
:10A4B000CBFE00BF00BF06F091FD14216846FBF7FC
:10A4C000EAFF6846FFF784FF044600BF254625B132
:10A4D00000BF2846FCF7B8FE00BF00BF012005B052
:10A4E00030BD0000BDA1020070B504460D462A46ED
:10A4F0000021204600F00EF8A068401CA06070BD4E
:10A5000001468A68C868801A704701468A68C86828
:10A51000801A704710B583680B4484882340046810
:10A52000E35C137010BDC26883881A4003689954B5
:10A53000C268521CC26070473EB504460A4B6A4668
:10A540000021A01D04F0DAFA054635B9064A9188C3
:10A55000019804F0B5FB054603E0034800210160C3
:10A56000416028463EBD00006443002010B504460B
:10A57000E07FFF2808D0A07F18B1E07F01F03DFB0D
:10A5800002E0E07F01F065FB00206077207204F1BB
:10A590000800D4E90021904710BD70B505460E466D
:10A5A000144624B13146284600F050FE03E03146FF
:10A5B000284600F02DFE70BD30B504461088C01C42
:10A5C000984201D90C2030BD0220158848551088CA
:10A5D000401C10800120158848551088401C1080B0
:10A5E00015884C551088401C10800020EBE770B592
:10A5F00004460D4640F21442115B0122D4F81004C7
:10A60000FDF717FA064606B1357004F13C0204F571
:10A61000826104F1540072DF70BD000010B54FF488
:10A62000405400F009F80349086108460069001B1E
:10A63000C86010BD8443002010B540F6F870006873
:10A64000401C18B94FF01020406902E040F6F87045
:10A65000006803464FF0805001694269581C08B1F8
:10A66000184601E002FB01F00446204610BD000040
:10A6700010B5FFF7D3FF00220249034801F01CF98F
:10A6800010BD00009C16030084430020F7B50D4662
:10A6900017460DB90020FEBD0026009868B10024C1
:10A6A00009E02146684600F0C2FD18B1A0B2394663
:10A6B000A847761C641C142CF3D33046EBE710B586
:10A6C0000446606804F07CF910BD00003EB500BF90
:10A6D0009DF8000020F00F00401C00909DF8000045
:10A6E00020F0F0001030009000BF062214A1684650
:10A6F0007CDF044600BF254625B100BF2846FCF795
:10A70000A3FD00BF00BF0020019002901020ADF813
:10A7100004003C20ADF806000020ADF808004FF41E
:10A72000C870ADF80A0001A87ADF044600BF2546CC
:10A7300025B100BF2846FCF787FD00BF00BF3EBD26
:10A74000E59FB9E8AEAD000002464888064B1B887D
:10A75000984208D1088840F67723984203D1888828
:10A76000C01E024B18807047A2410020A441002067
:10A7700070B50E490E4800F0F1FD044600BF2546B5
:10A7800025B100BF2846FCF75FFD00BF00BFF721E1
:10A79000074800F0D4FD044600BF254625B100BFA0
:10A7A0002846FCF751FD00BF00BF70BD49A702005D
:10A7B000AC43002070B5054615B14FF4064070BD9E
:10A7C0001848007B18B100201649087301E000F01A
:10A7D000DFF81448007808281DD2DFE800F01C04D8
:10A7E000080C101C141800F03FF8044616E000F0A6
:10A7F000BDF8044612E000F099F804460EE000F0BF
:10A8000047F804460AE000F02DF9044606E000F09F
:10A810003BF9044602E048F20E6400BF00BF204648
:10A82000CDE700009C5200200D480089401C0C49D7
:10A83000088100204880087300BF0DE000EB800114
:10A84000084A12F8211009B9012200E00022044947
:10A850000A310A54411C88B20228EFDB704700001D
:10A860009C5200207452002010B5084800F036F8C1
:10A8700040B900200549891E08704880486041F6AB
:10A880001D5010BD00F072F8FBE700009E52002042
:10A8900070B50F48458805EB85000E4901EB800037
:10A8A000C06878B904200A49087005EB8500094A98
:10A8B00002EB8000002301224168074800F0C6FF38
:10A8C000044602E000F090F80446204670BD000007
:10A8D0009C520020745200208443002010B5014691
:10A8E0000022002018E00F4B1B5C9BB100240D4B95
:10A8F0001C5400EB80030C4C04EB8303DB684BB966
:10A9000000EB800304EB83031B7C012B02D1088046
:10A91000012203E0431C98B20228E4DB00BF10468A
:10A9200010BD0000A652002074520020F8B50C485B
:10A9300044680C4800680B49898800EB81056088F1
:10A94000C01C86B20320064908700020B3000090A6
:10A95000084629464268044801F02EF8F8BD000078
:10A960009C5200205C4300208443002010B507491E
:10A970004888091D04F068F918B1FFF7D7FF0446AD
:10A9800002E0FFF785FF0446204610BD9C520020E0
:10A9900010B514480078082820D2DFE800F0041F22
:10A9A0001F0A1016171BFFF73FFF01200D49087003
:10A9B00015E000F075F802200A4908700FE000F079
:10A9C00029F806200749087009E000BF072005495B
:10A9D000087004E001200349087000E000BF00BFD8
:10A9E00010BD00009C52002010B5052006490870DB
:10A9F0000220064988800846002301220168044895
:10AA000000F024FF10BD00009C5200205C43002099
:10AA100084430020104908681049498801EB8101EE
:10AA20000F4A02EB810149680B4A11600B494988C2
:10AA300001EB81010A4A02EB8101486006498988DD
:10AA4000064A528802EB8202054B03EB8202118117
:10AA50000221014A918070475C4300209C520020F3
:10AA60007452002010B5062005490870498801EB92
:10AA70008101044A02EB8101486803F05DFD10BDCD
:10AA80009C5200207452002010B507200349087022
:10AA90000020486003F060FD10BD00009C520020C3
:10AAA000054A50684288D21C91B2044A92880A44EE
:10AAB000024B9A80704700009C5200205C430020AB
:10AAC00070B50B48FEF79EFE0A4B0CCB841843F181
:10AAD0000005094903C9201A75EB010004D24FF0A3
:10AAE0008073E41845F100052046294670BD00003A
:10AAF000E8420020F84200200043002070B50446E0
:10AB00000D46204600F01DF8A84201D9022070BD74
:10AB1000A0884FF6FF71884204D0208810B1A06849
:10AB2000401C08B90120F2E70020F0E70246134676
:10AB30008B4204D21868401C08B1012070470020E5
:10AB4000FCE701464A8801F10C0000EB82007047E7
:10AB500010B501F00FF910BD70B504460D46094857
:10AB60006060094800F081FB50B901F011FB064913
:10AB700008741C238C2205490548006800F0FCFA83
:10AB8000002070BD8C160300B45100201851002025
:10AB9000981603002DE9F04106460C4648F20E6770
:10ABA00036B10020434948604FF40640BDE8F081CB
:10ABB000207930B101280AD0022835D003286DD180
:10ABC00040E00120207103F0C7FC074667E04FF02A
:10ABD0000008002519E005EB8500374911F8200031
:10ABE000022810D1002005EB8501334A02F821002C
:10ABF0004FF0010805EB850102EB8101486803F085
:10AC00009BFC074603E0681C85B2022DE3DB00BF16
:10AC1000B8F1000F07D101202649087000204860D4
:10AC200041F61D50C2E73AE000202071022023497E
:10AC300088800846002301220168214800F006FEB2
:10AC400007462CE0002020711C49086803F074FCC2
:10AC500007461C4845881948D0F8008005EB850058
:10AC6000154901EB800040681449086005EB850038
:10AC7000114901EB8000C0F804801048808805EB82
:10AC800085010D4A02EB8101088102200B49888071
:10AC9000002005EB850102F8210000E000BF00BFA5
:10ACA0002FB100200349486048F20D607EE7002084
:10ACB0007CE7000048430020745200205C430020E1
:10ACC000844300209C52002010B5054A002105480D
:10ACD000FCF702FB044A01210448FCF7FDFA10BD11
:10ACE000856A020000130300E16D020004130300F3
:10ACF000024600210CE001EB8100074B33F82000F5
:10AD0000904204D101EB810003EB80007047491CA5
:10AD10000029F0D00020F9E7404E00202DE9F04155
:10AD200004460E464FF48E71206801F06CFB4FF420
:10AD3000A271206801F067FB1749206801F072FBDF
:10AD4000206801F016FC054637462846394600289B
:10AD500009DA4A074FEA126C104A00F00F031B1F72
:10AD600002F803C003E04A07130E0D4A135400BF54
:10AD700000BF206801F0FDFB0546284600F01F02D9
:10AD8000012191404209920002F1E022C2F8001133
:10AD900000BF00BFBDE8F0818000020018ED00E0B8
:10ADA00000E400E02DE9F04104460E464FF48871BE
:10ADB000206801F058FB4FF49071206801F053FBBC
:10ADC0004FF49271206801F04EFB4FF4A27120689D
:10ADD00001F049FB4FF4AC71206801F044FB1849C5
:10ADE000206801F050FB206801F0C7FB054637469C
:10ADF00028463946002809DA4A074FEA126C114AF8
:10AE000000F00F031B1F02F803C003E04A07130EF4
:10AE10000D4A135400BF00BF206801F0AEFB054689
:10AE2000284600F01F02012191404209920002F1E0
:10AE3000E022C2F8001100BF00BFBDE8F0810000B1
:10AE40001003420018ED00E000E400E02DE9F047B7
:10AE500004460E469046002722E0384601F065FA87
:10AE60000546384601F068FA814620462946425890
:10AE70000AB1012200E0002282B14846D4F804134E
:10AE8000014009B1012100E0002139B129462046E5
:10AE900001F057FA2846D6E900219047781CC7B23E
:10AEA0004745DADBBDE8F08770B505460C464FF440
:10AEB0008C71284601F022FA38B14FF48C71284683
:10AEC00001F023FA2046FFF751FB70BD014603480D
:10AED000007A08B1012070470020FCE7B45100203F
:10AEE0002DE9F0410446A08800EB020CB4F8048080
:10AEF000904501DD104600E0A088A8EB0005E08841
:10AF0000C618B4F80680984501DD184600E0E088D0
:10AF1000A8EB00074888B4F80080404504DB488867
:10AF2000B4F80280404502DD0020BDE8F081888849
:10AF3000A84202D38888604501D90020F5E7C88877
:10AF4000B84202D3C888B04201D90020EDE7012001
:10AF5000EBE7014601F0030008B90120704700202B
:10AF6000FCE70146086808B102680A607047000003
:10AF700010B50848007850B1002405E0022C02D03A
:10AF80002046FDF7DBFD641C042CF7D301E0FDF740
:10AF900001FE10BD4C42002010B501F0ADFA0020BA
:10AFA0000149887010BD0000EC4E0020F72101809F
:10AFB00017214180002101714171FB2181711B2109
:10AFC000C171704770B5002400BF254625B100BF90
:10AFD0002846FCF739F900BF00BF70BD05F036FD0B
:10AFE000FFF7F0FFFFF770FE04F0B2FF03F0E0FBA5
:10AFF00003F0CFFBFDF747FDFFF768FBFFF7B8FB5A
:10B0000004F074FAFCF79EF8FEF76AFAFBF70EFDFF
:10B01000FFF740FAFBF7FEFCFCF7D6F800BFFFF79E
:10B0200097FDFCE72DE9F04105460E46144698468B
:10B03000A888871C2088801C3844404502D90C20F1
:10B04000BDE8F081FE2F01D90C20F9E7781C21889A
:10B0500070542088401C2080FF2021887054208854
:10B06000401C208022889119288805F0A7FE21889D
:10B0700008442080A88800280DDDA86808B90720AA
:10B08000DEE7AA8823889819A968FBF7EBF92088DE
:10B09000A988084420800020D2E72DE9F84F054612
:10B0A0000F46144698462878012804D1687810B9CC
:10B0B0000720BDE8F88F2088801C404508D82878F4
:10B0C000012807D12088801C69780844404501D9AF
:10B0D0000C20EEE72088A8EB0000801E86B20096C8
:10B0E0002188891CC81969467DDF814600BF484612
:10B0F00000B1DEE700BF2878022804D06878BDF8E8
:10B100000010884206DBBDF80000B04202DC4FF0C0
:10B11000090A0BE04FF0080A2878012805D1687861
:10B12000B04202DC6878009000E00096BDF80000B4
:10B13000FE2801D90C20BCE7BDF80000401C218886
:10B1400078542088401C2080208807F800A02088A0
:10B15000401C20802088BDF800100844208000207A
:10B16000A7E770B504462046FBF79FF805460DB1EA
:10B17000002070BD1120FCE710B5044609B90E206F
:10B1800010BD92FBF3F003FB102008B10920F7E794
:10B19000216000206060A060A281E38100BFEFE732
:10B1A00070B504460D4629462046FBF733F818B122
:10B1B0002A882168881870BD0020FCE770B5054614
:10B1C0000C4620886188884204D12846FBF764F841
:10B1D000012070BD0020FCE770B504460D462946ED
:10B1E0002046FBF73CF818B16A882168881870BDC2
:10B1F0000020FCE770B505460C462088618888422F
:10B2000004D12846FBF722F8012070BD0020FCE79E
:10B2100070B505460C4604F01F0301229A40D14345
:10B22000620905EB820000F032F8064670BD10B5E9
:10B230000246480952F8200001F01F040123A340F0
:10B24000184008B1012010BD0020FCE770B505468C
:10B250000C4604F01F03012202FA03F1620905EB18
:10B26000820000F040F8064670BD10B5044601218A
:10B27000204600F022F810BDF8B504460D466A4697
:10B2800029462046FBF75DF806460098F8BDF8B55C
:10B2900004460D466A4629462046FBF738F806461E
:10B2A0000098F8BDF8B504460D466A462946204682
:10B2B000FBF747F806463046F8BDF8B504460D469C
:10B2C0006A4629462046FBF715F806463046F8BD83
:10B2D000F8B504460D466A4629462046FAF7FEFFB1
:10B2E00006463046F8BDF8B504460D466A4629467E
:10B2F0002046FAF7FFFF06460098F8BDF8B5044669
:10B300000D466A4629462046FBF728F8064600986F
:10B31000F8BD30B502460B46D40802F00702012002
:10B3200090401D5D284030BD30B50B46C20800F08E
:10B3300007009C5C012585402C439C5430BD02468F
:10B3400000BF0AB90E20704700BF172901DBF7299B
:10B3500001DD0720F7E711800020F4E770B504460F
:10B360000E4600BF0CB90E2070BD00BF2661F7204D
:10B3700020806080FB202071002505E0A11D01EBED
:10B38000C500FFF713FE6D1C002DF7D00020EBE782
:10B390002DE9F04106460F463D46B488012C01DBFD
:10B3A000BDE8F0813088242820D006DC102809D0A0
:10B3B00011280CD0232823D11DE03A280CD0552881
:10B3C0001ED10EE03146284602F0E7FC19E0314676
:10B3D000284602F0D6FD14E03146284602F012FE5F
:10B3E0000FE03146284602F0D7FD0AE031462846F4
:10B3F00002F044FD05E03146284602F069FD00E018
:10B4000000BF00BFA81D00EBC4000079A8B1A81DB3
:10B4100030F834102046A5DF8046B8F1000F0AD17D
:10B420000021A81D00EBC40001710121A81D00EB43
:10B43000C400417100E000BF00BF00BFB0E702469A
:10B4400000BF0AB90E20704700BF00BF1078DE2889
:10B4500001D00820F7E700BF51800020F3E7024643
:10B4600000BF0AB90E20704700BF00BF09B90E2007
:10B47000F9E700BF1078DE2801D10820F3E708685B
:10B480005060DE2010704FF6FF7050800020EAE719
:10B4900070B504460E4600BF06B970BD00BF00BFC0
:10B4A00004B9FAE700BF354600BF2878DE2800D08F
:10B4B000F3E700BFA0886988884202D1284605F0DA
:10B4C000E4FC2088012806D0022809D0112811D0D8
:10B4D000512817D109E0211D284602F0C5FE12E0CF
:10B4E000211D284602F0BFFE0DE0211D284602F076
:10B4F00065FE08E0A0886988884202D14FF6FF7097
:10B50000688000E000BF00BF00BFC6E701464FF003
:10B510008040405808B1012070470020FCE708B582
:10B5200000224FF080410A500958009100BF08BD29
:10B53000014908607047000008030040012291079C
:10B540000A50704770B540F6F8700068401C18B992
:10B550004FF01020406902E040F6F87000680546A0
:10B56000681C38B1284613DF04460CB1204670BD74
:10B570000020FCE70420FAE710B5044813DF044676
:10B580000CB1204610BD0020FCE700000060020066
:10B5900010B500240C48007808B1852411E0002083
:10B5A0000949886048600861C860084800F092FF57
:10B5B000044600F0EDFD08B900F082FF01200249C9
:10B5C0000870204610BD0000EC4E00205D93020084
:10B5D00008B5002000906846FBF7B8FF0748C06830
:10B5E000401E0649C8600846C06808B9FFF7D4FC89
:10B5F0009DF80000FBF7B0FF08BD0000EC4E0020F6
:10B600002DE9FF4705460C46164698462F781A48FE
:10B6100040F82760194840F827804FF00009184B80
:10B620000FCB8DE80F0020788DF8000060788DF842
:10B630000100A0788DF80200E0788DF803002079F1
:10B640008DF8050060798DF80600A0680290207BD7
:10B650008DF80C00607B8DF80D000EB1094800E0FC
:10B66000002002463B466946281D01F097F98146B5
:10B67000484604B0BDE8F087F44F00200050002099
:10B680005C1503002DFC02002DE9FF4704460D4622
:10B6900016461F46DDF830804FF0000900950196F0
:10B6A0000297CDF80C8000226946201D01F0B2FA05
:10B6B0008146484604B0BDE8F08700002DE9F04718
:10B6C00004460D461646984627780D4840F82760F0
:10B6D0000C4840F82780687B10B1284604F07EFCB7
:10B6E0004FF000090EB1084800E0002002463B463A
:10B6F0002946201D01F0FAFA81464846BDE8F08748
:10B70000D4420020DC420020750003002DE9F843FC
:10B7100004460D4616461F46DDF820804FF000090E
:10B720003B4632462946201DCDF8008001F084FBBF
:10B7300081464846BDE8F8832DE9F04188B00446CB
:10B740000F46154626781A4840F826501949386998
:10B7500041F82600787F18498855202239466846E6
:10B76000FAF780FE04964FF0000820781249085C32
:10B7700050B10DB1114800E0002002466946201D7D
:10B7800002F092F880460EE020780B49085C50B930
:10B790000DB10B4800E000200246694604F10C00A0
:10B7A00001F04AFF8046404608B0BDE8F081000045
:10B7B000B8420020BC420020C0420020450C0300DB
:10B7C000150A03002DE9F04104460D4616460027F0
:10B7D00020780C49085C30B132462946201D02F021
:10B7E000A3F807460AE020780649085C30B93246DB
:10B7F000294604F10C0001F063FF07463846BDE816
:10B80000F0810000C04200202DE9F04104460D46C1
:10B810001646002720780C49085C30B1324629468C
:10B82000201D02F01DF907460AE020780649085C51
:10B8300030B93246294604F10C0001F0D3FF074627
:10B840003846BDE8F0810000C04200202DE9F041FB
:10B8500004460E4615461F4600BF14B90E20BDE82B
:10B86000F08100BF00BF206808B90820F7E700BFDB
:10B8700000BF0DB90920F2E700BF00BF31462046E6
:10B88000FBF7B0FB08B91020E9E700BF00BF606814
:10B89000006800FB05F231462046FBF7B9FB08B90A
:10B8A0001020DCE700BF20683B462A463146D0F82E
:10B8B00010C02046E047D2E770B504460D46164654
:10B8C00000BF0CB90E2070BD00BF00BF0DB90E2027
:10B8D000F9E700BF2560206831460268204690479E
:10B8E000F1E7000002460120044B58741846007A24
:10B8F00008B9012070470020FCE70000B451002087
:10B9000070B504460D46012C01D0032C0BD100204C
:10B9100005494874012C01D1012000E000200249B2
:10B92000087403F005F870BDB451002070B50446EA
:10B930000E46022C02D0032C00D070BD1C48007AA9
:10B9400020B1012803D0022826D101E0F5E723E049
:10B950000025022C02D0032C0CD105E0154800680C
:10B9600002F0CCFB054606E01248006802F0B4FB8A
:10B97000054600E000BF00BF6DB100200C49087211
:10B98000022C00D100E00D2001460A480068FEF7B5
:10B99000A5FB02F07DFF00BF00BF0548407C10B949
:10B9A00002F0C6FF01E000F0F9FB00BFC5E70000B0
:10B9B000B4510020404300202DE9F84304460F46CF
:10B9C00016461D46DDF8208000BF14B90E20BDE8E4
:10B9D000F88300BF00BF0EB90E20F8E700BF00BF1C
:10B9E000206808B90820F2E700BF00BF0DB90920A0
:10B9F000EDE700BF00BF60684068B5FBF0F100FBF9
:10BA0000115008B10920E2E700BF00BF3846FBF73C
:10BA1000E1FA08B91020DAE700BF00BF3046FBF7B3
:10BA2000D9FA08B91020D2E700BF00BF2A4639462C
:10BA30002046FBF7EDFA08B91020C8E700BFCDF8A3
:10BA4000008020682B4632463946D0F80CC020468C
:10BA5000E047BCE7F0B5DDE9054500BF4FF0A04782
:10BA60003E4641EA420747EA830747EA042747EA96
:10BA7000054C06F5E06747F820C0F0BDF0B5DDE9FC
:10BA8000054500BF4FF0A0473E4641EA420747EA5E
:10BA9000830747EA042747EA054C06F5E06747F8BD
:10BAA00020C0F0BDF0B5DDE9054500BF4FF0A0476F
:10BAB0003E4641EA420747EA830747EA042747EA46
:10BAC000054C06F5E06747F820C0F0BDF0B5DDE9AC
:10BAD000054500BF4FF0A0473E4641EA420747EA0E
