:020000040002F8
:10600000206D0020C1630200C9630200CB6302005F
:10601000CD630200CF630200D163020000000000E4
:10602000000000000000000000000000D363020038
:10603000D563020000000000D7630200D9630200AC
:1060400059670200DB6302000D6B0200DB63020094
:10605000DB630200DB6302003D650200DB630200DC
:10606000DB630200816A0200996A0200DB630200BE
:10607000DB630200DB630200DB630200DB63020020
:10608000DB630200AD670200DB630200DB6302003A
:10609000DB630200DB630200C5670200DB63020012
:1060A000DB630200DB630200DB630200DB630200F0
:1060B000DB630200DB630200000000000000000060
:1060C000DB630200DB630200DB630200DB630200D0
:1060D000DB630200DB630200DB6302000000000000
:1060E00000000000000000000000000000000000B0
:1060F00000000000000000000000000000000000A0
:10610000000000000000000000000000000000008F
:10611000000000000000000000000000000000007F
:10612000000000000000000000000000000000006F
:10613000000000000000000000000000000000005F
:10614000000000000000000000000000000000004F
:10615000000000000000000000000000000000003F
:10616000000000000000000000000000000000002F
:10617000000000000000000000000000000000001F
:10618000000000000000000000000000000000000F
:1061900000000000000000000000000000000000FF
:1061A00000000000000000000000000000000000EF
:1061B00000000000000000000000000000000000DF
:1061C00000000000000000000000000000000000CF
:1061D00000000000000000000000000000000000BF
:1061E00000000000000000000000000000000000AF
:1061F000000000000000000000000000000000009F
:10620000DFF80CD000F06AF900480047B9970200A7
:10621000206D002030B450E8012F93B2C48923448C
:106220008489A34228BF1B1B0489A34202BFBFF37A
:106230002F8F002007E0C3EA020340E80134002C5E
:10624000E9D14FF001000A6030BC704750E8012FDF
:10625000C2EA024240E801210029F7D1704730B478
:1062600050E8022F1FFAA2F3C488A34202BFBFF373
:106270002F8F00200DE0C48923448489A34228BFC6
:106280001B1BC2EA034340E80234002CE8D14FF064
:1062900001000A6030BC704750E8022FC2EA224277
:1062A00040E802210029F7D17047034653E8022F46
:1062B000D988B2EB324F4FF0000017BF92B241EADB
:1062C000014142EA014104E05A68B2EB324F08BF93
:1062D000012043E80212002AE8D1704730B4044696
:1062E00054E8000F0D4644E80053002BF8D1156028
:1062F00030BC704730B4044654E8000F40EA010552
:1063000044E80053002BF7D1156030BC704730B41F
:10631000044654E8000F00EA010544E80053002B4E
:10632000F7D1156030BC704730B4044654E8000F14
:1063300080EA010544E80053002BF7D1156030BC1A
:10634000704730B4044654E8000F00EB010544E800
:106350000053002BF7D1156030BC704730B40446B1
:1063600054E8000FA0EB010544E80053002BF7D1DF
:10637000156030BC704770B404464FF0000054E81C
:10638000006F0D68AE4207BF44E80023012044E8D7
:1063900000630E60002B1CBF0020F0E770BC70474C
:1063A00030B4044654E8000F88422CBF451A054615
:1063B00044E80053002BF5D1156030BC7047000055
:1063C0000648804706480047FEE7FEE7FEE7FEE78F
:1063D000FEE7FEE7FEE7FEE7FEE7FEE7E96702000D
:1063E000016202002DE9F05F0546002092469B46BF
:1063F00088460646814640241BE0284641464746DB
:10640000224600F05AF853465A46C01A914110D31A
:1064100011461846224600F016F82D1A67EB0108BF
:106420004F4622460120002100F00DF817EB00092D
:106430004E41201EA4F10104DFDC484631462A46C5
:106440004346BDE8F09F202A04DB203A00FA02F11F
:10645000002070479140C2F1200320FA03F3194352
:106460009040704740EA01039B0703D009E008C948
:10647000121F08C0042AFAD203E011F8013B00F809
:10648000013B521EF9D27047D2B201E000F8012B55
:10649000491EFBD270470022F6E710B513460A46A4
:1064A00004461946FFF7F0FF204610BD421C10F8C5
:1064B000011B0029FBD1801A7047202A04DB203AF7
:1064C00021FA02F00021704721FA02F3D040C2F114
:1064D000200291400843194670470000064C074DC2
:1064E00006E0E06840F0010394E8070098471034A4
:1064F000AC42F6D3FFF788FE88C30200A8C30200AF
:1065000030B58C1810F8012B12F00F0301D110F8E0
:10651000013B120906D110F8012B03E010F8015BD2
:1065200001F8015B5B1EF9D101E001F8013B521E4D
:10653000FBD1A142E6D3002030BD00002DE9F04F91
:1065400089B00027002008904FF480700790012642
:10655000002412E0079803F0B3FC40B100BF7B4871
:106560000068304018B1079803F09CFC3743760070
:106570000798001D80B20790641C082CEAD34FF4E2
:10658000BE7003F09DFC50B14FF4BE7003F08AFC66
:1065900047F0004708AA0121002003F069FCF8B287
:1065A00000B3012600241BE006EA0700B0B100BFDB
:1065B000674850F82400C0F30420804600BF6448B8
:1065C00050F82400C0F301408146204602F02CF828
:1065D000054615B149464046A84700BF7600641CF1
:1065E000082CE1D307F0004000287DD00020069061
:1065F0000590002505E04FF0FF3004A941F8250083
:106600006D1C002DF7D000BF0020069000245FE035
:106610005048005D0390039820F0C0094D48005792
:10662000401C002853D004A9484603F01AFA002859
:106630004DD003984FEA901A484602F03DF8804644
:1066400001F0F2FF0290029810B9BAF1030F3DD1A8
:10665000BAF1030F03D105A9484603F00DFA00BFB4
:1066600000BF4FF0A041084600F5E06151F8291045
:10667000C1F3014800BF08A9484603F0F2F9834678
:10668000BBF1000F02D0B8F1020F05D0BBF1000F33
:106690001BD1B8F1030F18D1BAF1030F0FD1B8F124
:1066A000020F01D1032000E0022001904846019929
:1066B00003F092FB0698401CC0B2069000BF0298FF
:1066C00018B151464846029A904700BF00BF641C6B
:1066D000042C9DD3069888B34FF0010803AA01212A
:1066E000002003F0C5FB00E02DE000250BE003A82F
:1066F00050F8250008A951F82510884202D04FF023
:10670000000802E06D1C002DF1D000BFB8F1000FB1
:1067100002D00020069010E000250CE003A850F8FD
:10672000250008A941F8250005A850F8250004A96E
:1067300041F825006D1C002DF0D000BF0698002800
:106740007FF462AF00BF09B0BDE8F08F0463004082
:1067500010650040C84B002010B54FF4807003F066
:106760007DFA80B14FF4807003F081FA012003F0CC
:1067700087FA0D48407930B901200B494871084625
:106780000168002088474FF4827003F067FA50B127
:106790004FF4827003F06BFA022003F071FA0248A2
:1067A00001680120884710BD3442002010B5034A1B
:1067B0001068034A1168884710BD00009442002009
:1067C0009042002010B503F047FD10BD10B50446FF
:1067D00000F09AFA10BD00000148024908607047B5
:1067E0000090D003B042002010B502F0DFFB28B1CA
:1067F00092480088C0F304209149086002F032FCFE
:1068000010B190489049486702F06CFC30B18B4859
:10681000E0380068C0F342308C49086002F090FC18
:1068200028B18B48006820F080708949086002F028
:10683000A7FC48B10020874908604FF08041C1F8AB
:1068400010018249091F086002F0C8FC18B103203A
:106850007E496431086002F0E1FC68B105207E49A0
:10686000086001207C497831086000207A490831AD
:1068700008603F20091F086002F0F0FC002855D096
:106880006E48E0300068754908606C48E430006884
:10689000091D08606948E8300068091D08606748FC
:1068A000EC300068091D08606448F0300068091D7C
:1068B00008606248F4300068091D08605F48F830DD
:1068C00000686649203108605C48FC300068091D9A
:1068D000086063480068091D08606148001D006881
:1068E000091D08605E4808300068091D08605C48A2
:1068F0000C300068091D086059481030006857497D
:1069000040310860564814300068091D086054483A
:1069100018300068091D086051481C300068091DC6
:1069200008604F4820300068091D086002F010FB25
:1069300030B14248CC38006800F04F004949086047
:1069400002F062FB40B14848006800F0010018B155
:106950006FF001004449086002F0A4FB28B14348ED
:10696000006840F480604149086039487438006824
:1069700040F4700036497439086000BF00BF00BFA2
:10698000BFF34F8F00BF00BF00BF00BF00BF00BFFD
:10699000BFF36F8F00BF00BF00BF3548006800F035
:1069A000004028B93248001D006800F00040E8B3FC
:1069B00001203049086000BF2F4800680028FBD044
:1069C00015202B49086000BF2B4800680028FBD029
:1069D00015212748001D016000BF274800680028D6
:1069E000FBD000202349086000BF2348006800282E
:1069F000FBD000BF00BF00BF00BF00BFBFF34F8F81
:106A000000BF00BF00BF1248F038006800F4E0602B
:106A10001A490843001D0E49F039086000BF00BF45
:106A200000BFBFF34F8F00BF00BF00E003E000BF17
:106A300000BF00BFFDE7FFF7CFFE10BD240300102D
:106A4000403501400DF0ADBA00C007403C050040A4
:106A5000FCED00E00C0100401056004020C5004055
:106A600024040010E40E0040000400403C170040E5
:106A70000012001004E5014000E401400000FA05A6
:106A800010B504220249034802F074FD10BD000055
:106A9000244C00200090004010B504220249034815
:106AA00002F068FD10BD0000304C002000A0004046
:106AB00010B5024803F0ECFE10BD0000AC41002010
:106AC00008B5074803F0E4FE00200123054A01460B
:106AD0000090034803F000FF014803F0EBFE08BDFF
:106AE000AC41002040420F0008B500200123054AB8
:106AF00001460090044803F0EFFE034803F0DAFE7D
:106B000008BD000020A10700AC41002010B50249DB
:106B10000868804710BD00003C42002002E008C821
:106B2000121F08C1002AFAD170477047002001E007
:106B300001C1121F002AFBD1704700000146202925
:106B400008DA012088400A4A104008B10120704745
:106B50000020FCE7402909DAA1F12000012202FA15
:106B600000F008B10120F2E70020F0E70120EEE795
:106B7000FC06FFBD00BFEFF31081084672B67047F8
:106B80000246002104E0505C08B101207047491C16
:106B90000629F8D30020F9E770B504460D4604F243
:106BA0002740FFF7EDFF0646012D06D0022D0DD040
:106BB000032D11D0042D19D113E0A07928B194F838
:106BC000240010B90EB1012070BD00BFE07910B1F2
:106BD0000EB10220F8E700BF207A08B10320F3E7E6
:106BE00000BF607A08B10420EEE700BF0020EBE7A9
:106BF0000146481C052290FBF2F302FB1300C0B2D1
:106C00007047014691F82420012A01D1EE2000E0CE
:106C10001F20704710B501220221002001F0F2FA76
:106C2000044600BF1CB1072C01D0204610BD00BF98
:106C300007220221012001F0E5FA044600BF1CB141
:106C4000072C01D02046F1E700BF0A2200210846A8
:106C500001F0D8FA044600BF1CB1072C01D0204631
:106C6000E4E700BF0020E1E710B504462C212046F0
:106C7000FFF711FC01202071402020614FF4FA70D1
:106C8000606110BD30B5ABB0AC216846FFF703FCC6
:106C900002208DF8000000208DF8020006208DF8FB
:106CA00003000121ADF84C101449149101218DF815
:106CB0007C10402122914FF4FA71239101218DF82B
:106CC0007D104FF4487124914FF47A7125910C484E
:106CD000299069460B4800F0B4FA044600BF2546E7
:106CE00025B100BF284600F04FF800BF00BF0121CA
:106CF000044800F0A3FA2BB030BD0000A4410020EE
:106D0000F9AB0200D842002070B50321064800F01C
:106D100043FB044600BF254625B100BF284600F0CE
:106D200033F800BF00BF70BDD842002072B600BF6C
:106D30001348006800F0010000B100BE00BF00BFB2
:106D400000BF00BF00BF00BFBFF34F8F00BF00BF39
:106D500000BF0B48E438006800F4E06009490843CC
:106D6000001D0749E439086000BF00BF00BFBFF342
:106D70004F8F00BF00BF00BF00BF00BFFDE7000096
:106D8000F0ED00E00000FA053EB50446002000905A
:106D90000190029002946A46002144F20100FFF73C
:106DA000C5FF3EBD70B504460D46204602F0B8FA58
:106DB00028B12946204602F0A7FA002070BD052020
:106DC000FCE770B504460D46204602F0A9FAA188FA
:106DD000884205D82946204602F0B0FA002070BD4E
:106DE0000420FCE710B5024801F07CFF10BD000054
:106DF0005042002010B503460C460AB9072010BDCA
:106E000019684A61012C01D1012000E000200861CD
:106E10000020F4E738B51348006800900823582292
:106E200011491248006802F082FD04460CB1204668
:106E300038BD0F4A69460F4801F05AFF04460CB1AD
:106E40002046F5E701210B4801F0BCFF01230A4A67
:106E50001946084801F018FF01200849087020462B
:106E6000E6E7000090C202003C4C002080C2020015
:106E700041B5020050420020FFFF7F005C4200202D
:106E80002DE9F04106460D4617463446207F10B1E5
:106E90000020BDE8F081A76102F028FB401941F114
:106EA0000001C4E90201206900B1256121460020EA
:106EB00005F004F8EDE770B5044625460020287774
:106EC0002946012004F0FAFF70BD00002DE9F041D1
:106ED000054629461448FFF774FF064606BB134CC7
:106EE000002720781249085C20B1201D03F046FEDF
:106EF000074608E020780E49085C20B904F10C0030
:106F000003F0CAFD074600BF57B90A490648FFF714
:106F100049FF28B901220749044802F027FF064625
:106F20003046BDE8F0810000B44C002074420020DF
:106F3000304200208C42002010B50446204604F068
:106F4000FBFB10BD70B5044625460E488068B0B105
:106F5000ADB9FFF70FFE06460A4800680A49086007
:106F6000084840684FF0E021C1F8040100200549BD
:106F700088601EB900BF62B600BF00BF00BF00BF7F
:106F800070BD0000C44C002000E100E0F8B50546EB
:106F90000C4617462088001DB84201D90C20F8BDC8
:106FA000684679DF064600BF304600B1F7E700BF0C
:106FB0000320218868542088401C208019202188C3
:106FC00068542088401C208020884119BDF80000AA
:106FD00004F0F1FF2188084420800020DFE701460B
:106FE000480C400408B9012070470020FCE72DE957
:106FF000F04104460F46154615B90E20BDE8F08154
:107000000020286000BF0CB90E20F7E700BF00BFCA
:10701000206808B90E20F1E700BF00BFE088C11763
:1070200000EB91718910A0EB810109B10720E5E720
:1070300000BF384600F0B8FAC6B2142E01D10520C0
:10704000DCE72079B04201DC0420D7E7E188206842
:1070500006FB010028600020D0E72DE9FC41054631
:1070600088461646002437880020308095F82D0089
:1070700058B13A463146404600F0BAFA044600BFDD
:10708000204608B1BDE8FC8100BFA87850B13A465F
:1070900031464046FFF77AFF044600BF204600B164
:1070A000F0E700BFE87860B1E97848B23B46324685
:1070B000414602F05BF9044600BF204600B1E1E71B
:1070C00000BF686868B1696891F900003B463246C4
:1070D000414604F04FFF044600BF204600B1D1E70F
:1070E00000BF288900280EDD43460622022105F153
:1070F0000800CDE9006704F0CAFF044600BF20463F
:1071000000B1BFE700BF288A00280EDD43460722F2
:10711000032105F11000CDE9006704F0B8FF044633
:1071200000BF204600B1ADE700BF288B00280EDD70
:1071300043461522142105F11800CDE9006704F03B
:10714000A6FF044600BF204600B19BE700BF286AA7
:1071500058B13B4632464146286A01F07DFC044660
:1071600000BF204600B18DE700BF686A58B13B46BA
:1071700032464146686A02F03BFB044600BF2046A7
:1071800000B17FE700BF95F82C0000280BDD3B46DF
:1071900032464146284604F08DFB044600BF204697
:1071A00000B16FE700BF287858B13B4632464146F0
:1071B000284602F058FB044600BF204600B161E7B4
:1071C00000BF20465EE7F8B504460E46154600208F
:1071D00000902B466A463146204600F008F80746E4
:1071E0000FB90020F8BDBDF800002044FAE7F0B563
:1071F00004460D4604B10AB90020F0BD002103E0A9
:10720000605C401C084481B21088884203DC481C42
:10721000205C984201D0A942F2DBA94201DB0020A8
:10722000EBE7881C86B2605C401E87B2F019A8426A
:1072300001DD0020E1E716803846DEE780F83010F7
:10724000704770B504460D4605B10CB90E2070BDEF
:1072500005F1780001F0A1FB08B90720F7E700204D
:10726000A0702C2205F17801201DFFF7FBF800200B
:1072700084F83000D5F8A4006063D5F8A800A063B6
:107280004FF6FF70A4F8240404F58260C4F82004CB
:10729000002140F22C40C4F82614A4F82A14015509
:1072A000207810B9FF2084F8540004F15500C4F888
:1072B00010042046FFF7A5FC40F21441085304F2E5
:1072C000144204F155012846FFF7C7FE064600BFE9
:1072D000304600B1BBE700BF04F231204FF48361B8
:1072E00008512046FFF78DFCA4F81C044FF483607E
:1072F000015904F21C4205F13C00FFF7AEFE0646C0
:1073000000BF304600B1A2E700BF01215120015566
:10731000208B81B248200153012084F83C000021D9
:107320002164502001556169616404F13C0200212F
:1073300004F1540072DF064600BF304600B186E714
:1073400000BF01202070304681E770B504460D462D
:107350002C222946201DFFF785F870BD70B5044624
:107360000D462E462088102804D0112807D0262844
:107370000FD109E02146304603F036FD0AE02146F0
:10738000304603F013FE05E02146304603F037FF98
:1073900000E000BF00BF70BD70B504460E46207807
:1073A00008B9082070BDA670002140F22C40C4F836
:1073B0002614A4F82A140155A07910B1A078012848
:1073C00009D0E07910B1A078012804D0E07970B13B
:1073D000A07802280BD1606B30B1012084F82D0415
:1073E0000820616B884702E0002084F82D043146B4
:1073F0002046FFF7D1FBA070606BA0B1A0780328F6
:1074000002D0A07804280ED1607960B194F82E04DF
:1074100048B9002084F83004012084F82F040720A4
:10742000616B884702E0002084F82F04182104F1E2
:107430003C00FFF730F8012084F83C0004F12C00F8
:1074400003F084FF20B194F82C105120015502E084
:1074500001215120015594F8240060B104F1280065
:1074600003F074FF20B194F828105220015502E077
:10747000012152200155002150200155A0780528F6
:1074800024D2DFE800F01F030A11180004F13C01C8
:10749000204604F0CDFA054619E004F13C012046EF
:1074A00004F0AEFA054612E004F13C01204604F077
:1074B000D1FA05460BE004F13C01204604F0F8FA4D
:1074C000054604E0002084F8310000E000BF00BF62
:1074D000A07898B104F13C0204F15400D4F82014CF
:1074E00072DF05460DB128465CE794F8301094F839
:1074F000540073DF05460DB1284653E7606B18B1A1
:1075000094F83100616B884700204BE72DE9F0418A
:10751000044600BF14B90E20BDE8F08100BF1C2254
:1075200021461C48FEF79EFF1B481A490860206848
:1075300060B120687ADF05460DB12846ECE71648B1
:1075400021680A6802604968416005E012487BDFF3
:1075500005460DB12846DFE7002617E006EB86005A
:107560000E4901EB800700BF4FF6FF70388000BF67
:107570000B4800EB461078600A4A0021381DFFF7DF
:1075800039FC05460DB10320C6E7761C002EE5D078
:107590000020C1E7CC4A0020D4410020B84A002096
:1075A000984A0020D1BF020010B50446204600F0E2
:1075B00011F808B1204610BD1420FCE770B5044650
:1075C0000D46034988682A46214601F000FF70BD38
:1075D000E84A002010B50446142C01DB002010BD41
:1075E0002146024802F0FEF9F9E70000EC4A0020CB
:1075F0002DE9FC4105460C46174620880930B84263
:1076000002D90C20BDE8FC8168466DDF064600BF4C
:10761000304600B1F6E700BF082021886854208872
:10762000401C20801B20218868542088401C20801A
:1076300020882844DDF801100160BDF80510818024
:107640002088801D20809DF80000400818B9002087
:107650002188685402E00120218868542088401C59
:1076600020800020CEE7000070B502F013FB044636
:1076700000BF204600B170BD00BF00BF084D2846C6
:107680004FF0030C00DF00BF044600BF204600B1EE
:10769000F1E700BF02F018FB04462046EBE70000CC
:1076A000F84C0020014600BF09B90E20704700BF0A
:1076B000014801600020F9E7AC42002010B54FF00E
:1076C000FF3100203DDF044600BF204600B110BD61
:1076D00000BFB12100203CDF044600BF204600B1BE
:1076E000F5E700BF0448416901208847022002F005
:1076F0005FFC0020EBE70000DC4C002010B50548E3
:107700000068416900208847FFF7D8FF04462046FB
:1077100010BD0000AC42002010B588B00446202106
:107720006846FEF7B8FE0320ADF8000020788DF81B
:1077300002009DF80D0020F0200020308DF80D0093
:107740009DF80D0020F0080008308DF80D00012094
:107750008DF810008DF80C001720ADF80400012002
:107760008DF813008DF812008DF811006088A21DAD
:10777000694600F0EFFF08B010BD000030B585B0DD
:107780000546244B0FCB8DE80F0000BF15B90E2026
:1077900005B030BD00BF4FF6FF701F4988802868D4
:1077A0004861002008760846406908B91B484861CE
:1077B0001948FFF777FF044600BF204600B1E7E70E
:1077C00000BF00BF01208DF812004FF65960ADF8E0
:1077D000100000BF104A921C04A90120A8DF044633
:1077E00000BF204600B1D3E700BF0B49684662DF07
:1077F000044600BF204600B1CAE700BF0648FFF7B5
:107800008BFF044600BF204600B1C1E700BF002047
:10781000BEE7000078C30200DC4C0020078F0200A6
:1078200070B504460D4600BF04B970BD00BF208886
:10783000102806D0112808D051280AD0532810D17A
:107840000BE0204603F0CAFA0CE0204603F0A0FB50
:1078500008E0204603F07CFC04E0204603F032FC04
:1078600000E000BF00BF00BFDFE7000070B50446C6
:107870000426207B012802D0022822D109E001F051
:1078800043FB05460DB9012602E0112D00D1062665
:1078900019E0607B142801DC607B08B905260FE045
:1078A000627B04F10E011248FEF7DCFD607B10499B
:1078B000091F8861084604F029F9054605B9012623
:1078C00001E0022600BF00BF012E0FD0207B314611
:1078D00000F058F8054625B10648006841690320C4
:1078E00088470448006841690220884770BD00004D
:1078F000084D0020AC42002070B505460E4600BF82
:107900001E48006820B11D48406808B1012000E011
:10791000002000B970BD00BF184800F1080142689E
:1079200028469047044600BF082C24D07CB900208C
:107930001349096848760121022000F023F8044623
:10794000CCB10F48006841690320884713E000204C
:107950000B49096848760621022000F013F8044616
:1079600024B107480068416903208847044800683B
:1079700041690220884700BFCCE70000F84C002096
:10798000AC420020F0B587B004460D460327002026
:1079900001900290039004900320069020208DF81F
:1079A00014008DF815408DF816500E48C088ADF8BB
:1079B000040002208DF806000020ADF8080006A89B
:1079C000039005A804900749888801A9AEDF064600
:1079D00026B9BDF81800032800D00C26304607B0A1
:1079E000F0BD0000DC4C002030B58BB0044634B153
:1079F000012C14D0022C13D0032C16D111E06846B0
:107A0000FFF732F901208DF8000069460948FFF7B9
:107A10009CFC00210848FFF7D1FD054606E005E083
:107A200004E000BF002000BF00E000BF00BF0BB0BB
:107A300030BD0000D8420020498C02007FB50446CA
:107A400000BF01208DF80E0041F60A00ADF80C00D1
:107A500000BF564A03A90120A8DF054615B12846F4
:107A600004B070BD208800280DDD5148009094F8C6
:107A70003C30228842F62920616800F023FE05464A
:107A80000DB12846ECE7208900280DDD494800901B
:107A900094F83C30228942F62420E16800F012FE7E
:107AA00005460DB12846DBE7208A00280DDD424857
:107AB000009094F83C30228A42F62520616900F05B
:107AC00001FE05460DB12846CAE7208B00280DDDD2
:107AD0003A48009094F83C30228B42F62720E16926
:107AE00000F0F0FD05460DB12846B9E7208C0028CE
:107AF0000DDD3348009094F83C30228C42F626206D
:107B0000616A00F0DFFD05460DB12846A8E7208D2B
:107B100000280DDD2B48009094F83C30228D42F671
:107B20002820E16A00F0CEFD05460DB1284697E712
:107B3000206B90B101A8216B04F0F4F8224800906A
:107B400094F83C30082201A942F6232000F0BAFD47
:107B500005460DB1284683E700BF606B70B11B4836
:107B6000009094F83C30606B0279016842F62A205C
:107B700000F0A8FD05460DB1284671E7A06B90B155
:107B800001A8A16B03F0FEFB1148009094F83C3073
:107B9000072201A942F6502000F094FD05460DB1E0
:107BA00028465DE700BF00205AE70000DC410020C6
:107BB000DE410020E6410020EE410020F641002099
:107BC000FE410020064200200E4200201642002006
:107BD0001E420020F8B505460F462888212833D0DC
:107BE00006DC10280BD0112829D013287BD13BE0CC
:107BF0003B285BD0522848D0562874D164E0072037
:107C000000F02EFB044600BF264626B100BF3046DA
:107C1000FFF7BAF800BF00BFA888344908800846BB
:107C20000188334801F0B3FF044600BF264626B161
:107C300000BF3046FFF7A8F800BF00BF54E04FF682
:107C4000FF702A4908804FE000200090A88869460C
:107C50008FDF044600BF264626B100BF3046FFF73F
:107C600093F800BF00BF3FE000231A4685211F485C
:107C700000887FDF044600BF264626B100BF30469D
:107C8000FFF782F800BF00BF2EE000231A46194616
:107C900016480088B1DF044600BF264626B100BF63
:107CA0003046FFF771F800BF00BF1DE0A888132120
:107CB00076DF044600BF264626B100BF3046FFF7F8
:107CC00063F800BF00BF0FE0A888132176DF0446E9
:107CD00000BF264626B100BF3046FFF755F800BF6B
:107CE00000BF01E0FFE700BF00BFF8BDA0410020DA
:107CF000CC42002070B505460E462888102802D0D8
:107D000011282CD115E01748006860B900F038FF41
:107D1000044600BF34B11448006818B12046124927
:107D20000968884700BF0F480068401C0D4908607B
:107D300016E00C480068401E0A49086008460068C2
:107D400060B9FEF767FF044600BF34B1064800681B
:107D500018B1204604490968884700BF00E000BF09
:107D600000BF70BDD0410020CC41002070B504465A
:107D70000D462088102806D0112808D012280ED0D1
:107D8000502810D107E0204602F0B6FF0CE0204654
:107D900003F0E4F808E0204603F062FA04E020462D
:107DA00002F092FF00E000BF00BF70BD2DE9F0417E
:107DB00004460F46A6882088102806D0112817D020
:107DC00019283DD01A2848D116E003F08BFB304625
:107DD00003F064FB20B900BF0420FEF7D5FF06E0E6
:107DE000E07B012803D031461D4801F00AFE34E053
:107DF000304603F09BFB30E0207A0509042D01DBBF
:107E0000012000E000200246314615480C3001F008
:107E10009EFA032D01DB012000E0002002463146DE
:107E20000F48083001F093FA022D01DB012000E039
:107E30000020024631460A48001D01F088FA0CE095
:107E4000207A48B9607AC0F3C0052A463146044812
:107E50000C3001F07CFA00BF00BF00BFBDE8F0812C
:107E6000F44A002070B58EB004460E463E4B0FCB50
:107E700009AD0FC500BF14B90E200EB070BD00BF14
:107E800000BF0EB90E20F8E700BF3068A0612146A0
:107E900009A862DF054600BF284600B1EDE700BF34
:107EA00020788DF836000120ADF83400A21C0DA911
:107EB000A8DF054600BF284600B1DEE700BF20214D
:107EC00001A8FEF7E8FA0220ADF8040020788DF84A
:107ED0000600F420ADF808000120ADF80A008DF886
:107EE00010009DF8110020F0080008308DF81100F6
:107EF0009DF8110020F00400001D8DF811000120F4
:107F00008DF815008DF81600608804F10C0201A9A7
:107F100000F020FC05460DB12846AEE7202101A85F
:107F2000FEF7B9FA0320ADF8040020788DF80600BA
:107F3000F420ADF808000120ADF80A008DF810001B
:107F40009DF8110020F0100010308DF81100012074
:107F50008DF815008DF816008DF817006088221D29
:107F600001A900F0F7FB88E730C2020070B50446B3
:107F70000D4605B104B970BD2E462088102804D0E6
:107F8000502807D057280FD109E02146304602F08B
:107F9000EBFE0AE02146304603F08EF905E021466B
:107FA000304603F0A5F800E000BF00BF00BFE2E7E5
:107FB00070B504460D462846FEF778FA20806560C5
:107FC00070BD70B50446204603F0EFFF0546C5F3CB
:107FD000400070BD70B50446204603F0E6FF05463C
:107FE00005F0010070BD38B502F0F4F8044600BF9A
:107FF000254625B100BF2846FEF7C6FE00BF00BFDC
:10800000002000906946012002F038F8044600BFC5
:10801000254625B100BF2846FEF7B6FE00BF00BFCB
:10802000684602F08BF8044600BF254625B100BF24
:108030002846FEF7A9FE00BF00BF012032DF04463C
:1080400000BF254625B100BF2846FEF79DFE00BFB4
:1080500000BF01203FDF044600BF254625B100BF19
:108060002846FEF791FE00BF00BF38BD10B502469E
:108070000949885C00BF4FF0A0442146D1F804357F
:10808000012484409C43C1F80845012484401C40DD
:10809000C1F80C4500BF10BDE4C1020010B5044694
:1080A0000249085D012101F0C6FE10BDE4C10200D5
:1080B00010B504460249085D002101F0BCFE10BD68
:1080C000E4C1020010B50146094B585C00BF4FF0F7
:1080D000A044234600BFD3F80445C44004F0010483
:1080E0000CB1012000E00020024682F0010010BD2A
:1080F000E4C1020010B5002403E02046FFF7CEFFE4
:10810000641C042CF9D310BD10B5002403E02046F4
:10811000FFF7CEFF641C042CF9D310BD02464FF0CC
:10812000FF30002106E0054B5B5C934201D108461D
:1081300002E0491C0429F6D300BF7047E8C10200E1
:108140002DE9F04106460F464FF000080024304666
:10815000FFF7E4FF0446042C3ED20FB3012F02D0F8
:10816000022F38D130E004EB4400214911F800809F
:1081700004EB44000844407850B11E4A4FF480415B
:108180001D480068FEF77CFE05460DB919480670CB
:1081900004EB4400164908448078184908551AE051
:1081A00015480068FEF787FE1448005D04EB4401A3
:1081B0000F4A11448978884205D104EB44001146E6
:1081C000084490F8028006E004EB440008490844A3
:1081D00090F8018000BF00BFB8F1000F06D008483A
:1081E000006818B14046064909688847BDE8F08133
:1081F000684A0020C4410020F4C10200C5410020AB
:10820000C041002030B503460020042B23D2012AB0
:1082100007D1012903D103F10E04E4B200E00024E8
:10822000224679B1012902D0022911D104E003EBE1
:1082300043040A4D2A550DE003EB4304074D2C443B
:10824000627007E003EB4304044D2C44A27001E08C
:10825000072000BF00E0072030BD0000684A002072
:1082600070B5044600250548007800F0010018B1FB
:10827000204600F005F80546284670BDB8410020AC
:108280002DE9F047044600260025DA48007820B1A1
:108290000020D849087001F059FA182C7ED2DFE886
:1082A00004F00C16174A7EB2F6F4F3F2F1F0EFEE9A
:1082B000EDECEBEAE9E8E7E6E5E401F047FACE4861
:1082C0000068FEF7F8FD0646CC4804708DE100BF5B
:1082D0000020FFF7F7FE58B10020FFF7DFFE022C69
:1082E00002D14FF4E16001E04FF47A60054609E005
:1082F0000020FFF7DDFE022C01D1C82001E04FF481
:10830000C8700546BD4804704FF40040A5FB00103E
:108310004FF47A73CF1840F100015A000023384619
:10832000FEF760F8814600224946B3480068FEF730
:10833000A7FD064659E10020FFF7C4FE58B1002012
:10834000FFF7ACFE032C02D14FF4487001E04FF46C
:108350007A60054609E00020FFF7AAFE032C01D150
:10836000C82001E04FF4C8700546A44804704FF4DB
:108370000040A5FB00104FF47A728F1840F1000105
:10838000520000233846FEF72DF881460022494668
:1083900099480068FEF774FD064626E124E10020B6
:1083A000FFF790FE58B10020FFF778FE042C02D1B1
:1083B0004FF47A6001E04FF47A6005460AE000204D
:1083C000FFF776FE042C02D14FF4C87001E04FF4A1
:1083D000C8700546894804704FF40040A5FB0010A2
:1083E0004FF47A73CF1840F100015A000023384649
:1083F000FDF7F8FF8146002249467F480068FEF7F6
:108400003FFD0646F1E00020FFF75CFE50B1002082
:10841000FFF744FE052C01D1C82001E04FF47A603B
:10842000054609E00020FFF743FE052C01D1C820D6
:1084300001E04FF4C8700546704804704FF40040E6
:10844000A5FB00204FF47A73D71840F100015A00C1
:1084500000233846FDF7C6FF81460022494666489C
:108460000068FEF70DFD0646BFE0B8E0B6E0AAE002
:10847000A1E098E092E05FE05DE05BE059E057E06A
:1084800051E042E033E024E015E00EE0FFE7002099
:10849000FFF7ECFD59480470002240F2666156482F
:1084A0000068FEF7EDFC06469FE00020FFF700FEA7
:1084B0005248047099E001204E490870FFF7D6FD3C
:1084C000002240F266614C480068FEF7D9FC06467F
:1084D0008BE0012047490870FFF7C8FD00224FF4E8
:1084E000005145480068FEF7CBFC06467DE00120C0
:1084F00040490870FFF7BAFD002240F266613E482D
:108500000068FEF7BDFC06466FE00120394908709F
:10851000FFF7ACFD00224FF4005137480068FEF72A
:10852000AFFC064661E0FFF7EFFD344804705CE005
:1085300000BF00BF00BF00BF31480068FEF7BBFCB2
:108540000646C4F1110515B30EBB012D18D9A8B20A
:10855000C82148434FF4004180FB01104FF47A7268
:108560008F1840F10001520000233846FDF73AFF12
:1085700081460022494622480068FEF781FC0646F3
:108580000220FFF795FD01201E49087005E002203A
:10859000FFF784FD00201B49087026E001F0D6F8A3
:1085A0001648047021E001F0D1F80020FFF780FDAB
:1085B0001248047019E001F0C9F80120FFF778FDB6
:1085C0000E48047011E001F0C1F80020FFF770FDC3
:1085D0000120FFF76DFD0948047006E000BFFFF7BA
:1085E00093FD0648047000E000BF00BF3046BDE8C0
:1085F000F0870000B5410020ECC10200B44100202A
:10860000F0C10200BC4100204FF0FF31054A42F8A2
:108610002010082804DBFF23A0F108015032535436
:1086200070470000784B00200146024850F82100B6
:1086300070470000784B00202DE9F04F03460C46B0
:108640004FF0FF390AB1002000E0082084460AB14B
:10865000082000E00C208046614624E0154850F8D0
:108660002100401CF0B91D460846274616464FFA21
:1086700080FBDFF840A00AF1300A0AF805B0DFF805
:1086800034A04AF820704EB94FFA85FBA0F1080AD1
:10869000DFF820E00EF1500E0EF80AB000BF4FFADE
:1086A00081F902E0491C4145D8D300BF4846BDE8E6
:1086B000F08F0000784B002001460148405670477B
:1086C000A84B00202DE9F04389B006460D4614461C
:1086D0001F46DDF8408000BF0DB1012000E0002002
:1086E0008146B9F1000F04D100BF0020FEF74CFB1A
:1086F00000BF00BF00BF002C01DD012000E0002012
:108700008146B9F1000F04D100BF0020FEF73CFB09
:1087100000BF00BF202101A8FDF7BDFEADF8046039
:10872000ADF80840ADF80A4003959DF8110020F01F
:108730000200801C8DF811008DF81570424601A9C9
:108740000348008800F006F809B0BDE8F083000097
:10875000DC41002070B590B006460C461546A07866
:1087600018B901208DF80E0002E0A0788DF80E00F7
:108770002088ADF80C0000200290607C02A903F074
:10878000E3F9A07C0DF1090103F0DEF9E07B08B10B
:10879000012000E000209DF80A1060F3C3018DF86D
:1087A0000A10207C08B1012000E000209DF80A108A
:1087B00060F304118DF80A10207B08B1012000E05D
:1087C00000209DF80A1060F300018DF80A10207D4A
:1087D00008B1022000E001209DF80A1060F3420178
:1087E0008DF80A101C2109A8FDF755FE607BC0F327
:1087F000001018B9607BC0F34010F8B10020009061
:10880000E07C0DF1010103F09FF900BF9DF800002D
:1088100020F00F00401C8DF800009DF8000020F0B3
:10882000F00010308DF8000000BF9DF8020020F02D
:108830000600801C8DF80200CDF838D0607B8DF8E2
:108840002400A07B8DF82500142104A8FDF723FE49
:1088500003A8049002A80590A088ADF81C00A068A9
:1088600020B1E088ADF81800A0680890A069002841
:1088700049D000200190A0690088ADF82C00A069C3
:108880004088ADF82E00A06940680A9001A80D90BC
:10889000A169087B01A903F057F9A169487B0DF193
:1088A000050103F051F9A069807A08B1012000E0C8
:1088B00000209DF8061060F3C3018DF80610A06932
:1088C000C07A08B1012000E000209DF8061060F396
:1088D00004118DF80610A069007A08B1012000E0AB
:1088E00000209DF8061060F300018DF80610A069C5
:1088F000807B08B1022000E001209DF8061060F3A3
:1089000042018DF80610E06908B1E0690C902B4631
:1089100004AA09A93046AADF10B070BD70B505469B
:108920000DB9094C01E0084C083409E0204600F07C
:10893000ADFE064606B904E028467168884700BFC8
:10894000F4E700BF70BD00006C4B002010B504467A
:108950002CB90120064948700020FFF7DFFF012CE9
:1089600004D1012002498870FFF7D8FF10BD000034
:10897000644B00202DE9F047024613468C46D3E9AC
:108980000245DCE90267B6EB040877EB050002D389
:108990000120BDE8F0870020FBE701468878012828
:1089A00005D191F82000012801D100207047886A84
:1089B000042802D0486A042801D10020F6E70120EB
:1089C000F4E733B58BB00546002000900C9878B1E1
:1089D00000240BE021460CA801F004F828B1009A0D
:1089E000501C009001A820F81240641C142CF1D3F4
:1089F0002C2269462846FDF735FD0DB030BD0146F5
:108A00000888062808DB0888B0F5486F06DD088866
:108A10004FF6FF72904201D0072070474888062821
:108A200008DB4888B0F5486F06DD48884FF6FF72CE
:108A3000904201D00720F0E708884FF6FF7290427D
:108A400008D04888904205D008884A88904201DDC5
:108A50000720E2E70020E0E72DE9F04107460D4658
:108A6000144698462088801D404502D90C20BDE858
:108A7000F0813846FFF7C3FF064600BF304600B11D
:108A8000F5E700BF0520218868542088401C20801D
:108A90001220218868542088401C20802288511987
:108AA000388803F088FA21880844208022885119E8
:108AB000788803F080FA2188084420800020D6E7D7
:108AC00010B5044600BF2046FEF75EF900BF10BD9A
:108AD00030B587B01C216846FDF7DDFC0020009012
:108AE0004FF4A03001904FF4F020029003208DF855
:108AF0000C000020ADF80E008DF81000094805901C
:108B0000094806906846FEF701FD044600BF254669
:108B100025B100BF2846FEF737F900BF00BF07B0F8
:108B200030BD00009DAC0200C18A0200F8B50546C8
:108B30000C46607A88B9207A10B91048476801E07D
:108B40000E4887682A4639466068FEF799F9064656
:108B500016B1304602F090FE0EE000202072074869
:108B6000406948B101208DF80000ADF8025003487B
:108B700041696846884700BFF8BD0000CC4A002024
:108B800010B5012200210846FFF73CFB044600BF58
:108B90001CB1072C01D0204610BD00BF07220221C6
:108BA0000120FFF72FFB044600BF1CB1072C01D0AA
:108BB0002046F1E700BF042202210020FFF722FB3C
:108BC000044600BF1CB1072C01D02046E4E700BFDB
:108BD0000020E1E77FB506460C4600200290039096
:108BE000ADF80840ADF80A40009001906A4602A92D
:108BF000304690DF054605B100BF284604B070BD81
:108C000000B591B0402101A8FDF745FC07A101A8DE
:108C1000FFF7CEF90AA10BA8FFF7CAF901208DF8DA
:108C2000400001A8FEF70AFF11B000BD4E6F72644C
:108C3000696353656D69636F6E647563746F720009
:108C400053573A302E31000070B504460E461321BA
:108C5000204676DF054670BD70B505460C464FF4DC
:108C6000803000FA04F1284600F026FB70BD70B594
:108C700005460C464FF4A07000EB840086B23146E6
:108C8000284600F033FB70BD2DE9F04704460D4641
:108C900016461F464FF4803000FA05F84FF4A070D6
:108CA00000EB85001FFA80F926F07F4641462068D8
:108CB00001F0CEF94146206801F0C4F94946206828
:108CC00001F0B9F932462946206801F0ABF9414676
:108CD000206801F0BAF91FB14146206801F0BBF9E4
:108CE000BDE8F08710B50446206801F0A0F910BD7A
:108CF0002DE9F04303460C4616465879254941F8BC
:108D000020605879244901EBC000007918B108228D
:108D10001046BDE8F08321881868C0F8081500BF28
:108D200093F90450A7782846394600280CDA4FEA10
:108D3000417C4FEA1C69DFF864C000F00F08A8F11D
:108D400004080CF8089007E04FEA417C4FEA1C68E1
:108D5000DFF84CC00CF8008000BF00BF93F904009E
:108D600000BF00F01F050121A9404509AD0005F134
:108D7000E025C5F8001100BF00BF01205979064D5C
:108D800005EBC10108715879294641F830300022BD
:108D90001046BEE7904200209442002018ED00E00B
:108DA00000E400E010B5014691F9040000F01F0353
:108DB00001229A40024B440943F8242000BF10BD11
:108DC00000E200E070B505460C4622460221284626
:108DD00000F07EFA70BD10B504464FF48271204653
:108DE00000F084FA10BD10B504460021206801F09F
:108DF00035F910BD10B504460421206801F02EF9A4
:108E000010BD2DE9F84F04460D46164699464FF41D
:108E1000803000FA05FB4FF4A07000EB850080B2B3
:108E2000009026F07F465946204600F045FA20681B
:108E300001F0FDF80746206800F5A86151F82510FB
:108E40008A463A462946206801F0ECF820680099E5
:108E500001F0F1F83946504602F0AAFF012806D188
:108E6000102001F023FB2068009901F0E4F820684D
:108E700001F0DDF807463946304602F099FF80469A
:108E80005946206801F0E1F8B8F1010F0FD1721CCA
:108E90002946206801F0C6F8102001F007FB206881
:108EA00001F0C5F8B84227D00D20BDE8F88F324652
:108EB0002946206801F0B6F8206801F0B8F80746A6
:108EC000701E394602F074FF80466FF07F40A0EBC1
:108ED0000900404501D20D20E7E7B8F1000F0BD1A2
:108EE000721C2946206801F09DF8206801F09FF867
:108EF000B84201D00D20D8E701225946204600F0A3
:108F0000E7F90020D1E7704710B510480068407EAF
:108F100060B106210120FEF735FD044624B10B485F
:108F20000068416903208847002010BD01200749DF
:108F30000968087601210846FEF724FD04461CB1A5
:108F400000200249096808762046EEE7AC4200207E
:108F500014480068401C38B913480178124808309A
:108F60000078C0F3031205E00E4801684FF080500E
:108F7000D0F83421062912D1032A06D0042A06D0BB
:108F8000052A06D0062A08D105E0012070470120F5
:108F9000FCE70120FAE70120F8E70120F6E70020CE
:108FA000F4E7000030010010E00F00F01448006802
:108FB000401C38B913480178124808300078C0F3D3
:108FC000031205E00E4801684FF08050D0F83421BC
:108FD000062912D1032A06D0042A06D0052A06D073
:108FE000062A08D105E0012070470120FCE7012096
:108FF000FAE70120F8E70120F6E70020F4E7000097
:1090000030010010E00F00F014480068401C38B92F
:1090100013480178124808300078C0F3031205E0C5
:109020000E4801684FF08050D0F83421062912D143
:10903000032A06D0042A06D0052A06D0062A08D11B
:1090400005E0012070470120FCE70120FAE701203C
:10905000F8E70120F6E70020F4E7000030010010F7
:10906000E00F00F00E4802780D4808300078C0F399
:109070000311062A12D1032906D0042906D0052996
:1090800006D0062908D105E0012070470020FCE742
:109090000020FAE70020F8E70020F6E70020F4E7D8
:1090A000E00F00F00E4802684FF08050D0F8341105
:1090B000062A12D1032906D0042906D0052906D094
:1090C000062908D105E0002070470020FCE70020B9
:1090D000FAE70120F8E70120F6E70020F4E70000B6
:1090E0003001001014480068401C38B9134801785A
:1090F000124808300078C0F3031205E00E480168FA
:109100004FF08050D0F83421062912D1032A06D01E
:10911000042A06D0052A06D0062A08D105E0012037
:1091200070470120FCE70120FAE70120F8E7012061
:10913000F6E70020F4E7000030010010E00F00F037
:109140000E4802780D4808300078C0F30311062A53
:1091500012D1032906D0042906D0052906D00629F4
:1091600008D105E0012070470020FCE70020FAE765
:109170000020F8E70020F6E70020F4E7E00F00F019
:1091800014480068401C38B9134801781248083068
:109190000078C0F3031205E00E4801684FF08050DC
:1091A000D0F83421062912D1032A06D0042A06D089
:1091B000052A06D0062A08D105E0012070470120C3
:1091C000FCE70120FAE70120F8E70120F6E700209C
:1091D000F4E7000030010010E00F00F00E480278C4
:1091E0000D4808300078C0F30311062A12D1032974
:1091F00006D0042906D0052906D0062908D105E0A5
:10920000012070470020FCE70020FAE70020F8E783
:109210000020F6E70020F4E7E00F00F00E480278A7
:109220000D4808300078C0F30311062A12D1032933
:1092300006D0042906D0052906D0062908D105E064
:10924000012070470020FCE70020FAE70020F8E743
:109250000020F6E70020F4E7E00F00F01448006873
:10926000401C38B913480178124808300078C0F320
:10927000031205E00E4801684FF08050D0F8342109
:10928000062912D1032A06D0042A06D0052A06D0C0
:10929000062A08D105E0002070470020FCE70120E5
:1092A000FAE70120F8E70120F6E70020F4E70000E4
:1092B00030010010E00F00F070B504460D4629465D
:1092C000206800F0BFFE2946206800F0C1FE70BD96
:1092D00070B504460E4615463146206800F0B5FECE
:1092E0001DB13146206800F0B6FE70BD70B5054670
:1092F0000C462868015929B12146286800F09BFED8
:10930000012070BD0020FCE770B504460D462A46DA
:109310000021204600F009F8A068401CA06070BD44
:1093200001468A68C868801A704710B583680B4484
:10933000848823400468E35C137010BDC26883888E
:109340001A4003689954C268521CC260704770B5D5
:1093500005460E46144624B13146284600F051FB1E
:1093600003E03146284600F02EFB70BD30B50446C0
:109370001088C01C984201D90C2030BD02201588ED
:1093800048551088401C10800120158848551088C9
:10939000401C108015884C551088401C10800020FF
:1093A000EBE770B504460D4640F21442115B012212
:1093B000D4F81004FDF707FF064606B1357004F136
:1093C0003C0204F5826104F1540072DF70BDF7B510
:1093D0000D4617460DB90020FEBD0026009868B165
:1093E000002409E02146684600F0FCFA18B1A0B25A
:1093F0003946A847761C641C142CF3D33046EBE79F
:109400003EB500BF9DF8000020F00F00401C00900A
:109410009DF8000020F0F0001030009000BF0B22FB
:1094200014A168467CDF044600BF254625B100BF75
:109430002846FDF7A9FC00BF00BF00200190029064
:109440001020ADF804003C20ADF806000020ADF877
:1094500008004FF4C870ADF80A0001A87ADF04468E
:1094600000BF254625B100BF2846FDF78DFC00BF93
:1094700000BF3EBD4E6F726469635F554152540038
:1094800002464888064B1B88984208D1088840F657
:109490007723984203D18888C01E024B18807047FA
:1094A000A0410020A241002070B50E490E4800F0F6
:1094B000FDFA044600BF254625B100BF2846FDF74A
:1094C00063FC00BF00BFF721074800F0E0FA044644
:1094D00000BF254625B100BF2846FDF755FC00BF5B
:1094E00000BF70BD81940200B842002070B50B48E7
:1094F000FFF7F8FB0A4B0CCB841843F10005094930
:1095000003C9201A75EB010004D24FF08073E418F0
:1095100045F100052046294670BD0000504200205C
:10952000604200206842002010B500F00DFD10BD23
:1095300010B5034A00210348FDF75CFC10BD000094
:10954000CD670200BCC10200024600210CE001EB25
:109550008100074B33F82000904204D101EB8100D9
:1095600003EB80007047491C0029F0D00020F9E788
:10957000B84A00202DE9F04704460E4690460027E1
:1095800022E0384600F022FF0546384600F025FF6D
:1095900081462046294642580AB1012200E00022B5
:1095A00082B14846D4F80413014009B1012100E01A
:1095B000002139B12946204600F014FF2846D6E99B
:1095C00000219047781CC7B24745DADBBDE8F08739
:1095D00010B50446204601F033F9044909680840F3
:1095E00008B1012010BD0020FCE70000444200202B
:1095F00070B50446204601F023F90546FDF7EFFC5F
:1096000070BD2DE9F0410446A08800EB020CB4F8CF
:109610000480904501DD104600E0A088A8EB00051D
:10962000E088C618B4F80680984501DD184600E0C9
:10963000E088A8EB00074888B4F80080404504DBC8
:109640004888B4F80280404502DD0020BDE8F08182
:109650008888A84202D38888604501D90020F5E7B0
:10966000C888B84202D3C888B04201D90020EDE7CB
:109670000120EBE710B50446204601F0E1F8C0F305
:10968000100008B1012010BD0020FCE70146086869
:1096900008B102680A607047FEB529480068019069
:1096A00001A9132000F06CFF044600BF264626B136
:1096B00000BF3046FDF768FB00BF00BF002001235C
:1096C000204A01460090204801F006F902A801F066
:1096D0003DF8044600BF264626B100BF3046FDF7E0
:1096E00053FB00BF00BF4FF4A070174A11680D185C
:1096F00000BF00BF132000F0ABFF07463A462946E3
:109700009DF8080001F05AF8044600BF264626B12D
:1097100000BF3046FDF738FB00BF00BF9DF80800D2
:1097200001F070F8044600BF264626B100BF30465F
:10973000FDF72AFB00BF00BF132000F095FFFEBD20
:10974000D8C1020020A10700AC41002010B5084894
:10975000007850B1002405E0022C02D02046FEF72C
:109760009DFC641C042CF7D301E0FEF7C3FC10BD84
:10977000BC41002010B500F089FE0020014988702E
:1097800010BD0000644B0020F721018017214180AB
:10979000002101714171FB2181711B21C171704751
:1097A00070B5002400BF254625B100BF2846FDF74F
:1097B000EBFA00BF00BF70BDFFF7F2FFFFF7B8FE86
:1097C00002F09CFB01F032FE01F022FEFEF70BFCE2
:1097D000FFF716FEFFF768FE02F0B8F8FDF752FA41
:1097E000FFF776F9FDF790FA00BFFFF79DFEFCE763
:1097F0002DE9F04105460E4614469846A888871C78
:109800002088801C3844404502D90C20BDE8F081F6
:10981000FE2F01D90C20F9E7781C2188705420888C
:10982000401C2080FF20218870542088401C20800C
:1098300022889119288802F0BEFB218808442080E4
:10984000A88800280DDDA86808B90720DEE7AA88E7
:1098500023889819A968FCF705FE2088A988084480
:1098600020800020D2E72DE9F84F05460F46144628
:1098700098462878012804D1687810B90720BDE8F7
:10988000F88F2088801C404508D82878012807D107
:109890002088801C69780844404501D90C20EEE7F7
:1098A0002088A8EB0000801E86B200962188891CC3
:1098B000C81969467DDF814600BF484600B1DEE732
:1098C00000BF2878022804D06878BDF800108842CC
:1098D00006DBBDF80000B04202DC4FF0090A0BE0E5
:1098E0004FF0080A2878012805D16878B04202DCD8
:1098F0006878009000E00096BDF80000FE2801D9CD
:109900000C20BCE7BDF80000401C2188785420885A
:10991000401C2080208807F800A02088401C208060
:109920002088BDF80010084420800020A7E710B56B
:10993000044609B90E2010BD92FBF3F003FB102082
:1099400008B10920F7E7216000206060A060A281D3
:10995000E38100BFEFE770B504460D462946204677
:10996000FCF758FC18B12A882168881870BD0020BF
:10997000FCE770B505460C4620886188884204D112
:109980002846FCF789FC012070BD0020FCE770B57B
:1099900004460D4629462046FCF761FC18B16A884A
:1099A0002168881870BD0020FCE770B505460C469C
:1099B00020886188884204D12846FCF747FC0120B2
:1099C00070BD0020FCE770B505460C4604F01F038F
:1099D00001229A40D143620905EB820000F020F891
:1099E000064670BD10B50246480952F8200001F045
:1099F0001F040123A340184008B1012010BD00201E
:109A0000FCE770B505460C4604F01F03012202FA7C
:109A100003F1620905EB820000F018F8064670BDFC
:109A2000F8B504460D466A4629462046FCF76FFC09
:109A300006460098F8BDF8B504460D466A46294624
:109A40002046FCF74BFC06463046F8BDF8B5044608
:109A50000D466A4629462046FCF74CFC064600980F
:109A6000F8BD30B502460B46D40802F007020120CB
:109A700090401D5D284030BD30B50B46C20800F057
:109A800007009C5C012585402C439C5430BD024658
:109A900000BF0AB90E20704700BF172901DBF72964
:109AA00001DD0720F7E711800020F4E770B50446D8
:109AB0000E4600BF0CB90E2070BD00BF2661F72016
:109AC00020806080FB202071002505E0A11D01EBB6
:109AD000C500FFF759FE6D1C002DF7D00020EBE705
:109AE0002DE9F04106460F463D46B488012C01DBC6
:109AF000BDE8F0813088242820D006DC102809D069
:109B000011280CD0232823D11DE03A280CD0552849
:109B10001ED10EE03146284601F06DF919E03146BC
:109B2000284601F05CFA14E03146284601F098FA24
:109B30000FE03146284601F05DFA0AE0314628463A
:109B400001F0CAF905E03146284601F0EFF900E0DE
:109B500000BF00BFA81D00EBC4000079A8B1A81D7C
:109B600030F834102046A5DF8046B8F1000F0AD146
:109B70000021A81D00EBC40001710121A81D00EB0C
:109B8000C400417100E000BF00BF00BFB0E7024663
:109B900000BF0AB90E20704700BF00BF1078DE2852
:109BA00001D00820F7E700BF51800020F3E702460C
:109BB00000BF0AB90E20704700BF00BF09B90E20D0
:109BC000F9E700BF1078DE2801D10820F3E7086824
:109BD0005060DE2010704FF6FF7050800020EAE7E2
:109BE00070B504460E4600BF06B970BD00BF00BF89
:109BF00004B9FAE700BF354600BF2878DE2800D058
:109C0000F3E700BFA0886988884202D1284602F0A5
:109C100028FA2088012806D0022809D0112811D05E
:109C2000512817D109E0211D284601F009FB12E057
:109C3000211D284601F003FB0DE0211D284601F0FF
:109C4000A9FA08E0A0886988884202D14FF6FF701F
:109C5000688000E000BF00BF00BFC6E701464FF0CC
:109C60008040405808B1012070470020FCE708B54B
:109C700000224FF080410A500958009100BF08BDF2
:109C80000149086070470000080300400122910765
:109C90000A50704770B540F6F8700068401C18B95B
:109CA0004FF01020406902E040F6F8700068054669
:109CB000681C38B1284613DF04460CB1204670BD3D
:109CC0000020FCE70420FAE710B5044813DF04463F
:109CD0000CB1204610BD0020FCE70000006002002F
:109CE00010B500240C48007808B1852411E000204C
:109CF0000949886048600861C860084800F0B4FB02
:109D0000044600F0C1FA08B900F0A4FB01200249A2
:109D10000870204610BD0000644B00204D890200F1
:109D200008B5002000906846FDF706F90748C068AE
:109D3000401E0649C8600846C06808B9FFF71AFD0A
:109D40009DF80000FDF7FEF808BD0000644B002000
:109D50000548007818B901200349087001E0852002
:109D600070470020FCE70000494200202DE9F04147
:109D700004460D461646002720780C49085C30B191
:109D800032462946201D00F099FE07460AE0207859
:109D90000649085C30B93246294604F10C0000F04F
:109DA00035FE07463846BDE8F0810000304200200D
:109DB000F0B5DDE9054500BF4FF0A0473E4641EA5A
:109DC000420747EA830747EA042747EA054C06F5B6
:109DD000E06747F820C0F0BD10B50A4600BF4FF05D
:109DE000A043194601F5E06353F8203023F44034D2
:109DF00001F5E06343F8204053F8203043EA024481
:109E000001F5E06343F8204010BD00BF4FF0A041D2
:109E10000A46012303FA00F1C2F80C1500BF70478F
:109E200000BF4FF0A0410A46012303FA00F1C2F837
:109E3000081500BF704710B561B900BF00BF4FF0F3
:109E4000A0421346012404FA00F2C3F80C2500BF17
:109E500000BF0CE000BF00BF4FF0A042134601243A
:109E600004FA00F2C3F8082500BF00BF00BF10BD10
:109E700038B50B46074C24680094014606E05DF8AF
:109E80002140D4F810551560121D491CC4188C428D
:109E9000F5D838BD40C20200014601480844704769
:109EA0000060004038B504462046FFF7F5FF00216A
:109EB00001602046FFF7F0FF0068009000BF38BD4A
:109EC00010B504462046FFF7E7FF0068012800D1DF
:109ED00010BD0020FCE70000014908607047000049
:109EE0000463004001460148084470470060004098
:109EF00000BF00BF00BFBFF35F8F00BF00BF00BF48
:109F0000002101607047000010B500200A49087068
:109F100000BF0A49086000BF00BF00BF00BFBFF319
:109F20005F8F00BF00BF00BF00BF0549054800F0BC
:109F3000DEF9002010BD0000A4420020A042002055
:109F4000C0C20200D04C002038B500BF00200090F5
:109F50006846FCF7F1FF00BFF1EE100A044624F05A
:109F60009F00E1EE100A00BF00BF00BF00BF00BFAE
:109F7000BFF35F8F00BF00BF00BF262000F01F02AD
:109F800001219140094A430942F8231000BF9DF87E
:109F90000000FCF7D7FF00BF00F076F910B141DFF9
:109FA000044602E020BF40BF20BF38BD80E200E091
:109FB00070B50446144D01212846FFF73CFD0646C6
:109FC00000BF00BF00BF00BFBFF35F8F00BF00BF77
:109FD00000BF0EB9012000E0002000B970BD042CC4
:109FE0000BD00A48007818B10748FFF781FFF5E762
:109FF0000748047001200549087001F005FE024879
:10A00000FFF776FF00BFE9E7A0420020A44200204E
:10A010009C42002010B5044600BF2046FCF7B4FE69
:10A0200000BF10BD00F5A86343F82120704701462A
:10A03000D1F80405704708B50022425042580092FA
:10A0400000BF08BDC0F848137047C0F844137047FC
:10A05000C0F808137047C0F804137047012242503B
:10A0600070470000014609B90E2070470248006899
:10A0700008600020F9E7000050C30200FEB5054665
:10A080000C462046FFF7EEFF06460EB13046FEBDF9
:10A0900000200090019002908DF8005001208DF872
:10A0A00002000621ADF8041069462020226869DF0D
:10A0B0000646002000900190029001208DF80100DA
:10A0C00000208DF802008DF80300694640202268C8
:10A0D00069DF064600200090019002908DF8005044
:10A0E000F720ADF8020069462320226869DF0646A2
:10A0F000002000900190029002208DF80000694637
:10A100000120226869DF064600200090019002903D
:10A110004FF4C86000906946A120226869DF0646B6
:10A1200000200090019002908DF800006946A02068
:10A13000226869DF06460020A9E7000070B50446E2
:10A140002668204660DF05462068B04200D800BF80
:10A1500015B9012001490870284670BDA8420020A9
:10A160002DE9F041ADF5027D80461848007818B918
:10A170000DF5027DBDE8F0811DE04FF4FA7004900A
:10A1800004A905A861DF044604B115E005AD104936
:10A1900001A800F0ACF809E000BF03980646376854
:10A1A00028467168B84701A800F0C2F800BF0398BC
:10A1B0000028F1D100BFE0E700BF052C04D000BFAC
:10A1C0002046FCF7E1FD00BF00BFD1E7A842002018
:10A1D00044C302001CB51B48007808B108201CBD10
:10A1E000012019490870002001F00EFB112801D14F
:10A1F0000020F4E7002001F025FB144800680190DE
:10A20000002000906846FCF797FE114901A810DF76
:10A2100004460CB9012000E000200A4908709DF8AE
:10A220000000FCF78FFE0CB12046D8E7002006495D
:10A2300008700849087001F04FFD012001F002FB91
:10A240000020CCE7A5420020A742002020C3020046
:10A250002D6D0200A64200203EB50A49684600F076
:10A2600046F809E0684600F03FF804462568606853
:10A27000A847684600F05CF8684600F035F800280A
:10A28000F0D13EBD14C302000148007870470000C1
:10A29000A54200202DE9FF41074618E003A84BDF47
:10A2A000044604B114E00F49684600F020F809E0C4
:10A2B00000BF029805462E6869680398B047684653
:10A2C00000F036F800BF02980028F1D100BFE5E7A2
:10A2D00000BF052C04D000BF2046FCF755FD00BF91
:10A2E000BDE8FF8164C3020001468868704770B50D
:10A2F00004460D46256028686060204600F001F89D
:10A3000070BD14E0D0E900215268914202D10021D1
:10A31000816070474168096842685268914203D081
:10A32000416809688160F4E7416808314160E9E704
:10A3300010B50446A06800B910BD2168A0688968FE
:10A340000844A060D4E901104968884205D16068DA
:10A35000083060602046FFF7D4FF00BFECE770B51F
:10A3600005460E466C6806E020683146AA689047AC
:10A3700000B903E0246820680028F5D100BF2068F8
:10A380003060266070BD014648680068704701462D
:10A390004A6810684A68126822B14A6812681268EE
:10A3A0004B681A60704710B503460A46002059688A
:10A3B00007E00C68944203D114680C60012003E0AC
:10A3C00009680C68002CF4D100BF10BD01464FF4A1
:10A3D000A07000EB810080B2704701464FF48030DE
:10A3E0008840704708B5002242504258009200BF92
:10A3F00008BDC0F808137047C0F804137047D0F8C0
:10A4000000228A43C0F80022704701224250704760
:10A410000246505808B1012070470020FCE708B5FB
:10A42000002242504258009200BF08BD0122425013
:10A4300070470246505808B1012070470020FCE7E1
:10A4400008B5002242504258009200BF08BD0122C8
:10A450004250704710B500F027F90120014908600B
:10A4600000BF10BD1805004001460020064A1279C1
:10A470000AB1852006E0044A11600122024B1A71DC
:10A4800000225A71704700003442002010B50C20A1
:10A49000FFF7FCFB00BF00BF03480068C0F30040AB
:10A4A0000028F8D110BD00001804004070B5044623
:10A4B00004B970BD024EA5012846B04700BFF8E7B9
:10A4C000A1C202000146080B40B270470146080BCA
:10A4D00040B270472DE9F041264890F8580018B175
:10A4E00008252846BDE8F081002404E0204600F05D
:10A4F00043FF601CC4B2202CF8DB002404E020469B
:10A50000FEF782F8601CC4B20C2CF8DB194800215D
:10A5100041650622134610461946002809DA4E07FF
:10A520004FEA166C144E00F00F073F1F06F807C0E5
:10A5300003E04E07370E114E375400BF00BF062010
:10A5400000BF012181404209920002F1E022C2F8DD
:10A55000001100BF00BF4FF4BE70FFF7A3FC4FF027
:10A560000040FFF7B9FC0120024981F8580000259E
:10A570002846B7E7784B002018ED00E000E400E043
:10A580002DE9FC4104460E46002720462D49095678
:10A59000491C09B1012100E0002109B108274DE063
:10A5A000B07860B3012200212046FEF745F8054649
:10A5B000681C10B330787178234A52F82520234B59
:10A5C0001A40214B43F825201A4652F825304FF403
:10A5D000F85202EA04224FF4403C0CEA004C42EAF2
:10A5E0000C024FF4801C0CEA015C42EA0C0213439B
:10A5F000154A42F8253000BF00E0042705E000BFFF
:10A60000FE211048015500BF00BFBFB97078012876
:10A6100003D12046FFF704FC02E02046FFF7F5FBDC
:10A6200000BF002000900346012211460190204601
:10A63000FFF7BEFB00BF204600F094FE3846BDE8A1
:10A64000FC810000A84B002010650040FFE0ECFFFB
:10A6500070B504462046FEF72FF88006050E284602
:10A66000FFF740FC70BD000010B50146064A505689
:10A67000064C04EB8003D3F8103543F00302044B7F
:10A6800043F8202000BF10BDA84B00200060004010
:10A6900010650040014601F06040B0F1005F01D15B
:10A6A000012070470020FCE72DE9F04106254FF01E
:10A6B0008040FFF707FF04462046E21704EBD26212
:10A6C0005211920002F1E022D2F800212146E31754
:10A6D00004EBD3635B11A4EB43160123B3401A4090
:10A6E0000AB1012200E0002252BB4FF08040FFF788
:10A6F000E9FE04462E4620463146002807DA4A077E
:10A70000170E104A00F00F031B1FD75403E04A072F
:10A71000130E0D4A135400BF00BF4FF08040FFF7E7
:10A72000D1FE0446204600F01F020121914042095B
:10A73000920002F1E022C2F8001100BF00BF00BF8A
:10A74000BDE8F08118ED00E000E400E0F8B5064651
:10A75000002700250427174D002425E00020009045
:10A760006846FCF7E9FB204600F06AF8284078B11B
:10A770002046FEF72DFF58B900BF204600F060F8D4
:10A780000D49096808430C49086000BF3470002770
:10A790009DF80000FCF7D6FB07B907E0204600F063
:10A7A0004FF88543601CC4B2002DD7D100BF384696
:10A7B000F8BD0000FFFF0100444200202DE9F041F8
:10A7C00006460C46154604B115B90E20BDE8F081C9
:10A7D00000273046FEF74EFF08B907270EE0304647
:10A7E000FEF7F6FE08B9082708E000BF044840F865
:10A7F000364000EBC600456000BF00BF3846E5E7C5
:10A8000010F5014070B5044600252046FEF7F0FE25
:10A8100008B9072510E02046FEF72CFF28B1204696
:10A82000FEF7D6FE08B9082506E000BF0120A040CB
:10A830000249086000BF00BF284670BD04F5014012
:10A8400001460120884070472DE9F04704460D4637
:10A8500016461F462846FFF7C0FD804667B12846CA
:10A86000FFF7B4FD814649462068FFF7BBFD41462E
:10A870002068FFF7C1FD03E041462068FFF7B9FDFE
:10A88000206800F5A86141F8256000BFBDE8F087A9
:10A8900010B5044610212068FFF7B7FD012021798B
:10A8A00001EB4101024A02EB8101087210BD000078
:10A8B000244C002010B5044600212068FFF7A5FDB8
:10A8C0000220217901EB4101024A02EB8101087269
:10A8D00010BD0000244C00202DE9F04105460E4635
:10A8E00017461C46DDF818804FF48072B2400123F1
:10A8F000B34042EA03012868FFF781FD2868D0F8D9
:10A9000000122143C0F8001200BF43463A463146C8
:10A910002846FFF799FFBDE8F08100002DE9F05FC0
:10A9200004460D469246207900EB4000344901EB85
:10A930008006307A20B14FF008094846BDE8F09F04
:10A94000C6F800A068687060002709E03846FFF785
:10A950003DFD804641462068FFF744FD781CC7B2A4
:10A960006079B842F2DC2068FFF7B0FD804695F8C8
:10A9700003B040465946002809DA4A074FEA126CEC
:10A98000204A00F00F031B1F02F803C003E04A0730
:10A99000130E1D4A135400BF00BF2068FFF796FD39
:10A9A000804600BF08F01F01012088404FEA58117F
:10A9B000890001F1E021C1F8000100BF00BF697802
:10A9C0002068D0F8042561F30102C0F8042500BF17
:10A9D000A9782068D0F8082561F30102C0F808259D
:10A9E00000BF29782068D0F8102561F30302C0F871
:10A9F000102500BF012030724FF0000948469DE746
:10AA0000244C002018ED00E000E400E02DE9F041C6
:10AA100004460F469046207900EB400101EBC00050
:10AA20001C4901EB8005204600F036F818B11126CC
:10AA30003046BDE8F081C5F81480AF600020286280
:10AA400085F8280000264FF48E712068FFF7E7FC98
:10AA500008212068FFF7EAFC2946206801F077FA10
:10AA60006868A0B92946206801F056FA08B90F268F
:10AA70000BE000BF4FF48E712068FFF7C9FC00287F
:10AA8000F8D00C212068FFF7D1FC00206861304627
:10AA9000CFE70000D44B00200146087900EB4002CC
:10AAA00002EBC000044A02EB8000406908B10120BB
:10AAB00070470020FCE70000D44B00202DE9F04750
:10AAC000044688469146207900EBC0002A4901EBF4
:10AAD00080054046FFF7DEFD18B910263046BDE878
:10AAE000F087204600F04AF810B111263046F6E70C
:10AAF000C5F81490C5F8088000264FF490712068BE
:10AB0000FFF79EFC4FF4AC712068FFF799FC2068BA
:10AB10006A69A968C0F844154FF4A9631A5000BFC8
:10AB200008212068FFF793FC686818BB00BF4FF44A
:10AB300090712068FFF77DFC82464FF4AC7120686D
:10AB4000FFF777FC0746BAF1000F01D1002FEED0D6
:10AB50000FB10F260BE00C212068FFF778FC00BF37
:10AB60004FF4AC712068FFF764FC0028F8D0002097
:10AB7000686100BF3046B2E7004C0020014608790A
:10AB800000EBC000044A02EB8000406908B10120DC
:10AB900070470020FCE70000004C00202DE9F04148
:10ABA0000546287830BB002614E000BF2969885D7F
:10ABB000FCF78CF9044654B1112C08D000BF27468D
:10ABC00027B100BF3846FCF7DFF800BF00BF112CEB
:10ABD000ECD0761CA88AB042E7D8A88A401E296922
:10ABE000085C0D2805D100BF0A20FCF76FF9112879
:10ABF000FAD000BFBDE8F08170B5054625B3032D3E
:10AC000002D0042D2AD10FE00220FDF729FB0446D3
:10AC1000FBF76AFF00BF264626B100BF3046FCF7AF
:10AC2000B3F800BF00BF1AE00420FDF719FB04468B
:10AC3000FBF746FF00BF264626B100BF3046FCF7B3
:10AC4000A3F800BF00BF0AE0FBF732FF00224FF479
:10AC5000A03104480068FCF713F900E000BF00BF12
:10AC600070BD0000BCC1020010B50446FEF73EFCFA
:10AC7000014A03C210BD00006842002010B504461E
:10AC80000548006830B10448006801F097F80020DA
:10AC90000149086010BD00005842002070B505460B
:10ACA000287868B93B210748008876DF044600BF52
:10ACB000264626B100BF3046FCF766F800BF00BF4D
:10ACC00070BD0000A041002070B50546AE8830463A
:10ACD000FEF73AFC044674B14FF6FF7340F2F312EC
:10ACE00005F1080104F10A00FEF78BFC60722146B1
:10ACF0003046FDF71BFF70BD2DE9F0410546EF7BA7
:10AD0000AE88012F01D0BDE8F0814FF6FF70FEF74D
:10AD10001BFC04461CB9042000F0AEFDF3E700BFA5
:10AD20002680002020720E480168C4F80A1040688E
:10AD3000C4F80E0000BF4FF6FF7340F2F31205F1A6
:10AD4000100104F10A00FEF75CFC60720548C0893E
:10AD500018B921463046FDF7E9FE00BFD3E70000F1
:10AD6000D4410020CC4A002070B58AB004460D467C
:10AD700000200090A9886A466069FCF738F9064609
:10AD800000200290039001A803900220ADF8080073
:10AD90000020ADF80A002189A88802AAADDF064686
:10ADA000D6B9A069C0B10398FDF714F9A0B1009815
:10ADB00010B1012000990870182104A8FBF76BFB63
:10ADC00002208DF810000594A888ADF818000098AE
:10ADD000079004A8A16988470AB070BD8188014A1C
:10ADE00091807047DC4C0020CA7B012A02D18A88FE
:10ADF000A0F8242470472DE9F04105460F46B7F826
:10AE00000480A81D00EBC8042879A071F87B0128F4
:10AE100002D0022806D102E02888208003E068885A
:10AE2000208000E000BF00BF2088618888420BDDE1
:10AE300021884046A5DF064616B90120607103E06F
:10AE4000112E01D101202071A079E179884203DD22
:10AE5000A1794046FDF7BEFEBDE8F08130B587B070
:10AE600005460020039004900590069002208DF87E
:10AE70000C00174903C9CDE9000102A80190154A49
:10AE8000518990886A46ADDF044654B902A8FDF79F
:10AE900098F830B101218DF812100020ADF81000A3
:10AEA00003E040F2FD10ADF8100000BF09498888AA
:10AEB00003A9B0DF0446112CF8D0BDF8100008B18A
:10AEC00007B030BD2846FCF7D1FC00BFF8E7000012
:10AED00070C30200DC4C002070B58EB004460E46F4
:10AEE0002C22311D03A8FBF7BDFABDF80C50BDF8AC
:10AEF0001000C1B2A01D00EBC500C171206980B176
:10AF0000094903C9CDE90101ADF80650A01D00EBC8
:10AF1000C500C0798DF8080001A920462269904734
:10AF200000BF0EB070BD000028C202002DE9F0473E
:10AF300005460E46341D2188A81D00EBC10794F874
:10AF40000480B879404501DAB87900E0404681468E
:10AF500020884946FDF73EFEBDE8F0872DE9F04127
:10AF60000646B7883846FEF7EFFA05466DB16868C1
:10AF7000FBF7A1FF044614B1204600F07DFC00BFA2
:10AF80004FF6FF70288000BF00BFBDE8F0810000D1
:10AF9000054989888288914200D070474FF6FF7139
:10AFA000014A918000BFF8E7DC4C002070B50446F0
:10AFB0000E46002084F82E04B088B4F82414884289
:10AFC0000CD1207950B901212046FCF7E5F905465E
:10AFD00025B1A06B10B12846A16B884770BD70B534
:10AFE00004460D46AA88A11D01EBC200FEF7CCFB6A
:10AFF00070BD00002DE9FC4705460E46B788B6F83F
:10B000000690A81D00EBC704B9F1170F01DA17204D
:10B0100000E0484681462088484501DD484600E07A
:10B02000208860800020207121883846B5DF804666
:10B03000607908B1BDE8FC87286968B1074903C990
:10B04000CDE90001ADF802706088ADF804006946F2
:10B0500028462A69904700BF00BFEBE720C20200E4
:10B060002DE9FC4105460E46B788B6F80A80A81DB2
:10B0700000EBC7042088404501DD404600E0208801
:10B0800060806088172801DA172000E060886080FF
:10B09000286978B1607968B1094903C9CDE900012F
:10B0A000ADF802706088ADF80400694628462A6948
:10B0B000904700BF002060712071BDE8FC81000056
:10B0C00018C2020070B50546AE1D30880749C98810
:10B0D00088420AD10548007E38B1FCF70FFB0446D0
:10B0E0001CB1024841690220884770BDDC4C002039
:10B0F00070B588B004460D46A98801AA6069FBF7BF
:10B1000076FF06460EB108B070BD0198007878B1A0
:10B11000182102A8FBF7BFF901208DF8080003945D
:10B12000A888ADF810000198059002A8A169884789
:10B1300000BFE8E70548D0E900304FF080729A1868
:10B1400040F100000149C1E9002070476042002041
:10B1500070B50546A8880E498988884200D070BD20
:10B16000AC1D2078022810D160880949C98888421E
:10B170000BD1207A042808D0207A062805D0207A1E
:10B18000052802D0A01CFFF769FE00BFE7E700001A
:10B19000DC4C00202DE9FF4106460D4628887188C9
:10B1A000884201D0BDE8FF81AC1C2078022800D085
:10B1B000F8E7207A042806D0207A062803D0207ADF
:10B1C000052800D0EEE70020009001900290039047
:10B1D00002208DF800004FF4C070ADF80400207A12
:10B1E000052802D10020ADF8040028886946B0DFA8
:10B1F000074617B138467168884700BFD2E72DE986
:10B20000F04104460D462888262801D0BDE8F0818B
:10B21000287A012802D0287A02280ED1A078FBF7DC
:10B22000E7FC074639462046FCF7B6F8064626B145
:10B23000A06B10B13046A16B884700BFE6E77047AE
:10B2400070B504460D462879012808D12888618800
:10B25000884204D101202072204600F002FF70BD18
:10B260002DE9F0410446A51D28881249C989884264
:10B270001DD1688902281AD1B4F804804046FEF72F
:10B2800063F9064696B105F10C00FCF7A3FE20B168
:10B2900031464046FDF74AFC08E07068FBF70BFEBC
:10B2A000074617B1384600F0E7FA00BF00BFBDE817
:10B2B000F0810000CC4A0020F0B587B004460E466D
:10B2C000B51DB1886A466069FBF791FE07461821F3
:10B2D00001A8FBF7E0F80294B088ADF80C000098E4
:10B2E00004902988208981421CD16889022819D1BB
:10B2F000009848B305F10C00FCF76CFE30B101205A
:10B300000099087002208DF8040005E000200099E3
:10B31000087003208DF80400A069A8B101A8A169F4
:10B32000884711E02888A18988420DD1A06958B1C9
:10B3300000208DF8040005F10C0005906989ADF836
:10B34000181001A8A169884707B0F0BD0146086838
:10B35000012802D00868022801D10120704700208E
:10B36000FCE7000010B5044602492046FEF784FBC6
:10B3700010BD0000CC4B0020FF2201490A54704749
:10B38000A84B00202DE9F04105460E46002400BFE1
:10B390000EB1012000E00020074627B900BF0020C1
:10B3A000FBF7F2FC00BF00BF00BF0DB1012000E0C1
:10B3B0000020074627B900BF0020FBF7E5FC00BFCF
:10B3C00000BF32782146601CC4B26A5429197088C3
:10B3D00000F0F7FD2044C4B22919B08800F0F1FD57
:10B3E0002044C4B22919F08800F0EBFD2044C4B217
:10B3F00000BF072C01D1012000E00020074627B93B
:10B4000000BF0020FBF7C0FC00BF00BFBDE8F0811B
:10B4100070B5FEF779FD044600BF254625B100BF93
:10B420002846FBF7B1FC00BF00BF70BD7CB5FEF73E
:10B430008FFC044600BF254625B100BF2846FBF718
:10B44000A3FC00BF00BFFFF745F8044600BF254638
:10B4500025B100BF2846FBF797FC00BF00BF0C4991
:10B4600003C9CDE900010B4A69460B48FFF756FABC
:10B47000044600BF254625B100BF2846FBF784FCE3
:10B4800000BF00BFFEF708F90348FFF713FA7CBDC1
:10B49000DCC10200BBBD0200AC41002010B5044677
:10B4A000142C01DB002010BD21460548FEF7A9FA47
:10B4B00021460348001FFEF7A4FA0120F3E700002D
:10B4C000F04A002070B50546002406E0044901EB6F
:10B4D00084002946FEF777FA641C1E2CF6D370BD53
:10B4E000EC4A002010B598B00F488068C043179010
:10B4F0000D48416817A8FEF793FA179901A8FDF7C0
:10B5000060FA2C2201A90CA8FAF7ACFF002405E090
:10B510000DA931F81400FFF7D5FF641C0C98A04268
:10B52000F6D818B010BD0000E84A002010B5044657
:10B5300021460248FEF747FA10BD0000F04A0020FD
:10B5400010B504462046FDF746FC08B1FFF7F2FDB2
:10B5500000212046FDF78BFB10B12046FFF78EFB44
:10B5600001212046FDF783FB10B12046FFF77CFB4D
:10B57000204600F059FC204600F040F810BD0000C5
:10B580002DE9F04706460F464FF00D0800203870B1
:10B59000FDF7ACFFD6E902321C1A62EB010500216F
:10B5A0000846091BA84118DAB4F5350F04D3FBF798
:10B5B00019FC1049084400E0B06881464FF4960336
:10B5C0004A4600210C48FDF71CFC8046B8F1000FEC
:10B5D00002D10120BDE8F08703E000210648FDF715
:10B5E0003BFBB8F10D0F03D1304600F0E7FB38709C
:10B5F0000020EFE7FFFFB40050420020F8B50746F7
:10B6000046E000BF2448FEF7BEFE06460EB13046B7
:10B6100000E0002004460025002C31D01F480068BF
:10B6200008B9012512E01D49D4E902300A68D2E9BF
:10B630000212591A904109D2012518480068007F6A
:10B6400020B1164801681448FEF789FEBDB100F02C
:10B650005DFB044669462046FFF792FF58B10F484C
:10B66000006810B93846FDF7BEFB0C4804609DF831
:10B67000000018B90DE000200849086007E008E064
:10B680000648006810B93846FDF7B4FB01E000BF7A
:10B69000B7E700BFF8BD000084C202005842002096
:10B6A00010B504462046FBF749FA10B942F20100F2
:10B6B00010BD2046002806DA1C4A00F00F031B1FAD
:10B6C000D25C520902E01A4A125C5209114608295A
:10B6D00004D20120884000F0EC0008B9002000E00E
:10B6E000012010B942F20200E2E71248806868B116
:10B6F0006009104951F8200004F01F020121914017
:10B70000084361090B4A42F821000CE000BF04F035
:10B710001F01012088406109890001F1E021C1F881
:10B72000000100BF00BF0020C2E7000018ED00E0EC
:10B7300000E400E0C44C002070B50446FBF71AFAA0
:10B74000054614488068D8B901201249886012481B
:10B750000068124908400F49086010484FF0E02186
:10B76000C1F880010C488038D0F88400094948604D
:10B770004FF0FF310848001D01600020207001E0FB
:10B78000012020701DB900BF62B600BF00BF0020BD
:10B7900070BD0000C44C002080E100E0FC06FFBD4D
:10B7A00038B504460D4624B1012C0BD0032C24D10E
:10B7B0001EE0002001218140114A430942F8231074
:10B7C00000BF1BE0002000906846FBF7B5FB0D486A
:10B7D000007808B9FEF784FA0A48C068401C094995
:10B7E000C860012088709DF80000FBF7ABFB05E006
:10B7F000FEF730FEFEF794FA00E000BF00BF38BD50
:10B8000080E100E0644B0020FEB505460C49684627
:10B81000FEF76DFD0DE06846FEF766FD04462668FE
:10B8200028466168B04708B91120FEBD6846FEF79A
:10B830007FFD6846FEF758FD0028ECD100BFF4E715
:10B84000DCC20200FEB505460A496846FEF74FFD18
:10B850000AE06846FEF748FD044626682846616807
:10B86000B0476846FEF764FD6846FEF73DFD0028D8
:10B87000EFD1FEBDF8C2020010B50446034880694E
:10B8800018B1024881692046884710BDCC4A002083
:10B8900070B505460E463146284675DF044624B18C
:10B8A000112C02D02046FFF7E7FF0CB9012070BD34
:10B8B0000020FCE72DE9F04707460E4614469A465D
:10B8C000B86A10B90720BDE8F0874FF0000836E0ED
:10B8D00008EB4801B86A00EB8105A88800F102096D
:10B8E000B9F1FE0F01D90C20EDE709F10100218823
:10B8F00070542088401C2080162021887054208895
:10B90000401C208022889119288800F054FB21884F
:10B9100008442080A88800280DDDA86808B9072001
:10B92000D1E7AA8823889819A968FAF79BFD20888F
:10B93000A9880844208008F1010000F0FF0897F86A
:10B940002C004045C4DC0020BDE700003EB50020CF
:10B9500001902648019001A92548FEF728F90446E0
:10B9600000BF254625B100BF2846FBF70DFA00BFF2
:10B9700000BF002002901F48029002A91E48FCF759
:10B9800071FA044600BF254625B100BF2846FBF7E3
:10B99000FBF900BF00BFFDF733F9044600BF2546A1
:10B9A00025B100BF2846FBF7EFF900BF00BF00201C
:10B9B0000090FBF759FE044600BF254625B100BFA5
:10B9C0002846FBF7E1F900BF00BF0C48009068462D
:10B9D000FBF7D4FE044600BF254625B100BF28462C
:10B9E000FBF7D2F900BF00BF3EBD000015A002006A
:10B9F000CC4200209DAB020084410020E979020086
:10BA00000246022082F8310092F8240010B107208B
:10BA1000087001E003200870108A88810020C2F8B5
:10BA2000200402F226404860D068886000207047F9
:10BA30000246012082F831000020C2F8200402F200
:10BA4000264048600020886002200870802088819D
:10BA50000020704770B504460D466069A860208BD1
:10BA6000A88194F8240018B1062084F83C0002E074
:10BA7000012084F83C00204600F0E4FA78B102206E
:10BA8000287504212046FDF78CFC064600BF304691
:10BA900000B170BD00BF052084F8310002E0032032
:10BAA00084F8310004F58260C4F820040020F0E737
:10BAB00070B504460D46E069A860208CA88194F812
:10BAC000240018B1062084F83C0002E0012084F82C
:10BAD0003C00204600F0B6FA78B102202875042117
