:020000040002F8
:1060000098780020C1630200C9630200CB630200DC
:10601000CD630200CF630200D163020000000000E4
:10602000000000000000000000000000D363020038
:10603000D563020000000000D7630200D9630200AC
:10604000B9670200DB630200296E0200DB63020015
:10605000DB630200DB630200716502002568020059
:10606000DB630200916D0200A96D0200DB63020098
:10607000DB630200DB630200DB630200DB63020020
:10608000DB6302000D680200DB630200DB630200D9
:10609000DB630200DB6302007D6A0200DB63020057
:1060A000DB630200DB630200DB630200DB630200F0
:1060B000DB630200DB630200000000000000000060
:1060C000DB630200DB630200DB630200DB630200D0
:1060D000DB630200DB630200DB6302000000000000
:1060E00000000000000000000000000000000000B0
:1060F00000000000000000000000000000000000A0
:10610000000000000000000000000000000000008F
:10611000000000000000000000000000000000007F
:10612000000000000000000000000000000000006F
:10613000000000000000000000000000000000005F
:10614000000000000000000000000000000000004F
:10615000000000000000000000000000000000003F
:10616000000000000000000000000000000000002F
:10617000000000000000000000000000000000001F
:10618000000000000000000000000000000000000F
:1061900000000000000000000000000000000000FF
:1061A00000000000000000000000000000000000EF
:1061B00000000000000000000000000000000000DF
:1061C00000000000000000000000000000000000CF
:1061D00000000000000000000000000000000000BF
:1061E00000000000000000000000000000000000AF
:1061F000000000000000000000000000000000009F
:10620000DFF80CD000F076F900480047E1B8020052
:106210009878002030B450E8012F93B2C489234409
:106220008489A34228BF1B1B0489A34202BFBFF37A
:106230002F8F002007E0C3EA020340E80134002C5E
:10624000E9D14FF001000A6030BC704750E8012FDF
:10625000C2EA024240E801210029F7D1704730B478
:1062600050E8022F1FFAA2F3C488A34202BFBFF373
:106270002F8F00200DE0C48923448489A34228BFC6
:106280001B1BC2EA034340E80234002CE8D14FF064
:1062900001000A6030BC704750E8022FC2EA224277
:1062A00040E802210029F7D17047034653E8022F46
:1062B000D988B2EB324F4FF0000017BF92B241EADB
:1062C000014142EA014104E05A68B2EB324F08BF93
:1062D000012043E80212002AE8D1704730B4044696
:1062E00054E8000F0D4644E80053002BF8D1156028
:1062F00030BC704730B4044654E8000F40EA010552
:1063000044E80053002BF7D1156030BC704730B41F
:10631000044654E8000F00EA010544E80053002B4E
:10632000F7D1156030BC704730B4044654E8000F14
:1063300080EA010544E80053002BF7D1156030BC1A
:10634000704730B4044654E8000F00EB010544E800
:106350000053002BF7D1156030BC704730B40446B1
:1063600054E8000FA0EB010544E80053002BF7D1DF
:10637000156030BC704770B404464FF0000054E81C
:10638000006F0D68AE4207BF44E80023012044E8D7
:1063900000630E60002B1CBF0020F0E770BC70474C
:1063A00030B4044654E8000F88422CBF451A054615
:1063B00044E80053002BF5D1156030BC7047000055
:1063C0000648804706480047FEE7FEE7FEE7FEE78F
:1063D000FEE7FEE7FEE7FEE7FEE7FEE7F96A0200FA
:1063E000016202002DE9F05F0546002092469B46BF
:1063F00088460646814640241BE0284641464746DB
:10640000224600F067F853465A46C01A914110D30D
:1064100011461846224600F016F82D1A67EB0108BF
:106420004F4622460120002100F00DF817EB00092D
:106430004E41201EA4F10104DFDC484631462A46C5
:106440004346BDE8F09F202A04DB203A00FA02F11F
:10645000002070479140C2F1200320FA03F3194352
:106460009040704700487047841E030040EA0103D3
:106470009B0703D009E008C9121F08C0042AFAD2FA
:1064800003E011F8013B00F8013B521EF9D27047BE
:10649000D2B201E000F8012B491EFBD27047002266
:1064A000F6E710B513460A4604461946FFF7F0FF13
:1064B000204610BD421C10F8011B0029FBD1801A98
:1064C0007047034611F8012B00F8012B002AF9D17F
:1064D00018467047202A04DB203A21FA02F00021F6
:1064E000704721FA02F3D040C2F1200291400843E4
:1064F00019467047064C074D06E0E06840F001037E
:1065000094E8070098471034AC42F6D3FFF77CFEBE
:1065100094290300B429030070B58C1810F8015BAE
:1065200015F0070301D110F8013B2A1106D110F82C
:10653000012B03E010F8016B01F8016B5B1EF9D130
:106540002B0705D40023521E0DD401F8013BFAE7B6
:1065500010F8013BCB1A921C03E013F8015B01F821
:10656000015B521EF9D5A142D8D3002070BD0000B6
:106570002DE9F04F89B00027002008904FF480707B
:1065800007900126002412E0079806F0E7FB40B1CF
:1065900000BF7B480068304018B1079806F0D0FB78
:1065A000374376000798001D80B20790641C082CC2
:1065B000EAD34FF4BE7006F0D1FB50B14FF4BE7079
:1065C00006F0BEFB47F0004708AA0121002006F0B4
:1065D0009DFBF8B200B3012600241BE006EA070089
:1065E000B0B100BF674850F82400C0F304208046D3
:1065F00000BF644850F82400C0F3014081462046A3
:1066000002F05AFF054615B149464046A84700BF6B
:106610007600641C082CE1D307F0004000287DD0F0
:10662000002006900590002505E04FF0FF3004A9FA
:1066300041F825006D1C002DF7D000BF002006900A
:1066400000245FE05048005D0390039820F0C009EB
:106650004D480057401C002853D004A9484605F077
:1066600011FC00284DD003984FEA901A484602F0DA
:106670002BFF804602F020FF0290029810B9BAF179
:10668000030F3DD1BAF1030F03D105A9484605F028
:1066900004FC00BF00BF4FF0A041084600F5E061D8
:1066A00051F82910C1F3014800BF08A9484605F078
:1066B000E9FB8346BBF1000F02D0B8F1020F05D011
:1066C000BBF1000F1BD1B8F1030F18D1BAF1030FC2
:1066D0000FD1B8F1020F01D1032000E00220019098
:1066E0004846019906F0C6FA0698401CC0B20690CA
:1066F00000BF029818B151464846029A904700BF21
:1067000000BF641C042C9DD3069888B34FF0010889
:1067100003AA0121002006F0F9FA00E02DE000258F
:106720000BE003A850F8250008A951F8251088426D
:1067300002D04FF0000802E06D1C002DF1D000BF28
:10674000B8F1000F02D00020069010E000250CE008
:1067500003A850F8250008A941F8250005A850F81D
:10676000250004A941F825006D1C002DF0D000BFC4
:10677000069800287FF462AF00BF09B0BDE8F08F33
:106780000463004010650040284D002010B5044609
:10679000122000BF4FF0A0431946D1F80425012371
:1067A00083409343C1F80835012383401340C1F867
:1067B0000C3500BF10BD000010B54FF4807005F01F
:1067C0008CFC80B14FF4807005F090FC012005F046
:1067D00097FC0D48407930B901200B4948710846B3
:1067E0000168002088474FF4827005F076FC50B1B4
:1067F0004FF4827005F07AFC022005F081FC02481B
:1068000001680120884710BD9C42002010B5034A52
:106810001068034A1168884710BD0000F442002048
:10682000F0420020FEB54FF4827006F0F1FF002820
:1068300037D04FF4827006F0F5FF6C4890F82E00C8
:1068400018B16A4890F82F0058B300208DF8000066
:1068500066484068019065480189ADF80810C06835
:1068600018B900206149087412E06048008B5F4944
:1068700048830846C06848600846008B08810020AD
:10688000C860084690F82E0010B9002006F0E2FF1C
:1068900056480168684688470020544981F82F000F
:1068A00000BF524890F82E00002852D04FF480705C
:1068B00006F0AEFF00284CD04FF4807006F0B2FF17
:1068C0004A48408B494991F82D10884216DD4748C7
:1068D000408B464991F82D10401A444948830A4696
:1068E00012890B465B8BD21A0B465B6803EB4200A6
:1068F0000A4692F82D1006F077FF23E03B48408BC4
:106900003A4991F82D1088420FD13848C06860B1DB
:106910000120364981F82F00002048830A4692F86A
:106920002D10D06806F060FF0CE03048408B2F49F6
:1069300091F82D10884205D101202C4981F82F00B3
:10694000002048834FF4827006F06CFF042006F0AC
:1069500081FF4FF4887006F05BFF70B14FF48870D0
:1069600006F060FF00202149087402208DF8000025
:10697000084601686846884700BF4FF48A7006F0F1
:1069800047FF38B14FF48A7006F04CFF00201749DA
:1069900008742AE01548456924E0B5FA85F64FF0F9
:1069A0000040F0408543B00000F58C74204606F0AE
:1069B0002FFFB8B1204606F035FF01208DF800000A
:1069C000A4F58C70C0F3C7008DF80400A4F58C709A
:1069D000012121EA90018DF80510044801686846FC
:1069E000884700BF002DD8D100BFFEBD9C4D0020C0
:1069F00010B500F021FA10BD2DE9F0470746884692
:106A00001646C24607EB47011B4800EBC109D9F8FF
:106A1000140020B1012811D0022826D11EE04846DA
:106A200000F042FA0546B54201D2002405E03446A2
:106A300032465146484600F07EFA18E0484600F0DB
:106A400033FA0546B54201D2284600E030460446F6
:106A500022465146484600F06EFA08E0324651465A
:106A6000484600F02FFA044601E0002400BF00BFB2
:106A70002046BDE8F0870000E055002010B507F083
:106A80001FF910BDFEB5134A07CA8DE8070000259F
:106A90002E4605B9104D3146284607F0CBFB04467B
:106AA00000BF00BF254625B100BF284600F020FCEE
:106AB00000BF00BF6946002007F050FB044600BF3E
:106AC000254625B100BF284600F012FC00BF00BFDC
:106AD000FEBD0000E4180300E018030010B50446F2
:106AE00000F096FB10BD00000148024908607047A5
:106AF0000090D003AC43002010B503F0CDFA28B1CC
:106B000092480088C0F304209149086003F020FBFC
:106B100010B190489049486703F05AFB30B18B4858
:106B2000E0380068C0F342308C49086003F07EFB17
:106B300028B18B48006820F080708949086003F014
:106B400095FB48B10020874908604FF08041C1F8AB
:106B500010018249091F086003F0B6FB18B1032039
:106B60007E496431086003F0CFFB68B105207E499F
:106B7000086001207C497831086000207A4908319A
:106B800008603F20091F086003F0DEFB002855D095
:106B90006E48E0300068754908606C48E430006871
:106BA000091D08606948E8300068091D08606748E9
:106BB000EC300068091D08606448F0300068091D69
:106BC00008606248F4300068091D08605F48F830CA
:106BD00000686649203108605C48FC300068091D87
:106BE000086063480068091D08606148001D00686E
:106BF000091D08605E4808300068091D08605C488F
:106C00000C300068091D0860594810300068574969
:106C100040310860564814300068091D0860544827
:106C200018300068091D086051481C300068091DB3
:106C300008604F4820300068091D086003F0FEF925
:106C400030B14248CC38006800F04F004949086034
:106C500003F050FA40B14848006800F0010018B154
:106C60006FF001004449086003F092FA28B14348EC
:106C7000006840F480604149086039487438006811
:106C800040F4700036497439086000BF00BF00BF8F
:106C9000BFF34F8F00BF00BF00BF00BF00BF00BFEA
:106CA000BFF36F8F00BF00BF00BF3548006800F022
:106CB000004028B93248001D006800F00040E8B3E9
:106CC00001203049086000BF2F4800680028FBD031
:106CD00015202B49086000BF2B4800680028FBD016
:106CE00015212748001D016000BF274800680028C3
:106CF000FBD000202349086000BF2348006800281B
:106D0000FBD000BF00BF00BF00BF00BFBFF34F8F6D
:106D100000BF00BF00BF1248F038006800F4E06018
:106D20001A490843001D0E49F039086000BF00BF32
:106D300000BFBFF34F8F00BF00BF00E003E000BF04
:106D400000BF00BFFDE7FFF7CFFE10BD240300101A
:106D5000403501400DF0ADBA00C007403C05004091
:106D6000FCED00E00C0100401056004020C5004042
:106D700024040010E40E0040000400403C170040D2
:106D80000012001004E5014000E401400000FA0593
:106D900010B504220249034804F07FFC10BD000036
:106DA000844D00200090004010B5042202490348A1
:106DB00004F073FC10BD0000904D002000A00040C6
:106DC00010B50248006800F03CFB10BD0819030034
:106DD00010B50848006800F034FB074A0121054857
:106DE00000F0CEFA00224FF480410248006800F023
:106DF0000DFB10BD081903008D67020010B508488F
:106E0000006800F01EFB074A0121054800F0B8FAAF
:106E100000224FF400510248006800F0F7FA10BD5C
:106E2000081903008D67020010B502490868804701
:106E300010BD0000A442002010B5124C02202061B9
:106E4000606111A0A0611349E1614FF400712162FA
:106E50000021A1626162E1620BA0A0640E49E164BD
:106E6000102121650021A1656165E1650BA1E01D8F
:106E7000FFF727FB0AA12046FFF723FB2020A07184
:106E800010BD0000C85500205465726D696E616CBC
:106E9000000000004056002040580020525454008A
:106EA000534547474552000010B501460A69CB6873
:106EB0009A4204D88C68641EE41AA01801E0D41A1F
:106EC000601E10BD2DE9F0470446894617464FF075
:106ED000000AE56800BFD4F81080A84503D9A8EBE4
:106EE0000500461E04E0A5EB0800401CA1680E1A30
:106EF000A068401BB04201D9304601E0A068401BA9
:106F00000646BE4201D2304600E038460646616879
:106F1000481932464946FFF7A9FAB244B144BF1BAB
:106F20003544A068A84200D10025E560002FD2D1E9
:106F30005046BDE8F0872DE9F047044689461546DE
:106F4000E668A068871BAF4208D9616888192A469D
:106F50004946FFF78BFA7019E06010E0B8466168A7
:106F6000881942464946FFF781FAA5EB070809EB65
:106F7000070142466068FFF779FAC4F80C80BDE863
:106F8000F0870000014A024900F036B8B3AD0200B4
:106F90000843002002E008C8121F08C1002AFAD1E5
:106FA00070477047002001E001C1121F002AFBD189
:106FB000704700000146202908DA012088400A4A6B
:106FC000104008B1012070470020FCE7402909DA91
:106FD000A1F12000012202FA00F008B10120F2E73D
:106FE0000020F0E70120EEE7FC06FFBD00BFEFF355
:106FF0001081084672B670472DE9F04116460F46DB
:107000000446002503E03946B047641C6D1C207817
:107010000028F8D12846BDE8F081014601F00300C0
:1070200008B9012070470020FCE70246506800685C
:10703000401E084008B9012070470020FCE70246C6
:10704000002104E0505C08B101207047491C06296A
:10705000F8D30020F9E710B50346D868884206D86F
:107060008818401E1C69A04201D8012010BD0020D4
:10707000FCE7000010B504466CB10848C068A042A7
:1070800009D806480069A04205D3204604F077FBE2
:1070900008B1012010BD0020FCE70000B043002033
:1070A00070B504460D4604F22740FFF7C8FF0646B8
:1070B000012D06D0022D0DD0032D11D0042D19D194
:1070C00013E0A07928B194F8240010B90EB1012082
:1070D00070BD00BFE07910B10EB10220F8E700BF2B
:1070E000207A08B10320F3E700BF607A08B10420DA
:1070F000EEE700BF0020EBE70146481C052290FBAD
:10710000F2F302FB1300C0B27047014691F824204D
:10711000012A01D1EE2000E01F20704710B50122A6
:107120000221002001F038FF044600BF1CB1072CEB
:1071300001D0204610BD00BF07220221012001F02E
:107140002BFF044600BF1CB1072C01D02046F1E7FD
:1071500000BF0A220021084601F01EFF044600BFBE
:107160001CB1072C01D02046E4E700BF0020E1E776
:1071700010B504462C212046FFF791F9012020711B
:10718000402020614FF4FA70606110BD30B5ABB0A3
:10719000AC216846FFF783F902208DF8000000203B
:1071A0008DF8020006208DF803000121ADF84C1087
:1071B0001449149101218DF87C10402122914FF443
:1071C000FA71239101218DF87D104FF448712491BB
:1071D0004FF47A7125910C48299069460B4800F0CC
:1071E000F8FC044600BF254625B100BF284600F044
:1071F0007FF800BF00BF0121044800F0E7FC2BB07E
:1072000030BD0000A4410020DDE90200FC43002065
:1072100070B50321064800F087FD044600BF2546EF
:1072200025B100BF284600F063F800BF00BF70BD65
:10723000FC43002072B600BF06F0F2F800BF00BFAA
:1072400005F082FE0028FBD100BF00BF1D491E4A89
:10725000891AC908012242EA01401CA106F000F87F
:1072600000BF1D48006800F0010000B100BE00BF73
:107270001449154A891AC908022242EA014017A195
:1072800005F0EEFF00BF00BF00BF00BF00BFBFF3AF
:107290004F8F00BF00BF00BF0F48E438006800F404
:1072A000E06012490843001D0B49E439086000BF43
:1072B00000BF00BFBFF34F8F00BF00BF00BF00BFC4
:1072C00000BFFDE74C2A0300C42903004661746136
:1072D0006C206572726F7200F0ED00E05379737488
:1072E000656D207265736574000000000000FA058A
:1072F0003EB50446002000900190029002946A4638
:10730000002144F20100FFF795FF3EBD70B5044631
:107310000D46204603F086FC28B12946204603F09E
:1073200075FC002070BD0520FCE7034609B90E205E
:10733000704712B1501E104008B10920F8E71960DB
:10734000501E988000209860D86000BFF0E770B5AC
:1073500004460D46204603F065FCA188884205D806
:107360002946204603F071FC002070BD0420FCE794
:1073700010B5024802F0C4FC10BD0000B04200206D
:1073800010B503460C460AB9072010BD19684A61BA
:10739000012C01D1012000E0002008610020F4E769
:1073A00038B5134800680090082358221149124844
:1073B000006804F014FC04460CB1204638BD0F4AA6
:1073C00069460F4802F0A2FC04460CB12046F5E7DE
:1073D00001210B4802F038FD01230A4A19460848EA
:1073E00002F060FC0120084908702046E6E7000032
:1073F000DC1A0300CC4D0020CC1A030087FF0200EA
:10740000B0420020FFFF7F00BC4200202DE9F04188
:1074100006460D4617463446207F10B10020BDE8D1
:10742000F081A76103F0F4FE401941F10001C4E9C5
:107430000201206900B125612146002009F00CFC01
:10744000EDE770B50446254600202877294601203F
:1074500009F002FC70BD00002DE9F04104460F4820
:10746000077821460E48FFF751FF804697B100206C
:107470000A49087001220B490B4804F097FF0546A2
:1074800000BF2E4626B100BF3046FFF731FF00BFD8
:1074900000BF00BF4046BDE8F0810000EE42002082
:1074A000344E0020ED420020D44200202DE9F0416E
:1074B00088B004460E46174698462B4807601EB90A
:1074C000072008B0BDE8F081B08882B22748316853
:1074D000FFF72BFF054600BF284600B1F1E700BFCC
:1074E000B08982B22248B168FFF71FFF054600BF8E
:1074F000284600B1E5E700BF20221E496846FEF796
:10750000B5FF60690690207C08B1012000E00020F2
:107510008DF814008DF81C80607C08B10E2000E00E
:1075200000208DF81500E0680290A06803902068A4
:10753000019060680090104A6946104804F0F0FE1F
:10754000054600BF284600B1BBE700BF00200C493C
:1075500008702068401C28B101220A49074804F03D
:1075600025FFAEE70020ACE7E8420020344E0020C3
:10757000444E0020E01A03009D0E0300D442002078
:10758000EE420020ED4200202DE9F041054629465B
:107590001448FFF7DCFE064606BB134C0027207894
:1075A0001249085C20B1201D07F0B4F9074608E035
:1075B00020780E49085C20B904F10C0007F052F85D
:1075C000074600BF57B90A490648FFF79FFE28B98A
:1075D00001220749044804F00BFF06463046BDE887
:1075E000F0810000444E0020D44200209842002048
:1075F000EC42002010B50446204608F00BFE10BDFA
:1076000070B5044625460E488068B0B1ADB9FFF7A5
:10761000EDFC06460A4800680A49086008484068C8
:107620004FF0E021C1F804010020054988601EB92F
:1076300000BF62B600BF00BF00BF00BF70BD00004A
:10764000544E002000E100E0F8B505460C46174610
:107650002088001DB84201D90C20F8BD684679DFAA
:10766000064600BF304600B1F7E700BF032021887F
:1076700068542088401C2080192021886854208864
:10768000401C208020884119BDF8000009F026FE2A
:107690002188084420800020DFE770B505460C46AD
:1076A0002068401C28B1206805F0FDFA206805F02C
:1076B000C9FA6068401C18B10021606805F0A8FA9A
:1076C0002868A169C0F8241500BF617D227D286863
:1076D00041EA0203C0F86C3500BFD4E90012286803
:1076E00006F028FC207D012814D1A068401C18B1A8
:1076F0000021A06805F08CFAE068401C28B1E06821
:1077000005F0D1FAE06805F09DFAD4E90221286875
:1077100006F0F9FB70BD70B505460C462068401CAC
:1077200028B1206805F0CAFA206805F097FA606869
:10773000401C18B10021606805F077FA2868A1693B
:10774000C0F8241500BF617D227D286841EA02034C
:10775000C0F86C3500BFD4E90012286806F022FC9E
:10776000207D012814D1A068401C18B10021A06818
:1077700005F05BFAE068401C28B1E06805F09EFA6D
:10778000E06805F06BFAD4E90221286806F0EBFB0B
:1077900070BD0000002114E00C48D0F81024012333
:1077A00008E000BFD0680079884201D1002303E0DF
:1077B000D0680268002AF4D100BF0BB108467047B8
:1077C000491C0A29E8DB4FF0FF30F8E7A4510020FC
:1077D000F0B58FB004460D46287B0190202107A804
:1077E000FEF75DFE42F61920ADF81C000120ADF851
:1077F0002000ADF8220001A80990617C9DF82900C5
:1078000061F304108DF829009DF8290020F0020092
:10781000801C8DF82900A87B8DF82F00687B8DF8DF
:107820002D00A088A21D07A901F09CFE064616B1F6
:1078300030460FB0F0BDA86800B36846A96801F0F3
:107840007EFA0746142102A8FEF729FE42F6081028
:10785000ADF80800E87B8DF80E00ADF81270BDF8A9
:107860001200ADF81600CDF818D0E08804F10E0231
:1078700002A902F054F906463046DAE70020E0811A
:1078800000BFD6E710B5044600F002F810BD0000B6
:1078900010B52DED028B82B00020019001A906F0F9
:1078A0003DFD9FED270AB0EE408ABDF9040000EED1
:1078B000100AB8EEC00ADFED230A20EE200ADFED41
:1078C000220A80EE201AB3EE020A31EE400AF3EEED
:1078D000020A80EE201A9FED1A0A21EE000AB0EE8D
:1078E000408A1A491A4A891AC908032242EA014001
:1078F000BCEEC80A10EE103ABDF9042015A105F03F
:10790000C5FCBCEEC80A10EE100AC1B24FF6FE72FA
:10791000154800F0C3FA044674B1082C0CD0132C9F
:107920000AD0112C08D043F20140844204D000BF99
:107930002046FFF7DDFC00BF02B0BDEC028B10BD9E
:107940000000C84200001042000080444C2A03009E
:10795000C4290300766F6C746167653D25642C252E
:107960006425250A00000000C843002070B50446C5
:107970000D4621462846AEDF0646304670BD2DE94D
:10798000F04104460F46154615B90E20BDE8F081BA
:107990000020286000BF0CB90E20F7E700BF00BF31
:1079A000206808B90E20F1E700BF00BFE088C117CA
:1079B00000EB91718910A0EB810109B10720E5E787
:1079C00000BF384600F060FBC6B2142E01D105207E
:1079D000DCE72079B04201DC0420D7E7E1882068A9
:1079E00006FB010028600020D0E72DE9FC41054698
:1079F00088461646002437880020308095F82D00F0
:107A000058B13A463146404600F078FB044600BF84
:107A1000204608B1BDE8FC8100BFA87850B13A46C5
:107A200031464046FFF710FE044600BF204600B135
:107A3000F0E700BFE87860B1E97848B23B463246EB
:107A4000414603F034F9044600BF204600B1E1E7A7
:107A500000BF686868B1696891F900003B4632462A
:107A6000414609F09AF9044600BF204600B1D1E72B
:107A700000BF288900280EDD43460622022105F1B9
:107A80000800CDE9006709F002FD044600BF20466A
:107A900000B1BFE700BF288A00280EDD4346072259
:107AA000032105F11000CDE9006709F0F0FC044660
:107AB00000BF204600B1ADE700BF288B00280EDDD7
:107AC00043461522142105F11800CDE9006709F09D
:107AD000DEFC044600BF204600B19BE700BF286AD9
:107AE00058B13B4632464146286A01F0BDFE044685
:107AF00000BF204600B18DE700BF686A58B13B4621
:107B000032464146686A03F03FFF044600BF204604
:107B100000B17FE700BF95F82C0000280BDD3B4645
:107B200032464146284608F075FC044600BF204610
:107B300000B16FE700BF287858B13B463246414656
:107B4000284603F0DDFF044600BF204600B161E790
:107B500000BF20465EE7F8B504460E4615460020F5
:107B600000902B466A463146204600F008F807464A
:107B70000FB90020F8BDBDF800002044FAE7F0B5C9
:107B800004460D4604B10AB90020F0BD002103E00F
:107B9000605C401C084481B21088884203DC481CA9
:107BA000205C984201D0A942F2DBA94201DB00200F
:107BB000EBE7881C86B2605C401E87B2F019A842D1
:107BC00001DD0020E1E716803846DEE780F830105E
:107BD000704770B504460D4605B10CB90E2070BD56
:107BE00005F1780001F0E1FD08B90720F7E7002072
:107BF000A0702C2205F17801201DFEF737FC002033
:107C000084F83000D5F8A4006063D5F8A800A0631C
:107C10004FF6FF70A4F8240404F58260C4F8200431
:107C2000002140F22C40C4F82614A4F82A1401556F
:107C3000207810B9FF2084F8540004F15500C4F8EE
:107C400010042046FFF761FA40F21441085304F291
:107C5000144204F155012846FFF7C7FE064600BF4F
:107C6000304600B1BBE700BF04F231204FF483611E
:107C700008512046FFF749FAA4F81C044FF483602A
:107C8000015904F21C4205F13C00FFF7AEFE064626
:107C900000BF304600B1A2E700BF012151200155CD
:107CA000208B81B248200153012084F83C00002140
:107CB0002164502001556169616404F13C02002196
:107CC00004F1540072DF064600BF304600B186E77B
:107CD00000BF01202070304681E770B504460D4694
:107CE0002C222946201DFEF7C1FB70BD70B504464D
:107CF0000D462E462088102804D0112807D02628AB
:107D00000FD109E02146304606F0A6FF0AE02146E1
:107D1000304607F0B3F805E02146304607F047FA51
:107D200000E000BF00BF70BD70B504460E4620786D
:107D300008B9082070BDA670002140F22C40C4F89C
:107D40002614A4F82A140155A07910B1A0780128AE
:107D500009D0E07910B1A078012804D0E07970B1A1
:107D6000A07802280BD1606B30B1012084F82D047B
:107D70000820616B884702E0002084F82D0431461A
:107D80002046FFF78DF9A070606BA0B1A0780328A2
:107D900002D0A07804280ED1607960B194F82E0446
:107DA00048B9002084F83004012084F82F0407200B
:107DB000616B884702E0002084F82F04182104F149
:107DC0003C00FEF76CFB012084F83C0004F12C0021
:107DD00007F050FC20B194F82C105120015502E01E
:107DE00001215120015594F8240060B104F12800CC
:107DF00007F040FC20B194F828105220015502E011
:107E0000012152200155002150200155A07805285C
:107E100024D2DFE800F01F030A11180004F13C012E
:107E2000204608F0DBFB054619E004F13C01204642
:107E300008F0BCFB054612E004F13C01204608F0C6
:107E4000DFFB05460BE004F13C01204608F006FC90
:107E5000054604E0002084F8310000E000BF00BFC8
:107E6000A07898B104F13C0204F15400D4F8201435
:107E700072DF05460DB128465CE794F8301094F89F
:107E8000540073DF05460DB1284653E7606B18B107
:107E900094F83100616B884700204BE7F7B592B04A
:107EA0000446164614B90E2015B0F0BD0027002078
:107EB000109011900120ADF840000020ADF8420074
:107EC00013A81190E18810AA4FF6FF70ACDF0746A7
:107ED0001FB99DF84C00207401E03846E4E7607C4F
:107EE00000283CD000200C900D900E900F90E08860
:107EF000ADF8300001208DF83200BDF84200ADF839
:107F0000340010A80E9011980F904FF6FE70864224
:107F10001FD101A800F0AEF8002516E002A931F843
:107F2000150000F0C7F802280ED13FB902A830F8BA
:107F300015100CA8FFF71AFD074605E002A830F857
:107F400015100CA8FFF712FD6D1C0198A842E5D88A
:107F500004E031460CA8FFF709FD074600E00827BA
:107F60003846A1E7F8B504460D4604B10DB90E2018
:107F7000F8BD2868206028796074FF20207400BF55
:107F800001208DF8020041F60F00ADF8000000BF9F
:107F9000221D69460120A8DF064600BF304600B119
:107FA000E6E700BF29462046FFF712FC06463046AA
:107FB000DEE770B504460D4605B104B970BD2E4626
:107FC0002088502804D12146304607F097F900E078
:107FD00000BF00BF00BFF1E72DE9F041044600BF3C
:107FE00014B90E20BDE8F08100BF1C2221461C48B8
:107FF000FEF73CFA1B481A490860206860B1206807
:108000007ADF05460DB12846ECE7164821680A6874
:1080100002604968416005E012487BDF05460DB10A
:108020002846DFE7002617E006EB86000E4901EB45
:10803000800700BF4FF6FF70388000BF0B4800EB91
:10804000461078600A4A0021381DFFF799F9054665
:108050000DB10320C6E7761C002EE5D00020C1E755
:108060002C4C00203C420020184C0020F84B0020F3
:10807000D113030010B5044602484168204601F0C0
:10808000A8FB10BD484C002010B50446204600F067
:1080900027F808B1204610BD1420FCE770B504464F
:1080A0000D46034988682A46214602F069FE70BDE4
:1080B000484C002070B504460025204600F010F81A
:1080C00050B12146054803F0E5FD06460EB10220F9
:1080D00000E00120054600BF284670BD504C00203E
:1080E00010B50446142C01DB002010BD21460248C7
:1080F00003F0D0FDF9E700004C4C00202DE9FC41D5
:1081000005460C46174620880930B84202D90C2093
:10811000BDE8FC8168466DDF064600BF304600B111
:10812000F6E700BF0820218868542088401C208082
:108130001B20218868542088401C208020882844E7
:10814000DDF801100160BDF8051081802088801DD8
:1081500020809DF80000400818B90020218868544C
:1081600002E00120218868542088401C20800020E3
:10817000CEE7000070B503F0CDFF044600BF2046F7
:1081800000B170BD00BF00BF084D28464FF0030C82
:1081900000DF00BF044600BF204600B1F1E700BF8A
:1081A00004F032F804462046EBE700006C5800204B
:1081B000014600BF09B90E20704700BF01480160A9
:1081C0000020F9E7A843002010B54FF0FF31002050
:1081D0003DDF044600BF204600B110BD00BFB12105
:1081E00000203CDF044600BF204600B1F5E700BF99
:1081F0000448416901208847022005F08DFA0020DB
:10820000EBE700005058002010B5054800684169B0
:1082100000208847FFF7D8FF0446204610BD000025
:10822000A843002010B588B0044620216846FEF718
:1082300036F90320ADF8000020788DF802009DF893
:108240000D0020F0200020308DF80D009DF80D006D
:1082500020F0080008308DF80D0001208DF8100086
:108260008DF80C001720ADF8040001208DF81300E4
:108270008DF812008DF811006088A21D694601F08A
:1082800071F908B010BD000030B585B00546244B2B
:108290000FCB8DE80F0000BF15B90E2005B030BD23
:1082A00000BF4FF6FF701F49888028684861002092
:1082B00008760846406908B91B4848611948FFF725
:1082C00077FF044600BF204600B1E7E700BF00BFCC
:1082D00001208DF812004FF65960ADF8100000BF74
:1082E000104A921C04A90120A8DF044600BF2046C2
:1082F00000B1D3E700BF0B49684662DF044600BF08
:10830000204600B1CAE700BF0648FFF78BFF0446CE
:1083100000BF204600B1C1E700BF0020BEE700005B
:10832000F01D0300505800208B9F020070B50446DA
:108330000D4600BF04B970BD00BF2088102806D0CC
:10834000112808D051280AD0532810D10BE020461C
:1083500006F07CFC0CE0204606F082FD08E020469A
:1083600006F0CEFE04E0204606F042FE00E000BF2C
:1083700000BF00BFDFE7000070B504460426207B85
:10838000012802D0022822D109E001F0FFFD0546B4
:108390000DB9012602E0112D00D1062619E0607BFF
:1083A000142801DC607B08B905260FE0627B04F12C
:1083B0000E011248FEF75AF8607B1049091F8861C8
:1083C000084608F079F9054605B9012601E00226BC
:1083D00000BF00BF012E0FD0207B314600F058F8BF
:1083E000054625B1064800684169032088470448CE
:1083F000006841690220884770BD00007C58002059
:10840000A843002070B505460E4600BF1E48006810
:1084100020B11D48406808B1012000E0002000B9EB
:1084200070BD00BF184800F1080142682846904717
:10843000044600BF082C24D07CB9002013490968E9
:1084400048760121022000F023F80446CCB10F4801
:10845000006841690320884713E000200B49096840
:1084600048760621022000F013F8044624B107489C
:108470000068416903208847044800684169022078
:10848000884700BFCCE700006C580020A8430020BC
:10849000F0B587B004460D460327002001900290F6
:1084A000039004900320069020208DF814008DF88E
:1084B00015408DF816500E48C088ADF80400022013
:1084C0008DF806000020ADF8080006A8039005A866
:1084D00004900749888801A9AEDF064626B9BDF891
:1084E0001800032800D00C26304607B0F0BD00006D
:1084F0005058002030B58BB0044634B1012C29D03F
:10850000022C32D0032C49D13AE02B492B4A891A4C
:10851000C908032242EA014029A104F0A1FE6846ED
:10852000FEF726FE01208DF8000069463048FFF76F
:10853000D4FB00212F48FFF7B1FD05461E491F4A15
:10854000891AC908032242EA01402A462AA104F0F6
:1085500091FE2EE01849194A891AC908032242EAF5
:1085600001402BA104F07CFE23E01349134A891A31
:10857000C908012242EA01402EA104F071FE18E070
:108580000D490E4A891AC908012242EA014038A160
:1085900004F066FE00BF002000BF0AE00649074A5B
:1085A000891AC908012242EA01403DA104F058FE9F
:1085B00000BF00BF0BB030BD4C2A0300C42903002C
:1085C00044657669636520697320707265706172B5
:1085D000696E6720746F20656E74657220626F6FBC
:1085E000746C6F61646572206D6F64652E000000AD
:1085F000FC430020259C0200446973636F6E6E6526
:1086000063746564202564206C696E6B732E0000B2
:108610004465766963652077696C6C20656E746566
:108620007220626F6F746C6F61646572206D6F642D
:10863000652E00005265717565737420746F206536
:108640006E74657220626F6F746C6F616465722006
:108650006D6F6465206661696C6564206173796E15
:108660006368726F6E656F75736C792E0000000021
:108670005265717565737420746F2073656E642024
:108680006120726573706F6E736520746F20636C08
:1086900069656E74206661696C65642E0000000077
:1086A000556E6B6E6F776E206576656E74206672A0
:1086B0006F6D20626C655F6466755F627574746F60
:1086C0006E6C6573732E00007FB5044600BF0120F9
:1086D0008DF80E0041F60A00ADF80C0000BF564AB6
:1086E00003A90120A8DF054615B1284604B070BDD6
:1086F000208800280DDD5148009094F83C302288F5
:1087000042F62920616800F0E5FE05460DB12846D5
:10871000ECE7208900280DDD4948009094F83C30B2
:10872000228942F62420E16800F0D4FE05460DB10E
:108730002846DBE7208A00280DDD4248009094F8A7
:108740003C30228A42F62520616900F0C3FE0546CE
:108750000DB12846CAE7208B00280DDD3A4800906D
:1087600094F83C30228B42F62720E16900F0B2FEFB
:1087700005460DB12846B9E7208C00280DDD3348A9
:10878000009094F83C30228C42F62620616A00F07A
:10879000A1FE05460DB12846A8E7208D00280DDD75
:1087A0002B48009094F83C30228D42F62820E16A54
:1087B00000F090FE05460DB1284697E7206B90B17A
:1087C00001A8216B08F07CF92248009094F83C3015
:1087D000082201A942F6232000F07CFE05460DB1D7
:1087E000284683E700BF606B70B11B48009094F887
:1087F0003C30606B0279016842F62A2000F06AFE84
:1088000005460DB1284671E7A06B90B101A8A16B98
:1088100006F03BFF1148009094F83C30072201A974
:1088200042F6502000F056FE05460DB128465DE7A1
:1088300000BF00205AE700004442002046420020CA
:108840004E420020564200205E4200206642002038
:108850006E420020764200207E42002086420020A8
:10886000F8B505460F462888212847D006DC102891
:108870000BD0112833D0132872D14FE03B2871D090
:1088800052285CD05628F7D17AE04649464A891AE0
:10889000C908032242EA014044A104F0E1FC072098
:1088A00000F0A8FB044600BF264626B100BF3046B4
:1088B000FEF71EFD00BF00BFA8883F49088008469C
:1088C00001883E4803F0A2FB044600BF264626B1BD
:1088D00000BF3046FEF70CFD00BF00BF5FE031492E
:1088E000314A891AC908032242EA014034A104F03E
:1088F000B7FC4FF6FF703049088050E00020009030
:10890000A88869468FDF044600BF264626B100BF0F
:108910003046FEF7EDFC00BF00BF40E000231A46E2
:108920008521254800887FDF044600BF264626B102
:1089300000BF3046FEF7DCFC00BF00BF2FE0002385
:108940001A4619461C480088B1DF044600BF264677
:1089500026B100BF3046FEF7CBFC00BF00BF1EE0D3
:108960001CE0FFE7A888132176DF044600BF2646F7
:1089700026B100BF3046FEF7BBFC00BF00BF0EE0D3
:10898000A888132176DF044600BF264626B100BF23
:108990003046FEF7ADFC00BF00BF00E000BF00BFE7
:1089A000F8BD00004C2A0300C4290300436F6E6E1B
:1089B0006563746564000000A0410020F04300205E
:1089C000446973636F6E6E656374656400000000D4
:1089D00070B505460E462888102802D011282CD1E3
:1089E00015E01748006860B900F0D2FF044600BFE8
:1089F00034B11448006818B1204612490968884704
:108A000000BF0F480068401C0D49086016E00C4884
:108A10000068401E0A4908600846006860B9FEF711
:108A20007DFB044600BF34B10648006818B12046FB
:108A300004490968884700BF00E000BF00BF70BD5F
:108A4000384200203442002070B504460D4620888C
:108A5000102806D0112808D012280ED0502810D186
:108A600007E0204606F080F80CE0204606F0DEF92C
:108A700008E0204606F0CCFB04E0204606F05CF857
:108A800000E000BF00BF70BD2DE9F04104460F4675
:108A9000A6882088102806D0112817D019283DD084
:108AA0001A2848D116E007F0D3F9304607F054F8F9
:108AB00020B900BF0420FEF71BFC06E0E07B012884
:108AC00003D031461D4803F0F4F834E0304607F097
:108AD000E3F930E0207A0509042D01DB012000E0F4
:108AE00000200246314615480C3002F0D1F8032D23
:108AF00001DB012000E00020024631460F4808302B
:108B000002F0C6F8022D01DB012000E00020024641
:108B100031460A48001D02F0BBF80CE0207A48B943
:108B2000607AC0F3C0052A46314604480C3002F092
:108B3000AFF800BF00BF00BFBDE8F081544C00207B
:108B40002DE9F04186B00446884617461D4600BF11
:108B50001CB90E2006B0BDE8F08100BF01AA29466D
:108B60006069FEF70CFF064600BF304600B1F1E732
:108B700000BF4FF6FF70854201D0019808B905206B
:108B8000E8E70198007808B90820E3E73888F42876
:108B900001DD0720DEE7002002900390049005909D
:108BA000A088ADF80800CDF81480049701208DF856
:108BB0000A0002A92846AEDFCCE7000070B58EB0EF
:108BC00004460E463E4B0FCB09AD0FC500BF14B98E
:108BD0000E200EB070BD00BF00BF0EB90E20F8E72A
:108BE00000BF3068A061214609A862DF054600BFCA
:108BF000284600B1EDE700BF20788DF8360001204F
:108C0000ADF83400A21C0DA9A8DF054600BF284618
:108C100000B1DEE700BF202101A8FDF740FC0220E3
:108C2000ADF8040020788DF80600F420ADF80800B7
:108C30000120ADF80A008DF810009DF8110020F019
:108C4000080008308DF811009DF8110020F0040094
:108C5000001D8DF8110001208DF815008DF816000B
:108C6000608804F10C0201A900F07CFC05460DB1FE
:108C70002846AEE7202101A8FDF711FC0320ADF83E
:108C8000040020788DF80600F420ADF808000120DB
:108C9000ADF80A008DF810009DF8110020F01000CA
:108CA00010308DF8110001208DF815008DF8160098
:108CB0008DF817006088221D01A900F053FC88E799
:108CC0006419030070B504460D4605B104B970BDC2
:108CD0002E462088102804D0502807D057280FD1BE
:108CE00009E02146304605F077FF0AE0214630468C
:108CF00006F0BAFA05E02146304606F08FF900E0AA
:108D000000BF00BF00BFE2E770B504460D4628462D
:108D1000FDF7D0FB2080656070BD70B5044620462D
:108D200008F0D6FA0546C5F3400070BD70B504469C
:108D3000204608F0CDFA054605F0010070BD2DE98A
:108D4000F04105460E46002432782146641C6A54E0
:108D500072782146641C6A5400BF022C01D10120A4
:108D600000E00020074627B900BF0020FEF7C0FA48
:108D700000BF00BF2046BDE8F08138B504F05EFFBB
:108D8000044600BF254625B100BF2846FEF7B0FACD
:108D900000BF00BF002000906946012004F06CFD78
:108DA000044600BF254625B100BF2846FEF7A0FABD
:108DB00000BF00BF684604F02FFE044600BF2546F2
:108DC00025B100BF2846FEF793FA00BF00BF01207F
:108DD00032DF044600BF254625B100BF2846FEF716
:108DE00087FA00BF00BF01203FDF044600BF2546D1
:108DF00025B100BF2846FEF77BFA00BF00BF38BD93
:108E000010B502460949885C00BF4FF0A0442146D6
:108E1000D1F80435012484409C43C1F8084501245D
:108E200084401C40C1F80C4500BF10BD1819030058
:108E300010B504460249085D012103F04AFF10BD48
:108E40001819030010B504460249085D002103F01B
:108E500040FF10BD1819030010B50146094B585CBE
:108E600000BF4FF0A044234600BFD3F80445C440E0
:108E700004F001040CB1012000E00020024682F061
:108E8000010010BD1819030010B5002403E02046AE
:108E9000FFF7CEFF641C042CF9D310BD10B50024DD
:108EA00003E02046FFF7CEFF641C042CF9D310BD6D
:108EB00002464FF0FF30002106E0054B5B5C934219
:108EC00001D1084602E0491C0429F6D300BF7047CF
:108ED0001C1903002DE9F04106460F464FF000082B
:108EE00000243046FFF7E4FF0446042C3ED20FB3C3
:108EF000012F02D0022F38D130E004EB4400214989
:108F000011F8008004EB44000844407850B11E4A38
:108F10004FF480411D480068FEF778FA05460DB908
:108F20001948067004EB4400164908448078184933
:108F300008551AE015480068FEF783FA1448005DEA
:108F400004EB44010F4A11448978884205D104EBAF
:108F500044001146084490F8028006E004EB440007
:108F60000849084490F8018000BF00BFB8F1000F25
:108F700006D00848006818B1404606490968884785
:108F8000BDE8F081C84B00202C42002028190300C6
:108F90002D4200202842002030B503460020042B3B
:108FA00023D2012A07D1012903D103F10E04E4B22F
:108FB00000E00024224679B1012902D0022911D112
:108FC00004E003EB43040A4D2A550DE003EB430490
:108FD000074D2C44627007E003EB4304044D2C441E
:108FE000A27001E0072000BF00E0072030BD0000B4
:108FF000C84B002070B5044600250548007800F0F5
:10900000010018B1204600F005F80546284670BD5D
:10901000204200202DE9F047044600260025DA48CA
:10902000007820B10020D849087002F0B7FB182C56
:109030007ED2DFE804F00C16174A7EB2F6F4F3F2A3
:10904000F1F0EFEEEDECEBEAE9E8E7E6E5E402F05B
:10905000A5FBCE480068FEF7F4F90646CC4804703C
:109060008DE100BF0020FFF7F7FE58B10020FFF7A9
:10907000DFFE022C02D14FF4E16001E04FF47A6090
:10908000054609E00020FFF7DDFE022C01D1C820D3
:1090900001E04FF4C8700546BD4804704FF400402D
:1090A000A5FB00104FF47A73CF1840F100015A006D
:1090B00000233846FDF796F9814600224946B34819
:1090C0000068FEF7A3F9064659E10020FFF7C4FE49
:1090D00058B10020FFF7ACFE032C02D14FF44870CA
:1090E00001E04FF47A60054609E00020FFF7AAFE90
:1090F000032C01D1C82001E04FF4C8700546A448F4
:1091000004704FF40040A5FB00104FF47A728F18E2
:1091100040F10001520000233846FDF763F9814613
:109120000022494699480068FEF770F9064626E194
:1091300024E10020FFF790FE58B10020FFF778FEF1
:10914000042C02D14FF47A6001E04FF47A600546B6
:109150000AE00020FFF776FE042C02D14FF4C8701D
:1091600001E04FF4C8700546894804704FF4004090
:10917000A5FB00104FF47A73CF1840F100015A009C
:1091800000233846FDF72EF98146002249467F48E4
:109190000068FEF73BF90646F1E00020FFF75CFEB1
:1091A00050B10020FFF744FE052C01D1C82001E09A
:1091B0004FF47A60054609E00020FFF743FE052CD6
:1091C00001D1C82001E04FF4C87005467048047012
:1091D0004FF40040A5FB00204FF47A73D71840F1FC
:1091E00000015A0000233846FDF7FCF881460022B2
:1091F000494666480068FEF709F90646BFE0B8E050
:10920000B6E0AAE0A1E098E092E05FE05DE05BE01C
:1092100059E057E051E042E033E024E015E00EE091
:10922000FFE70020FFF7ECFD59480470002240F2F0
:10923000666156480068FEF7E9F806469FE00020A0
:10924000FFF700FE5248047099E001204E49087073
:10925000FFF7D6FD002240F266614C480068FEF739
:10926000D5F806468BE0012047490870FFF7C8FD96
:1092700000224FF4005145480068FEF7C7F8064643
:109280007DE0012040490870FFF7BAFD002240F25E
:1092900066613E480068FEF7B9F806466FE00120B7
:1092A00039490870FFF7ACFD00224FF400513748F0
:1092B0000068FEF7ABF8064661E0FFF7EFFD3448C3
:1092C00004705CE000BF00BF00BF00BF3148006811
:1092D000FEF7B7F80646C4F1110515B30EBB012D14
:1092E00018D9A8B2C82148434FF4004180FB0110AF
:1092F0004FF47A728F1840F1000152000023384673
:10930000FDF770F881460022494622480068FEF7C2
:109310007DF806460220FFF795FD01201E490870E2
:1093200005E00220FFF784FD00201B49087026E0BD
:1093300002F034FA1648047021E002F02FFA0020FF
:10934000FFF780FD1248047019E002F027FA0120AF
:10935000FFF778FD0E48047011E002F01FFA0020BC
:10936000FFF770FD0120FFF76DFD0948047006E06E
:1093700000BFFFF793FD0648047000E000BF00BF88
:109380003046BDE8F08700001D4200202019030090
:109390001C42002024190300244200202DE9FC4730
:1093A00004460D461646A71C4FF001080020019008
:1093B00001A8FEF71FF93048006828602E480068B1
:1093C0002D494968411A2C488068401CA0EB0109CE
:1093D00015E00121294802F090FC02F01DFA8246B6
:1093E0005146264802F089FC234800682249496812
:1093F000411A21488068401CA0EB010900BF4F457D
:10940000E7D8B8F1000F30D00021009176B1009973
:1094100021F00301491C0091009921F00401091D6C
:109420000091009964F3891100910DE0009921F0F9
:109430000301891C0091009921F00401091D00918C
:10944000009964F39F5100910B4909680A4A926898
:109450001140094A0C3202EB810000990160064973
:10946000096839440C3A116000BF9DF80400FEF70A
:10947000C7F84046BDE8FC87A4510020C055002035
:1094800070B504460D46A168481CA060206845548C
:10949000D4E90110884202D3204602F0E0FF70BDFB
:1094A0000448406803490968884201D10120704797
:1094B0000020FCE7A45100200146024850F821009A
:1094C00070470000D84C00200146014840567047C4
:1094D000084D00202DE9F04389B006460D4614469C
:1094E0001F46DDF8408000BF0DB1012000E00020E4
:1094F0008146B9F1000F04D100BF0020FDF7F8FE4E
:1095000000BF00BF00BF002C01DD012000E00020F3
:109510008146B9F1000F04D100BF0020FDF7E8FE3D
:1095200000BF00BF202101A8FCF7B9FFADF804601F
:10953000ADF80840ADF80A4003959DF8110020F001
:109540000200801C8DF811008DF81570424601A9AB
:109550000348008800F006F809B0BDE8F083000079
:109560004442002070B590B006460C461546A078DF
:1095700018B901208DF80E0002E0A0788DF80E00D9
:109580002088ADF80C0000200290607C02A907F052
:10959000C3F8A07C0DF1090107F0BEF8E07B08B12B
:1095A000012000E000209DF80A1060F3C3018DF84F
:1095B0000A10207C08B1012000E000209DF80A106C
:1095C00060F304118DF80A10207B08B1012000E03F
:1095D00000209DF80A1060F300018DF80A10207D2C
:1095E00008B1022000E001209DF80A1060F342015A
:1095F0008DF80A101C2109A8FCF751FF607BC0F30D
:10960000001018B9607BC0F34010F8B10020009042
:10961000E07C0DF1010107F07FF800BF9DF800002C
:1096200020F00F00401C8DF800009DF8000020F095
:10963000F00010308DF8000000BF9DF8020020F00F
:109640000600801C8DF80200CDF838D0607B8DF8C4
:109650002400A07B8DF82500142104A8FCF71FFF2F
:1096600003A8049002A80590A088ADF81C00A0688B
:1096700020B1E088ADF81800A0680890A069002823
:1096800049D000200190A0690088ADF82C00A069A5
:109690004088ADF82E00A06940680A9001A80D909E
:1096A000A169087B01A907F037F8A169487B0DF192
:1096B000050107F031F8A069807A08B1012000E0C7
:1096C00000209DF8061060F3C3018DF80610A06914
:1096D000C07A08B1012000E000209DF8061060F378
:1096E00004118DF80610A069007A08B1012000E08D
:1096F00000209DF8061060F300018DF80610A069A7
:10970000807B08B1022000E001209DF8061060F384
:1097100042018DF80610E06908B1E0690C902B4613
:1097200004AA09A93046AADF10B070BD70B505467D
:109730000DB9094C01E0084C083409E0204602F05C
:1097400026F8064606B904E028467168884700BF37
:10975000F4E700BF70BD0000CC4C002010B50446FB
:109760002CB90120064948700020FFF7DFFF012CCB
:1097700004D1012002498870FFF7D8FF10BD000016
:10978000C44C00202DE9F047024613468C46D3E92D
:109790000245DCE90267B6EB040877EB050002D36B
:1097A0000120BDE8F0870020FBE70146887801280A
:1097B00005D191F82000012801D100207047886A66
:1097C000042802D0486A042801D10020F6E70120CD
:1097D000F4E733B58BB00546002000900C9878B1C3
:1097E00000240BE021460CA802F054FA28B1009A9C
:1097F000501C009001A820F81240641C142CF1D3D6
:109800002C2269462846FCF731FE0DB030BD0146DA
:109810000888062808DB0888B0F5486F06DD088848
:109820004FF6FF72904201D0072070474888062803
:1098300008DB4888B0F5486F06DD48884FF6FF72B0
:10984000904201D00720F0E708884FF6FF7290425F
:1098500008D04888904205D008884A88904201DDA7
:109860000720E2E70020E0E72DE9F04107460D463A
:10987000144698462088801D404502D90C20BDE83A
:10988000F0813846FFF7C3FF064600BF304600B1FF
:10989000F5E700BF0520218868542088401C2080FF
:1098A0001220218868542088401C20802288511969
:1098B000388807F013FD2188084420802288511938
:1098C000788807F00BFD2188084420800020D6E727
:1098D00010B5044600BF2046FDF70AFD00BF10BDCD
:1098E00030B587B01C216846FCF7D9FD00200090F8
:1098F0004FF4A03001904FF4F020029003208DF837
:109900000C000020ADF80E008DF8100009480590FD
:10991000094806906846FEF75FFB044600BF2546EF
:1099200025B100BF2846FDF7E3FC00BF00BF07B02C
:1099300030BD00000DEB0200D1980200F8B50546DD
:109940000C46607A88B9207A10B91048476801E05F
:109950000E4887682A4639466068FDF757FD064677
:1099600016B1304606F0F6FC0EE0002020720748E3
:10997000406948B101208DF80000ADF8025003485D
:1099800041696846884700BFF8BD00002C4C0020A4
:1099900010B5012200210846FFF7FEFA044600BF79
:1099A0001CB1072C01D0204610BD00BF07220221A8
:1099B0000120FFF7F1FA044600BF1CB1072C01D0CB
:1099C0002046F1E700BF042202210020FFF7E4FA5D
:1099D000044600BF1CB1072C01D02046E4E700BFBD
:1099E0000020E1E72DE9FF4105460C4600200290EA
:1099F0000390ADF80840ADF80A40009001906A4627
:109A000002A9284690DF0646002E32D0304604F0E8
:109A100045FA074619491A4A891AC908012242EA31
:109A200001403B462A46174903F030FCBDF80000D0
:109A300010B9BDF8020068B1BDF80230BDF80020D1
:109A40000E490F4FC91BC908012747EA01400EA163
:109A500003F01CFCBDF8040058B1BDF80420074910
:109A6000074BC91AC908012343EA0140164903F00C
:109A700001FC304604B0BDE8F0810000C4290300B9
:109A8000C4290300D82003005468652072657175ED
:109A900065737465642054582F5258207061636B4D
:109AA0006574206C656E67746820697320746F6FCD
:109AB000206C6F6E672062792025752F2575206FC9
:109AC00063746574732E00002421030070B506468C
:109AD0000D4616B14FF4064070BD287920B101281B
:109AE00009D0022815D111E002202871284606F07D
:109AF00091F8044610E0284601F0B0F8044648F218
:109B00000960844201D141F61D5405E041F61D541F
:109B100002E048F20E6400BF00BF2046DCE770B5EB
:109B200088B005460C461646142103A8FCF7B7FC7E
:109B3000A07818B901208DF80A0002E0A0788DF80D
:109B40000A002088ADF8080002A80390A07901A9B6
:109B500006F0E2FDE0790DF1050106F0DDFDE078AB
:109B600008B1012000E000209DF8061060F3C30159
:109B70008DF80610207908B1012000E000209DF842
:109B8000061060F304118DF80610607908B1012009
:109B900000E000209DF8061060F300018DF806102B
:109BA000207A08B1022000E001209DF8061060F341
:109BB00042018DF8061001A804906089ADF81400E8
:109BC000A089ADF81600E089ADF81800206907906B
:109BD000324603A92846ABDF08B070BD00B591B08E
:109BE000402101A8FCF75BFC07A101A8FFF78CF856
:109BF0000AA10BA8FFF788F801208DF8400001A802
:109C0000FEF762FD11B000BD4E6F7264696353656B
:109C10006D69636F6E647563746F720053573A3089
:109C20002E31000070B504460E461321204676DF23
:109C300005465DB10649074A891AC908022242EA67
:109C400001402B462246044903F020FB70BD000072
:109C50004C2A0300C4290300881E030010B500210C
:109C6000034802F081F8044684F3100010BD0000A0
:109C7000C055002070B505460C464FF4803000FA00
:109C800004F1284600F016FC70BD70B505460C4680
:109C90004FF4A07000EB840086B23146284600F0F5
:109CA00023FC70BD2DE9F04704460D4616461F46BD
:109CB0004FF4803000FA05F84FF4A07000EB8500F7
:109CC0001FFA80F926F07F464146206803F082FDA6
:109CD0004146206803F078FD4946206803F06DFD99
:109CE00032462946206803F05FFD4146206803F0B4
:109CF0006EFD1FB14146206803F06FFDBDE8F0879F
:109D000010B50446206803F054FD10BD2DE9F0475E
:109D100004460D46174660792F4941F82070607956
:109D20002E4901EBC000007968B108262C492D4A64
:109D3000891AC908022242EA01402BA103F090FAD5
:109D40003046BDE8F08729882068C0F8081500BFB4
:109D500094F90420AB781046194600280CDA4FEA33
:109D6000417C4FEA1C69DFF8A4C000F00F08A8F19D
:109D700004080CF8089007E04FEA417C4FEA1C68A1
:109D8000DFF88CC00CF8008000BF00BF94F904001D
:109D900000BF00F01F02012191404209920002F130
:109DA000E022C2F8001100BF00BF012061790B4A18
:109DB00002EBC10108716079114641F8304000267C
:109DC0000749084A891AC908032242EA014011A139
:109DD00003F046FA3046B4E7F0420020F442002097
:109DE0002C2A0300C429030052544320696E737463
:109DF000616E636520616C726561647920696E696A
:109E00007469616C697A65642E00000018ED00E0E9
:109E100000E400E05254433A20696E697469616C51
:109E2000697A65642E00000010B5014691F90400BE
:109E300000F01F0301229A40024B440943F82420FA
:109E400000BF10BD00E200E070B505460C4622469A
:109E50000221284600F03AFB70BD10B504464FF4CD
:109E60008271204600F040FB10BD10B50446002171
:109E7000206803F0B5FC10BD10B50446042120682D
:109E800003F0AEFC10BD2DE9F84F04460D46164612
:109E900099464FF4803000FA05FB4FF4A07000EBB8
:109EA000850080B2009026F07F465946204600F09B
:109EB00001FB206803F07DFC0746206800F5A861DF
:109EC00051F825108A463A462946206803F06CFC72
:109ED0002068009903F071FC3946504606F036FEC2
:109EE000012806D1102004F09DF82068009903F0A5
:109EF00064FC206803F05DFC07463946304606F0F6
:109F000025FE80465946206803F061FCB8F1010F38
:109F10000FD1721C2946206803F046FC102004F083
:109F200081F8206803F045FCB84227D00D20BDE839
:109F3000F88F32462946206803F036FC206803F08B
:109F400038FC0746701E394606F000FE80466FF06A
:109F50007F40A0EB0900404501D20D20E7E7B8F1B2
:109F6000000F0BD1721C2946206803F01DFC2068ED
:109F700003F01FFCB84201D00D20D8E7012259465A
:109F8000204600F0A3FA0020D1E7704710B5104832
:109F90000068407E60B106210120FEF779FA044690
:109FA00024B10B480068416903208847002010BD98
:109FB000012007490968087601210846FEF768FA7A
:109FC00004461CB100200249096808762046EEE7E5
:109FD000A84300202DE9F84305460E46174698464B
:109FE00069461048006801F00EFE044614B90420CA
:109FF000BDE8F8831C212046FCF751FA01202071AE
:10A000002560C4F8088008480068B6FBF0F0E060FE
:10A01000676169460348006801F01FFE05F06CFDAA
:10A020000020E5E7E41C0300D81C030010B504463B
:10A03000D4E90321501828DF10BD0000144800683F
:10A04000401C38B913480178124808300078C0F332
:10A05000031205E00E4801684FF08050D0F834211B
:10A06000062912D1032A06D0042A06D0052A06D0D2
:10A07000062A08D105E0012070470120FCE70120F5
:10A08000FAE70120F8E70120F6E70020F4E70000F6
:10A0900030010010E00F00F014480068401C38B98F
:10A0A00013480178124808300078C0F3031205E025
:10A0B0000E4801684FF08050D0F83421062912D1A3
:10A0C000032A06D0042A06D0052A06D0062A08D17B
:10A0D00005E0012070470120FCE70120FAE701209C
:10A0E000F8E70120F6E70020F4E700003001001057
:10A0F000E00F00F014480068401C38B9134801789C
:10A10000124808300078C0F3031205E00E480168D9
:10A110004FF08050D0F83421062912D1032A06D0FE
:10A12000042A06D0052A06D0062A08D105E0012017
:10A1300070470120FCE70120FAE70120F8E7012041
:10A14000F6E70020F4E7000030010010E00F00F017
:10A150000E4802780D4808300078C0F30311062A33
:10A1600012D1032906D0042906D0052906D00629D4
:10A1700008D105E0012070470020FCE70020FAE745
:10A180000020F8E70020F6E70020F4E7E00F00F0F9
:10A190000E4802684FF08050D0F83411062A12D1D0
:10A1A000032906D0042906D0052906D0062908D19E
:10A1B00005E0002070470020FCE70020FAE70120BE
:10A1C000F8E70120F6E70020F4E700003001001076
:10A1D00014480068401C38B9134801781248083008
:10A1E0000078C0F3031205E00E4801684FF080507C
:10A1F000D0F83421062912D1032A06D0042A06D029
:10A20000052A06D0062A08D105E001207047012062
:10A21000FCE70120FAE70120F8E70120F6E700203B
:10A22000F4E7000030010010E00F00F00E48027863
:10A230000D4808300078C0F30311062A12D1032913
:10A2400006D0042906D0052906D0062908D105E044
:10A25000012070470020FCE70020FAE70020F8E723
:10A260000020F6E70020F4E7E00F00F01448006853
:10A27000401C38B913480178124808300078C0F300
:10A28000031205E00E4801684FF08050D0F83421E9
:10A29000062912D1032A06D0042A06D0052A06D0A0
:10A2A000062A08D105E0012070470120FCE70120C3
:10A2B000FAE70120F8E70120F6E70020F4E70000C4
:10A2C00030010010E00F00F00E4802780D48083011
:10A2D0000078C0F30311062A12D1032906D00429FD
:10A2E00006D0052906D0062908D105E001207047CF
:10A2F0000020FCE70020FAE70020F8E70020F6E75E
:10A300000020F4E7E00F00F00E4802780D48083016
:10A310000078C0F30311062A12D1032906D00429BC
:10A3200006D0052906D0062908D105E0012070478E
:10A330000020FCE70020FAE70020F8E70020F6E71D
:10A340000020F4E7E00F00F014480068401C38B922
:10A3500013480178124808300078C0F3031205E072
:10A360000E4801684FF08050D0F83421062912D1F0
:10A37000032A06D0042A06D0052A06D0062A08D1C8
:10A3800005E0002070470020FCE70120FAE70120EB
:10A39000F8E70120F6E70020F4E7000030010010A4
:10A3A000E00F00F00278072A38D2DFE802F0370425
:10A3B0000712222B340000220A7030E001220A70BA
:10A3C00003898B818388CB81C2688A6000230B74E8
:10A3D00025E002220A7003898B818388CB81C268C1
:10A3E0008A60827D062A01D1012300E000230B74DC
:10A3F00015E003220A70C3888B810389CB81C26870
:10A400008A600CE004220A70C3888B810023CB8110
:10A4100000228A6003E005220A7000E000BF00BF4E
:10A420007047000030B587B004460D46206880684C
:10A4300008B907B030BD182101A8FCF730F8029523
:10A44000A0680690207910B1012815D109E00120FB
:10A450008DF8040020690390E0680490606905901D
:10A460000BE002208DF804000749E06809684843C2
:10A4700003906069059000E000BF00BF206881681C
:10A4800001A8884700BFD4E7D81C030070B5054673
:10A49000002409E0064850F8240020B1044850F890
:10A4A000241028468847641C042CF3D370BD000098
:10A4B0001C4F002070B504460D462946206803F065
:10A4C00083F92946206803F085F970BD70B504460C
:10A4D0000E4615463146206803F079F91DB1314624
:10A4E000206803F07AF970BD70B505460C462868FF
:10A4F000015929B12146286803F05FF9012070BD98
:10A500000020FCE70146A1F50640024A52F820006F
:10A5100070470000E041002070B50446606870B9E3
:10A5200021783E4B53F821203D493E4BC91AC908BA
:10A53000032343EA01403CA102F09CFE12E0606864
:10A54000FFF7E0FF05462178344B53F821203449CA
:10A55000344BC91AC908032343EA01402B463CA1E6
:10A5600002F094FE207820B1012808D0032851D1B0
:10A5700029E0606810B901203D4908704BE060682F
:10A5800000BB2749274BC91AC908032343EA0140E6
:10A5900038A1A26802F06EFEA2892149214BC91A96
:10A5A000C908032343EA014037A102F063FEE289B0
:10A5B0001B491C4BC91AC908032343EA014036A1B1
:10A5C00002F058FE27E0606800BB1549154BC91A18
:10A5D000C908032343EA014026A1A26802F04AFE0B
:10A5E000A2890F490F4BC91AC908032343EA014046
:10A5F00025A102F03FFEE28909490A4BC91AC908A0
:10A60000032343EA014024A102F034FE002027493D
:10A61000487000E000BF00BF70BD0000AC410020EA
:10A620004C2A0300C42903001B5B313B33326D45C8
:10A6300076656E743A202573207265636569766568
:10A640006420284E52465F535543434553532900D7
:10A650001B5B313B33326D4576656E743A20257352
:10A66000207265636569766564202825732900007A
:10A67000DE4100205265636F72642049443A09301C
:10A68000782530347800000046696C652049443AEA
:10A6900009307825303478005265636F7264206B1E
:10A6A00065793A093078253034780000DC410020A3
:10A6B00070B586B0142101A8FBF7F1FE2E48007892
:10A6C00028B101A8FFF7E2FE002006B070BD2A48BD
:10A6D000001D01F00BFB08B10020F6E700F042FB83
:10A6E00006460EB13046F0E705F02EF904F00AFFF9
:10A6F000054625B1022D03D0062D0ED103E000BF83
:10A7000048F20A60E1E701201B4908700020486018
:10A7100001A8FFF7BBFE0020D7E700BF00BF6846D7
:10A7200005F0D6F8044614B948F20760CDE70120D9
:10A7300020700C2D16D2DFE805F01506150715114F
:10A740001512150A0E0B00BF002020710BE000BF90
:10A750000320207107E00220207104E000BF0120E7
:10A76000207100E000BF00BF684605F0C1F805F0A9
:10A77000D1F90020A9E700001843002038B50446AD
:10A7800014B948F2046038BD6946204605F060FA05
:10A7900008B3BDF8000000EB8000114901EB800018
:10A7A000C068A8B1A07A98B1BDF8000000EB8000A5
:10A7B00001EB8000C068401EBDF8001001EB810174
:10A7C000074A02EB8101C8600020A072002504E066
:10A7D00048F2056501E048F209652846D3E7000024
:10A7E000C84F00207FB514461D462B46224601A9BE
:10A7F000684605F0C5F904B070BD0000F8B5044620
:10A800000D4604B115B948F20460F8BD694620460A
:10A8100005F01EFAA0B16668BDF8001001EB8101D9
:10A82000094A02EB810101F10C00012101F065FAF6
:10A830002E6060680C3068600120A0720020E4E7A0
:10A8400048F20960E1E70000C84F002070B50446F7
:10A850000D4614B948F2046070BD03230022294656
:10A86000204606F0E5FEF7E770B504460D460223E4
:10A8700000222946204606F0DBFE70BD70B5054675
:10A8800009480068042802D148F20B6409E007482F
:10A890000549096840F821500121034801F02DFACB
:10A8A0000024204670BD0000244300201C4F0020DF
:10A8B0002DE9F84304464FF4806800262B480078C1
:10A8C00018B948F20160BDE8F88314B948F2046091
:10A8D000F9E712212046FBF7E2FD03202080002546
:10A8E0003FE005EB8500224901EB8000008905EB84
:10A8F00085011F4A02EB81014989084487B205EBB3
:10A90000850102EB8101486804F078FD032802D13B
:10A910002088401E2080608805EB8501144A02EBE8
:10A920008101C96808446080208905EB850102EB3C
:10A930008101498908442081608938446081C7F5D4
:10A94000806086B2A089B04200DAA68104F11000CE
:10A95000831EA21D211D0090284605F0BFFA681C29
:10A9600085B2022DBDDB0020ADE7000018430020BA
:10A97000C84F002030B58DB06D496E4A891AC9089C
:10A98000032242EA01406CA102F06AFC7048FFF722
:10A9900075FF6749674A891AC908032242EA0140DC
:10A9A0006CA102F05DFCFFF783FE044600BF254664
:10A9B00025B100BF2846FCF79BFC00BF00BF06F096
:10A9C000F9FD142108A8FBF76AFD08A8FFF770FF3E
:10A9D000044600BF254625B100BF2846FCF788FC89
:10A9E00000BF00BFBDF824205149524BC91AC90805
:10A9F000032343EA01405CA102F03CFCBDF82620A1
:10AA00004B494C4BC91AC908032343EA01405CA1D6
:10AA100002F030FC0020059006900790039004900F
:10AA200003AB05AA47F2100148F21000FFF7DAFE67
:10AA30000446002C51D10190029001A905A8FFF70E
:10AA4000DDFE044600BF254625B100BF2846FCF7C1
:10AA50004FFC00BF00BF182257480299FBF706FDC4
:10AA600055490A683249334BC91AC908032343EAD6
:10AA7000014052A102F0FEFB4F480068401C4E49C5
:10AA8000086005A8FFF77AFE044600BF254625B1F9
:10AA900000BF2846FCF72CFC00BF00BF534905A8A7
:10AAA000FFF7D4FE044674B148F2066084420AD12E
:10AAB0001F49204A891AC908032242EA01404C4929
:10AAC00002F0CEFB08E000BF254625B100BF2846B6
:10AAD000FCF70EFC00BF00BF27E01549154A891A94
:10AAE000C908032242EA014042A102F0B9FB3F49F2
:10AAF00005A8FFF7B9FE044674B148F20660844227
:10AB00000AD10B490B4A891AC908032242EA0140BB
:10AB1000374902F0A5FB08E000BF254625B100BF7C
:10AB20002846FCF7E5FB00BF00BF00200DB030BD9C
:10AB30004C2A0300C4290300464453206578616D04
:10AB4000706C6520737461727465642E000000007F
:10AB500019A50200496E697469616C697A696E674A
:10AB6000206664732E2E2E00466F756E6420256459
:10AB70002076616C6964207265636F7264732E0065
:10AB8000466F756E64202564206469727479207242
:10AB900065636F7264732028726561647920746FD5
:10ABA000206265206761726261676520636F6C6C0B
:10ABB0006563746564292E00C4410020436F6E668E
:10ABC00069672066696C6520666F756E642C2075F8
:10ABD00070646174696E6720626F6F7420636F7553
:10ABE0006E7420746F2025642E0000000C19030081
:10ABF000CC1E030057726974696E6720636F6E66BE
:10AC000069672066696C652E2E2E000070B50446BB
:10AC10000D462A460021204600F00EF8A068401C90
:10AC2000A06070BD01468A68C868801A70470146F6
:10AC30008A68C868801A704710B583680B44848896
:10AC400023400468E35C137010BDC26883881A4017
:10AC500003689954C268521CC26070473EB50446EE
:10AC60000A4B6A460021A01D04F08AFF054635B94B
:10AC7000064A9188019805F065F8054603E0034807
:10AC800000210160416028463EBD000034430020A1
:10AC900070B505460E46144624B13146284601F0EB
:10ACA00008F803E03146284600F0E5FF70BD30B5F6
:10ACB00004461088C01C984201D90C2030BD0220E7
:10ACC000158848551088401C10800120158848556B
:10ACD0001088401C108015884C551088401C10802E
:10ACE0000020EBE770B504460D4640F21442115BBC
:10ACF0000122D4F81004FCF72EFF064606B1357089
:10AD000004F13C0204F5826104F1540072DF70BD6D
:10AD100010B54FF4405400F009F8034908610846A3
:10AD20000069001BC86010BDB043002010B540F69C
:10AD3000F8700068401C18B94FF01020406902E01C
:10AD400040F6F870006803464FF080500169426990
:10AD5000581C08B1184601E002FB01F004462046E9
:10AD600010BD000010B5FFF7D3FF002202490348D1
:10AD700001F034FD10BD0000E81C0300B0430020CA
:10AD8000F7B50D4617460DB90020FEBD0026009808
:10AD900068B1002409E02146684600F07BFF18B145
:10ADA000A0B23946A847761C641C142CF3D3304655
:10ADB000EBE770B504460D46E0B2FCF7E5FB204634
:10ADC00070BD10B50446606804F034FE10BD00008C
:10ADD0003EB500BF9DF8000020F00F00401C009021
:10ADE0009DF8000020F0F0001030009000BF0C2211
:10ADF00014A168467CDF044600BF254625B100BF8C
:10AE00002846FCF775FA00BF00BF002001900290B1
:10AE10001020ADF804003C20ADF806000020ADF88D
:10AE200008004FF4C870ADF80A0001A87ADF0446A4
:10AE300000BF254625B100BF2846FCF759FA00BFE0
:10AE400000BF3EBD57696C6C69616D5F55415254DE
:10AE50000000000070B505460C4660880D49098861
:10AE6000884215D1208840F67721884210D1A088E9
:10AE7000C01E094908800949094A891AC9080322DC
:10AE800042EA014004490B880A8806A102F0FEF953
:10AE900070BD0000A0410020A24100204C2A030008
:10AEA000C429030044617461206C656E20697320BD
:10AEB00073657420746F2030782558282564290024
:10AEC00070B50E490E4801F002F8044600BF254651
:10AED00025B100BF2846FCF70BFA00BF00BFF721E1
:10AEE000074800F0E5FF044600BF254625B100BF36
:10AEF0002846FCF7FDF900BF00BF70BD55AE02004B
:10AF0000DC43002070B5054615B14FF4064070BD16
:10AF10001848007B18B100201649087301E000F0C2
:10AF2000DFF81448007808281DD2DFE800F01C0480
:10AF3000080C101C141800F03FF8044616E000F04E
:10AF4000BDF8044612E000F099F804460EE000F067
:10AF500047F804460AE000F02DF9044606E000F048
:10AF60003BF9044602E048F20E6400BF00BF2046F1
:10AF7000CDE70000F04F00200D480089401C0C492F
:10AF8000088100204880087300BF0DE000EB8001BD
:10AF9000084A12F8211009B9012200E000220449F0
:10AFA0000A310A54411C88B20228EFDB70470000C6
:10AFB000F04F0020C84F002010B5084800F036F8C8
:10AFC00040B900200549891E08704880486041F654
:10AFD0001D5010BD00F072F8FBE70000F24F00209A
:10AFE00070B50F48458805EB85000E4901EB8000E0
:10AFF000C06878B904200A49087005EB8500094A41
:10B0000002EB8000002301224168074801F02EFB7B
:10B01000044602E000F090F80446204670BD0000AF
:10B02000F04F0020C84F0020B043002010B501466B
:10B030000022002018E00F4B1B5C9BB100240D4B3D
:10B040001C5400EB80030C4C04EB8303DB684BB90E
:10B0500000EB800304EB83031B7C012B02D10880EF
:10B06000012203E0431C98B20228E4DB00BF104633
:10B0700010BD0000FA4F0020C84F0020F8B50C4862
:10B0800044680C4800680B49898800EB810560889A
:10B09000C01C86B20320064908700020B30000904F
:10B0A000084629464268044801F058FCF8BD0000F3
:10B0B000F04F00202C430020B043002010B507497A
:10B0C0004888091D04F002FE18B1FFF7D7FF0446B7
:10B0D00002E0FFF785FF0446204610BDF04F002038
:10B0E00010B514480078082820D2DFE800F0041FCB
:10B0F0001F0A1016171BFFF73FFF01200D490870AC
:10B1000015E000F075F802200A4908700FE000F021
:10B1100029F806200749087009E000BF0720054903
:10B12000087004E001200349087000E000BF00BF80
:10B1300010BD0000F04F002010B505200649087032
:10B14000022006498880084600230122016804483D
:10B1500001F08CFA10BD0000F04F00202C430020BD
:10B16000B0430020104908681049498801EB81016B
:10B170000F4A02EB810149680B4A11600B4949886B
:10B1800001EB81010A4A02EB810148600649898886
:10B19000064A528802EB8202054B03EB82021181C0
:10B1A0000221014A918070472C430020F04F00207B
:10B1B000C84F002010B5062005490870498801EBEA
:10B1C0008101044A02EB8101486804F079F910BD5D
:10B1D000F04F0020C84F002010B507200349087029
:10B1E0000020486004F07CF910BD0000F04F002002
:10B1F000054A50684288D21C91B2044A92880A4497
:10B20000024B9A8070470000F04F00202C43002032
:10B2100070B50B48FEF774FD0A4B0CCB841843F154
:10B220000005094903C9201A75EB010004D24FF04B
:10B230008073E41845F100052046294670BD0000E2
:10B24000B0420020C0420020C842002070B5044631
:10B250000D46204600F01DF8A84201D9022070BD1D
:10B26000A0884FF6FF71884204D0208810B1A068F2
:10B27000401C08B90120F2E70020F0E7024613461F
:10B280008B4204D21868401C08B10120704700208E
:10B29000FCE701464A8801F10C0000EB8200704790
:10B2A00010B501F051FE08B902F002FA10BD00001D
:10B2B00070B504460D4609486060094800F016FD67
:10B2C00050B902F015FD064908741C238C2205496B
:10B2D0000548006800F083FC002070BDD81C030006
:10B2E000084F00206C4E0020E41C03002DE9F041C3
:10B2F00006460C4648F20E6736B1002043494860C6
:10B300004FF40640BDE8F081207930B101280AD021
:10B31000022835D003286DD140E00120207104F0CF
:10B32000DFF8074667E04FF00008002519E005EB5D
:10B330008500374911F82000022810D1002005EBC4
:10B340008501334A02F821004FF0010805EB850121
:10B3500002EB8101486804F0B3F8074603E0681C7B
:10B3600085B2022DE3DB00BFB8F1000F07D1012049
:10B37000264908700020486041F61D50C2E73AE0B7
:10B3800000202071022023498880084600230122E2
:10B390000168214801F06AF907462CE0002020717D
:10B3A0001C49086804F08CF807461C484588194871
:10B3B000D0F8008005EB8500154901EB800040685E
:10B3C0001449086005EB8500114901EB8000C0F8C5
:10B3D00004801048808805EB85010D4A02EB81014D
:10B3E000088102200B498880002005EB850102F8C6
:10B3F000210000E000BF00BF2FB1002003494860DA
:10B4000048F20D607EE700207CE700001843002032
:10B41000C84F00202C430020B0430020F04F0020F4
:10B4200010B5034A00210348FBF7AAFF10BD000036
:10B43000DD6A0200D8180300024600210CE001EB8F
:10B440008100074B33F82000904204D101EB8100CA
:10B4500003EB80007047491C0029F0D00020F9E779
:10B46000184C00202DE9FC5F83460E4691461F468E
:10B47000DDE90C45002E01DA704200E030468246DC
:10B480004FF0010803E09AFBF9FA08F10108CA45F8
:10B49000F9DA474500D9B84634B1002E03DB05F090
:10B4A0000400042800D1641E05F0020000B167B159
:10B4B00005F0010048B944B104E0641E202158465B
:10B4C000FDF7DEFF0CB1A045F7D3002E05DA76427A
:10B4D0002D215846FDF7D4FF07E005F004000428AD
:10B4E00003D12B215846FDF7CBFF05F002000228BF
:10B4F0000DD105F0010050B94FB944B104E0641E0C
:10B5000030215846FDF7BCFF0CB1A045F7D33B46B0
:10B510004A4631465846CDE9004505F0FDFEBDE8F6
:10B52000FC9F00002DE9F04104460E464FF48E7159
:10B53000206802F0E1FC4FF4A271206802F0DCFC0C
:10B540001749206802F0E7FC206802F07BFD054601
:10B55000374628463946002809DA4A074FEA126C6E
:10B56000104A00F00F031B1F02F803C003E04A0754
:10B57000130E0D4A135400BF00BF206802F062FD95
:10B580000546284600F01F02012191404209920021
:10B5900002F1E022C2F8001100BF00BFBDE8F08157
:10B5A0008000020018ED00E000E400E02DE9F04129
:10B5B00004460E464FF48871206802F0CDFC4FF42B
:10B5C0009071206802F0C8FC4FF49271206802F07C
:10B5D000C3FC4FF4A271206802F0BEFC4FF4AC71C2
:10B5E000206802F0B9FC1849206802F0C5FC206808
:10B5F00002F02CFD0546374628463946002809DA70
:10B600004A074FEA126C114A00F00F031B1F02F8A1
:10B6100003C003E04A07130E0D4A135400BF00BFD6
:10B62000206802F013FD0546284600F01F020121A4
:10B6300091404209920002F1E022C2F8001100BFDD
:10B6400000BFBDE8F08100001003420018ED00E0EB
:10B6500000E400E030B5024600201378C3F3800315
:10B66000D3B1137803F00303012B02D0022B10D1C6
:10B6700007E01388C3F383139B1C0C6823440B60FF
:10B6800008E00B680225146805EB945423440B6012
:10B6900000E000BF00BF012030BD2DE9F0470446A7
:10B6A0000E469046002722E0384602F005FC05468B
:10B6B000384602F008FC81462046294642580AB125
:10B6C000012200E0002282B14846D4F80413014070
:10B6D00009B1012100E0002139B12946204602F0DC
:10B6E000F7FB2846D6E900219047781CC7B24745AA
:10B6F000DADBBDE8F087000001460348007A08B1B4
:10B70000012070470020FCE7084F00202DE9F041A0
:10B710000446A08800EB020CB4F80480904501DDDB
:10B72000104600E0A088A8EB0005E088C618B4F831
:10B730000680984501DD184600E0E088A8EB000788
:10B740004888B4F80080404504DB4888B4F802809B
:10B75000404502DD0020BDE8F0818888A84202D380
:10B760008888604501D90020F5E7C888B84202D32F
:10B77000C888B04201D90020EDE70120EBE701467F
:10B7800001F0030008B9012070470020FCE70146E2
:10B79000086808B102680A607047000010B50848E0
:10B7A000007850B1002405E0022C02D02046FDF7BD
:10B7B0003FFB641C042CF7D301E0FDF765FB10BDD3
:10B7C0002442002010B502F011FC002001498870CD
:10B7D00010BD0000C44C0020F721018017214180DA
:10B7E000002101714171FB2181711B21C1717047E1
:10B7F00070B54FF48041002001F0CAFD044600BF3F
:10B80000254625B100BF2846FBF772FD00BF00BFEB
:10B8100001F086FB70BD00002DE9FF4100272E4896
:10B8200000F05DFA2C48001F00F059FA2B484068E0
:10B8300003902A4885680398284028490C3101EB79
:10B84000800800BF03A94046FFF704FF30B103980A
:10B85000284022490C3101EB800800E000E0F1E7CC
:10B8600000BF00240AE00398411C284003911B49B3
:10B870000C3151F820004DF82400641C022CF2D346
:10B88000009800F0030001280DD0022814D1BDF863
:10B8900006700421009801EB9050401E039901EBC3
:10B8A0009000039009E0BDF806700098C0F3831083
:10B8B00003990844039000E000BF00BF0648001F42
:10B8C00000F006FA064616B1044903984860384667
:10B8D00004B0BDE8F0810000BC550020A451002058
:10B8E00005F06AFBFFF784FFFFF79AFD05F0D4F936
:10B8F00003F046FF03F036FFFDF73FFAFFF768FA63
:10B90000FFF7DEFA04F0D2FDFBF740FCFDF7E8FF9D
:10B91000FBF7B8F8FFF72EF809A0FBF733FB0D494A
:10B920000D4A891AC908032242EA01400BA101F01D
:10B9300097FCFBF76DFC00BFFFF7B2FCFCE70000D3
:10B940000D0A5541525420737461727465642E0D52
:10B950000A0000004C2A0300C429030044656275F4
:10B9600067206C6F6767696E6720666F722055414C
:10B970005254206F76657220525454207374617251
:10B980007465642E000000002DE9F04105460E4666
:10B9900014469846A888871C2088801C3844404557
:10B9A00002D90C20BDE8F081FE2F01D90C20F9E767
:10B9B000781C218870542088401C2080FF2021881A
:10B9C00070542088401C208022889119288805F016
:10B9D00085FC218808442080A88800280DDDA868FF
:10B9E00008B90720DEE7AA8823889819A968FAF71A
:10B9F0003DFD2088A988084420800020D2E72DE959
:10BA0000FF4F87B0044691461E46A2462546BAF827
:10BA100006009AF805104843001F0690BAF806B0D1
:10BA2000301DB0FBFBF00590301DB0FBFBF10BFBB4
:10BA300011000490D9F8000081190698814202D9BA
:10BA40000698801B01E0D9F800000746C9F800708D
:10BA500003E02D680598401E059005980028F8D150
:10BA600003900498ABEB0008B84501D9384600E0D4
:10BA70004046804623E00399089808440290281D18
:10BA8000049908440190149828B14246DDE9011058
:10BA9000FAF7ECFC04E04246DDE90101FAF7E6FCC6
:10BAA000002004902D68A7EB0807039840440390FA
:10BAB000BB4501D9384600E05846804600BF002FFC
:10BAC000D9D10BB0BDE8F08F70B503460C469CB1E0
:10BAD00001F08AFC054600220AE0084800EB8201DA
