:020000040002F8
:1060000010790020C1630200C9630200CB63020063
:10601000CD630200CF630200D163020000000000E4
:10602000000000000000000000000000D363020038
:10603000D563020000000000D7630200D9630200AC
:10604000B9670200DB6302003D6E0200DB63020001
:10605000DB630200DB630200716502002568020059
:10606000DB630200A56D0200BD6D0200DB63020070
:10607000DB630200DB630200DB630200DB63020020
:10608000DB6302000D680200DB630200DB630200D9
:10609000DB630200DB630200916A0200DB63020043
:1060A000DB630200DB630200DB630200DB630200F0
:1060B000DB630200DB630200000000000000000060
:1060C000DB630200DB630200DB6302007D6A020027
:1060D000DB630200DB630200DB6302000000000000
:1060E00000000000000000000000000000000000B0
:1060F00000000000000000000000000000000000A0
:10610000000000000000000000000000000000008F
:10611000000000000000000000000000000000007F
:10612000000000000000000000000000000000006F
:10613000000000000000000000000000000000005F
:10614000000000000000000000000000000000004F
:10615000000000000000000000000000000000003F
:10616000000000000000000000000000000000002F
:10617000000000000000000000000000000000001F
:10618000000000000000000000000000000000000F
:1061900000000000000000000000000000000000FF
:1061A00000000000000000000000000000000000EF
:1061B00000000000000000000000000000000000DF
:1061C00000000000000000000000000000000000CF
:1061D00000000000000000000000000000000000BF
:1061E00000000000000000000000000000000000AF
:1061F000000000000000000000000000000000009F
:10620000DFF80CD000F076F900480047BDB402007A
:106210001079002030B450E8012F93B2C489234490
:106220008489A34228BF1B1B0489A34202BFBFF37A
:106230002F8F002007E0C3EA020340E80134002C5E
:10624000E9D14FF001000A6030BC704750E8012FDF
:10625000C2EA024240E801210029F7D1704730B478
:1062600050E8022F1FFAA2F3C488A34202BFBFF373
:106270002F8F00200DE0C48923448489A34228BFC6
:106280001B1BC2EA034340E80234002CE8D14FF064
:1062900001000A6030BC704750E8022FC2EA224277
:1062A00040E802210029F7D17047034653E8022F46
:1062B000D988B2EB324F4FF0000017BF92B241EADB
:1062C000014142EA014104E05A68B2EB324F08BF93
:1062D000012043E80212002AE8D1704730B4044696
:1062E00054E8000F0D4644E80053002BF8D1156028
:1062F00030BC704730B4044654E8000F40EA010552
:1063000044E80053002BF7D1156030BC704730B41F
:10631000044654E8000F00EA010544E80053002B4E
:10632000F7D1156030BC704730B4044654E8000F14
:1063300080EA010544E80053002BF7D1156030BC1A
:10634000704730B4044654E8000F00EB010544E800
:106350000053002BF7D1156030BC704730B40446B1
:1063600054E8000FA0EB010544E80053002BF7D1DF
:10637000156030BC704770B404464FF0000054E81C
:10638000006F0D68AE4207BF44E80023012044E8D7
:1063900000630E60002B1CBF0020F0E770BC70474C
:1063A00030B4044654E8000F88422CBF451A054615
:1063B00044E80053002BF5D1156030BC7047000055
:1063C0000648804706480047FEE7FEE7FEE7FEE78F
:1063D000FEE7FEE7FEE7FEE7FEE7FEE70D6B0200E5
:1063E000016202002DE9F05F0546002092469B46BF
:1063F00088460646814640241BE0284641464746DB
:10640000224600F067F853465A46C01A914110D30D
:1064100011461846224600F016F82D1A67EB0108BF
:106420004F4622460120002100F00DF817EB00092D
:106430004E41201EA4F10104DFDC484631462A46C5
:106440004346BDE8F09F202A04DB203A00FA02F11F
:10645000002070479140C2F1200320FA03F3194352
:1064600090407047004870478424030040EA0103CD
:106470009B0703D009E008C9121F08C0042AFAD2FA
:1064800003E011F8013B00F8013B521EF9D27047BE
:10649000D2B201E000F8012B491EFBD27047002266
:1064A000F6E710B513460A4604461946FFF7F0FF13
:1064B000204610BD421C10F8011B0029FBD1801A98
:1064C0007047034611F8012B00F8012B002AF9D17F
:1064D00018467047202A04DB203A21FA02F00021F6
:1064E000704721FA02F3D040C2F1200291400843E4
:1064F00019467047064C074D06E0E06840F001037E
:1065000094E8070098471034AC42F6D3FFF77CFEBE
:10651000142F0300342F030070B58C1810F8015BA2
:1065200015F0070301D110F8013B2A1106D110F82C
:10653000012B03E010F8016B01F8016B5B1EF9D130
:106540002B0705D40023521E0DD401F8013BFAE7B6
:1065500010F8013BCB1A921C03E013F8015B01F821
:10656000015B521EF9D5A142D8D3002070BD0000B6
:106570002DE9F04F89B00027002008904FF480707B
:1065800007900126002412E0079806F08FF940B129
:1065900000BF7B480068304018B1079806F078F9D2
:1065A000374376000798001D80B20790641C082CC2
:1065B000EAD34FF4BE7006F079F950B14FF4BE70D3
:1065C00006F066F947F0004708AA0121002006F00E
:1065D00045F9F8B200B3012600241BE006EA0700E3
:1065E000B0B100BF674850F82400C0F304208046D3
:1065F00000BF644850F82400C0F3014081462046A3
:1066000002F018FE054615B149464046A84700BFAE
:106610007600641C082CE1D307F0004000287DD0F0
:10662000002006900590002505E04FF0FF3004A9FA
:1066300041F825006D1C002DF7D000BF002006900A
:1066400000245FE05048005D0390039820F0C009EB
:106650004D480057401C002853D004A9484605F077
:10666000F3F900284DD003984FEA901A484602F0FB
:10667000E9FD804602F0DEFD0290029810B9BAF101
:10668000030F3DD1BAF1030F03D105A9484605F028
:10669000E6F900BF00BF4FF0A041084600F5E061F9
:1066A00051F82910C1F3014800BF08A9484605F078
:1066B000CBF98346BBF1000F02D0B8F1020F05D031
:1066C000BBF1000F1BD1B8F1030F18D1BAF1030FC2
:1066D0000FD1B8F1020F01D1032000E00220019098
:1066E0004846019906F058F80698401CC0B206903A
:1066F00000BF029818B151464846029A904700BF21
:1067000000BF641C042C9DD3069888B34FF0010889
:1067100003AA0121002006F0A1F800E02DE00025E9
:106720000BE003A850F8250008A951F8251088426D
:1067300002D04FF0000802E06D1C002DF1D000BF28
:10674000B8F1000F02D00020069010E000250CE008
:1067500003A850F8250008A941F8250005A850F81D
:10676000250004A941F825006D1C002DF0D000BFC4
:10677000069800287FF462AF00BF09B0BDE8F08F33
:106780000463004010650040684D002010B50446C9
:10679000122000BF4FF0A0431946D1F80425012371
:1067A00083409343C1F80835012383401340C1F867
:1067B0000C3500BF10BD000010B54FF4807005F01F
:1067C0006EFA80B14FF4807005F072FA012005F086
:1067D00079FA0D48407930B901200B4948710846D3
:1067E0000168002088474FF4827005F058FA50B1D4
:1067F0004FF4827005F05CFA022005F063FA02485B
:1068000001680120884710BDAC42002010B5034A42
:106810001068034A1168884710BD00000443002037
:1068200000430020FEB54FF4827006F025FE0028DC
:1068300037D04FF4827006F029FE6C4890F82E0095
:1068400018B16A4890F82F0058B300208DF8000066
:1068500066484068019065480189ADF80810C06835
:1068600018B900206149087412E06048008B5F4944
:1068700048830846C06848600846008B08810020AD
:10688000C860084690F82E0010B9002006F016FEE9
:1068900056480168684688470020544981F82F000F
:1068A00000BF524890F82E00002852D04FF480705C
:1068B00006F0E2FD00284CD04FF4807006F0E6FDB3
:1068C0004A48408B494991F82D10884216DD4748C7
:1068D000408B464991F82D10401A444948830A4696
:1068E00012890B465B8BD21A0B465B6803EB4200A6
:1068F0000A4692F82D1006F0ABFD23E03B48408B92
:106900003A4991F82D1088420FD13848C06860B1DB
:106910000120364981F82F00002048830A4692F86A
:106920002D10D06806F094FD0CE03048408B2F49C4
:1069300091F82D10884205D101202C4981F82F00B3
:10694000002048834FF4827006F0A0FD042006F07A
:10695000B5FD4FF4887006F08FFD70B14FF488706C
:1069600006F094FD00202149087402208DF80000F3
:10697000084601686846884700BF4FF48A7006F0F1
:106980007BFD38B14FF48A7006F080FD0020174976
:1069900008742AE01548456924E0B5FA85F64FF0F9
:1069A0000040F0408543B00000F58C74204606F0AE
:1069B00063FDB8B1204606F069FD01208DF80000A6
:1069C000A4F58C70C0F3C7008DF80400A4F58C709A
:1069D000012121EA90018DF80510044801686846FC
:1069E000884700BF002DD8D100BFFEBDDC4D002080
:1069F00010B500F0F3FA10BD2DE9F04707468846C0
:106A00001646C24607EB47011B4800EBC109D9F8FF
:106A1000140020B1012811D0022826D11EE04846DA
:106A200000F014FB0546B54201D2002405E03446CF
:106A300032465146484600F050FB18E0484600F008
:106A400005FB0546B54201D2284600E03046044623
:106A500022465146484600F040FB08E03246514687
:106A6000484600F001FB044601E0002400BF00BFDF
:106A70002046BDE8F08700005C56002010B50249B2
:106A8000024804F014FC10BD244E002000300240E7
:106A900010B506F049FF10BDFEB5134A07CA8DE8D0
:106AA000070000252E4605B9104D3146284607F04F
:106AB0001BFA044600BF00BF254625B100BF28468B
:106AC00000F0BEFC00BF00BF6946002007F0A0F93F
:106AD000044600BF254625B100BF284600F0B0FCA3
:106AE00000BF00BFFEBD0000801E03007C1E03002F
:106AF00010B5044600F034FC10BD00000148024906
:106B0000086070470090D003B443002010B503F034
:106B100065F928B192480088C0F3042091490860C3
:106B200003F0B8F910B190489049486703F0F2F9C2
:106B300030B18B48E0380068C0F342308C490860BF
:106B400003F016FA28B18B48006820F0807089495C
:106B5000086003F02DFA48B10020874908604FF023
:106B60008041C1F810018249091F086003F04EFA04
:106B700018B103207E496431086003F067FA68B1F8
:106B800005207E49086001207C497831086000209A
:106B90007A49083108603F20091F086003F076FA3F
:106BA000002855D06E48E0300068754908606C4890
:106BB000E4300068091D08606948E8300068091D74
:106BC00008606748EC300068091D08606448F030D0
:106BD0000068091D08606248F4300068091D0860FB
:106BE0005F48F83000686649203108605C48FC3036
:106BF0000068091D086063480068091D0860614855
:106C0000001D0068091D08605E4808300068091D05
:106C100008605C480C300068091D08605948103055
:106C20000068574940310860564814300068091D13
:106C30000860544818300068091D086051481C302D
:106C40000068091D08604F4820300068091D086071
:106C500003F096F830B14248CC38006800F04F009D
:106C60004949086003F0E8F840B14848006800F07E
:106C7000010018B16FF001004449086003F02AF9DF
:106C800028B14348006840F48060414908603948B1
:106C90007438006840F4700036497439086000BFE9
:106CA00000BF00BFBFF34F8F00BF00BF00BF00BFDA
:106CB00000BF00BFBFF36F8F00BF00BF00BF3548EC
:106CC000006800F0004028B93248001D006800F05C
:106CD0000040E8B301203049086000BF2F48006839
:106CE0000028FBD015202B49086000BF2B48006806
:106CF0000028FBD015212748001D016000BF274850
:106D000000680028FBD000202349086000BF23480A
:106D100000680028FBD000BF00BF00BF00BF00BF5D
:106D2000BFF34F8F00BF00BF00BF1248F0380068AC
:106D300000F4E0601A490843001D0E49F03908606C
:106D400000BF00BF00BFBFF34F8F00BF00BF00E018
:106D500003E000BF00BF00BFFDE7FFF7CFFE10BD9F
:106D600024030010403501400DF0ADBA00C00740CB
:106D70003C050040FCED00E00C01004010560040D6
:106D800020C5004024040010E40E00400004004030
:106D90003C1700400012001004E5014000E40140EF
:106DA0000000FA0510B504220249034804F051FA24
:106DB00010BD0000C44D00200090004010B504221A
:106DC0000249034804F045FA10BD0000D04D0020F0
:106DD00000A0004010B50248006800F0DAFB10BDCA
:106DE000A41E030010B50848006800F0D2FB074A53
:106DF0000121054800F06CFB00224FF4804102485D
:106E0000006800F0ABFB10BDA41E03008D670200FC
:106E100010B50848006800F0BCFB074A012105488E
:106E200000F056FB00224FF400510248006800F0C9
:106E300095FB10BDA41E03008D67020010B502492A
:106E40000868804710BD0000B442002070B50446B9
:106E50004A480078022800DA70BD494800780928BD
:106E600000DDF9E746484078102800DDF4E74448A3
:106E7000007802280FD143490868804705464249F7
:106E8000424A891AC908032242EA01402A4640A11F
:106E900006F00EF869E03A48007801281BD1384A1C
:106EA00092781206364BDB7802EB0342344B1B79A7
:106EB00002EB0322324B5B79D018324A5168884783
:106EC0003149324A891AC908032242EA014036A1EF
:106ED00005F0E4FF49E02A48007803280DD129494C
:106EE000886880472849294A891AC908032242EA42
:106EF000014031A105F0D2FF37E021480078052894
:106F00000ED109F0B3FE05461F49204A891AC90867
:106F1000032242EA01402A462BA105F0C9FF24E0E2
:106F20001748007804280FD1164801691448801CBE
:106F300088471549154A891AC908032242EA0140BF
:106F400019A105F0ABFF10E00D48007806280CD120
:106F50000C49486980470C490C4A891AC908032220
:106F600042EA014014A105F099FF0020034908708E
:106F7000F4210348FFF793FA00BF6DE7A04100201A
:106F80003848002090490020D42F0300442F0300EC
:106F900066647320726561646261636B2076616C04
:106FA00075653D25640A0000666473205772697434
:106FB000655F4F4B0000000066647320557064618C
:106FC00074655F4F4B0000007370692072656164E7
:106FD0006261636B202538780000000010B5124C08
:106FE00002202061606111A0A0611349E1614FF4AA
:106FF000007121620021A1626162E1620BA0A064C4
:107000000E49E164102121650021A1656165E165FA
:107010000BA1E01DFFF755FA0AA12046FFF751FA30
:107020002020A07110BD0000445600205465726DF0
:10703000696E616C00000000BC560020BC58002046
:1070400052545400534547474552000010B501467D
:107050000A69CB689A4204D88C68641EE41AA018A6
:1070600001E0D41A601E10BD2DE9F04704468946A0
:1070700017464FF0000AE56800BFD4F81080A84515
:1070800003D9A8EB0500461E04E0A5EB0800401C50
:10709000A1680E1AA068401BB04201D9304601E039
:1070A000A068401B0646BE4201D2304600E038468A
:1070B00006466168481932464946FFF7D7F9B24497
:1070C000B144BF1B3544A068A84200D10025E5604B
:1070D000002FD2D15046BDE8F0872DE9F047044695
:1070E00089461546E668A068871BAF4208D96168E3
:1070F00088192A464946FFF7B9F97019E06010E08F
:10710000B8466168881942464946FFF7AFF9A5EBD2
:10711000070809EB070142466068FFF7A7F9C4F8C2
:107120000C80BDE8F08702E008C8121F08C1002AE1
:10713000FAD170477047002001E001C1121F002AF8
:10714000FBD170470146202908DA012088400A4A0D
:10715000104008B1012070470020FCE7402909DAFF
:10716000A1F12000012202FA00F008B10120F2E7AB
:107170000020F0E70120EEE7FC06FFBD00BFEFF3C3
:107180001081084672B67047014601F0030008B945
:10719000012070470020FCE7024650680068401E4E
:1071A000084008B9012070470020FCE70246002192
:1071B00004E0505C08B101207047491C0629F8D34F
:1071C0000020F9E710B50346D868884206D8881829
:1071D000401E1C69A04201D8012010BD0020FCE720
:1071E00010B504466CB10848C068A04209D80648EA
:1071F0000069A04205D3204604F0AFF808B1012091
:1072000010BD0020FCE70000B843002070B5044624
:107210000D4604F22740FFF7C9FF0646012D06D0B0
:10722000022D0DD0032D11D0042D19D113E0A0791A
:1072300028B194F8240010B90EB1012070BD00BF30
:10724000E07910B10EB10220F8E700BF207A08B152
:107250000320F3E700BF607A08B10420EEE700BF27
:107260000020EBE70146481C052290FBF2F302FBED
:107270001300C0B27047014691F82420012A01D1C1
:10728000EE2000E01F20704710B5012202210020EF
:1072900001F040FD044600BF1CB1072C01D0204680
:1072A00010BD00BF07220221012001F033FD04467A
:1072B00000BF1CB1072C01D02046F1E700BF0A2215
:1072C0000021084601F026FD044600BF1CB1072C32
:1072D00001D02046E4E700BF0020E1E730B5ABB0C5
:1072E000AC216846FFF7DBF802208DF80000002093
:1072F0008DF8020006208DF803000121ADF84C1036
:107300001449149101218DF87C10402122914FF4F1
:10731000FA71239101218DF87D104FF44871249169
:107320004FF47A7125910C48299069460B4800F07A
:10733000F8FC044600BF254625B100BF284600F0F2
:107340007FF800BF00BF0121044800F0E7FC2BB02C
:1073500030BD0000A6410020C9E80200044400201E
:1073600070B50321064800F07EFD044600BF2546A7
:1073700025B100BF284600F063F800BF00BF70BD14
:107380000444002072B600BF05F07EFE00BF00BFBF
:1073900005F082FB0028FBD100BF00BF1D491E4A3B
:1073A000891AC908012242EA01401CA105F076FDB4
:1073B00000BF1D48006800F0010000B100BE00BF22
:1073C0001449154A891AC908022242EA014017A144
:1073D00005F064FD00BF00BF00BF00BF00BFBFF3EA
:1073E0004F8F00BF00BF00BF0F48E438006800F4B3
:1073F000E06012490843001D0B49E439086000BFF2
:1074000000BF00BFBFF34F8F00BF00BF00BF00BF72
:1074100000BFFDE7D42F0300442F030046617461D1
:107420006C206572726F7200F0ED00E05379737436
:10743000656D207265736574000000000000FA0538
:107440003EB50446002000900190029002946A46E6
:10745000002144F20100FFF795FF3EBD70B50446E0
:107460000D46204603F0BCF928B12946204603F01A
:10747000ABF9002070BD0520FCE7034609B90E20DA
:10748000704712B1501E104008B10920F8E719608A
:10749000501E988000209860D86000BFF0E770B55B
:1074A00004460D46204603F09BF9A188884205D882
:1074B0002946204603F0A7F9002070BD0420FCE710
:1074C00010B5024802F0BEFA10BD0000C042002014
:1074D00010B503460C460AB9072010BD19684A6169
:1074E000012C01D1012000E0002008610020F4E718
:1074F00038B51348006800900823582211491248F3
:10750000006804F04EF904460CB1204638BD0F4A1D
:1075100069460F4802F09CFA04460CB12046F5E794
:1075200001210B4802F032FB01230A4A19460848A0
:1075300002F05AFA0120084908702046E6E70000E8
:10754000DC200300484E0020CC200300F3000300A1
:10755000C0420020FFFF7F00CC4200202DE9F04117
:1075600006460D4617463446207F10B10020BDE880
:10757000F081A76103F020FC401941F10001C4E94A
:107580000201206900B125612146002009F02CFE8E
:10759000EDE770B5044625460020287729460120EE
:1075A00009F022FE70BD00002DE9F04104460F48AD
:1075B000077821460E48FFF751FF804697B100201B
:1075C0000A49087001220B490B4804F061FC05468A
:1075D00000BF2E4626B100BF3046FFF731FF00BF87
:1075E00000BF00BF4046BDE8F0810000FE42002021
:1075F000B04E0020FD420020E44200202DE9F04181
:1076000088B004460E46174698462B4807601EB9B8
:10761000072008B0BDE8F081B08882B22748316801
:10762000FFF72BFF054600BF284600B1F1E700BF7A
:10763000B08982B22248B168FFF71FFF054600BF3C
:10764000284600B1E5E700BF20221E496846FEF744
:107650000DFF60690690207C08B1012000E0002049
:107660008DF814008DF81C80607C08B10E2000E0BD
:1076700000208DF81500E0680290A0680390206853
:10768000019060680090104A6946104804F0BAFB07
:10769000054600BF284600B1BBE700BF00200C49EB
:1076A00008702068401C28B101220A49074804F0EC
:1076B000EFFBAEE70020ACE7F8420020B04E002020
:1076C000C04E0020E020030001140300E44200202B
:1076D000FE420020FD4200202DE9F04105462946EA
:1076E0001448FFF7DCFE064606BB134C0027207843
:1076F0001249085C20B1201D07F082F8074608E017
:1077000020780E49085C20B904F10C0006F020FF37
:10771000074600BF57B90A490648FFF79FFE28B938
:1077200001220749044804F0D5FB06463046BDE86F
:10773000F0810000C04E0020E4420020A84200205A
:10774000FC42002010B50446204608F019FE10BD8A
:1077500070B5044625460E488068B0B1ADB9FFF754
:107760000DFD06460A4800680A4908600848406856
:107770004FF0E021C1F804010020054988601EB9DE
:1077800000BF62B600BF00BF00BF00BF70BD0000F9
:10779000D04E002000E100E0F8B505460C46174643
:1077A0002088001DB84201D90C20F8BD684679DF59
:1077B000064600BF304600B1F7E700BF032021882E
:1077C00068542088401C2080192021886854208813
:1077D000401C208020884119BDF800000AF04AF8BA
:1077E0002188084420800020DFE770B505460C465C
:1077F0002068401C28B1206804F0F2FF206804F0E3
:10780000A7FF6068401C18B10021606804F086FF83
:107810002868A169C0F8241500BF617D227D286811
:1078200041EA0203C0F86C3500BFD4E900122868B1
:1078300006F0CCF9207D012814D1A068401C18B1B5
:107840000021A06804F06AFFE068401C28B1E068ED
:1078500004F0C6FFE06804F07BFFD4E90221286849
:1078600006F09DF970BD70B505460C462068401CB9
:1078700028B1206804F0BFFF206804F075FF60683D
:10788000401C18B10021606804F055FF2868A16908
:10789000C0F8241500BF617D227D286841EA0203FB
:1078A000C0F86C3500BFD4E90012286806F0C6F9AC
:1078B000207D012814D1A068401C18B10021A068C7
:1078C00004F039FFE068401C28B1E06804F093FF41
:1078D000E06804F049FFD4E90221286806F08FF936
:1078E00070BD0000002114E00C48D0F810240123E2
:1078F00008E000BFD0680079884201D1002303E08E
:10790000D0680268002AF4D100BF0BB10846704766
:10791000491C0A29E8DB4FF0FF30F8E7205200202D
:10792000F0B58FB004460D46287B0190202107A8B2
:10793000FEF7B5FD42F61920ADF81C000120ADF8A8
:107940002000ADF8220001A80990617C9DF8290073
:1079500061F304108DF829009DF8290020F0020041
:10796000801C8DF82900A87B8DF82F00687B8DF88E
:107970002D00A088A21D07A901F0B2FC064616B191
:1079800030460FB0F0BDA86800B36846A96801F0A2
:1079900094F80746142102A8FEF781FD42F608106C
:1079A000ADF80800E87B8DF80E00ADF81270BDF858
:1079B0001200ADF81600CDF818D0E08804F10E02E0
:1079C00002A901F06AFF06463046DAE70020E081AE
:1079D00000BFD6E710B5044600F002F810BD000065
:1079E00010B52DED028B82B00020019001A906F0A8
:1079F000EFFA9FED270AB0EE408ABDF9040000EED1
:107A0000100AB8EEC00ADFED230A20EE200ADFEDEF
:107A1000220A80EE201AB3EE020A31EE400AF3EE9B
:107A2000020A80EE201A9FED1A0A21EE000AB0EE3B
:107A3000408A1A491A4A891AC908032242EA0140AF
:107A4000BCEEC80A10EE103ABDF9042015A105F0ED
:107A50003BFABCEEC80A10EE100AC1B24FF6FE7235
:107A6000154800F0BAFA044674B1082C0CD0132C57
:107A70000AD0112C08D043F20140844204D000BF48
:107A80002046FFF7DDFC00BF02B0BDEC028B10BD4D
:107A90000000C8420000104200008044D42F0300C0
:107AA000442F0300766F6C746167653D25642C2557
:107AB0006425250A00000000D043002070B504466C
:107AC0000D4621462846AEDF0646304670BD2DE9FC
:107AD000F04104460F46154615B90E20BDE8F08169
:107AE0000020286000BF0CB90E20F7E700BF00BFE0
:107AF000206808B90E20F1E700BF00BFE088C11779
:107B000000EB91718910A0EB810109B10720E5E735
:107B100000BF384600F058FBC6B2142E01D1052034
:107B2000DCE72079B04201DC0420D7E7E188206857
:107B300006FB010028600020D0E72DE9FC41054646
:107B400088461646002437880020308095F82D009E
:107B500058B13A463146404600F064FB044600BF47
:107B6000204608B1BDE8FC8100BFA87850B13A4674
:107B700031464046FFF710FE044600BF204600B1E4
:107B8000F0E700BFE87860B1E97848B23B4632469A
:107B9000414602F081FE044600BF204600B1E1E705
:107BA00000BF686868B1696891F900003B463246D9
:107BB000414609F0CEFB044600BF204600B1D1E7A4
:107BC00000BF288900280EDD43460622022105F168
:107BD0000800CDE9006709F026FF044600BF2046F3
:107BE00000B1BFE700BF288A00280EDD4346072208
:107BF000032105F11000CDE9006709F014FF0446E8
:107C000000BF204600B1ADE700BF288B00280EDD85
:107C100043461522142105F11800CDE9006709F04B
:107C200002FF044600BF204600B19BE700BF286A60
:107C300058B13B4632464146286A01F0D3FC04461F
:107C400000BF204600B18DE700BF686A58B13B46CF
:107C500032464146686A03F079FC044600BF20467C
:107C600000B17FE700BF95F82C0000280BDD3B46F4
:107C700032464146284608F083FC044600BF2046B1
:107C800000B16FE700BF287858B13B463246414605
:107C9000284603F017FD044600BF204600B161E707
:107CA00000BF20465EE7F8B504460E4615460020A4
:107CB00000902B466A463146204600F008F80746F9
:107CC0000FB90020F8BDBDF800002044FAE7F0B578
:107CD00004460D4604B10AB90020F0BD002103E0BE
:107CE000605C401C084481B21088884203DC481C58
:107CF000205C984201D0A942F2DBA94201DB0020BE
:107D0000EBE7881C86B2605C401E87B2F019A8427F
:107D100001DD0020E1E716803846DEE780F830100C
:107D2000704770B504460D4605B10CB90E2070BD04
:107D300005F1780001F0F7FB08B90720F7E700200C
:107D4000A0702C2205F17801201DFEF78FFB00208A
:107D500084F83000D5F8A4006063D5F8A800A063CB
:107D60004FF6FF70A4F8240404F58260C4F82004E0
:107D7000002140F22C40C4F82614A4F82A1401551E
:107D8000207810B9FF2084F8540004F15500C4F89D
:107D900010042046FFF76FFA40F21441085304F232
:107DA000144204F155012846FFF7C7FE064600BFFE
:107DB000304600B1BBE700BF04F231204FF48361CD
:107DC00008512046FFF757FAA4F81C044FF48360CB
:107DD000015904F21C4205F13C00FFF7AEFE0646D5
:107DE00000BF304600B1A2E700BF0121512001557C
:107DF000208B81B248200153012084F83C000021EF
:107E00002164502001556169616404F13C02002144
:107E100004F1540072DF064600BF304600B186E729
:107E200000BF01202070304681E770B504460D4642
:107E30002E462088102804D0112807D026280FD1DC
:107E400009E02146304606F07DFE0AE02146304634
:107E500006F08AFF05E02146304607F01EF900E0F3
:107E600000BF00BF70BD70B504460E46207808B94B
:107E7000082070BDA670002140F22C40C4F82614E2
:107E8000A4F82A140155A07910B1A078012809D0CE
:107E9000E07910B1A078012804D0E07970B1A07821
:107EA00002280BD1606B30B1012084F82D0408202A
:107EB000616B884702E0002084F82D04314620469B
:107EC000FFF7A4F9A070606BA0B1A078032802D0DE
:107ED000A07804280ED1607960B194F82E0448B9D6
:107EE000002084F83004012084F82F040720616BFF
:107EF000884702E0002084F82F04182104F13C0098
:107F0000FEF7CDFA012084F83C0004F12C0007F0C4
:107F100027FB20B194F82C105120015502E00121DB
:107F20005120015594F8240060B104F1280007F0B5
:107F300017FB20B194F828105220015502E00121CE
:107F400052200155002150200155A078052824D247
:107F5000DFE800F01F030A11180004F13C0120467D
:107F600008F0D4FB054619E004F13C01204608F076
:107F7000B5FB054612E004F13C01204608F0D8FBB1
:107F800005460BE004F13C01204608F0FFFB0546E6
:107F900004E0002084F8310000E000BF00BFA078BA
:107FA00098B104F13C0204F15400D4F8201472DFBB
:107FB00005460DB128465CE794F8301094F854005B
:107FC00073DF05460DB1284653E7606B18B194F88E
:107FD0003100616B884700204BE7F7B592B004464B
:107FE000164614B90E2015B0F0BD002700201090E1
:107FF00011900120ADF840000020ADF8420013A818
:108000001190E18810AA4FF6FF70ACDF07461FB948
:108010009DF84C00207401E03846E4E7607C0028BD
:108020003CD000200C900D900E900F90E088ADF8A1
:10803000300001208DF83200BDF84200ADF8340068
:1080400010A80E9011980F904FF6FE7086421FD127
:1080500001A800F0AFF8002516E002A931F81500DC
:1080600000F0BCF802280ED13FB902A830F8151074
:108070000CA8FFF723FD074605E002A830F815100D
:108080000CA8FFF71BFD6D1C0198A842E5D804E081
:1080900031460CA8FFF712FD074600E008273846D6
:1080A000A1E7F8B504460D4604B10DB90E20F8BDA0
:1080B0002868206028796074FF20207400BF0120A8
:1080C0008DF8020041F60F00ADF8000000BF221D40
:1080D00069460120A8DF064600BF304600B1E6E74A
:1080E00000BF29462046FFF71BFC06463046DEE768
:1080F00070B504460D4605B104B970BD2E46208802
:10810000502804D12146304607F06EF800E000BF49
:1081100000BF00BFF1E700002DE9F041044600BFB9
:1081200014B90E20BDE8F08100BF1C2221461C4876
:10813000FEF79CF91B481A490860206860B1206866
:108140007ADF05460DB12846ECE7164821680A6833
:1081500002604968416005E012487BDF05460DB1C9
:108160002846DFE7002617E006EB86000E4901EB04
:10817000800700BF4FF6FF70388000BF0B4800EB50
:10818000461078600A4A0021381DFFF7A1F905461C
:108190000DB10320C6E7761C002EE5D00020C1E714
:1081A0006C4C00204C420020584C0020384C0020E1
:1081B0006919030010B5044602484168204601F0E1
:1081C000C6F910BD884C002010B50446204600F0CA
:1081D0001BF808B1204610BD1420FCE770B504461A
:1081E0000025204600F010F850B12146054803F064
:1081F00033FB06460EB1022000E00120054600BF19
:10820000284670BD904C002010B50446142C01DBAC
:10821000002010BD2146024803F01EFBF9E70000D4
:108220008C4C00202DE9FC4105460C461746208861
:108230000930B84202D90C20BDE8FC8168466DDFE8
:10824000064600BF304600B1F6E700BF082021888F
:1082500068542088401C20801B2021886854208876
:10826000401C208020882844DDF801100160BDF802
:10827000051081802088801D20809DF80000400826
:1082800018B900202188685402E001202188685430
:108290002088401C20800020CEE7000010B54FF061
:1082A000FF3100203DDF044600BF204600B110BD75
:1082B00000BFB12100203CDF044600BF204600B1D2
:1082C000F5E700BF0448416901208847022005F016
:1082D00057F80020EBE70000CC58002010B5054807
:1082E0000068416900208847FFF7D8FF0446204610
:1082F00010BD0000B043002070B504460D4600BF1D
:1083000004B970BD00BF2088102806D0112808D0FD
:1083100051280AD0532810D10BE0204606F00CFC5F
:108320000CE0204606F012FD08E0204606F05EFE56
:1083300004E0204606F0D2FD00E000BF00BF00BF11
:10834000DFE7000070B504460426207B012802D038
:10835000022822D109E001F0BBFC05460DB9012637
:1083600002E0112D00D1062619E0607B142801DC03
:10837000607B08B905260FE0627B04F10E0112480C
:10838000FEF774F8607B1049091F8861084608F001
:108390002BFA054605B9012601E0022600BF00BF01
:1083A000012E0FD0207B314600F058F8054625B14C
:1083B000064800684169032088470448006841690D
:1083C0000220884770BD0000F8580020B04300200C
:1083D00070B505460E4600BF1E48006820B11D4816
:1083E000406808B1012000E0002000B970BD00BF66
:1083F000184800F10801426828469047044600BF2B
:10840000082C24D07CB90020134909684876012142
:10841000022000F023F80446CCB10F4800684169FF
:108420000320884713E000200B490968487606219D
:10843000022000F013F8044624B10748006841699F
:10844000032088470448006841690220884700BF2C
:10845000CCE70000E8580020B0430020F0B587B01A
:1084600004460D46032700200190029003900490DB
:108470000320069020208DF814008DF815408DF80B
:1084800016500E48C088ADF8040002208DF8060092
:108490000020ADF8080006A8039005A8049007493D
:1084A000888801A9AEDF064626B9BDF81800032862
:1084B00000D00C26304607B0F0BD0000CC5800209C
:1084C0007FB5044600BF01208DF80E0041F60A007A
:1084D000ADF80C0000BF564A03A90120A8DF0546ED
:1084E00015B1284604B070BD208800280DDD514824
:1084F000009094F83C30228842F62920616800F010
:10850000A7FE05460DB12846ECE7208900280DDDC1
:108510004948009094F83C30228942F62420E168D2
:1085200000F096FE05460DB12846DBE7208A0028BC
:108530000DDD4248009094F83C30228A42F6252016
:10854000616900F085FE05460DB12846CAE7208B1B
:1085500000280DDD3A48009094F83C30228B42F61A
:108560002720E16900F074FE05460DB12846B9E701
:10857000208C00280DDD3348009094F83C30228C8C
:1085800042F62620616A00F063FE05460DB12846DA
:10859000A8E7208D00280DDD2B48009094F83C3092
:1085A000228D42F62820E16A00F052FE05460DB108
:1085B000284697E7206B90B101A8216B08F048FD91
:1085C0002248009094F83C30082201A942F623206A
:1085D00000F03EFE05460DB1284683E700BF606B04
:1085E00070B11B48009094F83C30606B02790168D0
:1085F00042F62A2000F02CFE05460DB1284671E710
:10860000A06B90B101A8A16B06F0B5FF11480090D6
:1086100094F83C30072201A942F6502000F018FEE1
:1086200005460DB128465DE700BF00205AE700006F
:1086300054420020564200205E4200206642002044
:108640006E420020764200207E42002086420020BA
:108650008E42002096420020F8B505460F46288835
:10866000212847D006DC10280BD0112833D013283E
:1086700072D14FE03B2871D052285CD05628F7D1F8
:108680007AE04649464A891AC908032242EA01406B
:1086900044A104F003FC072000F06AFB044600BF7D
:1086A000264626B100BF3046FEF7CAFE00BF00BF17
:1086B000A8883F490880084601883E4803F088FAA8
:1086C000044600BF264626B100BF3046FEF7B8FE7E
:1086D00000BF00BF5FE03149314A891AC90803224F
:1086E00042EA014034A104F0D9FB4FF6FF70304953
:1086F000088050E000200090A88869468FDF04467B
:1087000000BF264626B100BF3046FEF799FE00BFE7
:1087100000BF40E000231A468521254800887FDFFE
:10872000044600BF264626B100BF3046FEF788FE4D
:1087300000BF00BF2FE000231A4619461C480088DE
:10874000B1DF044600BF264626B100BF3046FEF723
:1087500077FE00BF00BF1EE01CE0FFE7A8881321E2
:1087600076DF044600BF264626B100BF3046FEF73E
:1087700067FE00BF00BF0EE0A888132176DF044625
:1087800000BF264626B100BF3046FEF759FE00BFA7
:1087900000BF00E000BF00BFF8BD0000D42F030001
:1087A000442F0300436F6E6E6563746564000000C0
:1087B000A2410020F8430020446973636F6E6E6528
:1087C000637465640000000070B505460E46288895
:1087D000102802D011282CD115E01748006860B984
:1087E00000F094FF044600BF34B11448006818B18B
:1087F000204612490968884700BF0F480068401C9E
:108800000D49086016E00C480068401E0A490860DF
:108810000846006860B9FEF737FD044600BF34B172
:108820000648006818B1204604490968884700BF17
:1088300000E000BF00BF70BD48420020444200205D
:1088400070B504460D462088102806D0112808D09F
:1088500012280ED0502810D107E0204606F0FAF872
:108860000CE0204606F058FA08E0204606F046FCE8
:1088700004E0204606F0D6F800E000BF00BF70BD5F
:108880002DE9F04104460F46A6882088102806D01E
:10889000112817D019283DD01A2848D116E007F022
:1088A0004DFA304607F0CEF820B900BF0420FEF79D
:1088B000C7FD06E0E07B012803D031461D4802F0E9
:1088C000DAFF34E0304607F035FB30E0207A050966
:1088D000042D01DB012000E000200246314615484E
:1088E0000C3001F0CAFF032D01DB012000E0002065
:1088F000024631460F48083001F0BFFF022D01DB70
:10890000012000E00020024631460A48001D01F027
:10891000B4FF0CE0207A48B9607AC0F3C0052A465B
:10892000314604480C3001F0A8FF00BF00BF00BF73
:10893000BDE8F081944C002070B58EB004460E4620
:108940003E4B0FCB09AD0FC500BF14B90E200EB0C2
:1089500070BD00BF00BF0EB90E20F8E700BF306841
:10896000A061214609A862DF054600BF284600B184
:10897000EDE700BF20788DF836000120ADF8340017
:10898000A21C0DA9A8DF054600BF284600B1DEE7FE
:1089900000BF202101A8FDF782FD0220ADF80400F0
:1089A00020788DF80600F420ADF808000120ADF81D
:1089B0000A008DF810009DF8110020F00800083022
:1089C0008DF811009DF8110020F00400001D8DF8B5
:1089D000110001208DF815008DF81600608804F153
:1089E0000C0201A900F07CFC05460DB12846AEE75B
:1089F000202101A8FDF753FD0320ADF804002078E5
:108A00008DF80600F420ADF808000120ADF80A004A
:108A10008DF810009DF8110020F0100010308DF836
:108A2000110001208DF815008DF816008DF8170043
:108A30006088221D01A900F053FC88E7301F030065
:108A400070B504460D4605B104B970BD2E462088A8
:108A5000102804D0502807D057280FD109E021460C
:108A6000304606F02FF80AE02146304606F072FB49
:108A700005E02146304606F047FA00E000BF00BF9F
:108A800000BFE2E770B504460D462846FDF712FD2B
:108A90002080656070BD70B50446204608F0E4FE95
:108AA0000546C5F3400070BD70B50446204608F089
:108AB000DBFE054605F0010070BD2DE9F0410546DD
:108AC0000E46002432782146641C6A54727821468E
:108AD000641C6A5400BF022C01D1012000E0002078
:108AE000074627B900BF0020FEF7AAFC00BF00BF61
:108AF0002046BDE8F08138B504F0D4FE044600BF3E
:108B0000254625B100BF2846FEF79AFC00BF00BFEE
:108B1000002000906946012004F0E2FC044600BFFA
:108B2000254625B100BF2846FEF78AFC00BF00BFDE
:108B3000684604F0A5FD044600BF254625B100BFE8
:108B40002846FEF77DFC00BF00BF012032DF04464F
:108B500000BF254625B100BF2846FEF771FC00BFC7
:108B600000BF01203FDF044600BF254625B100BFFE
:108B70002846FEF765FC00BF00BF38BD10B50246B1
:108B80000949885C00BF4FF0A0442146D1F8043564
:108B9000012484409C43C1F80845012484401C40C2
:108BA000C1F80C4500BF10BDE41E030010B504461B
:108BB0000249085D012103F034FE10BDE41E0300EC
:108BC00010B504460249085D002103F02AFE10BDDD
:108BD000E41E030010B50146094B585C00BF4FF07E
:108BE000A044234600BFD3F80445C44004F0010468
:108BF0000CB1012000E00020024682F0010010BD0F
:108C0000E41E030010B5002403E02046FFF7CEFF6A
:108C1000641C042CF9D310BD10B5002403E02046D9
:108C2000FFF7CEFF641C042CF9D310BD02464FF0B1
:108C3000FF30002106E0054B5B5C934201D1084602
:108C400002E0491C0429F6D300BF7047E81E030068
:108C50002DE9F04106460F464FF00008002430464B
:108C6000FFF7E4FF0446042C3ED20FB3012F02D0DD
:108C7000022F38D130E004EB4400214911F8008084
:108C800004EB44000844407850B11E4A4FF4804140
:108C90001D480068FEF762FC05460DB919480670CC
:108CA00004EB4400164908448078184908551AE036
:108CB00015480068FEF76DFC1448005D04EB4401A4
:108CC0000F4A11448978884205D104EB44001146CB
:108CD000084490F8028006E004EB44000849084488
:108CE00090F8018000BF00BFB8F1000F06D008481F
:108CF000006818B14046064909688847BDE8F08118
:108D0000084C00203C420020F41E03003D4200209D
:108D10003842002030B503460020042B23D2012A1C
:108D200007D1012903D103F10E04E4B200E00024CD
:108D3000224679B1012902D0022911D104E003EBC6
:108D400043040A4D2A550DE003EB4304074D2C4420
:108D5000627007E003EB4304044D2C44A27001E071
:108D6000072000BF00E0072030BD0000084C0020B5
:108D700070B5044600250548007800F0010018B1E0
:108D8000204600F005F80546284670BD3042002018
:108D90002DE9F047044600260025DA48007820B186
:108DA0000020D849087002F0E7FA182C7ED2DFE8DC
:108DB00004F00C16174A7EB2F6F4F3F2F1F0EFEE7F
:108DC000EDECEBEAE9E8E7E6E5E402F0D5FACE48B7
:108DD0000068FEF7DEFB0646CC4804708DE100BF5C
:108DE0000020FFF7F7FE58B10020FFF7DFFE022C4E
:108DF00002D14FF4E16001E04FF47A60054609E0EA
:108E00000020FFF7DDFE022C01D1C82001E04FF465
:108E1000C8700546BD4804704FF40040A5FB001023
:108E20004FF47A73CF1840F100015A0000233846FE
:108E3000FDF7D8FA814600224946B3480068FEF79C
:108E40008DFB064659E10020FFF7C4FE58B1002013
:108E5000FFF7ACFE032C02D14FF4487001E04FF451
:108E60007A60054609E00020FFF7AAFE032C01D135
:108E7000C82001E04FF4C8700546A44804704FF4C0
:108E80000040A5FB00104FF47A728F1840F10001EA
:108E9000520000233846FDF7A5FA814600224946D4
:108EA00099480068FEF75AFB064626E124E10020B7
:108EB000FFF790FE58B10020FFF778FE042C02D196
:108EC0004FF47A6001E04FF47A6005460AE0002032
:108ED000FFF776FE042C02D14FF4C87001E04FF486
:108EE000C8700546894804704FF40040A5FB001087
:108EF0004FF47A73CF1840F100015A00002338462E
:108F0000FDF770FA8146002249467F480068FEF767
:108F100025FB0646F1E00020FFF75CFE50B1002083
:108F2000FFF744FE052C01D1C82001E04FF47A6020
:108F3000054609E00020FFF743FE052C01D1C820BB
:108F400001E04FF4C8700546704804704FF40040CB
:108F5000A5FB00204FF47A73D71840F100015A00A6
:108F600000233846FDF73EFA81460022494666480E
:108F70000068FEF7F3FA0646BFE0B8E0B6E0AAE004
:108F8000A1E098E092E05FE05DE05BE059E057E04F
:108F900051E042E033E024E015E00EE0FFE700207E
:108FA000FFF7ECFD59480470002240F26661564814
:108FB0000068FEF7D3FA06469FE00020FFF700FEA8
:108FC0005248047099E001204E490870FFF7D6FD21
:108FD000002240F266614C480068FEF7BFFA064680
:108FE0008BE0012047490870FFF7C8FD00224FF4CD
:108FF000005145480068FEF7B1FA06467DE00120C1
:1090000040490870FFF7BAFD002240F266613E4811
:109010000068FEF7A3FA06466FE0012039490870A0
:10902000FFF7ACFD00224FF4005137480068FEF70F
:1090300095FA064661E0FFF7EFFD344804705CE006
:1090400000BF00BF00BF00BF31480068FEF7A1FAB3
:109050000646C4F1110515B30EBB012D18D9A8B2EF
:10906000C82148434FF4004180FB01104FF47A724D
:109070008F1840F10001520000233846FDF7B2F985
:1090800081460022494622480068FEF767FA0646F4
:109090000220FFF795FD01201E49087005E002201F
:1090A000FFF784FD00201B49087026E002F064F9F8
:1090B0001648047021E002F05FF90020FFF780FD00
:1090C0001248047019E002F057F90120FFF778FD0B
:1090D0000E48047011E002F04FF90020FFF770FD18
:1090E0000120FFF76DFD0948047006E000BFFFF79F
:1090F00093FD0648047000E000BF00BF3046BDE8A5
:10910000F08700002D420020EC1E03002C420020BE
:10911000F01E0300344200202DE9FC4704460D46B2
:109120001646A71C4FF001080020019001A8FEF789
:1091300009FB3048006828602E4800682D494968BE
:10914000411A2C488068401CA0EB010915E0012160
:10915000294802F0B4FB02F04DF9824651462648F8
:1091600002F0ADFB2348006822494968411A2148B2
:109170008068401CA0EB010900BF4F45E7D8B8F15B
:10918000000F30D00021009176B1009921F0030149
:10919000491C0091009921F00401091D00910099DA
:1091A00064F3891100910DE0009921F00301891CFD
:1091B0000091009921F00401091D0091009964F3C8
:1091C0009F5100910B4909680A4A92681140094A67
:1091D0000C3202EB810000990160064909683944AC
:1091E0000C3A116000BF9DF80400FEF7B1FA40464A
:1091F000BDE8FC87205200203C56002070B5044694
:109200000D46A168481CA06020684554D4E90110AF
:10921000884202D3204602F094FE70BD04484068A4
:1092200003490968884201D1012070470020FCE70A
:10923000205200200146024850F8210070470000EB
:10924000184D00200146014840567047484D002007
:109250002DE9F04389B006460D4614461F46DDF859
:10926000408000BF0DB1012000E000208146B9F12F
:10927000000F04D100BF0020FEF7E2F800BF00BFDE
:1092800000BF002C01DD012000E000208146B9F183
:10929000000F04D100BF0020FEF7D2F800BF00BFCE
:1092A000202101A8FDF7FBF8ADF80460ADF80840F7
:1092B000ADF80A4003959DF8110020F00200801CD3
:1092C0008DF811008DF81570424601A903480088F9
:1092D00000F006F809B0BDE8F08300005442002019
:1092E00070B590B006460C461546A07818B9012016
:1092F0008DF80E0002E0A0788DF80E002088ADF801
:109300000C0000200290607C02A907F09DFAA07C6E
:109310000DF1090107F098FAE07B08B1012000E0A7
:1093200000209DF80A1060F3C3018DF80A10207C1C
:1093300008B1012000E000209DF80A1060F304113C
:109340008DF80A10207B08B1012000E000209DF874
:109350000A1060F300018DF80A10207D08B1022088
:1093600000E001209DF80A1060F342018DF80A1018
:109370001C2109A8FDF793F8607BC0F3001018B911
:10938000607BC0F34010F8B100200090E07C0DF14C
:10939000010107F059FA00BF9DF8000020F00F000E
:1093A000401C8DF800009DF8000020F0F000103007
:1093B0008DF8000000BF9DF8020020F00600801C20
:1093C0008DF80200CDF838D0607B8DF82400A07BAA
:1093D0008DF82500142104A8FDF761F803A8049076
:1093E00002A80590A088ADF81C00A06820B1E08814
:1093F000ADF81800A0680890A069002849D00020A6
:109400000190A0690088ADF82C00A0694088ADF8F3
:109410002E00A06940680A9001A80D90A169087B00
:1094200001A907F011FAA169487B0DF1050107F0C8
:109430000BFAA069807A08B1012000E000209DF8B5
:10944000061060F3C3018DF80610A069C07A08B158
:10945000012000E000209DF8061060F304118DF853
:109460000610A069007A08B1012000E000209DF8F4
:10947000061060F300018DF80610A069807B08B12A
:10948000022000E001209DF8061060F342018DF8F3
:109490000610E06908B1E0690C902B4604AA09A9FE
:1094A0003046AADF10B070BD70B505460DB9094C45
:1094B00001E0084C083409E0204601F056FF06465A
:1094C00006B904E028467168884700BFF4E700BF8A
:1094D00070BD00000C4D002010B504462CB90120D1
:1094E000064948700020FFF7DFFF012C04D101205E
:1094F00002498870FFF7D8FF10BD0000044D00201E
:109500002DE9F047024613468C46D3E90245DCE9D3
:109510000267B6EB040877EB050002D30120BDE833
:10952000F0870020FBE701468878012805D191F8F3
:109530002000012801D100207047886A042802D049
:10954000486A042801D10020F6E70120F4E733B58A
:109550008BB00546002000900C9878B100240BE0F9
:1095600021460CA802F078F928B1009A501C00900E
:1095700001A820F81240641C142CF1D32C22694657
:109580002846FCF773FF0DB030BD01460888062859
:1095900008DB0888B0F5486F06DD08884FF6FF72D3
:1095A000904201D0072070474888062808DB488889
:1095B000B0F5486F06DD48884FF6FF72904201D043
:1095C0000720F0E708884FF6FF72904208D04888DD
:1095D000904205D008884A88904201DD0720E2E7E2
:1095E0000020E0E72DE9F04107460D461446984675
:1095F0002088801D404502D90C20BDE8F081384606
:10960000FFF7C3FF064600BF304600B1F5E700BFD5
:109610000520218868542088401C20801220218841
:1096200068542088401C208022885119388808F00E
:1096300021F921880844208022885119788808F06F
:1096400019F92188084420800020D6E710B5044687
:1096500000BF2046FDF7F4FE00BF10BD30B587B057
:109660001C216846FCF71BFF002000904FF4A0303F
:1096700001904FF4F020029003208DF80C000020A0
:10968000ADF80E008DF810000948059009480690C5
:109690006846FEF741FD044600BF254625B100BFE0
:1096A0002846FDF7CDFE00BF00BF07B030BD00006B
:1096B000F9E902004D960200F8B505460C46607ABD
:1096C00088B9207A10B91048476801E00E488768C9
:1096D0002A4639466068FDF741FF064616B1304616
:1096E00006F0EEFE0EE0002020720748406948B107
:1096F00001208DF80000ADF802500348416968462A
:10970000884700BFF8BD00006C4C002010B5012256
:1097100000210846FFF7FEFA044600BF1CB1072CE3
:1097200001D0204610BD00BF072202210120FFF713
:10973000F1FA044600BF1CB1072C01D02046F1E726
:1097400000BF042202210020FFF7E4FA044600BF14
:109750001CB1072C01D02046E4E700BF0020E1E760
:109760002DE9FF4105460C46002002900390ADF81C
:109770000840ADF80A40009001906A4602A92846C8
:1097800090DF0646002E32D0304604F0D3F907466B
:1097900019491A4A891AC908012242EA01403B467E
:1097A0002A46174903F090FBBDF8000010B9BDF838
:1097B000020068B1BDF80230BDF800200E490F4F1D
:1097C000C91BC908012747EA01400EA103F07CFB31
:1097D000BDF8040058B1BDF804200749074BC91A69
:1097E000C908012343EA0140164903F061FB3046F2
:1097F00004B0BDE8F0810000442F0300442F0300B3
:109800005026030054686520726571756573746530
:10981000642054582F5258207061636B6574206C1B
:10982000656E67746820697320746F6F206C6F6E4B
:10983000672062792025752F2575206F6374657404
:10984000732E00009C26030070B506460D4616B127
:109850004FF4064070BD287920B1012809D00228B4
:1098600015D111E002202871284606F049F9044676
:1098700010E0284600F0D0FF044648F20960844218
:1098800001D141F61D5405E041F61D5402E048F2B5
:109890000E6400BF00BF2046DCE770B588B0054607
:1098A0000C461646142103A8FCF7F9FDA07818B958
:1098B00001208DF80A0002E0A0788DF80A002088C7
:1098C000ADF8080002A80390A07901A906F0BCFF3A
:1098D000E0790DF1050106F0B7FFE07808B101204D
:1098E00000E000209DF8061060F3C3018DF806101B
:1098F000207908B1012000E000209DF8061060F3F7
:1099000004118DF80610607908B1012000E00020F4
:109910009DF8061060F300018DF80610207A08B15A
:10992000022000E001209DF8061060F342018DF84E
:10993000061001A804906089ADF81400A089ADF864
:109940001600E089ADF8180020690790324603A997
:109950002846ABDF08B070BD00B591B0402101A82A
:10996000FCF79DFD07A101A8FFF78CF80AA10BA841
:10997000FFF788F801208DF8400001A8FEF7A0FD50
:1099800011B000BD4E6F7264696353656D69636F9A
:109990006E647563746F720053573A302E31000055
:1099A00010B50021034801F0C1FF044684F3100004
:1099B00010BD00003C56002070B505460C464FF423
:1099C000803000FA04F1284600F016FC70BD70B536
:1099D00005460C464FF4A07000EB840086B2314679
:1099E000284600F023FC70BD2DE9F04704460D46E3
:1099F00016461F464FF4803000FA05F84FF4A07069
:109A000000EB85001FFA80F926F07F46414620686A
:109A100003F014FD4146206803F00AFD4946206822
:109A200003F0FFFC32462946206803F0F1FC414672
:109A3000206803F000FD1FB14146206803F001FDDE
:109A4000BDE8F08710B50446206803F0E6FC10BDC1
:109A50002DE9F04704460D46174660792F4941F835
:109A6000207060792E4901EBC000007968B10826AA
:109A70002C492D4A891AC908022242EA01402BA129
:109A800003F00CFA3046BDE8F08729882068C0F85A
:109A9000081500BF94F90420AB7810461946002839
:109AA0000CDA4FEA417C4FEA1C69DFF8A4C000F0F1
:109AB0000F08A8F104080CF8089007E04FEA417C71
:109AC0004FEA1C68DFF88CC00CF8008000BF00BFB4
:109AD00094F9040000BF00F01F02012191404209E7
:109AE000920002F1E022C2F8001100BF00BF012085
:109AF00061790B4A02EBC10108716079114641F8A6
:109B0000304000260749084A891AC908032242EA58
:109B1000014011A103F0C2F93046B4E70043002030
:109B200004430020B42F0300442F03005254432069
:109B3000696E7374616E636520616C7265616479CE
:109B400020696E697469616C697A65642E00000031
:109B500018ED00E000E400E05254433A20696E69D9
:109B60007469616C697A65642E00000010B5014665
:109B700091F9040000F01F0301229A40024B4409AE
:109B800043F8242000BF10BD00E200E070B5054698
:109B90000C4622460221284600F03AFB70BD10B563
:109BA00004464FF48271204600F040FB10BD10B512
:109BB00004460021206803F047FC10BD10B50446A0
:109BC0000421206803F040FC10BD2DE9F84F044645
:109BD0000D46164699464FF4803000FA05FB4FF4C7
:109BE000A07000EB850080B2009026F07F465946B9
:109BF000204600F001FB206803F00FFC07462068B8
:109C000000F5A86151F825108A463A462946206891
:109C100003F0FEFB2068009903F003FC3946504630
:109C200007F05CFA012806D1102004F047F82068FC
:109C3000009903F0F6FB206803F0EFFB0746394676
:109C4000304607F04BFA80465946206803F0F3FB94
:109C5000B8F1010F0FD1721C2946206803F0D8FB20
:109C6000102004F02BF8206803F0D7FBB84227D06F
:109C70000D20BDE8F88F32462946206803F0C8FB66
:109C8000206803F0CAFB0746701E394607F026FA23
:109C900080466FF07F40A0EB0900404501D20D20C7
:109CA000E7E7B8F1000F0BD1721C2946206803F0DA
:109CB000AFFB206803F0B1FBB84201D00D20D8E71C
:109CC00001225946204600F0A3FA0020D1E7000007
:109CD00010B510480068407E60B106210120FEF7F3
:109CE000BDFB044624B10B48006841690320884746
:109CF000002010BD012007490968087601210846A7
:109D0000FEF7ACFB04461CB1002002490968087646
:109D10002046EEE7B04300202DE9F84305460E4605
:109D20001746984669461048006801F04EFD044603
:109D300014B90420BDE8F8831C212046FCF7AFFBD2
:109D4000012020712560C4F8088008480068B6FB2F
:109D5000F0F0E060676169460348006801F05FFD6C
:109D600005F040FE0020E5E7E4220300D8220300CE
:109D700010B50446D4E90321501828DF10BD0000B7
:109D800014480068401C38B913480178124808305C
:109D90000078C0F3031205E00E4801684FF08050D0
:109DA000D0F83421062912D1032A06D0042A06D07D
:109DB000052A06D0062A08D105E0012070470120B7
:109DC000FCE70120FAE70120F8E70120F6E7002090
:109DD000F4E7000030010010E00F00F014480068C4
:109DE000401C38B913480178124808300078C0F395
:109DF000031205E00E4801684FF08050D0F834217E
:109E0000062912D1032A06D0042A06D0052A06D034
:109E1000062A08D105E0012070470120FCE7012057
:109E2000FAE70120F8E70120F6E70020F4E7000058
:109E300030010010E00F00F014480068401C38B9F1
:109E400013480178124808300078C0F3031205E087
:109E50000E4801684FF08050D0F83421062912D105
:109E6000032A06D0042A06D0052A06D0062A08D1DD
:109E700005E0012070470120FCE70120FAE70120FE
:109E8000F8E70120F6E70020F4E7000030010010B9
:109E9000E00F00F00E4802780D4808300078C0F35B
:109EA0000311062A12D1032906D0042906D0052958
:109EB00006D0062908D105E0012070470020FCE704
:109EC0000020FAE70020F8E70020F6E70020F4E79A
:109ED000E00F00F00E4802684FF08050D0F83411C7
:109EE000062A12D1032906D0042906D0052906D056
:109EF000062908D105E0002070470020FCE700207B
:109F0000FAE70120F8E70120F6E70020F4E7000077
:109F10003001001014480068401C38B9134801781B
:109F2000124808300078C0F3031205E00E480168BB
:109F30004FF08050D0F83421062912D1032A06D0E0
:109F4000042A06D0052A06D0062A08D105E00120F9
:109F500070470120FCE70120FAE70120F8E7012023
:109F6000F6E70020F4E7000030010010E00F00F0F9
:109F70000E4802780D4808300078C0F30311062A15
:109F800012D1032906D0042906D0052906D00629B6
:109F900008D105E0012070470020FCE70020FAE727
:109FA0000020F8E70020F6E70020F4E7E00F00F0DB
:109FB00014480068401C38B913480178124808302A
:109FC0000078C0F3031205E00E4801684FF080509E
:109FD000D0F83421062912D1032A06D0042A06D04B
:109FE000052A06D0062A08D105E001207047012085
:109FF000FCE70120FAE70120F8E70120F6E700205E
:10A00000F4E7000030010010E00F00F00E48027885
:10A010000D4808300078C0F30311062A12D1032935
:10A0200006D0042906D0052906D0062908D105E066
:10A03000012070470020FCE70020FAE70020F8E745
:10A040000020F6E70020F4E7E00F00F00E48027869
:10A050000D4808300078C0F30311062A12D10329F5
:10A0600006D0042906D0052906D0062908D105E026
:10A07000012070470020FCE70020FAE70020F8E705
:10A080000020F6E70020F4E7E00F00F01448006835
:10A09000401C38B913480178124808300078C0F3E2
:10A0A000031205E00E4801684FF08050D0F83421CB
:10A0B000062912D1032A06D0042A06D0052A06D082
:10A0C000062A08D105E0002070470020FCE70120A7
:10A0D000FAE70120F8E70120F6E70020F4E70000A6
:10A0E00030010010E00F00F00278072A38D2DFE8D4
:10A0F00002F037040712222B340000220A7030E0ED
:10A1000001220A7003898B818388CB81C2688A60AF
:10A1100000230B7425E002220A7003898B81838857
:10A12000CB81C2688A60827D062A01D1012300E0CA
:10A1300000230B7415E003220A70C3888B81038906
:10A14000CB81C2688A600CE004220A70C3888B81CC
:10A150000023CB8100228A6003E005220A7000E020
:10A1600000BF00BF7047000030B587B004460D4601
:10A170002068806808B907B030BD182101A8FCF735
:10A180008EF90295A0680690207910B1012815D1AA
:10A1900009E001208DF8040020690390E068049034
:10A1A000606905900BE002208DF804000749E06823
:10A1B0000968484303906069059000E000BF00BF54
:10A1C0002068816801A8884700BFD4E7D82203002F
:10A1D00070B50546002409E0064850F8240020B177
:10A1E000044850F8241028468847641C042CF3D3F4
:10A1F00070BD0000984F002070B504460D462946FA
:10A20000206803F015F92946206803F017F970BD9E
:10A2100070B504460E4615463146206803F00BF92A
:10A220001DB13146206803F00CF970BD70B50546CC
:10A230000C462868015929B12146286803F0F1F835
:10A24000012070BD0020FCE70146A1F50640024A4E
:10A2500052F8200070470000D441002070B5044639
:10A26000606870B921783E4B53F821203D493E4B40
:10A27000C91AC908032343EA01403CA102F018FEB1
:10A2800012E06068FFF7E0FF05462178344B53F891
:10A2900021203449344BC91AC908032343EA014039
:10A2A0002B463CA102F010FE207820B1012808D0F6
:10A2B000032851D129E0606810B901203D49087098
:10A2C0004BE0606800BB2749274BC91AC908032324
:10A2D00043EA014038A1A26802F0EAFDA2892149BF
:10A2E000214BC91AC908032343EA014037A102F0F0
:10A2F000DFFDE2891B491C4BC91AC908032343EA45
:10A30000014036A102F0D4FD27E0606800BB15498A
:10A31000154BC91AC908032343EA014026A1A268C4
:10A3200002F0C6FDA2890F490F4BC91AC9080323C1
:10A3300043EA014025A102F0BBFDE28909490A4B2D
:10A34000C91AC908032343EA014024A102F0B0FD61
:10A3500000202749487000E000BF00BF70BD00002A
:10A36000AC410020D42F0300442F03001B5B313B82
:10A3700033326D4576656E743A20257320726563BD
:10A38000656976656420284E52465F5355434345C0
:10A39000535329001B5B313B33326D4576656E7438
:10A3A0003A202573207265636569766564202825E7
:10A3B00073290000D24100205265636F7264204906
:10A3C000443A0930782530347800000046696C65DD
:10A3D0002049443A09307825303478005265636F5B
:10A3E0007264206B65793A09307825303478000042
:10A3F000D041002070B586B0142101A8FCF74FF8B9
:10A400002E48007828B101A8FFF7E2FE002006B030
:10A4100070BD2A48001D01F04BFA08B10020F6E794
:10A4200000F096FA06460EB13046F0E705F002FA63
:10A4300004F0DEFF054625B1022D03D0062D0ED116
:10A4400003E000BF48F20A60E1E701201B49087001
:10A450000020486001A8FFF7BBFE0020D7E700BF3F
:10A4600000BF684605F0AAF9044614B948F207602F
:10A47000CDE7012020700C2D16D2DFE805F015067F
:10A48000150715111512150A0E0B00BF00202071BB
:10A490000BE000BF0320207107E00220207104E0E0
:10A4A00000BF0120207100E000BF00BF684605F03A
:10A4B00095F905F0A5FA0020A9E700002043002047
:10A4C00038B5044614B948F2046038BD69462046E0
:10A4D00005F034FB08B3BDF8000000EB8000114923
:10A4E00001EB8000C068A8B1A07A98B1BDF8000067
:10A4F00000EB800001EB8000C068401EBDF800103A
:10A5000001EB8101074A02EB8101C8600020A072C3
:10A51000002504E048F2056501E048F20965284697
:10A52000D3E700004450002070B504460D462B468A
:10A5300022460021084605F099FA70BDF8B5044698
:10A540000D4604B115B948F20460F8BD69462046CD
:10A5500005F0F4FAA0B16668BDF8001001EB8101C6
:10A56000094A02EB810101F10C00012101F0A7F978
:10A570002E6060680C3068600120A0720020E4E763
:10A5800048F20960E1E700004450002070B504463D
:10A590000D46022300222946204607F015FB70BD18
:10A5A00070B5054609480068042802D148F20B64DA
:10A5B00009E007480549096840F82150012103488E
:10A5C00001F07DF90024204670BD00002C430020DE
:10A5D000984F00202DE9F84304464FF48068002688
:10A5E0002B48007818B948F20160BDE8F88314B927
:10A5F00048F20460F9E712212046FBF750FF0320E0
:10A60000208000253FE005EB8500224901EB80001A
:10A61000008905EB85011F4A02EB81014989084445
:10A6200087B205EB850102EB8101486804F05CFE0E
:10A63000032802D12088401E2080608805EB850118
:10A64000144A02EB8101C96808446080208905EB47
:10A65000850102EB810149890844208160893844E1
:10A660006081C7F5806086B2A089B04200DAA68119
:10A6700004F11000831EA21D211D0090284605F044
:10A68000E3FC681C85B2022DBDDB0020ADE70000B5
:10A69000204300204450002030B585B02849294A85
:10A6A000891AC908032242EA014027A102F0F6FBF9
:10A6B0002B48FFF775FF2249224A891AC90803224D
:10A6C00042EA014027A102F0E9FBFFF793FE0446AE
:10A6D00000BF254625B100BF2846FCF7B1FE00BFEC
:10A6E00000BF07F033FA14216846FBF7D8FE68462E
:10A6F000FFF770FF044600BF254625B100BF28467E
:10A70000FCF79EFE00BF00BFBDF804200C490D4BB6
:10A71000C91AC908032343EA014017A102F0C8FB84
:10A72000BDF806200649074BC91AC908032343EAA6
:10A73000014017A102F0BCFB012005B030BD0000B4
:10A74000D42F0300442F0300464453206578616DE5
:10A75000706C6520737461727465642E0000000073
:10A760005DA20200496E697469616C697A696E67FD
:10A77000206664732E2E2E00466F756E642025644D
:10A780002076616C6964207265636F7264732E0059
:10A79000466F756E64202564206469727479207236
:10A7A00065636F7264732028726561647920746FC9
:10A7B000206265206761726261676520636F6C6CFF
:10A7C0006563746564292E0070B504460D462A46FB
:10A7D0000021204600F00EF8A068401CA06070BD6B
:10A7E00001468A68C868801A704701468A68C86846
:10A7F000801A704710B583680B448488234004682E
:10A80000E35C137010BDC26883881A4003689954D2
:10A81000C268521CC26070473EB504460A4B6A4685
:10A820000021A01D05F022F9054635B9064A918898
:10A83000019805F0FDF9054603E003480021016099
:10A84000416028463EBD00003C43002010B5044650
:10A85000E07FFF2808D0A07F18B1E07F01F0B5FFAE
:10A8600002E0E07F01F0D2FF00206077207204F167
:10A870000800D4E90021904710BD70B505460E468A
:10A88000144624B13146284600F0F5FF03E0314676
:10A89000284600F0D2FF70BD30B504461088C01CB9
:10A8A000984201D90C2030BD0220158848551088E7
:10A8B000401C10800120158848551088401C1080CD
:10A8C00015884C551088401C10800020EBE770B5AF
:10A8D00004460D4640F21442115B0122D4F81004E4
:10A8E000FDF7E1F9064606B1357004F13C0204F5C6
:10A8F000826104F1540072DF70BD000010B54FF4A6
:10A90000405400F009F80349086108460069001B3B
:10A91000C86010BDB843002010B540F6F87000685C
:10A92000401C18B94FF01020406902E040F6F87062
:10A93000006803464FF0805001694269581C08B115
:10A94000184601E002FB01F00446204610BD00005D
:10A9500010B5FFF7D3FF00220249034801F0B0FC15
:10A9600010BD0000E8220300B843002010B50446E3
:10A97000606804F0D5FF10BD3EB500BF9DF8000033
:10A9800020F00F00401C00909DF8000020F0F00027
:10A990001030009000BF0C2214A168467CDF0446F2
:10A9A00000BF254625B100BF2846FCF749FD00BF82
:10A9B00000BF0020019002901020ADF804003C2060
:10A9C000ADF806000020ADF808004FF4C870ADF8EF
:10A9D0000A0001A87ADF044600BF254625B100BF62
:10A9E0002846FCF72DFD00BF00BF3EBD57696C6CCB
:10A9F00069616D5F554152540000000070B5054615
:10AA00000C4660880D490988884215D1208840F697
:10AA10007721884210D1A088C01E094908800949C1
:10AA2000094A891AC908032242EA014004490B88ED
:10AA30000A8806A102F048FA70BD0000A241002079
:10AA4000A4410020D42F0300442F0300446174610B
:10AA5000206C656E2069732073657420746F2030DC
:10AA6000782558282564290070B50E490E4801F054
:10AA700010F8044600BF254625B100BF2846FCF764
:10AA8000DFFC00BF00BFF721074800F0F3FF0446DA
:10AA900000BF254625B100BF2846FCF7D1FC00BF0A
:10AAA00000BF70BDFDA90200E443002070B505465B
:10AAB00015B14FF4064070BD1848007B18B1002056
:10AAC0001649087301E000F0DFF814480078082800
:10AAD0001DD2DFE800F01C04080C101C141800F054
:10AAE0003FF8044616E000F0BDF8044612E000F01E
:10AAF00099F804460EE000F047F804460AE000F03A
:10AB00002DF9044606E000F03BF9044602E048F265
:10AB10000E6400BF00BF2046CDE700006C5000204F
:10AB20000D480089401C0C490881002048800873AA
:10AB300000BF0DE000EB8001084A12F8211009B9AE
:10AB4000012200E0002204490A310A54411C88B263
:10AB50000228EFDB704700006C50002044500020BA
:10AB600010B5084800F036F840B900200549891EA4
:10AB700008704880486041F61D5010BD00F072F822
:10AB8000FBE700006E50002070B50F48458805EBCC
:10AB900085000E4901EB8000C06878B904200A499D
:10ABA000087005EB8500094A02EB800000230122B2
:10ABB0004168074801F0CCFA044602E000F090F842
:10ABC0000446204670BD00006C5000204450002018
:10ABD000B843002010B501460022002018E00F4BBA
:10ABE0001B5C9BB100240D4B1C5400EB80030C4CF0
:10ABF00004EB8303DB684BB900EB800304EB8303B6
:10AC00001B7C012B02D10880012203E0431C98B277
:10AC10000228E4DB00BF104610BD00007650002083
:10AC200044500020F8B50C4844680C4800680B49B3
:10AC3000898800EB81056088C01C86B20320064924
:10AC400008700020B3000090084629464268044876
:10AC500001F0F6FBF8BD00006C50002034430020EA
:10AC6000B843002010B507494888091D04F0A4FF27
:10AC700018B1FFF7D7FF044602E0FFF785FF04464F
:10AC8000204610BD6C50002010B5144800780828EC
:10AC900020D2DFE800F0041F1F0A1016171BFFF771
:10ACA0003FFF01200D49087015E000F075F8022003
:10ACB0000A4908700FE000F029F8062007490870DB
:10ACC00009E000BF07200549087004E0012003499E
:10ACD000087000E000BF00BF10BD00006C500020F5
:10ACE00010B50520064908700220064988800846EC
:10ACF000002301220168044801F02AFA10BD000077
:10AD00006C50002034430020B843002010490868EC
:10AD10001049498801EB81010F4A02EB8101496822
:10AD20000B4A11600B49498801EB81010A4A02EB89
:10AD30008101486006498988064A528802EB8202EE
:10AD4000054B03EB820211810221014A9180704779
:10AD5000344300206C5000204450002010B50620E1
:10AD600005490870498801EB8101044A02EB810121
:10AD7000486804F01BFB10BD6C50002044500020BC
:10AD800010B50720034908700020486004F01EFB3E
:10AD900010BD00006C500020054A50684288D21C4B
:10ADA00091B2044A92880A44024B9A80704700008C
:10ADB0006C5000203443002070B50B48FEF742FE73
:10ADC0000A4B0CCB841843F10005094903C9201A2A
:10ADD00075EB010004D24FF08073E41845F10005D3
:10ADE0002046294670BD0000C0420020D04200200D
:10ADF000D842002070B504460D46204600F01DF8EC
:10AE0000A84201D9022070BDA0884FF6FF71884288
:10AE100004D0208810B1A068401C08B90120F2E7D6
:10AE20000020F0E7024613468B4204D21868401C0B
:10AE300008B1012070470020FCE701464A8801F173
:10AE40000C0000EB8200704710B501F025FE08B938
:10AE500002F062FA10BD000070B504460D460948C4
:10AE60006060094800F024FD50B902F075FD064904
:10AE700008741C238C2205490548006800F091FCE9
:10AE8000002070BDD8220300844F0020E84E00202F
:10AE9000E42203002DE9F04106460C4648F20E6715
:10AEA00036B10020434948604FF40640BDE8F081C8
:10AEB000207930B101280AD0022835D003286DD17D
:10AEC00040E00120207104F081FA074667E04FF06E
:10AED0000008002519E005EB8500374911F820002E
:10AEE000022810D1002005EB8501334A02F8210029
:10AEF0004FF0010805EB850102EB8101486804F081
:10AF000055FA074603E0681C85B2022DE3DB00BF5B
:10AF1000B8F1000F07D101202649087000204860D1
:10AF200041F61D50C2E73AE000202071022023497B
:10AF300088800846002301220168214801F008F9B1
:10AF400007462CE0002020711C49086804F02EFA06
:10AF500007461C4845881948D0F8008005EB850055
:10AF6000154901EB800040681449086005EB850035
:10AF7000114901EB8000C0F804801048808805EB7F
:10AF800085010D4A02EB8101088102200B4988806E
:10AF9000002005EB850102F8210000E000BF00BFA2
:10AFA0002FB100200349486048F20D607EE7002081
:10AFB0007CE7000020430020445000203443002060
:10AFC000B84300206C50002010B5054A0021054808
:10AFD000FCF77EFA044A01210448FCF779FA10BD17
:10AFE000F16A0200701E03004D6E0200741E030021
:10AFF000024600210CE001EB8100074B33F82000F2
:10B00000904204D101EB810003EB80007047491CA2
:10B010000029F0D00020F9E7584C00202DE9FC5F12
:10B0200083460E4691461F46DDE90C45002E01DAA7
:10B03000704200E0304682464FF0010803E09AFB80
:10B04000F9FA08F10108CA45F9DA474500D9B846C6
:10B0500034B1002E03DB05F00400042800D1641E87
:10B0600005F0020000B167B105F0010048B944B134
:10B0700004E0641E20215846FEF7C0F80CB1A0453C
:10B08000F7D3002E05DA76422D215846FEF7B6F8A2
:10B0900007E005F00400042803D12B215846FEF7F1
:10B0A000ADF805F0020002280DD105F0010050B9FD
:10B0B0004FB944B104E0641E30215846FEF79EF8B3
:10B0C0000CB1A045F7D33B464A4631465846CDE938
:10B0D000004506F0EDFBBDE8FC9F00002DE9F041C6
:10B0E00004460E464FF48E71206802F051FD4FF475
:10B0F000A271206802F04CFD1749206802F057FD4C
:10B10000206802F0EBFD0546374628463946002800
:10B1100009DA4A074FEA126C104A00F00F031B1FAE
:10B1200002F803C003E04A07130E0D4A135400BF90
:10B1300000BF206802F0D2FD0546284600F01F023D
:10B14000012191404209920002F1E022C2F800116F
:10B1500000BF00BFBDE8F0818000020018ED00E0F4
:10B1600000E400E02DE9F04104460E464FF48871FA
:10B17000206802F03DFD4FF49071206802F038FD28
:10B180004FF49271206802F033FD4FF4A2712068F1
:10B1900002F02EFD4FF4AC71206802F029FD184931
:10B1A000206802F035FD206802F09CFD0546374618
:10B1B00028463946002809DA4A074FEA126C114A34
:10B1C00000F00F031B1F02F803C003E04A07130E31
:10B1D0000D4A135400BF00BF206802F083FD0546EE
:10B1E000284600F01F02012191404209920002F11D
:10B1F000E022C2F8001100BF00BFBDE8F0810000EE
:10B200001003420018ED00E000E400E030B5024613
:10B2100000201378C3F38003D3B1137803F0030342
:10B22000012B02D0022B10D107E01388C3F3831344
:10B230009B1C0C6823440B6008E00B680225146813
:10B2400005EB945423440B6000E000BF00BF0120D5
:10B2500030BD2DE9F04704460E469046002722E017
:10B26000384602F075FC0546384602F078FC814607
:10B270002046294642580AB1012200E0002282B14C
:10B280004846D4F80413014009B1012100E000212F
:10B2900039B12946204602F067FC2846D6E900214C
:10B2A0009047781CC7B24745DADBBDE8F08770B538
:10B2B00005460C464FF48C71284602F003FC38B169
:10B2C0004FF48C71284602F004FC2046FFF7BEFACA
:10B2D00070BD000001460348007A08B101207047A4
:10B2E0000020FCE7844F00202DE9F0410446A088AF
:10B2F00000EB020CB4F80480904501DD104600E03C
:10B30000A088A8EB0005E088C618B4F80680984528
:10B3100001DD184600E0E088A8EB00074888B4F893
:10B320000080404504DB4888B4F80280404502DDD7
:10B330000020BDE8F0818888A84202D38888604553
:10B3400001D90020F5E7C888B84202D3C888B042C6
:10B3500001D90020EDE70120EBE7014601F00300F1
:10B3600008B9012070470020FCE70146086808B1D1
:10B3700002680A607047000010B50848007850B1B4
:10B38000002405E0022C02D02046FDF70FFC641CCF
:10B39000042CF7D301E0FDF735FC10BD344200204A
:10B3A00010B502F06FFC00200149887010BD00004C
:10B3B000044D0020F72101801721418000210171F7
:10B3C0004171FB2181711B21C171704770B54FF430
:10B3D0008041002001F010FE044600BF254625B143
:10B3E00000BF2846FCF72CF800BF00BF01F040FB6F
:10B3F00070BD00002DE9FF4100272E4800F051FAF2
:10B400002C48001F00F04DFA2B48406803902A4852
:10B4100085680398284028490C3101EB800800BF5B
:10B4200003A94046FFF7F2FE30B1039828402249B5
:10B430000C3101EB800800E000E0F1E700BF0024E0
:10B440000AE00398411C284003911B490C3151F834
:10B4500020004DF82400641C022CF2D3009800F068
:10B46000030001280DD0022814D1BDF80670042174
:10B47000009801EB9050401E039901EB900003905F
:10B4800009E0BDF806700098C0F3831003990844E2
:10B49000039000E000BF00BF0648001F00F0FAF96B
:10B4A000064616B1044903984860384604B0BDE822
:10B4B000F0810000385600202052002006F02EF8BF
:10B4C000FFF784FFFFF780FD05F0AEFE04F0CEF835
:10B4D00004F0BEF8FDF70FFBFFF74EFAFFF7C4FAD2
:10B4E00005F09AF8FBF7FAFEFEF7B8F8FBF7D4FA86
:10B4F000FFF7D2F805F078FB0749084A891AC9080E
:10B50000032242EA014006A101F0C8FCFBF728FF34
:10B5100000BFFFF799FCFCE7D42F0300442F030082
:10B520004465627567206C6F6767696E6720666F38
:10B53000722055415254206F766572205254542027
:10B54000737461727465642E000000002DE9F0418F
:10B5500005460E4614469846A888871C2088801CFD
:10B560003844404502D90C20BDE8F081FE2F01D9B6
:10B570000C20F9E7781C218870542088401C20801A
:10B58000FF20218870542088401C20802288911937
:10B59000288806F06FF9218808442080A8880028B0
:10B5A0000DDDA86808B90720DEE7AA882388981966
:10B5B000A968FAF75BFF2088A9880844208000204A
:10B5C000D2E72DE9FF4F87B0044691461E46A246BA
:10B5D0002546BAF806009AF805104843001F069061
:10B5E000BAF806B0301DB0FBFBF00590301DB0FB83
:10B5F000FBF10BFB11000490D9F8000081190698AB
:10B60000814202D90698801B01E0D9F80000074664
:10B61000C9F8007003E02D680598401E0590059854
:10B620000028F8D103900498ABEB0008B84501D985
:10B63000384600E04046804623E0039908980844D5
:10B640000290281D049908440190149828B142469C
:10B65000DDE90110FAF70AFF04E04246DDE90101E5
:10B66000FAF704FF002004902D68A7EB0807039861
:10B6700040440390BB4501D9384600E05846804617
:10B6800000BF002FD9D10BB0BDE8F08F70B50346D5
:10B690000C469CB101F0DCFC054600220AE008489B
:10B6A00000EB820108881E68B04202D11A600020B7
:10B6B00070BD521CAA42F2D30520F9E70020F7E73B
:10B6C000000000002DE9F84F05460F461446984645
:10B6D0002878012804D1687810B90720BDE8F88FD0
:10B6E0002088801C404508D82878012807D1208868
:10B6F000801C69780844404501D90C20EEE7208879
:10B70000A8EB0000801E86B200962188891CC8190B
:10B7100069467DDF814600BF484600B1DEE700BFD5
:10B720002878022804D06878BDF80010884206DB2B
:10B73000BDF80000B04202DC4FF0090A0BE04FF008
:10B74000080A2878012805D16878B04202DC6878B8
:10B75000009000E00096BDF80000FE2801D90C2002
:10B76000BCE7BDF80000401C218878542088401CAC
:10B770002080208807F800A02088401C2080208896
:10B78000BDF80010084420800020A7E770B50446EB
:10B790002046FAF78AFD05460DB1002070BD112044
:10B7A000FCE710B5044609B90E2010BD92FBF3F07A
:10B7B00003FB102008B10920F7E72160002060603A
:10B7C000A060A281E38100BFEFE770B504460D469B
:10B7D00029462046FAF71EFD18B12A8821688818E4
:10B7E00070BD0020FCE770B505460C4620886188D6
:10B7F000884204D12846FAF74FFD012070BD002091
:10B80000FCE770B504460D4629462046FAF727FDA9
:10B8100018B16A882168881870BD0020FCE770B5EF
:10B8200005460C4620886188884204D12846FAF7EC
:10B830000DFD012070BD0020FCE770B505460C46EB
:10B8400004F01F0301229A40D143620905EB8200F4
:10B8500000F040F8064670BD10B50246480952F89F
:10B86000200001F01F040123A340184008B101206B
:10B8700010BD0020FCE770B505460C4604F01F0320
:10B88000012202FA03F1620905EB820000F059F887
:10B89000064670BD10B504460021204600F030F881
:10B8A00010BD10B504460121204600F04AF810BD35
:10B8B00010B504460121204600F02DF810BDF8B562
:10B8C00004460D466A4629462046FAF73AFD0646E2
:10B8D0000098F8BDF8B504460D466A46294620464C
:10B8E000FAF715FD06460098F8BDF8B504460D4672
:10B8F0006A4629462046FAF724FD06463046F8BD3A
:10B90000F8B504460D466A4629462046FAF7FFFC7C
:10B9100006463046F8BDF8B504460D466A46294647
:10B920002046FAF7E7FC06463046F8BDF8B504466F
:10B930000D466A4629462046FAF7D0FC06463046B0
:10B94000F8BDF8B504460D466A4629462046FAF782
:10B95000D1FC06460098F8BDF8B504460D466A4687
:10B9600029462046FAF7FAFC06460098F8BDF8B5D5
:10B9700004460026002000906846FBF7E3FE20689E
:10B9800000686168884215D920680068401E2268F6
:10B9900010600178204600F033F80646207A2168CE
:10B9A0000978401AC5B220680079A84201DA2068F7
:10B9B000057100BF9DF80000FBF7CAFE3046F8BDD8
:10B9C0000246D068081A138AB0FBF3F0C0B2704781
:10B9D000F8B504460D462E46002000906846FBF759
:10B9E000B1FE31462046FFF7EBFF21680A68511C83
:10B9F0002368196010709DF80000FBF7A9FEF8BDE0
:10BA00000246138AD06801FB0300704710B5014657
:10BA100000BF09B90E2010BD00BF087A0B79C01A0B
:10BA2000C2B2D1E90030186005E008680368581C0C
:10BA30000C6820601A70101EA2F10103DAB2F4D172
:10BA40000B68187100BFE6E730B502460B46D40814
:10BA500002F00702012090401D5D284030BD30B546
:10BA60000B46C20800F007009C5C012585402C4372
:10BA70009C5430BD024600BF0AB90E20704700BF7B
:10BA8000172901DBF72901DD0720F7E711800020E6
:10BA9000F4E770B504460E4600BF0CB90E2070BD29
:10BAA00000BF2661F72020806080FB2020710025E8
:10BAB00005E0A11D01EBC500FFF77CFC6D1C002D0E
:10BAC000F7D00020EBE700002DE9F0470646884656
:10BAD0004546B488012C01DBBDE8F0873088242876
